{
  "_format": "hh-sol-artifact-1",
  "contractName": "ClusterSelector",
  "sourceName": "contracts/staking/ClusterSelector.sol",
  "abi": [
    {
      "inputs": [
        {
          "internalType": "uint256",
          "name": "_startTime",
          "type": "uint256"
        },
        {
          "internalType": "uint256",
          "name": "_epochLength",
          "type": "uint256"
        }
      ],
      "stateMutability": "nonpayable",
      "type": "constructor"
    },
    {
      "anonymous": false,
      "inputs": [
        {
          "indexed": false,
          "internalType": "address",
          "name": "previousAdmin",
          "type": "address"
        },
        {
          "indexed": false,
          "internalType": "address",
          "name": "newAdmin",
          "type": "address"
        }
      ],
      "name": "AdminChanged",
      "type": "event"
    },
    {
      "anonymous": false,
      "inputs": [
        {
          "indexed": true,
          "internalType": "address",
          "name": "beacon",
          "type": "address"
        }
      ],
      "name": "BeaconUpgraded",
      "type": "event"
    },
    {
      "anonymous": false,
      "inputs": [
        {
          "indexed": true,
          "internalType": "uint256",
          "name": "epoch",
          "type": "uint256"
        },
        {
          "indexed": true,
          "internalType": "address",
          "name": "cluster",
          "type": "address"
        }
      ],
      "name": "ClusterSelected",
      "type": "event"
    },
    {
      "anonymous": false,
      "inputs": [
        {
          "indexed": false,
          "internalType": "uint8",
          "name": "version",
          "type": "uint8"
        }
      ],
      "name": "Initialized",
      "type": "event"
    },
    {
      "anonymous": false,
      "inputs": [
        {
          "indexed": true,
          "internalType": "bytes32",
          "name": "role",
          "type": "bytes32"
        },
        {
          "indexed": true,
          "internalType": "bytes32",
          "name": "previousAdminRole",
          "type": "bytes32"
        },
        {
          "indexed": true,
          "internalType": "bytes32",
          "name": "newAdminRole",
          "type": "bytes32"
        }
      ],
      "name": "RoleAdminChanged",
      "type": "event"
    },
    {
      "anonymous": false,
      "inputs": [
        {
          "indexed": true,
          "internalType": "bytes32",
          "name": "role",
          "type": "bytes32"
        },
        {
          "indexed": true,
          "internalType": "address",
          "name": "account",
          "type": "address"
        },
        {
          "indexed": true,
          "internalType": "address",
          "name": "sender",
          "type": "address"
        }
      ],
      "name": "RoleGranted",
      "type": "event"
    },
    {
      "anonymous": false,
      "inputs": [
        {
          "indexed": true,
          "internalType": "bytes32",
          "name": "role",
          "type": "bytes32"
        },
        {
          "indexed": true,
          "internalType": "address",
          "name": "account",
          "type": "address"
        },
        {
          "indexed": true,
          "internalType": "address",
          "name": "sender",
          "type": "address"
        }
      ],
      "name": "RoleRevoked",
      "type": "event"
    },
    {
      "anonymous": false,
      "inputs": [
        {
          "indexed": false,
          "internalType": "uint256",
          "name": "newReward",
          "type": "uint256"
        }
      ],
      "name": "UpdateRewardForSelectingTheNodes",
      "type": "event"
    },
    {
      "anonymous": false,
      "inputs": [
        {
          "indexed": true,
          "internalType": "address",
          "name": "implementation",
          "type": "address"
        }
      ],
      "name": "Upgraded",
      "type": "event"
    },
    {
      "inputs": [],
      "name": "DEFAULT_ADMIN_ROLE",
      "outputs": [
        {
          "internalType": "bytes32",
          "name": "",
          "type": "bytes32"
        }
      ],
      "stateMutability": "view",
      "type": "function"
    },
    {
      "inputs": [],
      "name": "EPOCH_LENGTH",
      "outputs": [
        {
          "internalType": "uint256",
          "name": "",
          "type": "uint256"
        }
      ],
      "stateMutability": "view",
      "type": "function"
    },
    {
      "inputs": [],
      "name": "NUMBER_OF_CLUSTERS_TO_SELECT",
      "outputs": [
        {
          "internalType": "uint256",
          "name": "",
          "type": "uint256"
        }
      ],
      "stateMutability": "view",
      "type": "function"
    },
    {
      "inputs": [],
      "name": "REWARD_CONTROLLER_ROLE",
      "outputs": [
        {
          "internalType": "bytes32",
          "name": "",
          "type": "bytes32"
        }
      ],
      "stateMutability": "view",
      "type": "function"
    },
    {
      "inputs": [],
      "name": "START_TIME",
      "outputs": [
        {
          "internalType": "uint256",
          "name": "",
          "type": "uint256"
        }
      ],
      "stateMutability": "view",
      "type": "function"
    },
    {
      "inputs": [],
      "name": "UPDATER_ROLE",
      "outputs": [
        {
          "internalType": "bytes32",
          "name": "",
          "type": "bytes32"
        }
      ],
      "stateMutability": "view",
      "type": "function"
    },
    {
      "inputs": [
        {
          "internalType": "address",
          "name": "",
          "type": "address"
        }
      ],
      "name": "addressToIndexMap",
      "outputs": [
        {
          "internalType": "uint256",
          "name": "",
          "type": "uint256"
        }
      ],
      "stateMutability": "view",
      "type": "function"
    },
    {
      "inputs": [
        {
          "internalType": "address",
          "name": "node",
          "type": "address"
        }
      ],
      "name": "deleteIfPresent",
      "outputs": [],
      "stateMutability": "nonpayable",
      "type": "function"
    },
    {
      "inputs": [
        {
          "internalType": "address",
          "name": "node",
          "type": "address"
        }
      ],
      "name": "delete_unchecked",
      "outputs": [],
      "stateMutability": "nonpayable",
      "type": "function"
    },
    {
      "inputs": [
        {
          "internalType": "address",
          "name": "to",
          "type": "address"
        }
      ],
      "name": "flushReward",
      "outputs": [],
      "stateMutability": "nonpayable",
      "type": "function"
    },
    {
      "inputs": [
        {
          "internalType": "uint256",
          "name": "epochNumber",
          "type": "uint256"
        }
      ],
      "name": "getClusters",
      "outputs": [
        {
          "internalType": "address[]",
          "name": "",
          "type": "address[]"
        }
      ],
      "stateMutability": "view",
      "type": "function"
    },
    {
      "inputs": [],
      "name": "getCurrentEpoch",
      "outputs": [
        {
          "internalType": "uint256",
          "name": "",
          "type": "uint256"
        }
      ],
      "stateMutability": "view",
      "type": "function"
    },
    {
      "inputs": [
        {
          "internalType": "bytes32",
          "name": "role",
          "type": "bytes32"
        }
      ],
      "name": "getRoleAdmin",
      "outputs": [
        {
          "internalType": "bytes32",
          "name": "",
          "type": "bytes32"
        }
      ],
      "stateMutability": "view",
      "type": "function"
    },
    {
      "inputs": [
        {
          "internalType": "bytes32",
          "name": "role",
          "type": "bytes32"
        },
        {
          "internalType": "uint256",
          "name": "index",
          "type": "uint256"
        }
      ],
      "name": "getRoleMember",
      "outputs": [
        {
          "internalType": "address",
          "name": "",
          "type": "address"
        }
      ],
      "stateMutability": "view",
      "type": "function"
    },
    {
      "inputs": [
        {
          "internalType": "bytes32",
          "name": "role",
          "type": "bytes32"
        }
      ],
      "name": "getRoleMemberCount",
      "outputs": [
        {
          "internalType": "uint256",
          "name": "",
          "type": "uint256"
        }
      ],
      "stateMutability": "view",
      "type": "function"
    },
    {
      "inputs": [
        {
          "internalType": "bytes32",
          "name": "role",
          "type": "bytes32"
        },
        {
          "internalType": "address",
          "name": "account",
          "type": "address"
        }
      ],
      "name": "grantRole",
      "outputs": [],
      "stateMutability": "nonpayable",
      "type": "function"
    },
    {
      "inputs": [
        {
          "internalType": "bytes32",
          "name": "role",
          "type": "bytes32"
        },
        {
          "internalType": "address",
          "name": "account",
          "type": "address"
        }
      ],
      "name": "hasRole",
      "outputs": [
        {
          "internalType": "bool",
          "name": "",
          "type": "bool"
        }
      ],
      "stateMutability": "view",
      "type": "function"
    },
    {
      "inputs": [
        {
          "internalType": "uint256",
          "name": "",
          "type": "uint256"
        }
      ],
      "name": "indexToAddressMap",
      "outputs": [
        {
          "internalType": "address",
          "name": "",
          "type": "address"
        }
      ],
      "stateMutability": "view",
      "type": "function"
    },
    {
      "inputs": [
        {
          "internalType": "address",
          "name": "_admin",
          "type": "address"
        },
        {
          "internalType": "address",
          "name": "_updater",
          "type": "address"
        },
        {
          "internalType": "uint256",
          "name": "_rewardForSelectingClusters",
          "type": "uint256"
        }
      ],
      "name": "initialize",
      "outputs": [],
      "stateMutability": "nonpayable",
      "type": "function"
    },
    {
      "inputs": [
        {
          "internalType": "address[]",
          "name": "newNodes",
          "type": "address[]"
        },
        {
          "internalType": "uint64[]",
          "name": "balances",
          "type": "uint64[]"
        }
      ],
      "name": "insertMultiple_unchecked",
      "outputs": [],
      "stateMutability": "nonpayable",
      "type": "function"
    },
    {
      "inputs": [
        {
          "internalType": "address",
          "name": "newNode",
          "type": "address"
        },
        {
          "internalType": "uint64",
          "name": "balance",
          "type": "uint64"
        }
      ],
      "name": "insert_unchecked",
      "outputs": [],
      "stateMutability": "nonpayable",
      "type": "function"
    },
    {
      "inputs": [
        {
          "internalType": "uint256",
          "name": "",
          "type": "uint256"
        }
      ],
      "name": "nodes",
      "outputs": [
        {
          "internalType": "uint64",
          "name": "value",
          "type": "uint64"
        },
        {
          "internalType": "uint64",
          "name": "leftSum",
          "type": "uint64"
        },
        {
          "internalType": "uint64",
          "name": "rightSum",
          "type": "uint64"
        }
      ],
      "stateMutability": "view",
      "type": "function"
    },
    {
      "inputs": [],
      "name": "nodesInTree",
      "outputs": [
        {
          "internalType": "uint256",
          "name": "",
          "type": "uint256"
        }
      ],
      "stateMutability": "view",
      "type": "function"
    },
    {
      "inputs": [],
      "name": "proxiableUUID",
      "outputs": [
        {
          "internalType": "bytes32",
          "name": "",
          "type": "bytes32"
        }
      ],
      "stateMutability": "view",
      "type": "function"
    },
    {
      "inputs": [
        {
          "internalType": "bytes32",
          "name": "role",
          "type": "bytes32"
        },
        {
          "internalType": "address",
          "name": "account",
          "type": "address"
        }
      ],
      "name": "renounceRole",
      "outputs": [],
      "stateMutability": "nonpayable",
      "type": "function"
    },
    {
      "inputs": [
        {
          "internalType": "bytes32",
          "name": "role",
          "type": "bytes32"
        },
        {
          "internalType": "address",
          "name": "account",
          "type": "address"
        }
      ],
      "name": "revokeRole",
      "outputs": [],
      "stateMutability": "nonpayable",
      "type": "function"
    },
    {
      "inputs": [],
      "name": "rewardForSelectingClusters",
      "outputs": [
        {
          "internalType": "uint256",
          "name": "",
          "type": "uint256"
        }
      ],
      "stateMutability": "view",
      "type": "function"
    },
    {
      "inputs": [],
      "name": "selectClusters",
      "outputs": [
        {
          "internalType": "address[]",
          "name": "_selectedClusters",
          "type": "address[]"
        }
      ],
      "stateMutability": "nonpayable",
      "type": "function"
    },
    {
      "inputs": [
        {
          "internalType": "bytes4",
          "name": "interfaceId",
          "type": "bytes4"
        }
      ],
      "name": "supportsInterface",
      "outputs": [
        {
          "internalType": "bool",
          "name": "",
          "type": "bool"
        }
      ],
      "stateMutability": "view",
      "type": "function"
    },
    {
      "inputs": [
        {
          "internalType": "uint256",
          "name": "_epoch",
          "type": "uint256"
        }
      ],
      "name": "updateMissingClusters",
      "outputs": [],
      "stateMutability": "nonpayable",
      "type": "function"
    },
    {
      "inputs": [
        {
          "internalType": "uint256",
          "name": "_reward",
          "type": "uint256"
        }
      ],
      "name": "updateRewardForSelection",
      "outputs": [],
      "stateMutability": "nonpayable",
      "type": "function"
    },
    {
      "inputs": [
        {
          "internalType": "address",
          "name": "node",
          "type": "address"
        },
        {
          "internalType": "uint64",
          "name": "balance",
          "type": "uint64"
        }
      ],
      "name": "update_unchecked",
      "outputs": [],
      "stateMutability": "nonpayable",
      "type": "function"
    },
    {
      "inputs": [
        {
          "internalType": "address",
          "name": "newImplementation",
          "type": "address"
        }
      ],
      "name": "upgradeTo",
      "outputs": [],
      "stateMutability": "nonpayable",
      "type": "function"
    },
    {
      "inputs": [
        {
          "internalType": "address",
          "name": "newImplementation",
          "type": "address"
        },
        {
          "internalType": "bytes",
          "name": "data",
          "type": "bytes"
        }
      ],
      "name": "upgradeToAndCall",
      "outputs": [],
      "stateMutability": "payable",
      "type": "function"
    },
    {
      "inputs": [
        {
          "internalType": "address",
          "name": "newNode",
          "type": "address"
        },
        {
          "internalType": "uint64",
          "name": "balance",
          "type": "uint64"
        }
      ],
      "name": "upsert",
      "outputs": [],
      "stateMutability": "nonpayable",
      "type": "function"
    },
    {
      "inputs": [
        {
          "internalType": "address[]",
          "name": "newNodes",
          "type": "address[]"
        },
        {
          "internalType": "uint64[]",
          "name": "balances",
          "type": "uint64[]"
        }
      ],
      "name": "upsertMultiple",
      "outputs": [],
      "stateMutability": "nonpayable",
      "type": "function"
    },
    {
      "stateMutability": "payable",
      "type": "receive"
    }
  ],
  "bytecode": "0x60e0604052306080523480156200001557600080fd5b5060405162003bb138038062003bb183398101604081905262000038916200017e565b600054610100900460ff1615808015620000595750600054600160ff909116105b8062000089575062000076306200016f60201b620017531760201c565b15801562000089575060005460ff166001145b620000f15760405162461bcd60e51b815260206004820152602e60248201527f496e697469616c697a61626c653a20636f6e747261637420697320616c72656160448201526d191e481a5b9a5d1a585b1a5e995960921b606482015260840160405180910390fd5b6000805460ff19166001179055801562000115576000805461ff0019166101001790555b60a083905260c0829052801562000166576000805461ff0019169055604051600181527f7f26b83ff96e1f2b6a682f133852f6798a09c465da95921460cefb38474024989060200160405180910390a15b505050620001a3565b6001600160a01b03163b151590565b600080604083850312156200019257600080fd5b505080516020909101519092909150565b60805160a05160c0516139b4620001fd60003960008181610666015261147d01526000818161076401526114a1015260008181610b5f01528181610bf501528181610cfc01528181610d920152610e8901526139b46000f3fe6080604052600436106102535760003560e01c80638298e2ba11610138578063ac78129f116100b0578063d547741f1161007f578063d7cd2ced11610064578063d7cd2ced14610732578063ddaa26ad14610752578063ffbfd9b71461078657600080fd5b8063d547741f146106fd578063d77114a51461071d57600080fd5b8063ac78129f14610688578063b53b8c89146106a8578063b97dd9e2146106c8578063ca15c873146106dd57600080fd5b806391674bd911610107578063a217fddf116100ec578063a217fddf14610628578063a4cccf2c1461063d578063ac4746ab1461065457600080fd5b806391674bd9146105c257806391d14854146105e257600080fd5b80638298e2ba146105425780638870ce50146105625780638ebe4170146105825780639010d07c146105a257600080fd5b8063348d61e8116101cb57806347e633801161019a57806352d1902d1161017f57806352d1902d146104eb578063582beda41461050057806367c5bab81461052257600080fd5b806347e63380146104a45780634f1ef286146104d857600080fd5b8063348d61e81461042f57806336568abe1461044f5780633659cfe61461046f5780634146f2691461048f57600080fd5b80631c53c28011610222578063248a9ca311610207578063248a9ca3146103905780632f2ff15d146103c057806332dc9a96146103e057600080fd5b80631c53c280146103255780631e5e32f81461037057600080fd5b806301ffc9a71461025f57806304da78c9146102945780631794bb3c146102d55780631a2c9de7146102f757600080fd5b3661025a57005b600080fd5b34801561026b57600080fd5b5061027f61027a3660046132cf565b6107a6565b60405190151581526020015b60405180910390f35b3480156102a057600080fd5b506102c77e6e215c1c0bfa4e0158d6643d1d6179badf6a95bba870d3598ebc51126fb78d81565b60405190815260200161028b565b3480156102e157600080fd5b506102f56102f036600461332d565b6107b7565b005b34801561030357600080fd5b506102c7610312366004613369565b61012d6020526000908152604090205481565b34801561033157600080fd5b50610345610340366004613384565b6109cb565b6040805167ffffffffffffffff9485168152928416602084015292169181019190915260600161028b565b34801561037c57600080fd5b506102f561038b366004613369565b610a1d565b34801561039c57600080fd5b506102c76103ab366004613384565b60009081526065602052604090206001015490565b3480156103cc57600080fd5b506102f56103db36600461339d565b610a70565b3480156103ec57600080fd5b506104176103fb366004613384565b61012e602052600090815260409020546001600160a01b031681565b6040516001600160a01b03909116815260200161028b565b34801561043b57600080fd5b506102f561044a366004613369565b610a9a565b34801561045b57600080fd5b506102f561046a36600461339d565b610acd565b34801561047b57600080fd5b506102f561048a366004613369565b610b55565b34801561049b57600080fd5b506102c7600581565b3480156104b057600080fd5b506102c77f73e573f9566d61418a34d5de3ff49360f9c51fec37f7486551670290f6285dab81565b6102f56104e63660046133f8565b610cf2565b3480156104f757600080fd5b506102c7610e7c565b34801561050c57600080fd5b50610515610f41565b60405161028b91906134d8565b34801561052e57600080fd5b506102f561053d36600461353d565b61114a565b34801561054e57600080fd5b506102f561055d36600461353d565b61117e565b34801561056e57600080fd5b506102f561057d36600461353d565b6111b2565b34801561058e57600080fd5b506102f561059d3660046135b3565b6111e6565b3480156105ae57600080fd5b506104176105bd36600461361f565b61128b565b3480156105ce57600080fd5b506102f56105dd366004613369565b6112aa565b3480156105ee57600080fd5b5061027f6105fd36600461339d565b60009182526065602090815260408084206001600160a01b0393909316845291905290205460ff1690565b34801561063457600080fd5b506102c7600081565b34801561064957600080fd5b506102c76103545481565b34801561066057600080fd5b506102c77f000000000000000000000000000000000000000000000000000000000000000081565b34801561069457600080fd5b506102f56106a33660046135b3565b611376565b3480156106b457600080fd5b506102f56106c3366004613384565b611413565b3480156106d457600080fd5b506102c7611479565b3480156106e957600080fd5b506102c76106f8366004613384565b6114e0565b34801561070957600080fd5b506102f561071836600461339d565b6114f7565b34801561072957600080fd5b506102c761151c565b34801561073e57600080fd5b5061051561074d366004613384565b61152f565b34801561075e57600080fd5b506102c77f000000000000000000000000000000000000000000000000000000000000000081565b34801561079257600080fd5b506102f56107a1366004613384565b61169b565b60006107b182611762565b92915050565b600054610100900460ff16158080156107d75750600054600160ff909116105b806107f15750303b1580156107f1575060005460ff166001145b6108685760405162461bcd60e51b815260206004820152602e60248201527f496e697469616c697a61626c653a20636f6e747261637420697320616c72656160448201527f647920696e697469616c697a656400000000000000000000000000000000000060648201526084015b60405180910390fd5b600080547fffffffffffffffffffffffffffffffffffffffffffffffffffffffffffffff0016600117905580156108c657600080547fffffffffffffffffffffffffffffffffffffffffffffffffffffffffffff00ff166101001790555b6108ce6117b8565b6108d66117b8565b6108de6117b8565b6108e66117b8565b6108ee6117b8565b6108f66117b8565b6108fe611837565b6109096000856118bc565b6109327e6e215c1c0bfa4e0158d6643d1d6179badf6a95bba870d3598ebc51126fb78d856118bc565b61095c7f73e573f9566d61418a34d5de3ff49360f9c51fec37f7486551670290f6285dab846118bc565b61035482905580156109c557600080547fffffffffffffffffffffffffffffffffffffffffffffffffffffffffffff00ff169055604051600181527f7f26b83ff96e1f2b6a682f133852f6798a09c465da95921460cefb38474024989060200160405180910390a15b50505050565b61012f81815481106109dc57600080fd5b60009182526020909120015467ffffffffffffffff808216925068010000000000000000820481169170010000000000000000000000000000000090041683565b7f73e573f9566d61418a34d5de3ff49360f9c51fec37f7486551670290f6285dab610a47816118c6565b6001600160a01b038216600090815261012d6020526040902054610a6c9083906118d0565b5050565b600082815260656020526040902060010154610a8b816118c6565b610a958383611a5c565b505050565b7f73e573f9566d61418a34d5de3ff49360f9c51fec37f7486551670290f6285dab610ac4816118c6565b610a6c82611a66565b6001600160a01b0381163314610b4b5760405162461bcd60e51b815260206004820152602f60248201527f416363657373436f6e74726f6c3a2063616e206f6e6c792072656e6f756e636560448201527f20726f6c657320666f722073656c660000000000000000000000000000000000606482015260840161085f565b610a6c8282611a96565b6001600160a01b037f0000000000000000000000000000000000000000000000000000000000000000163003610bf35760405162461bcd60e51b815260206004820152602c60248201527f46756e6374696f6e206d7573742062652063616c6c6564207468726f7567682060448201527f64656c656761746563616c6c0000000000000000000000000000000000000000606482015260840161085f565b7f00000000000000000000000000000000000000000000000000000000000000006001600160a01b0316610c4e7f360894a13ba1a3210667c828492db98dca3e2076cc3735a920a3ca505d382bbc546001600160a01b031690565b6001600160a01b031614610cca5760405162461bcd60e51b815260206004820152602c60248201527f46756e6374696f6e206d7573742062652063616c6c6564207468726f7567682060448201527f6163746976652070726f78790000000000000000000000000000000000000000606482015260840161085f565b610cd381611af9565b60408051600080825260208201909252610cef91839190611b04565b50565b6001600160a01b037f0000000000000000000000000000000000000000000000000000000000000000163003610d905760405162461bcd60e51b815260206004820152602c60248201527f46756e6374696f6e206d7573742062652063616c6c6564207468726f7567682060448201527f64656c656761746563616c6c0000000000000000000000000000000000000000606482015260840161085f565b7f00000000000000000000000000000000000000000000000000000000000000006001600160a01b0316610deb7f360894a13ba1a3210667c828492db98dca3e2076cc3735a920a3ca505d382bbc546001600160a01b031690565b6001600160a01b031614610e675760405162461bcd60e51b815260206004820152602c60248201527f46756e6374696f6e206d7573742062652063616c6c6564207468726f7567682060448201527f6163746976652070726f78790000000000000000000000000000000000000000606482015260840161085f565b610e7082611af9565b610a6c82826001611b04565b6000306001600160a01b037f00000000000000000000000000000000000000000000000000000000000000001614610f1c5760405162461bcd60e51b815260206004820152603860248201527f555550535570677261646561626c653a206d757374206e6f742062652063616c60448201527f6c6564207468726f7567682064656c656761746563616c6c0000000000000000606482015260840161085f565b507f360894a13ba1a3210667c828492db98dca3e2076cc3735a920a3ca505d382bbc90565b60606000610f4d611479565b610f58906001613670565b600081815261035360209081526040918290208054835181840281018401909452808452939450919290830182828015610fbb57602002820191906000526020600020905b81546001600160a01b03168152600190910190602001808311610f9d575b5050505050915081516000146110135760405162461bcd60e51b815260206004820152601660248201527f43533a53432d416c72656164792073656c656374656400000000000000000000604482015260640161085f565b6000611020600143613683565b604080519140602083015242908201526060016040516020818303038152906040528051906020012060001c9050611059816005611cc2565b925082516000036110ac5760405162461bcd60e51b815260206004820152601960248201527f43533a53432d4e6f20636c75737465722073656c656374656400000000000000604482015260640161085f565b60008281526103536020908152604090912084516110cc928601906131fd565b5060005b835181101561113b578381815181106110eb576110eb613696565b60200260200101516001600160a01b0316837f3eab2ebcc6e521dc4fa7d2a04c29e41da885de5dc6137565e93ff9966bfd145660405160405180910390a380611133816136c5565b9150506110d0565b5061114533611f3d565b505090565b7f73e573f9566d61418a34d5de3ff49360f9c51fec37f7486551670290f6285dab611174816118c6565b610a958383611f7e565b7f73e573f9566d61418a34d5de3ff49360f9c51fec37f7486551670290f6285dab6111a8816118c6565b610a958383611fb4565b7f73e573f9566d61418a34d5de3ff49360f9c51fec37f7486551670290f6285dab6111dc816118c6565b610a958383611fd8565b7f73e573f9566d61418a34d5de3ff49360f9c51fec37f7486551670290f6285dab611210816118c6565b60005b848110156112835761127186868381811061123057611230613696565b90506020020160208101906112459190613369565b85858481811061125757611257613696565b905060200201602081019061126c91906136fd565b611f7e565b8061127b816136c5565b915050611213565b505050505050565b60008281526097602052604081206112a3908361210d565b9392505050565b7e6e215c1c0bfa4e0158d6643d1d6179badf6a95bba870d3598ebc51126fb78d6112d3816118c6565b6000826001600160a01b03164760405160006040518083038185875af1925050503d8060008114611320576040519150601f19603f3d011682016040523d82523d6000602084013e611325565b606091505b5050905080610a955760405162461bcd60e51b815260206004820152601c60248201527f43533a46522d466c757368696e6720726577617264206661696c656400000000604482015260640161085f565b7f73e573f9566d61418a34d5de3ff49360f9c51fec37f7486551670290f6285dab6113a0816118c6565b60005b84811015611283576114018686838181106113c0576113c0613696565b90506020020160208101906113d59190613369565b8585848181106113e7576113e7613696565b90506020020160208101906113fc91906136fd565b611fd8565b8061140b816136c5565b9150506113a3565b600061141d611479565b90508082111561146f5760405162461bcd60e51b815260206004820152601b60248201527f63616e6e6f7420757064617465206675747572652065706f6368730000000000604482015260640161085f565b610a6c8283612119565b60007f00000000000000000000000000000000000000000000000000000000000000006114c67f000000000000000000000000000000000000000000000000000000000000000042613683565b6114d09190613747565b6114db906001613670565b905090565b60008181526097602052604081206107b19061216f565b600082815260656020526040902060010154611512816118c6565b610a958383611a96565b61012f546000906114db90600190613683565b6060600061153b611479565b611546906001613670565b9050808311156040518060400160405280600181526020017f3600000000000000000000000000000000000000000000000000000000000000815250906115a05760405162461bcd60e51b815260040161085f919061377f565b50600183116115bf575050604080516000815260208101909152919050565b6000838152610353602090815260408083208054825181850281018501909352808352919290919083018282801561162057602002820191906000526020600020905b81546001600160a01b03168152600190910190602001808311611602575b5050505050905080516000036112a35760408051808201909152600181527f360000000000000000000000000000000000000000000000000000000000000060208201528483036116845760405162461bcd60e51b815260040161085f919061377f565b5061169361074d600186613683565b949350505050565b7e6e215c1c0bfa4e0158d6643d1d6179badf6a95bba870d3598ebc51126fb78d6116c4816118c6565b6103545482036117165760405162461bcd60e51b815260206004820152600d60248201527f5570646174652072657761726400000000000000000000000000000000000000604482015260640161085f565b6103548290556040518281527feaccfa12bf1679b597f3e8bcc9deea0f8d4e449d3dce7fcb141a20bb0cc3968b9060200160405180910390a15050565b6001600160a01b03163b151590565b60007fffffffff0000000000000000000000000000000000000000000000000000000082167f5a05180f0000000000000000000000000000000000000000000000000000000014806107b157506107b182612179565b600054610100900460ff166118355760405162461bcd60e51b815260206004820152602b60248201527f496e697469616c697a61626c653a20636f6e7472616374206973206e6f74206960448201527f6e697469616c697a696e67000000000000000000000000000000000000000000606482015260840161085f565b565b600054610100900460ff166118b45760405162461bcd60e51b815260206004820152602b60248201527f496e697469616c697a61626c653a20636f6e7472616374206973206e6f74206960448201527f6e697469616c697a696e67000000000000000000000000000000000000000000606482015260840161085f565b611835612210565b610a6c8282611a5c565b610cef8133612344565b61012f546000906118e390600190613683565b600081815261012e602052604081205461012f80549394506001600160a01b03909116928490811061191757611917613696565b60009182526020909120015467ffffffffffffffff16905061193983826123d7565b82841461199e5761194a848261254a565b600084815261012e6020908152604080832080547fffffffffffffffffffffffff0000000000000000000000000000000000000000166001600160a01b038716908117909155835261012d90915290208490555b600083815261012e6020908152604080832080547fffffffffffffffffffffffff00000000000000000000000000000000000000001690556001600160a01b038816835261012d90915281205561012f8054806119fd576119fd6137d0565b60008281526020902081017fffffffffffffffffffffffffffffffffffffffffffffffffffffffffffffffff90810180547fffffffffffffffff0000000000000000000000000000000000000000000000001690550190555050505050565b610a6c82826125a8565b6001600160a01b038116600090815261012d602052604081205490819003611a8c575050565b610a6c82826118d0565b611aa082826125ca565b611aaa60006114e0565b600003610a6c5760405162461bcd60e51b815260206004820152601360248201527f43616e6e6f742062652061646d696e6c65737300000000000000000000000000604482015260640161085f565b6000610a6c816118c6565b7f4910fdfa16fed3260ed0e7147f7cc6da11a60208b5b9406d12a635614ffd91435460ff1615611b3757610a95836125ec565b826001600160a01b03166352d1902d6040518163ffffffff1660e01b8152600401602060405180830381865afa925050508015611baf575060408051601f3d9081017fffffffffffffffffffffffffffffffffffffffffffffffffffffffffffffffe0168201909252611bac918101906137ff565b60015b611c215760405162461bcd60e51b815260206004820152602e60248201527f45524331393637557067726164653a206e657720696d706c656d656e7461746960448201527f6f6e206973206e6f742055555053000000000000000000000000000000000000606482015260840161085f565b7f360894a13ba1a3210667c828492db98dca3e2076cc3735a920a3ca505d382bbc8114611cb65760405162461bcd60e51b815260206004820152602960248201527f45524331393637557067726164653a20756e737570706f727465642070726f7860448201527f6961626c65555549440000000000000000000000000000000000000000000000606482015260840161085f565b50610a958383836126c2565b61012f54606090600090611cd890600190613683565b905080831115611ce6578092505b82600003611d045750506040805160008152602081019091526107b1565b6060604051610a8081016040525060538152600061012f600181548110611d2d57611d2d613696565b600091825260208083206040805160608082018352929094015467ffffffffffffffff80821686526801000000000000000082048116868601527001000000000000000000000000000000009091041684820152805160c08101825260018082529381018690529081018590529081018490526080810184905260a0810193909352845191935084918110611dc457611dc4613696565b60200260200101819052506000600190506000826000015167ffffffffffffffff169050826040015183602001510167ffffffffffffffff168101905060008767ffffffffffffffff811115611e1c57611e1c6133c9565b604051908082528060200260200182016040528015611e45578160200160208202803683370190505b50965060005b88811015611f305760408051602081018c9052908101829052606001604080517fffffffffffffffffffffffffffffffffffffffffffffffffffffffffffffffe0818403018152919052805160209091012099506000611eab8385613683565b611eb5908c613818565b9050600080611ec96001848b60018b6126e7565b63ffffffff8316600090815261012e60205260409020548e51919a509294509092506001600160a01b03909116908c9086908110611f0957611f09613696565b6001600160a01b039092166020928302919091019091015293909301925050600101611e4b565b5050505050505092915050565b610354548015801590611f505750804710155b15610a6c576040516001600160a01b0383169082156108fc029083906000818181858888f150505050505050565b6001600160a01b038216600090815261012d602052604081205490819003611faa57610a958383611fd8565b610a95818361254a565b6001600160a01b038216600090815261012d6020526040902054610a6c908261254a565b61012f8054604080516060810182526000808252602080830182815283850183815260018701885596835292517f232da9e50dad2971456a78fb5cd6ff6b75019984d6e918139ce990999420f979860180549451975167ffffffffffffffff908116700100000000000000000000000000000000027fffffffffffffffff0000000000000000ffffffffffffffffffffffffffffffff99821668010000000000000000027fffffffffffffffffffffffffffffffff0000000000000000000000000000000090971693909116929092179490941796909616959095179091556001600160a01b03861680825261012d855282822084905583825261012e9094522080547fffffffffffffffffffffffff000000000000000000000000000000000000000016909217909155610a9581836128b3565b60006112a38383612a26565b81600003612125575050565b600082815261035360205260409020541561215b576000828152610353602052604080822083835291208154610a95929061327a565b610a6c612169600184613683565b82612119565b60006107b1825490565b60007fffffffff0000000000000000000000000000000000000000000000000000000082167f7965db0b0000000000000000000000000000000000000000000000000000000014806107b157507f01ffc9a7000000000000000000000000000000000000000000000000000000007fffffffff000000000000000000000000000000000000000000000000000000008316146107b1565b61012f5460408051808201909152600181527f3500000000000000000000000000000000000000000000000000000000000000602082015290156122675760405162461bcd60e51b815260040161085f919061377f565b506040805160608101825260008082526020820181815292820181815261012f8054600181018255925291517f232da9e50dad2971456a78fb5cd6ff6b75019984d6e918139ce990999420f97990910180549351925167ffffffffffffffff908116700100000000000000000000000000000000027fffffffffffffffff0000000000000000ffffffffffffffffffffffffffffffff94821668010000000000000000027fffffffffffffffffffffffffffffffff0000000000000000000000000000000090961693909116929092179390931791909116179055565b60008281526065602090815260408083206001600160a01b038516845290915290205460ff16610a6c5761237781612a50565b612382836020612a62565b60405160200161239392919061382c565b604080517fffffffffffffffffffffffffffffffffffffffffffffffffffffffffffffffe08184030181529082905262461bcd60e51b825261085f9160040161377f565b8061012f83815481106123ec576123ec613696565b60009182526020822001805490919061241090849067ffffffffffffffff166138ad565b92506101000a81548167ffffffffffffffff021916908367ffffffffffffffff1602179055505b6001821115610a6c57600061244d600284613818565b600193841c93901591508190036124cf578161012f848154811061247357612473613696565b600091825260209091200180546008906124a490849068010000000000000000900467ffffffffffffffff166138ad565b92506101000a81548167ffffffffffffffff021916908367ffffffffffffffff160217905550612544565b8161012f84815481106124e4576124e4613696565b6000918252602090912001805460109061251d908490700100000000000000000000000000000000900467ffffffffffffffff166138ad565b92506101000a81548167ffffffffffffffff021916908367ffffffffffffffff1602179055505b50612437565b600061012f838154811061256057612560613696565b60009182526020909120015467ffffffffffffffff90811691508216811061259557610a958361259084846138ad565b6123d7565b610a95836125a383856138ad565b6128b3565b6125b28282612c8b565b6000828152609760205260409020610a959082612d4b565b6125d48282612d60565b6000828152609760205260409020610a959082612e01565b6001600160a01b0381163b6126695760405162461bcd60e51b815260206004820152602d60248201527f455243313936373a206e657720696d706c656d656e746174696f6e206973206e60448201527f6f74206120636f6e747261637400000000000000000000000000000000000000606482015260840161085f565b7f360894a13ba1a3210667c828492db98dca3e2076cc3735a920a3ca505d382bbc80547fffffffffffffffffffffffff0000000000000000000000000000000000000000166001600160a01b0392909216919091179055565b6126cb83612e16565b6000825111806126d85750805b15610a95576109c58383612e56565b60008060008061012f898154811061270157612701613696565b600091825260208083206040805160608082018352929094015467ffffffffffffffff80821686526801000000000000000082048116868601527001000000000000000000000000000000009091041684820152805160c081018252858152928301859052820184905281018390526080810183905260a081019290925291506020820151825167ffffffffffffffff9182169116810188156127d7578989815181106127b0576127b0613696565b60200260200101519250826060015182039150826020015183606001510181039050612805565b8b8352895160019098019850889783908b908a9081106127f9576127f9613696565b60200260200101819052505b818b101580156128145750808b105b1561286b57836000015167ffffffffffffffff168a8a8151811061283a5761283a613696565b60209081029190910181015101805190910190525050905189945067ffffffffffffffff1692508491506128a89050565b818b1015612894576128858c8c8c86604001518d8d612f61565b965096509650505050506128a8565b6128858c828d038c86608001518d8d612fea565b955095509592505050565b8061012f83815481106128c8576128c8613696565b6000918252602082200180549091906128ec90849067ffffffffffffffff166138ce565b92506101000a81548167ffffffffffffffff021916908367ffffffffffffffff1602179055505b6001821115610a6c576000612929600284613818565b600193841c93901591508190036129ab578161012f848154811061294f5761294f613696565b6000918252602090912001805460089061298090849068010000000000000000900467ffffffffffffffff166138ce565b92506101000a81548167ffffffffffffffff021916908367ffffffffffffffff160217905550612a20565b8161012f84815481106129c0576129c0613696565b600091825260209091200180546010906129f9908490700100000000000000000000000000000000900467ffffffffffffffff166138ce565b92506101000a81548167ffffffffffffffff021916908367ffffffffffffffff1602179055505b50612913565b6000826000018281548110612a3d57612a3d613696565b9060005260206000200154905092915050565b60606107b16001600160a01b03831660145b60606000612a718360026138ef565b612a7c906002613670565b67ffffffffffffffff811115612a9457612a946133c9565b6040519080825280601f01601f191660200182016040528015612abe576020820181803683370190505b5090507f300000000000000000000000000000000000000000000000000000000000000081600081518110612af557612af5613696565b60200101907effffffffffffffffffffffffffffffffffffffffffffffffffffffffffffff1916908160001a9053507f780000000000000000000000000000000000000000000000000000000000000081600181518110612b5857612b58613696565b60200101907effffffffffffffffffffffffffffffffffffffffffffffffffffffffffffff1916908160001a9053506000612b948460026138ef565b612b9f906001613670565b90505b6001811115612c3c577f303132333435363738396162636465660000000000000000000000000000000085600f1660108110612be057612be0613696565b1a60f81b828281518110612bf657612bf6613696565b60200101907effffffffffffffffffffffffffffffffffffffffffffffffffffffffffffff1916908160001a90535060049490941c93612c3581613906565b9050612ba2565b5083156112a35760405162461bcd60e51b815260206004820181905260248201527f537472696e67733a20686578206c656e67746820696e73756666696369656e74604482015260640161085f565b60008281526065602090815260408083206001600160a01b038516845290915290205460ff16610a6c5760008281526065602090815260408083206001600160a01b0385168452909152902080547fffffffffffffffffffffffffffffffffffffffffffffffffffffffffffffff00166001179055612d073390565b6001600160a01b0316816001600160a01b0316837f2f8788117e7eff1d82e926ec794901d17c78024a50270940304540a733656f0d60405160405180910390a45050565b60006112a3836001600160a01b038416613076565b60008281526065602090815260408083206001600160a01b038516845290915290205460ff1615610a6c5760008281526065602090815260408083206001600160a01b038516808552925280832080547fffffffffffffffffffffffffffffffffffffffffffffffffffffffffffffff0016905551339285917ff6391f5c32d9c69d2a47ea670b442974b53935d1edc7fd64eb21e047a839171b9190a45050565b60006112a3836001600160a01b0384166130c5565b612e1f816125ec565b6040516001600160a01b038216907fbc7cd75a20ee27fd9adebab32041f755214dbc6bffa90cc0225b39da2e5c2d3b90600090a250565b60606001600160a01b0383163b612ed55760405162461bcd60e51b815260206004820152602660248201527f416464726573733a2064656c65676174652063616c6c20746f206e6f6e2d636f60448201527f6e74726163740000000000000000000000000000000000000000000000000000606482015260840161085f565b600080846001600160a01b031684604051612ef0919061393b565b600060405180830381855af49150503d8060008114612f2b576040519150601f19603f3d011682016040523d82523d6000602084013e612f30565b606091505b5091509150612f588282604051806060016040528060278152602001613958602791396131bf565b95945050505050565b600080600080600080612f7a8c6002028c8c8c8b6126e7565b92509250925088600003612faf57866001018a8981518110612f9e57612f9e613696565b602002602001015160400181815250505b818a8981518110612fc257612fc2613696565b6020908102919091010151606001805190910190529194509250905096509650969350505050565b6000806000806000806130068c6002026001018c8c8c8b6126e7565b9250925092508860000361303b57866001018a898151811061302a5761302a613696565b602002602001015160800181815250505b818a898151811061304e5761304e613696565b602090810291909101015160a001805190910190529194509250905096509650969350505050565b60008181526001830160205260408120546130bd575081546001818101845560008481526020808220909301849055845484825282860190935260409020919091556107b1565b5060006107b1565b600081815260018301602052604081205480156131ae5760006130e9600183613683565b85549091506000906130fd90600190613683565b905081811461316257600086600001828154811061311d5761311d613696565b906000526020600020015490508087600001848154811061314057613140613696565b6000918252602080832090910192909255918252600188019052604090208390555b8554869080613173576131736137d0565b6001900381819060005260206000200160009055905585600101600086815260200190815260200160002060009055600193505050506107b1565b60009150506107b1565b5092915050565b606083156131ce5750816112a3565b6112a383838151156131e35781518083602001fd5b8060405162461bcd60e51b815260040161085f919061377f565b82805482825590600052602060002090810192821561326a579160200282015b8281111561326a57825182547fffffffffffffffffffffffff0000000000000000000000000000000000000000166001600160a01b0390911617825560209092019160019091019061321d565b506132769291506132ba565b5090565b82805482825590600052602060002090810192821561326a5760005260206000209182015b8281111561326a57825482559160010191906001019061329f565b5b8082111561327657600081556001016132bb565b6000602082840312156132e157600080fd5b81357fffffffff00000000000000000000000000000000000000000000000000000000811681146112a357600080fd5b80356001600160a01b038116811461332857600080fd5b919050565b60008060006060848603121561334257600080fd5b61334b84613311565b925061335960208501613311565b9150604084013590509250925092565b60006020828403121561337b57600080fd5b6112a382613311565b60006020828403121561339657600080fd5b5035919050565b600080604083850312156133b057600080fd5b823591506133c060208401613311565b90509250929050565b7f4e487b7100000000000000000000000000000000000000000000000000000000600052604160045260246000fd5b6000806040838503121561340b57600080fd5b61341483613311565b9150602083013567ffffffffffffffff8082111561343157600080fd5b818501915085601f83011261344557600080fd5b813581811115613457576134576133c9565b604051601f82017fffffffffffffffffffffffffffffffffffffffffffffffffffffffffffffffe0908116603f0116810190838211818310171561349d5761349d6133c9565b816040528281528860208487010111156134b657600080fd5b8260208601602083013760006020848301015280955050505050509250929050565b6020808252825182820181905260009190848201906040850190845b818110156135195783516001600160a01b0316835292840192918401916001016134f4565b50909695505050505050565b803567ffffffffffffffff8116811461332857600080fd5b6000806040838503121561355057600080fd5b61355983613311565b91506133c060208401613525565b60008083601f84011261357957600080fd5b50813567ffffffffffffffff81111561359157600080fd5b6020830191508360208260051b85010111156135ac57600080fd5b9250929050565b600080600080604085870312156135c957600080fd5b843567ffffffffffffffff808211156135e157600080fd5b6135ed88838901613567565b9096509450602087013591508082111561360657600080fd5b5061361387828801613567565b95989497509550505050565b6000806040838503121561363257600080fd5b50508035926020909101359150565b7f4e487b7100000000000000000000000000000000000000000000000000000000600052601160045260246000fd5b808201808211156107b1576107b1613641565b818103818111156107b1576107b1613641565b7f4e487b7100000000000000000000000000000000000000000000000000000000600052603260045260246000fd5b60007fffffffffffffffffffffffffffffffffffffffffffffffffffffffffffffffff82036136f6576136f6613641565b5060010190565b60006020828403121561370f57600080fd5b6112a382613525565b7f4e487b7100000000000000000000000000000000000000000000000000000000600052601260045260246000fd5b60008261375657613756613718565b500490565b60005b8381101561377657818101518382015260200161375e565b50506000910152565b602081526000825180602084015261379e81604085016020870161375b565b601f017fffffffffffffffffffffffffffffffffffffffffffffffffffffffffffffffe0169190910160400192915050565b7f4e487b7100000000000000000000000000000000000000000000000000000000600052603160045260246000fd5b60006020828403121561381157600080fd5b5051919050565b60008261382757613827613718565b500690565b7f416363657373436f6e74726f6c3a206163636f756e742000000000000000000081526000835161386481601785016020880161375b565b7f206973206d697373696e6720726f6c652000000000000000000000000000000060179184019182015283516138a181602884016020880161375b565b01602801949350505050565b67ffffffffffffffff8281168282160390808211156131b8576131b8613641565b67ffffffffffffffff8181168382160190808211156131b8576131b8613641565b80820281158282048414176107b1576107b1613641565b60008161391557613915613641565b507fffffffffffffffffffffffffffffffffffffffffffffffffffffffffffffffff0190565b6000825161394d81846020870161375b565b919091019291505056fe416464726573733a206c6f772d6c6576656c2064656c65676174652063616c6c206661696c6564a2646970667358221220bbf6fb2a24a278e30160532d0af82736c09f8d51d242efa4e30c3c56cf65fa7164736f6c63430008110033",
  "linkReferences": {},
  "deployedLinkReferences": {}
}