{
  "_format": "hh-sol-artifact-1",
  "contractName": "ClusterRegistry",
  "sourceName": "contracts/staking/ClusterRegistry.sol",
  "abi": [
    {
      "inputs": [],
      "stateMutability": "nonpayable",
      "type": "constructor"
    },
    {
      "anonymous": false,
      "inputs": [
        {
          "indexed": false,
          "internalType": "address",
          "name": "previousAdmin",
          "type": "address"
        },
        {
          "indexed": false,
          "internalType": "address",
          "name": "newAdmin",
          "type": "address"
        }
      ],
      "name": "AdminChanged",
      "type": "event"
    },
    {
      "anonymous": false,
      "inputs": [
        {
          "indexed": true,
          "internalType": "address",
          "name": "beacon",
          "type": "address"
        }
      ],
      "name": "BeaconUpgraded",
      "type": "event"
    },
    {
      "anonymous": false,
      "inputs": [
        {
          "indexed": true,
          "internalType": "address",
          "name": "cluster",
          "type": "address"
        },
        {
          "indexed": false,
          "internalType": "address",
          "name": "clientKey",
          "type": "address"
        }
      ],
      "name": "ClientKeyUpdated",
      "type": "event"
    },
    {
      "anonymous": false,
      "inputs": [
        {
          "indexed": true,
          "internalType": "address",
          "name": "cluster",
          "type": "address"
        },
        {
          "indexed": true,
          "internalType": "bytes32",
          "name": "networkId",
          "type": "bytes32"
        },
        {
          "indexed": false,
          "internalType": "uint256",
          "name": "commission",
          "type": "uint256"
        },
        {
          "indexed": false,
          "internalType": "address",
          "name": "rewardAddress",
          "type": "address"
        },
        {
          "indexed": false,
          "internalType": "address",
          "name": "clientKey",
          "type": "address"
        }
      ],
      "name": "ClusterRegistered",
      "type": "event"
    },
    {
      "anonymous": false,
      "inputs": [
        {
          "indexed": true,
          "internalType": "address",
          "name": "cluster",
          "type": "address"
        },
        {
          "indexed": false,
          "internalType": "uint256",
          "name": "effectiveBlock",
          "type": "uint256"
        }
      ],
      "name": "ClusterUnregisterRequested",
      "type": "event"
    },
    {
      "anonymous": false,
      "inputs": [
        {
          "indexed": true,
          "internalType": "address",
          "name": "cluster",
          "type": "address"
        },
        {
          "indexed": false,
          "internalType": "uint256",
          "name": "updatedAt",
          "type": "uint256"
        }
      ],
      "name": "ClusterUnregistered",
      "type": "event"
    },
    {
      "anonymous": false,
      "inputs": [
        {
          "indexed": true,
          "internalType": "address",
          "name": "cluster",
          "type": "address"
        },
        {
          "indexed": false,
          "internalType": "uint256",
          "name": "commissionAfterUpdate",
          "type": "uint256"
        },
        {
          "indexed": false,
          "internalType": "uint256",
          "name": "effectiveBlock",
          "type": "uint256"
        }
      ],
      "name": "CommissionUpdateRequested",
      "type": "event"
    },
    {
      "anonymous": false,
      "inputs": [
        {
          "indexed": true,
          "internalType": "address",
          "name": "cluster",
          "type": "address"
        },
        {
          "indexed": false,
          "internalType": "uint256",
          "name": "updatedCommission",
          "type": "uint256"
        },
        {
          "indexed": false,
          "internalType": "uint256",
          "name": "updatedAt",
          "type": "uint256"
        }
      ],
      "name": "CommissionUpdated",
      "type": "event"
    },
    {
      "anonymous": false,
      "inputs": [
        {
          "indexed": true,
          "internalType": "bytes32",
          "name": "selector",
          "type": "bytes32"
        },
        {
          "indexed": false,
          "internalType": "uint256",
          "name": "prevLockTime",
          "type": "uint256"
        },
        {
          "indexed": false,
          "internalType": "uint256",
          "name": "updatedLockTime",
          "type": "uint256"
        }
      ],
      "name": "LockTimeUpdated",
      "type": "event"
    },
    {
      "anonymous": false,
      "inputs": [
        {
          "indexed": true,
          "internalType": "address",
          "name": "cluster",
          "type": "address"
        },
        {
          "indexed": true,
          "internalType": "bytes32",
          "name": "networkId",
          "type": "bytes32"
        },
        {
          "indexed": false,
          "internalType": "uint256",
          "name": "effectiveBlock",
          "type": "uint256"
        }
      ],
      "name": "NetworkSwitchRequested",
      "type": "event"
    },
    {
      "anonymous": false,
      "inputs": [
        {
          "indexed": true,
          "internalType": "address",
          "name": "cluster",
          "type": "address"
        },
        {
          "indexed": true,
          "internalType": "bytes32",
          "name": "networkId",
          "type": "bytes32"
        },
        {
          "indexed": false,
          "internalType": "uint256",
          "name": "updatedAt",
          "type": "uint256"
        }
      ],
      "name": "NetworkSwitched",
      "type": "event"
    },
    {
      "anonymous": false,
      "inputs": [
        {
          "indexed": true,
          "internalType": "address",
          "name": "cluster",
          "type": "address"
        },
        {
          "indexed": false,
          "internalType": "address",
          "name": "updatedRewardAddress",
          "type": "address"
        }
      ],
      "name": "RewardAddressUpdated",
      "type": "event"
    },
    {
      "anonymous": false,
      "inputs": [
        {
          "indexed": true,
          "internalType": "bytes32",
          "name": "role",
          "type": "bytes32"
        },
        {
          "indexed": true,
          "internalType": "bytes32",
          "name": "previousAdminRole",
          "type": "bytes32"
        },
        {
          "indexed": true,
          "internalType": "bytes32",
          "name": "newAdminRole",
          "type": "bytes32"
        }
      ],
      "name": "RoleAdminChanged",
      "type": "event"
    },
    {
      "anonymous": false,
      "inputs": [
        {
          "indexed": true,
          "internalType": "bytes32",
          "name": "role",
          "type": "bytes32"
        },
        {
          "indexed": true,
          "internalType": "address",
          "name": "account",
          "type": "address"
        },
        {
          "indexed": true,
          "internalType": "address",
          "name": "sender",
          "type": "address"
        }
      ],
      "name": "RoleGranted",
      "type": "event"
    },
    {
      "anonymous": false,
      "inputs": [
        {
          "indexed": true,
          "internalType": "bytes32",
          "name": "role",
          "type": "bytes32"
        },
        {
          "indexed": true,
          "internalType": "address",
          "name": "account",
          "type": "address"
        },
        {
          "indexed": true,
          "internalType": "address",
          "name": "sender",
          "type": "address"
        }
      ],
      "name": "RoleRevoked",
      "type": "event"
    },
    {
      "anonymous": false,
      "inputs": [
        {
          "indexed": true,
          "internalType": "address",
          "name": "implementation",
          "type": "address"
        }
      ],
      "name": "Upgraded",
      "type": "event"
    },
    {
      "inputs": [],
      "name": "DEFAULT_ADMIN_ROLE",
      "outputs": [
        {
          "internalType": "bytes32",
          "name": "",
          "type": "bytes32"
        }
      ],
      "stateMutability": "view",
      "type": "function"
    },
    {
      "inputs": [
        {
          "internalType": "address",
          "name": "",
          "type": "address"
        }
      ],
      "name": "clientKeys",
      "outputs": [
        {
          "internalType": "address",
          "name": "",
          "type": "address"
        }
      ],
      "stateMutability": "view",
      "type": "function"
    },
    {
      "inputs": [
        {
          "internalType": "address",
          "name": "_cluster",
          "type": "address"
        }
      ],
      "name": "getClientKey",
      "outputs": [
        {
          "internalType": "address",
          "name": "",
          "type": "address"
        }
      ],
      "stateMutability": "view",
      "type": "function"
    },
    {
      "inputs": [
        {
          "internalType": "address",
          "name": "_cluster",
          "type": "address"
        }
      ],
      "name": "getCluster",
      "outputs": [
        {
          "internalType": "uint256",
          "name": "commission",
          "type": "uint256"
        },
        {
          "internalType": "address",
          "name": "rewardAddress",
          "type": "address"
        },
        {
          "internalType": "address",
          "name": "clientKey",
          "type": "address"
        },
        {
          "internalType": "bytes32",
          "name": "networkId",
          "type": "bytes32"
        },
        {
          "internalType": "bool",
          "name": "isValidCluster",
          "type": "bool"
        }
      ],
      "stateMutability": "nonpayable",
      "type": "function"
    },
    {
      "inputs": [
        {
          "internalType": "address",
          "name": "_cluster",
          "type": "address"
        }
      ],
      "name": "getCommission",
      "outputs": [
        {
          "internalType": "uint256",
          "name": "",
          "type": "uint256"
        }
      ],
      "stateMutability": "nonpayable",
      "type": "function"
    },
    {
      "inputs": [
        {
          "internalType": "address",
          "name": "_cluster",
          "type": "address"
        }
      ],
      "name": "getNetwork",
      "outputs": [
        {
          "internalType": "bytes32",
          "name": "",
          "type": "bytes32"
        }
      ],
      "stateMutability": "nonpayable",
      "type": "function"
    },
    {
      "inputs": [
        {
          "internalType": "address",
          "name": "_cluster",
          "type": "address"
        }
      ],
      "name": "getRewardAddress",
      "outputs": [
        {
          "internalType": "address",
          "name": "",
          "type": "address"
        }
      ],
      "stateMutability": "view",
      "type": "function"
    },
    {
      "inputs": [
        {
          "internalType": "address",
          "name": "_cluster",
          "type": "address"
        }
      ],
      "name": "getRewardInfo",
      "outputs": [
        {
          "internalType": "uint256",
          "name": "",
          "type": "uint256"
        },
        {
          "internalType": "address",
          "name": "",
          "type": "address"
        }
      ],
      "stateMutability": "nonpayable",
      "type": "function"
    },
    {
      "inputs": [
        {
          "internalType": "bytes32",
          "name": "role",
          "type": "bytes32"
        }
      ],
      "name": "getRoleAdmin",
      "outputs": [
        {
          "internalType": "bytes32",
          "name": "",
          "type": "bytes32"
        }
      ],
      "stateMutability": "view",
      "type": "function"
    },
    {
      "inputs": [
        {
          "internalType": "bytes32",
          "name": "role",
          "type": "bytes32"
        },
        {
          "internalType": "uint256",
          "name": "index",
          "type": "uint256"
        }
      ],
      "name": "getRoleMember",
      "outputs": [
        {
          "internalType": "address",
          "name": "",
          "type": "address"
        }
      ],
      "stateMutability": "view",
      "type": "function"
    },
    {
      "inputs": [
        {
          "internalType": "bytes32",
          "name": "role",
          "type": "bytes32"
        }
      ],
      "name": "getRoleMemberCount",
      "outputs": [
        {
          "internalType": "uint256",
          "name": "",
          "type": "uint256"
        }
      ],
      "stateMutability": "view",
      "type": "function"
    },
    {
      "inputs": [
        {
          "internalType": "bytes32",
          "name": "role",
          "type": "bytes32"
        },
        {
          "internalType": "address",
          "name": "account",
          "type": "address"
        }
      ],
      "name": "grantRole",
      "outputs": [],
      "stateMutability": "nonpayable",
      "type": "function"
    },
    {
      "inputs": [
        {
          "internalType": "bytes32",
          "name": "role",
          "type": "bytes32"
        },
        {
          "internalType": "address",
          "name": "account",
          "type": "address"
        }
      ],
      "name": "hasRole",
      "outputs": [
        {
          "internalType": "bool",
          "name": "",
          "type": "bool"
        }
      ],
      "stateMutability": "view",
      "type": "function"
    },
    {
      "inputs": [
        {
          "internalType": "uint256[3]",
          "name": "_lockWaitTimes",
          "type": "uint256[3]"
        }
      ],
      "name": "initialize",
      "outputs": [],
      "stateMutability": "nonpayable",
      "type": "function"
    },
    {
      "inputs": [
        {
          "internalType": "address",
          "name": "_cluster",
          "type": "address"
        }
      ],
      "name": "isClusterValid",
      "outputs": [
        {
          "internalType": "bool",
          "name": "",
          "type": "bool"
        }
      ],
      "stateMutability": "nonpayable",
      "type": "function"
    },
    {
      "inputs": [
        {
          "internalType": "bytes32",
          "name": "",
          "type": "bytes32"
        }
      ],
      "name": "lockWaitTime",
      "outputs": [
        {
          "internalType": "uint256",
          "name": "",
          "type": "uint256"
        }
      ],
      "stateMutability": "view",
      "type": "function"
    },
    {
      "inputs": [
        {
          "internalType": "bytes32",
          "name": "",
          "type": "bytes32"
        }
      ],
      "name": "locks",
      "outputs": [
        {
          "internalType": "uint256",
          "name": "unlockBlock",
          "type": "uint256"
        },
        {
          "internalType": "uint256",
          "name": "iValue",
          "type": "uint256"
        }
      ],
      "stateMutability": "view",
      "type": "function"
    },
    {
      "inputs": [
        {
          "internalType": "bytes32",
          "name": "_networkId",
          "type": "bytes32"
        },
        {
          "internalType": "uint256",
          "name": "_commission",
          "type": "uint256"
        },
        {
          "internalType": "address",
          "name": "_rewardAddress",
          "type": "address"
        },
        {
          "internalType": "address",
          "name": "_clientKey",
          "type": "address"
        }
      ],
      "name": "register",
      "outputs": [],
      "stateMutability": "nonpayable",
      "type": "function"
    },
    {
      "inputs": [
        {
          "internalType": "bytes32",
          "name": "role",
          "type": "bytes32"
        },
        {
          "internalType": "address",
          "name": "account",
          "type": "address"
        }
      ],
      "name": "renounceRole",
      "outputs": [],
      "stateMutability": "nonpayable",
      "type": "function"
    },
    {
      "inputs": [
        {
          "internalType": "bytes32",
          "name": "role",
          "type": "bytes32"
        },
        {
          "internalType": "address",
          "name": "account",
          "type": "address"
        }
      ],
      "name": "revokeRole",
      "outputs": [],
      "stateMutability": "nonpayable",
      "type": "function"
    },
    {
      "inputs": [
        {
          "internalType": "bytes4",
          "name": "interfaceId",
          "type": "bytes4"
        }
      ],
      "name": "supportsInterface",
      "outputs": [
        {
          "internalType": "bool",
          "name": "",
          "type": "bool"
        }
      ],
      "stateMutability": "view",
      "type": "function"
    },
    {
      "inputs": [
        {
          "internalType": "bytes32",
          "name": "_networkId",
          "type": "bytes32"
        }
      ],
      "name": "switchNetwork",
      "outputs": [],
      "stateMutability": "nonpayable",
      "type": "function"
    },
    {
      "inputs": [],
      "name": "unregister",
      "outputs": [],
      "stateMutability": "nonpayable",
      "type": "function"
    },
    {
      "inputs": [
        {
          "internalType": "address",
          "name": "_clientKey",
          "type": "address"
        }
      ],
      "name": "updateClientKey",
      "outputs": [],
      "stateMutability": "nonpayable",
      "type": "function"
    },
    {
      "inputs": [
        {
          "internalType": "uint256",
          "name": "_commission",
          "type": "uint256"
        },
        {
          "internalType": "bytes32",
          "name": "_networkId",
          "type": "bytes32"
        },
        {
          "internalType": "address",
          "name": "_rewardAddress",
          "type": "address"
        },
        {
          "internalType": "address",
          "name": "_clientKey",
          "type": "address"
        }
      ],
      "name": "updateCluster",
      "outputs": [],
      "stateMutability": "nonpayable",
      "type": "function"
    },
    {
      "inputs": [
        {
          "internalType": "uint256",
          "name": "_commission",
          "type": "uint256"
        }
      ],
      "name": "updateCommission",
      "outputs": [],
      "stateMutability": "nonpayable",
      "type": "function"
    },
    {
      "inputs": [
        {
          "internalType": "bytes32",
          "name": "_selector",
          "type": "bytes32"
        },
        {
          "internalType": "uint256",
          "name": "_updatedWaitTime",
          "type": "uint256"
        }
      ],
      "name": "updateLockWaitTime",
      "outputs": [],
      "stateMutability": "nonpayable",
      "type": "function"
    },
    {
      "inputs": [
        {
          "internalType": "address",
          "name": "_rewardAddress",
          "type": "address"
        }
      ],
      "name": "updateRewardAddress",
      "outputs": [],
      "stateMutability": "nonpayable",
      "type": "function"
    },
    {
      "inputs": [
        {
          "internalType": "address",
          "name": "newImplementation",
          "type": "address"
        }
      ],
      "name": "upgradeTo",
      "outputs": [],
      "stateMutability": "nonpayable",
      "type": "function"
    },
    {
      "inputs": [
        {
          "internalType": "address",
          "name": "newImplementation",
          "type": "address"
        },
        {
          "internalType": "bytes",
          "name": "data",
          "type": "bytes"
        }
      ],
      "name": "upgradeToAndCall",
      "outputs": [],
      "stateMutability": "payable",
      "type": "function"
    }
  ],
  "bytecode": "0x60a06040523060601b6080523480156200001857600080fd5b50600054610100900460ff16620000365760005460ff161562000040565b62000040620000ee565b620000a85760405162461bcd60e51b815260206004820152602e60248201527f496e697469616c697a61626c653a20636f6e747261637420697320616c72656160448201526d191e481a5b9a5d1a585b1a5e995960921b606482015260840160405180910390fd5b600054610100900460ff16158015620000d4576000805460ff1961ff0019909116610100171660011790555b8015620000e7576000805461ff00191690555b5062000112565b600062000106306200010c60201b620022a21760201c565b15905090565b3b151590565b60805160601c6134156200014660003960008181610fba015281816110500152818161115801526111ee01526134156000f3fe6080604052600436106101cd5760003560e01c80637566d909116100f7578063c634c16511610095578063ed5e843711610064578063ed5e843714610614578063f334dcb21461065e578063fe7b5fa71461067e578063fff0d1901461069e576101cd565b8063c634c16514610588578063ca15c873146105bf578063d547741f146105df578063e79a198f146105ff576101cd565b8063944dd5a2116100d1578063944dd5a2146105135780639d55fba714610533578063a217fddf14610553578063bb62b3e214610568576101cd565b80637566d9091461048d5780639010d07c146104ad57806391d14854146104cd576101cd565b80631f4c06f71161016f5780633659cfe61161013e5780633659cfe61461040c57806348ad85721461042c5780634f1ef2861461045a57806351ce9fae1461046d576101cd565b80631f4c06f71461036e578063248a9ca31461038e5780632f2ff15d146103cc57806336568abe146103ec576101cd565b80630e327ee8116101ab5780630e327ee8146102665780630f96ffc2146102bb578063151fe357146102f857806317915e8d14610318576101cd565b806301ffc9a7146101d257806306032d741461020757806308f996a314610244575b600080fd5b3480156101de57600080fd5b506101f26101ed366004613161565b6106be565b60405190151581526020015b60405180910390f35b34801561021357600080fd5b50610227610222366004612fbb565b6106d1565b604080519283526001600160a01b039091166020830152016101fe565b34801561025057600080fd5b5061026461025f3660046130b8565b610705565b005b34801561027257600080fd5b506102a3610281366004612fbb565b6001600160a01b03908116600090815261035560205260409020600201541690565b6040516001600160a01b0390911681526020016101fe565b3480156102c757600080fd5b506102a36102d6366004612fbb565b6001600160a01b03908116600090815261035560205260409020600301541690565b34801561030457600080fd5b50610264610313366004613092565b61095d565b34801561032457600080fd5b50610338610333366004612fbb565b610c4a565b604080519586526001600160a01b039485166020870152929093169184019190915260608301521515608082015260a0016101fe565b34801561037a57600080fd5b5061026461038936600461311c565b610ca9565b34801561039a57600080fd5b506103be6103a93660046130b8565b60009081526065602052604090206001015490565b6040519081526020016101fe565b3480156103d857600080fd5b506102646103e73660046130d0565b610efb565b3480156103f857600080fd5b506102646104073660046130d0565b610f27565b34801561041857600080fd5b50610264610427366004612fbb565b610faf565b34801561043857600080fd5b506103be6104473660046130b8565b6103546020526000908152604090205481565b610264610468366004612fd5565b61114d565b34801561047957600080fd5b506101f2610488366004612fbb565b6112d8565b34801561049957600080fd5b506102646104a83660046131a1565b6115a2565b3480156104b957600080fd5b506102a36104c83660046130fb565b611617565b3480156104d957600080fd5b506101f26104e83660046130d0565b60009182526065602090815260408084206001600160a01b0393909316845291905290205460ff1690565b34801561051f57600080fd5b5061026461052e366004612fbb565b611638565b34801561053f57600080fd5b5061026461054e3660046130b8565b61170c565b34801561055f57600080fd5b506103be600081565b34801561057457600080fd5b50610264610583366004612fbb565b6119d2565b34801561059457600080fd5b506102a36105a3366004612fbb565b610356602052600090815260409020546001600160a01b031681565b3480156105cb57600080fd5b506103be6105da3660046130b8565b611b55565b3480156105eb57600080fd5b506102646105fa3660046130d0565b611b6c565b34801561060b57600080fd5b50610264611b92565b34801561062057600080fd5b5061064961062f3660046130b8565b610353602052600090815260409020805460019091015482565b604080519283526020830191909152016101fe565b34801561066a57600080fd5b506103be610679366004612fbb565b611f87565b34801561068a57600080fd5b506103be610699366004612fbb565b6120c3565b3480156106aa57600080fd5b506102646106b93660046130fb565b6121ec565b60006106c9826122a8565b90505b919050565b6000806106dd83611f87565b6001600160a01b03938416600090815261035560205260409020600201549094931692915050565b61070e33610488565b61075f5760405162461bcd60e51b815260206004820152601c60248201527f43523a534e2d436c7573746572206e6f7420726567697374657265640000000060448201526064015b60405180910390fd5b60007f18981a75d138782f14f3fbd4153783a0dc1558f28dc5538bf045e7de84cb2ae2336040516020016107af92919091825260601b6bffffffffffffffffffffffff1916602082015260340190565b60408051601f19818403018152918152815160209283012060008181526103539093529120549091504281106108275760405162461bcd60e51b815260206004820181905260248201527f43523a534e2d4e6574776f726b2073776974636820696e2070726f67726573736044820152606401610756565b801561088b57600082815261035360209081526040808320600101543380855261035584529382902081905590518481529092839290917f6baf22d499543edc2da95c5ede111d540373d2f84fe995079ecb45dbd7a47c51910160405180910390a3505b7f18981a75d138782f14f3fbd4153783a0dc1558f28dc5538bf045e7de84cb2ae260009081526103546020527f8696bc5553f0bd905da32ef1b5d632f93a3b498f6f1dc41023f17ca9c81c78ab546108e39042613286565b60408051808201825282815260208082018881526000888152610353909252929020905181559051600190910155905083336001600160a01b03167f547dff4e33e8a0f3b5bc5d85967802696ebdfb70c2fb6535b816055626cc842a8360405161094f91815260200190565b60405180910390a350505050565b600054610100900460ff166109785760005460ff161561097c565b303b155b6109ee5760405162461bcd60e51b815260206004820152602e60248201527f496e697469616c697a61626c653a20636f6e747261637420697320616c72656160448201527f647920696e697469616c697a65640000000000000000000000000000000000006064820152608401610756565b600054610100900460ff16158015610a5457600080547fffffffffffffffffffffffffffffffffffffffffffffffffffffffffffffff007fffffffffffffffffffffffffffffffffffffffffffffffffffffffffffff00ff909116610100171660011790555b610a5c6122fe565b610a646122fe565b610a6c6122fe565b610a746122fe565b610a7c6122fe565b610a846122fe565b610a8f60003361237b565b604080516060810182527f7877e81172e1242eb265a9ff5a14c913d44197a6e15e0bc1d984f40be909640381527f18981a75d138782f14f3fbd4153783a0dc1558f28dc5538bf045e7de84cb2ae260208201527f027b176aae0bed270786878cbabc238973eac20b1957aae44b82a73cc8c7080c9181019190915260005b6003811015610c1557838160038110610b3657634e487b7160e01b600052603260045260246000fd5b60200201356103546000848460038110610b6057634e487b7160e01b600052603260045260246000fd5b6020020151815260200190815260200160002081905550818160038110610b9757634e487b7160e01b600052603260045260246000fd5b60200201517f5793ae75ad4ae6b7dc6492360b49ac802ad3f243d386419158aa87761383df5a6000868460038110610bdf57634e487b7160e01b600052603260045260246000fd5b6020020135604051610bfb929190918252602082015260400190565b60405180910390a280610c0d81613353565b915050610b0d565b50508015610c4657600080547fffffffffffffffffffffffffffffffffffffffffffffffffffffffffffff00ff1690555b5050565b6000806000806000610c5b86611f87565b6001600160a01b0380881660009081526103556020526040902060028101546003909101549082169116610c8e896120c3565b610c978a6112d8565b939a9299509097509550909350915050565b610cb233610488565b15610d255760405162461bcd60e51b815260206004820152602260248201527f43523a522d436c757374657220697320616c726561647920726567697374657260448201527f65640000000000000000000000000000000000000000000000000000000000006064820152608401610756565b6064831115610d765760405162461bcd60e51b815260206004820152601e60248201527f43523a522d436f6d6d697373696f6e206d6f7265207468616e203130302500006044820152606401610756565b6001600160a01b03818116600090815261035660205260409020541615610e055760405162461bcd60e51b815260206004820152602160248201527f43523a52202d20436c69656e74206b657920697320616c72656164792075736560448201527f64000000000000000000000000000000000000000000000000000000000000006064820152608401610756565b33600081815261035560209081526040808320600181018890556002810180546001600160a01b038981167fffffffffffffffffffffffff00000000000000000000000000000000000000009283168117909355600384018054948d905590891693821684177fffffffffffffffffffffff00ffffffffffffffffffffffffffffffffffffffff1674010000000000000000000000000000000000000000179055828652610356855294839020805490951686179094558151888152928301939093528101919091528591907f94d6ec8e8d159bff788a0f0fd13c3142344c8d63b22872ec56c8473e42fd6a269060600161094f565b600082815260656020526040902060010154610f1881335b612385565b610f228383612405565b505050565b6001600160a01b0381163314610fa55760405162461bcd60e51b815260206004820152602f60248201527f416363657373436f6e74726f6c3a2063616e206f6e6c792072656e6f756e636560448201527f20726f6c657320666f722073656c6600000000000000000000000000000000006064820152608401610756565b610c46828261240f565b306001600160a01b037f000000000000000000000000000000000000000000000000000000000000000016141561104e5760405162461bcd60e51b815260206004820152602c60248201527f46756e6374696f6e206d7573742062652063616c6c6564207468726f7567682060448201527f64656c656761746563616c6c00000000000000000000000000000000000000006064820152608401610756565b7f00000000000000000000000000000000000000000000000000000000000000006001600160a01b03166110a97f360894a13ba1a3210667c828492db98dca3e2076cc3735a920a3ca505d382bbc546001600160a01b031690565b6001600160a01b0316146111255760405162461bcd60e51b815260206004820152602c60248201527f46756e6374696f6e206d7573742062652063616c6c6564207468726f7567682060448201527f6163746976652070726f787900000000000000000000000000000000000000006064820152608401610756565b61112e8161246f565b6040805160008082526020820190925261114a918391906124c6565b50565b306001600160a01b037f00000000000000000000000000000000000000000000000000000000000000001614156111ec5760405162461bcd60e51b815260206004820152602c60248201527f46756e6374696f6e206d7573742062652063616c6c6564207468726f7567682060448201527f64656c656761746563616c6c00000000000000000000000000000000000000006064820152608401610756565b7f00000000000000000000000000000000000000000000000000000000000000006001600160a01b03166112477f360894a13ba1a3210667c828492db98dca3e2076cc3735a920a3ca505d382bbc546001600160a01b031690565b6001600160a01b0316146112c35760405162461bcd60e51b815260206004820152602c60248201527f46756e6374696f6e206d7573742062652063616c6c6564207468726f7567682060448201527f6163746976652070726f787900000000000000000000000000000000000000006064820152608401610756565b6112cc8261246f565b610c46828260016124c6565b6000807f027b176aae0bed270786878cbabc238973eac20b1957aae44b82a73cc8c7080c8360405160200161132992919091825260601b6bffffffffffffffffffffffff1916602082015260340190565b60408051601f1981840301815291815281516020928301206000818152610353909352912054909150801580159061136057504281105b1561153f576001600160a01b0384811660008181526103556020908152604080832060030180547fffffffffffffffffffffff00ffffffffffffffffffffffffffffffffffffffff8116909155909416825261035681529083902080547fffffffffffffffffffffffff0000000000000000000000000000000000000000169055915183815290917ff57f6deb3dd36063034fdd928555a21800a842054e759d406c427909ee4b6d32910160405180910390a26000828152610353602081815260408084208481556001018490555191929161147b917f7877e81172e1242eb265a9ff5a14c913d44197a6e15e0bc1d984f40be90964039133910191825260601b6bffffffffffffffffffffffff1916602082015260340190565b6040516020818303038152906040528051906020012081526020019081526020016000206000808201600090556001820160009055505061035360007f18981a75d138782f14f3fbd4153783a0dc1558f28dc5538bf045e7de84cb2ae23360405160200161150592919091825260601b6bffffffffffffffffffffffff1916602082015260340190565b60408051601f19818403018152918152815160209283012083529082019290925201600090812081815560010181905592506106cc915050565b60006001600160a01b0385166000908152610355602052604090206003015474010000000000000000000000000000000000000000900460ff16600181111561159857634e487b7160e01b600052602160045260246000fd5b1415949350505050565b82156115b1576115b183610705565b6001600160a01b038216156115c9576115c982611638565b6001600160a01b038116156115e1576115e1816119d2565b7fffffffffffffffffffffffffffffffffffffffffffffffffffffffffffffffff8414611611576116118461170c565b50505050565b600082815260976020526040812061162f90836126c6565b90505b92915050565b61164133610488565b61168d5760405162461bcd60e51b815260206004820152601d60248201527f43523a5552412d436c7573746572206e6f7420726567697374657265640000006044820152606401610756565b336000818152610355602090815260409182902060020180547fffffffffffffffffffffffff0000000000000000000000000000000000000000166001600160a01b03861690811790915591519182527f4c5b658b1805527ff7cb46c40a77c5aa5058aa9183f6b94c5d17a9de818cb4eb91015b60405180910390a250565b61171533610488565b6117615760405162461bcd60e51b815260206004820152601d60248201527f43523a55434d2d436c7573746572206e6f7420726567697374657265640000006044820152606401610756565b60648111156117b25760405162461bcd60e51b815260206004820181905260248201527f43523a55434d2d436f6d6d697373696f6e206d6f7265207468616e20313030256044820152606401610756565b60007f7877e81172e1242eb265a9ff5a14c913d44197a6e15e0bc1d984f40be90964033360405160200161180292919091825260601b6bffffffffffffffffffffffff1916602082015260340190565b60408051601f198184030181529181528151602092830120600081815261035390935291205490915042811061189f5760405162461bcd60e51b8152602060048201526024808201527f43523a55434d2d436f6d6d697373696f6e2075706461746520696e2070726f6760448201527f72657373000000000000000000000000000000000000000000000000000000006064820152608401610756565b801561190a5760008281526103536020908152604080832060019081015433808652610355855294839020909101819055815181815292830185905292917f6e500db30ce535d38852e318f333e9be41a3fec6c65d234ebb06203c896db9a5910160405180910390a2505b7f7877e81172e1242eb265a9ff5a14c913d44197a6e15e0bc1d984f40be909640360009081526103546020527f60fcc90382a4d3b58fe9b5d36497fc099c7897eb35852f7de6d7a351a503f922546119629042613286565b6040805180820182528281526020808201888152600088815261035383528490209251835551600190920191909155815187815290810183905291925033917f02ad6423bf8f7f88434f991300ee2389a81cf3a7603554f7671b8df602149b62910160405180910390a250505050565b6119db33610488565b611a275760405162461bcd60e51b815260206004820152601d60248201527f43523a55434b2d436c7573746572206e6f7420726567697374657265640000006044820152606401610756565b6001600160a01b03818116600090815261035660205260409020541615611ab65760405162461bcd60e51b815260206004820152602360248201527f43523a55434b202d20436c69656e74206b657920697320616c7265616479207560448201527f73656400000000000000000000000000000000000000000000000000000000006064820152608401610756565b3360008181526103556020908152604080832060030180546001600160a01b039081168552610356845282852080547fffffffffffffffffffffffff00000000000000000000000000000000000000009081169091558254811691881691821790925580855293829020805490911685179055519182527fe3278ea3ad4d101e07a8ed576698b53aa126ad3061abedd3eb4bda0b8590a8429101611701565b60008181526097602052604081206106c9906126d2565b600082815260656020526040902060010154611b888133610f13565b610f22838361240f565b336000908152610355602052604081206003015474010000000000000000000000000000000000000000900460ff166001811115611be057634e487b7160e01b600052602160045260246000fd5b1415611c2e5760405162461bcd60e51b815260206004820152601c60248201527f43523a55522d436c7573746572206e6f742072656769737465726564000000006044820152606401610756565b60007f027b176aae0bed270786878cbabc238973eac20b1957aae44b82a73cc8c7080c33604051602001611c7e92919091825260601b6bffffffffffffffffffffffff1916602082015260340190565b60408051601f1981840301815291815281516020928301206000818152610353909352912054909150428110611d1c5760405162461bcd60e51b815260206004820152602860248201527f43523a55522d556e726567697374726174696f6e20616c726561647920696e2060448201527f70726f67726573730000000000000000000000000000000000000000000000006064820152608401610756565b8015611eb657336000818152610355602090815260409182902060030180547fffffffffffffffffffffff00ffffffffffffffffffffffffffffffffffffffff169055815184815291517ff57f6deb3dd36063034fdd928555a21800a842054e759d406c427909ee4b6d329281900390910190a25033600081815261035560209081526040808320600301546001600160a01b03168352610356825280832080547fffffffffffffffffffffffff0000000000000000000000000000000000000000169055938252610353808252848320838155600190810184905585517f7877e81172e1242eb265a9ff5a14c913d44197a6e15e0bc1d984f40be90964038185015260609590951b6bffffffffffffffffffffffff191685870181905286518087036034018152605487018852805190850120855282845286852085815582018590557f18981a75d138782f14f3fbd4153783a0dc1558f28dc5538bf045e7de84cb2ae2607487015260948601528551808603608801815260a89095018652845194830194909420835290529182208281550155611f85565b7f027b176aae0bed270786878cbabc238973eac20b1957aae44b82a73cc8c7080c60009081526103546020527f71f3fc8dd7891fe14dc57ae98ab67035ee09d235cef48aae220e65ce5147d5aa54611f0e9042613286565b604080518082018252828152600060208083018281528883526103539091529290209051815590516001909101559050336001600160a01b03167fb27198c1c90d896e17e7fdcc7234d77a92839bf4629f6e514fa89efa9530477382604051611f7991815260200190565b60405180910390a25050505b565b6000807f7877e81172e1242eb265a9ff5a14c913d44197a6e15e0bc1d984f40be909640383604051602001611fd892919091825260601b6bffffffffffffffffffffffff1916602082015260340190565b60408051601f1981840301815291815281516020928301206000818152610353909352912054909150801580159061200f57504281105b156120a1576000828152610353602090815260408083206001908101546001600160a01b038916808652610355855294839020909101819055815181815292830185905292917f6e500db30ce535d38852e318f333e9be41a3fec6c65d234ebb06203c896db9a5910160405180910390a2600092835261035360205260408320838155600101929092555090506106cc565b5050506001600160a01b03166000908152610355602052604090206001015490565b6000807f18981a75d138782f14f3fbd4153783a0dc1558f28dc5538bf045e7de84cb2ae28360405160200161211492919091825260601b6bffffffffffffffffffffffff1916602082015260340190565b60408051601f1981840301815291815281516020928301206000818152610353909352912054909150801580159061214b57504281105b156121cd57600082815261035360209081526040808320600101543380855261035584529382902081905590518481529092839290917f6baf22d499543edc2da95c5ede111d540373d2f84fe995079ecb45dbd7a47c51910160405180910390a3600092835261035360205260408320838155600101929092555090506106cc565b5050506001600160a01b03166000908152610355602052604090205490565b6121f76000336104e8565b6122435760405162461bcd60e51b815260206004820152600a60248201527f6f6e6c792061646d696e000000000000000000000000000000000000000000006044820152606401610756565b6000828152610354602090815260409182902054825190815290810183905283917f5793ae75ad4ae6b7dc6492360b49ac802ad3f243d386419158aa87761383df5a910160405180910390a26000918252610354602052604090912055565b3b151590565b60007fffffffff0000000000000000000000000000000000000000000000000000000082167f5a05180f0000000000000000000000000000000000000000000000000000000014806106c957506106c9826126dc565b600054610100900460ff16611f855760405162461bcd60e51b815260206004820152602b60248201527f496e697469616c697a61626c653a20636f6e7472616374206973206e6f74206960448201527f6e697469616c697a696e670000000000000000000000000000000000000000006064820152608401610756565b610c468282612405565b60008281526065602090815260408083206001600160a01b038516845290915290205460ff16610c46576123c3816001600160a01b03166014612773565b6123ce836020612773565b6040516020016123df9291906131d2565b60408051601f198184030181529082905262461bcd60e51b825261075691600401613253565b610c4682826129e2565b6124198282612a04565b6124236000611b55565b610c465760405162461bcd60e51b815260206004820152601360248201527f43616e6e6f742062652061646d696e6c657373000000000000000000000000006044820152606401610756565b61247a6000336104e8565b61114a5760405162461bcd60e51b815260206004820152600a60248201527f6f6e6c792061646d696e000000000000000000000000000000000000000000006044820152606401610756565b60006124f97f360894a13ba1a3210667c828492db98dca3e2076cc3735a920a3ca505d382bbc546001600160a01b031690565b905061250484612a26565b6000835111806125115750815b15612522576125208484612af3565b505b7f4910fdfa16fed3260ed0e7147f7cc6da11a60208b5b9406d12a635614ffd9143805460ff166126bf5780547fffffffffffffffffffffffffffffffffffffffffffffffffffffffffffffff001660011781556040516001600160a01b03831660248201526125ed90869060440160408051601f198184030181529190526020810180517bffffffffffffffffffffffffffffffffffffffffffffffffffffffff167f3659cfe600000000000000000000000000000000000000000000000000000000179052612af3565b5080547fffffffffffffffffffffffffffffffffffffffffffffffffffffffffffffff001681557f360894a13ba1a3210667c828492db98dca3e2076cc3735a920a3ca505d382bbc546001600160a01b038381169116146126b65760405162461bcd60e51b815260206004820152602f60248201527f45524331393637557067726164653a207570677261646520627265616b73206660448201527f75727468657220757067726164657300000000000000000000000000000000006064820152608401610756565b6126bf85612bf5565b5050505050565b600061162f8383612c35565b60006106c9825490565b60007fffffffff0000000000000000000000000000000000000000000000000000000082167f7965db0b0000000000000000000000000000000000000000000000000000000014806106c957507f01ffc9a7000000000000000000000000000000000000000000000000000000007fffffffff000000000000000000000000000000000000000000000000000000008316146106c9565b6060600061278283600261329e565b61278d906002613286565b67ffffffffffffffff8111156127b357634e487b7160e01b600052604160045260246000fd5b6040519080825280601f01601f1916602001820160405280156127dd576020820181803683370190505b5090507f30000000000000000000000000000000000000000000000000000000000000008160008151811061282257634e487b7160e01b600052603260045260246000fd5b60200101907effffffffffffffffffffffffffffffffffffffffffffffffffffffffffffff1916908160001a9053507f78000000000000000000000000000000000000000000000000000000000000008160018151811061289357634e487b7160e01b600052603260045260246000fd5b60200101907effffffffffffffffffffffffffffffffffffffffffffffffffffffffffffff1916908160001a90535060006128cf84600261329e565b6128da906001613286565b90505b6001811115612993577f303132333435363738396162636465660000000000000000000000000000000085600f166010811061292957634e487b7160e01b600052603260045260246000fd5b1a60f81b82828151811061294d57634e487b7160e01b600052603260045260246000fd5b60200101907effffffffffffffffffffffffffffffffffffffffffffffffffffffffffffff1916908160001a90535060049490941c9361298c8161331e565b90506128dd565b50831561162f5760405162461bcd60e51b815260206004820181905260248201527f537472696e67733a20686578206c656e67746820696e73756666696369656e746044820152606401610756565b6129ec8282612c6d565b6000828152609760205260409020610f229082612d2d565b612a0e8282612d42565b6000828152609760205260409020610f229082612de3565b803b612a9a5760405162461bcd60e51b815260206004820152602d60248201527f455243313936373a206e657720696d706c656d656e746174696f6e206973206e60448201527f6f74206120636f6e7472616374000000000000000000000000000000000000006064820152608401610756565b7f360894a13ba1a3210667c828492db98dca3e2076cc3735a920a3ca505d382bbc80547fffffffffffffffffffffffff0000000000000000000000000000000000000000166001600160a01b0392909216919091179055565b6060823b612b695760405162461bcd60e51b815260206004820152602660248201527f416464726573733a2064656c65676174652063616c6c20746f206e6f6e2d636f60448201527f6e747261637400000000000000000000000000000000000000000000000000006064820152608401610756565b600080846001600160a01b031684604051612b8491906131b6565b600060405180830381855af49150503d8060008114612bbf576040519150601f19603f3d011682016040523d82523d6000602084013e612bc4565b606091505b5091509150612bec82826040518060600160405280602781526020016133b960279139612df8565b95945050505050565b612bfe81612a26565b6040516001600160a01b038216907fbc7cd75a20ee27fd9adebab32041f755214dbc6bffa90cc0225b39da2e5c2d3b90600090a250565b6000826000018281548110612c5a57634e487b7160e01b600052603260045260246000fd5b9060005260206000200154905092915050565b60008281526065602090815260408083206001600160a01b038516845290915290205460ff16610c465760008281526065602090815260408083206001600160a01b0385168452909152902080547fffffffffffffffffffffffffffffffffffffffffffffffffffffffffffffff00166001179055612ce93390565b6001600160a01b0316816001600160a01b0316837f2f8788117e7eff1d82e926ec794901d17c78024a50270940304540a733656f0d60405160405180910390a45050565b600061162f836001600160a01b038416612e38565b60008281526065602090815260408083206001600160a01b038516845290915290205460ff1615610c465760008281526065602090815260408083206001600160a01b038516808552925280832080547fffffffffffffffffffffffffffffffffffffffffffffffffffffffffffffff0016905551339285917ff6391f5c32d9c69d2a47ea670b442974b53935d1edc7fd64eb21e047a839171b9190a45050565b600061162f836001600160a01b038416612e87565b60608315612e07575081612e31565b825115612e175782518084602001fd5b8160405162461bcd60e51b81526004016107569190613253565b9392505050565b6000818152600183016020526040812054612e7f57508154600181810184556000848152602080822090930184905584548482528286019093526040902091909155611632565b506000611632565b60008181526001830160205260408120548015612f9a576000612eab6001836132db565b8554909150600090612ebf906001906132db565b9050818114612f40576000866000018281548110612eed57634e487b7160e01b600052603260045260246000fd5b9060005260206000200154905080876000018481548110612f1e57634e487b7160e01b600052603260045260246000fd5b6000918252602080832090910192909255918252600188019052604090208390555b8554869080612f5f57634e487b7160e01b600052603160045260246000fd5b600190038181906000526020600020016000905590558560010160008681526020019081526020016000206000905560019350505050611632565b6000915050611632565b80356001600160a01b03811681146106cc57600080fd5b600060208284031215612fcc578081fd5b61162f82612fa4565b60008060408385031215612fe7578081fd5b612ff083612fa4565b9150602083013567ffffffffffffffff8082111561300c578283fd5b818501915085601f83011261301f578283fd5b813581811115613031576130316133a2565b604051601f8201601f19908116603f01168101908382118183101715613059576130596133a2565b81604052828152886020848701011115613071578586fd5b82602086016020830137856020848301015280955050505050509250929050565b6000606082840312156130a3578081fd5b826060830111156130b2578081fd5b50919050565b6000602082840312156130c9578081fd5b5035919050565b600080604083850312156130e2578182fd5b823591506130f260208401612fa4565b90509250929050565b6000806040838503121561310d578182fd5b50508035926020909101359150565b60008060008060808587031215613131578182fd5b843593506020850135925061314860408601612fa4565b915061315660608601612fa4565b905092959194509250565b600060208284031215613172578081fd5b81357fffffffff000000000000000000000000000000000000000000000000000000008116811461162f578182fd5b60008060008060808587031215613131578384fd5b600082516131c88184602087016132f2565b9190910192915050565b60007f416363657373436f6e74726f6c3a206163636f756e74200000000000000000008252835161320a8160178501602088016132f2565b7f206973206d697373696e6720726f6c652000000000000000000000000000000060179184019182015283516132478160288401602088016132f2565b01602801949350505050565b60006020825282518060208401526132728160408501602087016132f2565b601f01601f19169190910160400192915050565b600082198211156132995761329961338c565b500190565b6000817fffffffffffffffffffffffffffffffffffffffffffffffffffffffffffffffff04831182151516156132d6576132d661338c565b500290565b6000828210156132ed576132ed61338c565b500390565b60005b8381101561330d5781810151838201526020016132f5565b838111156116115750506000910152565b60008161332d5761332d61338c565b507fffffffffffffffffffffffffffffffffffffffffffffffffffffffffffffffff0190565b60007fffffffffffffffffffffffffffffffffffffffffffffffffffffffffffffffff8214156133855761338561338c565b5060010190565b634e487b7160e01b600052601160045260246000fd5b634e487b7160e01b600052604160045260246000fdfe416464726573733a206c6f772d6c6576656c2064656c65676174652063616c6c206661696c6564a2646970667358221220aa07938908db69d673d1358890e3b16cbf161b2bd52d25a6dbe3c872e79c310c64736f6c63430008020033",
  "linkReferences": {},
  "deployedLinkReferences": {}
}