{
  "_format": "hh-sol-artifact-1",
  "contractName": "ClusterRewards",
  "sourceName": "contracts/staking/ClusterRewards.sol",
  "abi": [
    {
      "inputs": [],
      "stateMutability": "nonpayable",
      "type": "constructor"
    },
    {
      "anonymous": false,
      "inputs": [
        {
          "indexed": false,
          "internalType": "address",
          "name": "previousAdmin",
          "type": "address"
        },
        {
          "indexed": false,
          "internalType": "address",
          "name": "newAdmin",
          "type": "address"
        }
      ],
      "name": "AdminChanged",
      "type": "event"
    },
    {
      "anonymous": false,
      "inputs": [
        {
          "indexed": true,
          "internalType": "address",
          "name": "beacon",
          "type": "address"
        }
      ],
      "name": "BeaconUpgraded",
      "type": "event"
    },
    {
      "anonymous": false,
      "inputs": [
        {
          "indexed": false,
          "internalType": "bytes32",
          "name": "networkId",
          "type": "bytes32"
        }
      ],
      "name": "ClusterRewarded",
      "type": "event"
    },
    {
      "anonymous": false,
      "inputs": [
        {
          "indexed": false,
          "internalType": "uint8",
          "name": "version",
          "type": "uint8"
        }
      ],
      "name": "Initialized",
      "type": "event"
    },
    {
      "anonymous": false,
      "inputs": [
        {
          "indexed": false,
          "internalType": "bytes32",
          "name": "networkId",
          "type": "bytes32"
        },
        {
          "indexed": false,
          "internalType": "uint256",
          "name": "rewardPerEpoch",
          "type": "uint256"
        },
        {
          "indexed": false,
          "internalType": "address",
          "name": "clusterSelector",
          "type": "address"
        }
      ],
      "name": "NetworkAdded",
      "type": "event"
    },
    {
      "anonymous": false,
      "inputs": [
        {
          "indexed": false,
          "internalType": "bytes32",
          "name": "networkId",
          "type": "bytes32"
        }
      ],
      "name": "NetworkRemoved",
      "type": "event"
    },
    {
      "anonymous": false,
      "inputs": [
        {
          "indexed": false,
          "internalType": "bytes32",
          "name": "networkId",
          "type": "bytes32"
        },
        {
          "indexed": false,
          "internalType": "uint256",
          "name": "updatedRewardPerEpoch",
          "type": "uint256"
        },
        {
          "indexed": false,
          "internalType": "address",
          "name": "clusterSelector",
          "type": "address"
        }
      ],
      "name": "NetworkUpdated",
      "type": "event"
    },
    {
      "anonymous": false,
      "inputs": [
        {
          "indexed": false,
          "internalType": "address",
          "name": "receiverStaking",
          "type": "address"
        }
      ],
      "name": "ReceiverStakingUpdated",
      "type": "event"
    },
    {
      "anonymous": false,
      "inputs": [
        {
          "indexed": false,
          "internalType": "uint256",
          "name": "updatedWaitTime",
          "type": "uint256"
        }
      ],
      "name": "RewardDistributionWaitTimeChanged",
      "type": "event"
    },
    {
      "anonymous": false,
      "inputs": [
        {
          "indexed": false,
          "internalType": "uint256",
          "name": "updatedRewardPerEpoch",
          "type": "uint256"
        }
      ],
      "name": "RewardPerEpochChanged",
      "type": "event"
    },
    {
      "anonymous": false,
      "inputs": [
        {
          "indexed": true,
          "internalType": "bytes32",
          "name": "role",
          "type": "bytes32"
        },
        {
          "indexed": true,
          "internalType": "bytes32",
          "name": "previousAdminRole",
          "type": "bytes32"
        },
        {
          "indexed": true,
          "internalType": "bytes32",
          "name": "newAdminRole",
          "type": "bytes32"
        }
      ],
      "name": "RoleAdminChanged",
      "type": "event"
    },
    {
      "anonymous": false,
      "inputs": [
        {
          "indexed": true,
          "internalType": "bytes32",
          "name": "role",
          "type": "bytes32"
        },
        {
          "indexed": true,
          "internalType": "address",
          "name": "account",
          "type": "address"
        },
        {
          "indexed": true,
          "internalType": "address",
          "name": "sender",
          "type": "address"
        }
      ],
      "name": "RoleGranted",
      "type": "event"
    },
    {
      "anonymous": false,
      "inputs": [
        {
          "indexed": true,
          "internalType": "bytes32",
          "name": "role",
          "type": "bytes32"
        },
        {
          "indexed": true,
          "internalType": "address",
          "name": "account",
          "type": "address"
        },
        {
          "indexed": true,
          "internalType": "address",
          "name": "sender",
          "type": "address"
        }
      ],
      "name": "RoleRevoked",
      "type": "event"
    },
    {
      "anonymous": false,
      "inputs": [
        {
          "indexed": true,
          "internalType": "bytes32",
          "name": "networkId",
          "type": "bytes32"
        },
        {
          "indexed": true,
          "internalType": "uint256",
          "name": "epoch",
          "type": "uint256"
        },
        {
          "indexed": true,
          "internalType": "address",
          "name": "user",
          "type": "address"
        }
      ],
      "name": "TicketsIssued",
      "type": "event"
    },
    {
      "anonymous": false,
      "inputs": [
        {
          "indexed": true,
          "internalType": "address",
          "name": "implementation",
          "type": "address"
        }
      ],
      "name": "Upgraded",
      "type": "event"
    },
    {
      "inputs": [],
      "name": "CLAIMER_ROLE",
      "outputs": [
        {
          "internalType": "bytes32",
          "name": "",
          "type": "bytes32"
        }
      ],
      "stateMutability": "view",
      "type": "function"
    },
    {
      "inputs": [],
      "name": "DEFAULT_ADMIN_ROLE",
      "outputs": [
        {
          "internalType": "bytes32",
          "name": "",
          "type": "bytes32"
        }
      ],
      "stateMutability": "view",
      "type": "function"
    },
    {
      "inputs": [],
      "name": "FEEDER_ROLE",
      "outputs": [
        {
          "internalType": "bytes32",
          "name": "",
          "type": "bytes32"
        }
      ],
      "stateMutability": "view",
      "type": "function"
    },
    {
      "inputs": [],
      "name": "RECEIVER_TICKETS_PER_EPOCH",
      "outputs": [
        {
          "internalType": "uint256",
          "name": "",
          "type": "uint256"
        }
      ],
      "stateMutability": "view",
      "type": "function"
    },
    {
      "inputs": [
        {
          "internalType": "bytes32",
          "name": "_networkId",
          "type": "bytes32"
        },
        {
          "internalType": "uint256",
          "name": "_rewardWeight",
          "type": "uint256"
        },
        {
          "internalType": "address",
          "name": "_clusterSelector",
          "type": "address"
        }
      ],
      "name": "addNetwork",
      "outputs": [],
      "stateMutability": "nonpayable",
      "type": "function"
    },
    {
      "inputs": [
        {
          "internalType": "uint256",
          "name": "_updatedRewardPerEpoch",
          "type": "uint256"
        }
      ],
      "name": "changeRewardPerEpoch",
      "outputs": [],
      "stateMutability": "nonpayable",
      "type": "function"
    },
    {
      "inputs": [
        {
          "internalType": "address",
          "name": "_cluster",
          "type": "address"
        }
      ],
      "name": "claimReward",
      "outputs": [
        {
          "internalType": "uint256",
          "name": "",
          "type": "uint256"
        }
      ],
      "stateMutability": "nonpayable",
      "type": "function"
    },
    {
      "inputs": [
        {
          "internalType": "address",
          "name": "",
          "type": "address"
        }
      ],
      "name": "clusterRewards",
      "outputs": [
        {
          "internalType": "uint256",
          "name": "",
          "type": "uint256"
        }
      ],
      "stateMutability": "view",
      "type": "function"
    },
    {
      "inputs": [
        {
          "internalType": "bytes32",
          "name": "",
          "type": "bytes32"
        }
      ],
      "name": "clusterSelectors",
      "outputs": [
        {
          "internalType": "contract IClusterSelector",
          "name": "",
          "type": "address"
        }
      ],
      "stateMutability": "view",
      "type": "function"
    },
    {
      "inputs": [
        {
          "internalType": "bytes32",
          "name": "_networkId",
          "type": "bytes32"
        },
        {
          "internalType": "address[]",
          "name": "_clusters",
          "type": "address[]"
        },
        {
          "internalType": "uint256[]",
          "name": "_payouts",
          "type": "uint256[]"
        },
        {
          "internalType": "uint256",
          "name": "_epoch",
          "type": "uint256"
        }
      ],
      "name": "feed",
      "outputs": [],
      "stateMutability": "nonpayable",
      "type": "function"
    },
    {
      "inputs": [
        {
          "internalType": "bytes32",
          "name": "_networkId",
          "type": "bytes32"
        }
      ],
      "name": "getRewardPerEpoch",
      "outputs": [
        {
          "internalType": "uint256",
          "name": "",
          "type": "uint256"
        }
      ],
      "stateMutability": "view",
      "type": "function"
    },
    {
      "inputs": [
        {
          "internalType": "bytes32",
          "name": "role",
          "type": "bytes32"
        }
      ],
      "name": "getRoleAdmin",
      "outputs": [
        {
          "internalType": "bytes32",
          "name": "",
          "type": "bytes32"
        }
      ],
      "stateMutability": "view",
      "type": "function"
    },
    {
      "inputs": [
        {
          "internalType": "bytes32",
          "name": "role",
          "type": "bytes32"
        },
        {
          "internalType": "uint256",
          "name": "index",
          "type": "uint256"
        }
      ],
      "name": "getRoleMember",
      "outputs": [
        {
          "internalType": "address",
          "name": "",
          "type": "address"
        }
      ],
      "stateMutability": "view",
      "type": "function"
    },
    {
      "inputs": [
        {
          "internalType": "bytes32",
          "name": "role",
          "type": "bytes32"
        }
      ],
      "name": "getRoleMemberCount",
      "outputs": [
        {
          "internalType": "uint256",
          "name": "",
          "type": "uint256"
        }
      ],
      "stateMutability": "view",
      "type": "function"
    },
    {
      "inputs": [
        {
          "internalType": "bytes32",
          "name": "role",
          "type": "bytes32"
        },
        {
          "internalType": "address",
          "name": "account",
          "type": "address"
        }
      ],
      "name": "grantRole",
      "outputs": [],
      "stateMutability": "nonpayable",
      "type": "function"
    },
    {
      "inputs": [
        {
          "internalType": "bytes32",
          "name": "role",
          "type": "bytes32"
        },
        {
          "internalType": "address",
          "name": "account",
          "type": "address"
        }
      ],
      "name": "hasRole",
      "outputs": [
        {
          "internalType": "bool",
          "name": "",
          "type": "bool"
        }
      ],
      "stateMutability": "view",
      "type": "function"
    },
    {
      "inputs": [
        {
          "internalType": "address",
          "name": "_admin",
          "type": "address"
        },
        {
          "internalType": "address",
          "name": "_claimer",
          "type": "address"
        },
        {
          "internalType": "address",
          "name": "_receiverStaking",
          "type": "address"
        },
        {
          "internalType": "bytes32[]",
          "name": "_networkIds",
          "type": "bytes32[]"
        },
        {
          "internalType": "uint256[]",
          "name": "_rewardWeight",
          "type": "uint256[]"
        },
        {
          "internalType": "address[]",
          "name": "_clusterSelectors",
          "type": "address[]"
        },
        {
          "internalType": "uint256",
          "name": "_totalRewardsPerEpoch",
          "type": "uint256"
        }
      ],
      "name": "initialize",
      "outputs": [],
      "stateMutability": "nonpayable",
      "type": "function"
    },
    {
      "inputs": [
        {
          "internalType": "address",
          "name": "_receiver",
          "type": "address"
        },
        {
          "internalType": "uint256",
          "name": "_epoch",
          "type": "uint256"
        }
      ],
      "name": "isTicketsIssued",
      "outputs": [
        {
          "internalType": "bool",
          "name": "",
          "type": "bool"
        }
      ],
      "stateMutability": "view",
      "type": "function"
    },
    {
      "inputs": [
        {
          "internalType": "bytes32",
          "name": "_networkId",
          "type": "bytes32"
        },
        {
          "internalType": "uint256",
          "name": "_epoch",
          "type": "uint256"
        },
        {
          "internalType": "uint256[]",
          "name": "_tickets",
          "type": "uint256[]"
        }
      ],
      "name": "issueTickets",
      "outputs": [],
      "stateMutability": "nonpayable",
      "type": "function"
    },
    {
      "inputs": [
        {
          "internalType": "bytes32",
          "name": "_networkId",
          "type": "bytes32"
        },
        {
          "internalType": "uint256[]",
          "name": "_epoch",
          "type": "uint256[]"
        },
        {
          "internalType": "uint256[][]",
          "name": "_tickets",
          "type": "uint256[][]"
        }
      ],
      "name": "issueTickets",
      "outputs": [],
      "stateMutability": "nonpayable",
      "type": "function"
    },
    {
      "inputs": [
        {
          "internalType": "bytes32",
          "name": "_networkId",
          "type": "bytes32"
        },
        {
          "internalType": "uint256",
          "name": "_epoch",
          "type": "uint256"
        },
        {
          "components": [
            {
              "internalType": "uint256[]",
              "name": "tickets",
              "type": "uint256[]"
            },
            {
              "internalType": "uint8",
              "name": "v",
              "type": "uint8"
            },
            {
              "internalType": "bytes32",
              "name": "r",
              "type": "bytes32"
            },
            {
              "internalType": "bytes32",
              "name": "s",
              "type": "bytes32"
            }
          ],
          "internalType": "struct ClusterRewards.SignedTicket[]",
          "name": "_signedTickets",
          "type": "tuple[]"
        }
      ],
      "name": "issueTickets",
      "outputs": [],
      "stateMutability": "nonpayable",
      "type": "function"
    },
    {
      "inputs": [],
      "name": "latestNewEpochRewardAt",
      "outputs": [
        {
          "internalType": "uint256",
          "name": "",
          "type": "uint256"
        }
      ],
      "stateMutability": "view",
      "type": "function"
    },
    {
      "inputs": [],
      "name": "payoutDenomination",
      "outputs": [
        {
          "internalType": "uint256",
          "name": "",
          "type": "uint256"
        }
      ],
      "stateMutability": "view",
      "type": "function"
    },
    {
      "inputs": [],
      "name": "proxiableUUID",
      "outputs": [
        {
          "internalType": "bytes32",
          "name": "",
          "type": "bytes32"
        }
      ],
      "stateMutability": "view",
      "type": "function"
    },
    {
      "inputs": [],
      "name": "receiverStaking",
      "outputs": [
        {
          "internalType": "contract ReceiverStaking",
          "name": "",
          "type": "address"
        }
      ],
      "stateMutability": "view",
      "type": "function"
    },
    {
      "inputs": [
        {
          "internalType": "bytes32",
          "name": "_networkId",
          "type": "bytes32"
        }
      ],
      "name": "removeNetwork",
      "outputs": [],
      "stateMutability": "nonpayable",
      "type": "function"
    },
    {
      "inputs": [
        {
          "internalType": "bytes32",
          "name": "role",
          "type": "bytes32"
        },
        {
          "internalType": "address",
          "name": "account",
          "type": "address"
        }
      ],
      "name": "renounceRole",
      "outputs": [],
      "stateMutability": "nonpayable",
      "type": "function"
    },
    {
      "inputs": [
        {
          "internalType": "bytes32",
          "name": "role",
          "type": "bytes32"
        },
        {
          "internalType": "address",
          "name": "account",
          "type": "address"
        }
      ],
      "name": "revokeRole",
      "outputs": [],
      "stateMutability": "nonpayable",
      "type": "function"
    },
    {
      "inputs": [
        {
          "internalType": "uint256",
          "name": "",
          "type": "uint256"
        }
      ],
      "name": "rewardDistributedPerEpoch",
      "outputs": [
        {
          "internalType": "uint256",
          "name": "",
          "type": "uint256"
        }
      ],
      "stateMutability": "view",
      "type": "function"
    },
    {
      "inputs": [],
      "name": "rewardDistributionWaitTime",
      "outputs": [
        {
          "internalType": "uint256",
          "name": "",
          "type": "uint256"
        }
      ],
      "stateMutability": "view",
      "type": "function"
    },
    {
      "inputs": [
        {
          "internalType": "bytes32",
          "name": "",
          "type": "bytes32"
        }
      ],
      "name": "rewardWeight",
      "outputs": [
        {
          "internalType": "uint256",
          "name": "",
          "type": "uint256"
        }
      ],
      "stateMutability": "view",
      "type": "function"
    },
    {
      "inputs": [
        {
          "internalType": "bytes4",
          "name": "interfaceId",
          "type": "bytes4"
        }
      ],
      "name": "supportsInterface",
      "outputs": [
        {
          "internalType": "bool",
          "name": "",
          "type": "bool"
        }
      ],
      "stateMutability": "view",
      "type": "function"
    },
    {
      "inputs": [
        {
          "internalType": "address",
          "name": "",
          "type": "address"
        },
        {
          "internalType": "uint256",
          "name": "",
          "type": "uint256"
        }
      ],
      "name": "ticketsIssued",
      "outputs": [
        {
          "internalType": "uint256",
          "name": "",
          "type": "uint256"
        }
      ],
      "stateMutability": "view",
      "type": "function"
    },
    {
      "inputs": [],
      "name": "totalRewardWeight",
      "outputs": [
        {
          "internalType": "uint256",
          "name": "",
          "type": "uint256"
        }
      ],
      "stateMutability": "view",
      "type": "function"
    },
    {
      "inputs": [],
      "name": "totalRewardsPerEpoch",
      "outputs": [
        {
          "internalType": "uint256",
          "name": "",
          "type": "uint256"
        }
      ],
      "stateMutability": "view",
      "type": "function"
    },
    {
      "inputs": [
        {
          "internalType": "bytes32",
          "name": "_networkId",
          "type": "bytes32"
        },
        {
          "internalType": "uint256",
          "name": "_updatedRewardWeight",
          "type": "uint256"
        },
        {
          "internalType": "address",
          "name": "_updatedClusterSelector",
          "type": "address"
        }
      ],
      "name": "updateNetwork",
      "outputs": [],
      "stateMutability": "nonpayable",
      "type": "function"
    },
    {
      "inputs": [
        {
          "internalType": "address",
          "name": "_receiverStaking",
          "type": "address"
        }
      ],
      "name": "updateReceiverStaking",
      "outputs": [],
      "stateMutability": "nonpayable",
      "type": "function"
    },
    {
      "inputs": [
        {
          "internalType": "uint256",
          "name": "_updatedWaitTime",
          "type": "uint256"
        }
      ],
      "name": "updateRewardWaitTime",
      "outputs": [],
      "stateMutability": "nonpayable",
      "type": "function"
    },
    {
      "inputs": [
        {
          "internalType": "address",
          "name": "newImplementation",
          "type": "address"
        }
      ],
      "name": "upgradeTo",
      "outputs": [],
      "stateMutability": "nonpayable",
      "type": "function"
    },
    {
      "inputs": [
        {
          "internalType": "address",
          "name": "newImplementation",
          "type": "address"
        },
        {
          "internalType": "bytes",
          "name": "data",
          "type": "bytes"
        }
      ],
      "name": "upgradeToAndCall",
      "outputs": [],
      "stateMutability": "payable",
      "type": "function"
    }
  ],
  "bytecode": "0x60a0604052306080523480156200001557600080fd5b50600054610100900460ff1615808015620000375750600054600160ff909116105b8062000067575062000054306200014160201b6200294b1760201c565b15801562000067575060005460ff166001145b620000cf5760405162461bcd60e51b815260206004820152602e60248201527f496e697469616c697a61626c653a20636f6e747261637420697320616c72656160448201526d191e481a5b9a5d1a585b1a5e995960921b606482015260840160405180910390fd5b6000805460ff191660011790558015620000f3576000805461ff0019166101001790555b80156200013a576000805461ff0019169055604051600181527f7f26b83ff96e1f2b6a682f133852f6798a09c465da95921460cefb38474024989060200160405180910390a15b5062000150565b6001600160a01b03163b151590565b6080516146ce6200018860003960008181610d0601528181610d9c015281816112e80152818161137e015261147501526146ce6000f3fe6080604052600436106102bb5760003560e01c8063a13a20db1161016e578063d68356ac116100cb578063f31a5f3e1161007f578063fc5f18d311610064578063fc5f18d3146107f7578063fdc4c41f1461082b578063fe259f8a1461084257600080fd5b8063f31a5f3e146107c0578063fc2efed9146107e057600080fd5b8063e6dbfd1f116100b0578063e6dbfd1f14610760578063ea395bc614610780578063ecbd9bd4146107a057600080fd5b8063d68356ac14610707578063dbb797241461072757600080fd5b8063ca15c87311610122578063d279c19111610107578063d279c191146106b0578063d547741f146106d0578063d64b84b5146106f057600080fd5b8063ca15c8731461065c578063ceb209711461067c57600080fd5b8063a2fb75f711610153578063a2fb75f7146105ed578063b47ec8d51461060d578063bde8eb321461063b57600080fd5b8063a13a20db146105b8578063a217fddf146105d857600080fd5b8063440912e31161021c57806370af5fb3116101d05780637de2a230116101b55780637de2a230146105325780639010d07c1461055257806391d148541461057257600080fd5b806370af5fb3146104ed5780637d6186831461051b57600080fd5b806348ba5b771161020157806348ba5b77146104ae5780634f1ef286146104c557806352d1902d146104d857600080fd5b8063440912e31461043f578063452761311461045f57600080fd5b80632f159e901161027357806330d6be2c1161025857806330d6be2c146103df57806336568abe146103ff5780633659cfe61461041f57600080fd5b80632f159e901461039f5780632f2ff15d146103bf57600080fd5b80631b1e3373116102a45780631b1e33731461033157806323c9e4be14610353578063248a9ca31461036f57600080fd5b806301ffc9a7146102c05780630e87eeed146102f5575b600080fd5b3480156102cc57600080fd5b506102e06102db366004613b12565b610862565b60405190151581526020015b60405180910390f35b34801561030157600080fd5b50610323610310366004613b54565b6103546020526000908152604090205481565b6040519081526020016102ec565b34801561033d57600080fd5b5061035161034c366004613c85565b610873565b005b34801561035f57600080fd5b50610323670de0b6b3a764000081565b34801561037b57600080fd5b5061032361038a366004613b54565b60009081526065602052604090206001015490565b3480156103ab57600080fd5b506103516103ba366004613cd5565b610a42565b3480156103cb57600080fd5b506103516103da366004613ddb565b610aeb565b3480156103eb57600080fd5b506103516103fa366004613b54565b610b15565b34801561040b57600080fd5b5061035161041a366004613ddb565b610c70565b34801561042b57600080fd5b5061035161043a366004613e0b565b610cfc565b34801561044b57600080fd5b5061035161045a366004613e28565b610e99565b34801561046b57600080fd5b5061049661047a366004613b54565b61035c602052600090815260409020546001600160a01b031681565b6040516001600160a01b0390911681526020016102ec565b3480156104ba57600080fd5b506103236103565481565b6103516104d3366004613e61565b6112de565b3480156104e457600080fd5b50610323611468565b3480156104f957600080fd5b50610323610508366004613b54565b6103586020526000908152604090205481565b34801561052757600080fd5b506103236103595481565b34801561053e57600080fd5b5061035161054d366004613b54565b61152d565b34801561055e57600080fd5b5061049661056d366004613f09565b61158d565b34801561057e57600080fd5b506102e061058d366004613ddb565b60009182526065602090815260408084206001600160a01b0393909316845291905290205460ff1690565b3480156105c457600080fd5b506102e06105d3366004613f2b565b6115ac565b3480156105e457600080fd5b50610323600081565b3480156105f957600080fd5b50610351610608366004613e0b565b6115e7565b34801561061957600080fd5b50610323610628366004613e0b565b6103536020526000908152604090205481565b34801561064757600080fd5b5061035d54610496906001600160a01b031681565b34801561066857600080fd5b50610323610677366004613b54565b611647565b34801561068857600080fd5b506103237f80a586cc4ecf40a390b370be075aa38ab3cc512c5c1a7bc1007974dbdf2663c781565b3480156106bc57600080fd5b506103236106cb366004613e0b565b61165e565b3480156106dc57600080fd5b506103516106eb366004613ddb565b6116ed565b3480156106fc57600080fd5b506103236103555481565b34801561071357600080fd5b50610351610722366004613f57565b611712565b34801561073357600080fd5b50610323610742366004613f2b565b61035b60209081526000928352604080842090915290825290205481565b34801561076c57600080fd5b5061035161077b3660046140d3565b61194a565b34801561078c57600080fd5b5061035161079b366004613e28565b611ec3565b3480156107ac57600080fd5b506103516107bb3660046141e7565b612344565b3480156107cc57600080fd5b506103236107db366004613b54565b612828565b3480156107ec57600080fd5b506103236103575481565b34801561080357600080fd5b506103237f11a8cb5a02bd6c42679835e867ef2118ba78f088f8300511420c6603c21d9c7881565b34801561083757600080fd5b5061032361035a5481565b34801561084e57600080fd5b5061035161085d366004613b54565b6128eb565b600061086d8261295a565b92915050565b61035d546040517f135022c20000000000000000000000000000000000000000000000000000000081526004810184905260009182916001600160a01b039091169063135022c2906024016040805180830381865afa1580156108da573d6000803e3d6000fd5b505050506040513d601f19601f820116820180604052508101906108fe9190614269565b915091508084106109565760405162461bcd60e51b815260206004820152601a60248201527f4352573a49542d45706f6368206e6f7420636f6d706c6574656400000000000060448201526064015b60405180910390fd5b600085815261035c60205260408082205490517fd7cd2ced000000000000000000000000000000000000000000000000000000008152600481018790526001600160a01b039091169063d7cd2ced90602401600060405180830381865afa1580156109c5573d6000803e3d6000fd5b505050506040513d6000823e601f3d908101601f191682016040526109ed919081019061428d565b905060006109fa87612828565b9050610a0a3387848885896129b0565b6040513390879089907ffacf1123214cd463a29c32c17b086f14a8dcbea1cdf58061be4846268513132b90600090a450505050505050565b815181518114610a945760405162461bcd60e51b815260206004820152601660248201527f4352573a4d49542d696e76616c696420696e7075747300000000000000000000604482015260640161094d565b60005b81811015610ae457610adc85858381518110610ab557610ab5614327565b6020026020010151858481518110610acf57610acf614327565b6020026020010151610873565b600101610a97565b5050505050565b600082815260656020526040902060010154610b0681612cc8565b610b108383612cd2565b505050565b610b2060003361058d565b610b6c5760405162461bcd60e51b815260206004820152600a60248201527f6f6e6c792061646d696e00000000000000000000000000000000000000000000604482015260640161094d565b6000818152610354602090815260408083205461035c909252909120546001600160a01b0316610bde5760405162461bcd60e51b815260206004820152601b60248201527f4352573a524e2d4e6574776f726b20646f65736e742065786973740000000000604482015260640161094d565b60008281526103546020908152604080832083905561035c909152812080547fffffffffffffffffffffffff00000000000000000000000000000000000000001690556103558054839290610c34908490614385565b90915550506040518281527f5facada410c6be008b72512db0d04c9210ef1b5336cff9c7306c741f083bdc5b9060200160405180910390a15050565b6001600160a01b0381163314610cee5760405162461bcd60e51b815260206004820152602f60248201527f416363657373436f6e74726f6c3a2063616e206f6e6c792072656e6f756e636560448201527f20726f6c657320666f722073656c660000000000000000000000000000000000606482015260840161094d565b610cf88282612cdc565b5050565b6001600160a01b037f0000000000000000000000000000000000000000000000000000000000000000163003610d9a5760405162461bcd60e51b815260206004820152602c60248201527f46756e6374696f6e206d7573742062652063616c6c6564207468726f7567682060448201527f64656c656761746563616c6c0000000000000000000000000000000000000000606482015260840161094d565b7f00000000000000000000000000000000000000000000000000000000000000006001600160a01b0316610df57f360894a13ba1a3210667c828492db98dca3e2076cc3735a920a3ca505d382bbc546001600160a01b031690565b6001600160a01b031614610e715760405162461bcd60e51b815260206004820152602c60248201527f46756e6374696f6e206d7573742062652063616c6c6564207468726f7567682060448201527f6163746976652070726f78790000000000000000000000000000000000000000606482015260840161094d565b610e7a81612d3f565b60408051600080825260208201909252610e9691839190612d96565b50565b610ea460003361058d565b610ef05760405162461bcd60e51b815260206004820152600a60248201527f6f6e6c792061646d696e00000000000000000000000000000000000000000000604482015260640161094d565b6000838152610354602052604090205415610f4d5760405162461bcd60e51b815260206004820152601d60248201527f4352573a414e2d4e6574776f726b20616c726561647920657869737473000000604482015260640161094d565b6001600160a01b038116610fc95760405162461bcd60e51b815260206004820152602160248201527f4352573a414e2d436c757374657253656c6563746f72206d757374206578697360448201527f7400000000000000000000000000000000000000000000000000000000000000606482015260840161094d565b6000838152610354602090815260409182902084905561035d5482517fddaa26ad000000000000000000000000000000000000000000000000000000008152925184936001600160a01b039092169263ddaa26ad92600480820193918290030181865afa15801561103e573d6000803e3d6000fd5b505050506040513d601f19601f820116820180604052508101906110629190614398565b816001600160a01b031663ddaa26ad6040518163ffffffff1660e01b8152600401602060405180830381865afa1580156110a0573d6000803e3d6000fd5b505050506040513d601f19601f820116820180604052508101906110c49190614398565b146111115760405162461bcd60e51b815260206004820152601e60248201527f4352573a414e2d73746172742074696d6520696e636f6e73697374656e740000604482015260640161094d565b61035d60009054906101000a90046001600160a01b03166001600160a01b031663ac4746ab6040518163ffffffff1660e01b8152600401602060405180830381865afa158015611165573d6000803e3d6000fd5b505050506040513d601f19601f820116820180604052508101906111899190614398565b816001600160a01b031663ac4746ab6040518163ffffffff1660e01b8152600401602060405180830381865afa1580156111c7573d6000803e3d6000fd5b505050506040513d601f19601f820116820180604052508101906111eb9190614398565b146112385760405162461bcd60e51b815260206004820181905260248201527f4352573a414e2d65706f6368206c656e67746820696e636f6e73697374656e74604482015260640161094d565b600084815261035c6020526040812080547fffffffffffffffffffffffff0000000000000000000000000000000000000000166001600160a01b038416179055610355805485929061128b9084906143b1565b909155505060408051858152602081018590526001600160a01b0384168183015290517fd527d933533fca35060f0cb4c3d0d306aa76807f2669606487b28954e8d8ca519181900360600190a150505050565b6001600160a01b037f000000000000000000000000000000000000000000000000000000000000000016300361137c5760405162461bcd60e51b815260206004820152602c60248201527f46756e6374696f6e206d7573742062652063616c6c6564207468726f7567682060448201527f64656c656761746563616c6c0000000000000000000000000000000000000000606482015260840161094d565b7f00000000000000000000000000000000000000000000000000000000000000006001600160a01b03166113d77f360894a13ba1a3210667c828492db98dca3e2076cc3735a920a3ca505d382bbc546001600160a01b031690565b6001600160a01b0316146114535760405162461bcd60e51b815260206004820152602c60248201527f46756e6374696f6e206d7573742062652063616c6c6564207468726f7567682060448201527f6163746976652070726f78790000000000000000000000000000000000000000606482015260840161094d565b61145c82612d3f565b610cf882826001612d96565b6000306001600160a01b037f000000000000000000000000000000000000000000000000000000000000000016146115085760405162461bcd60e51b815260206004820152603860248201527f555550535570677261646561626c653a206d757374206e6f742062652063616c60448201527f6c6564207468726f7567682064656c656761746563616c6c0000000000000000606482015260840161094d565b507f360894a13ba1a3210667c828492db98dca3e2076cc3735a920a3ca505d382bbc90565b61153860003361058d565b6115845760405162461bcd60e51b815260206004820152600a60248201527f6f6e6c792061646d696e00000000000000000000000000000000000000000000604482015260640161094d565b610e9681612f36565b60008281526097602052604081206115a59083612f73565b9392505050565b6001600160a01b038216600090815261035b602090815260408083206101008504845290915281205460ff808416900360020a1615156115a5565b6115f260003361058d565b61163e5760405162461bcd60e51b815260206004820152600a60248201527f6f6e6c792061646d696e00000000000000000000000000000000000000000000604482015260640161094d565b610e9681612f7f565b600081815260976020526040812061086d90612fe6565b60007f11a8cb5a02bd6c42679835e867ef2118ba78f088f8300511420c6603c21d9c7861168a81612cc8565b6001600160a01b0383166000908152610353602052604090205460018111156116e15760006116ba600183614385565b6001600160a01b0386166000908152610353602052604090206001905593506116e7915050565b60009250505b50919050565b60008281526065602052604090206001015461170881612cc8565b610b108383612cdc565b61035d546040517f135022c20000000000000000000000000000000000000000000000000000000081526004810184905260009182916001600160a01b039091169063135022c2906024016040805180830381865afa158015611779573d6000803e3d6000fd5b505050506040513d601f19601f8201168201806040525081019061179d9190614269565b915091508084106117f05760405162461bcd60e51b815260206004820152601b60248201527f4352573a5349542d45706f6368206e6f7420636f6d706c657465640000000000604482015260640161094d565b600085815261035c60205260408082205490517fd7cd2ced000000000000000000000000000000000000000000000000000000008152600481018790526001600160a01b039091169063d7cd2ced90602401600060405180830381865afa15801561185f573d6000803e3d6000fd5b505050506040513d6000823e601f3d908101601f19168201604052611887919081019061428d565b9050600061189487612828565b905060005b85518110156119405760006118c88783815181106118b9576118b9614327565b60200260200101518a8a612ff0565b90506118f58189868a86815181106118e2576118e2614327565b602002602001015160000151878b6129b0565b806001600160a01b0316888a7ffacf1123214cd463a29c32c17b086f14a8dcbea1cdf58061be4846268513132b60405160405180910390a45080611938816143c4565b915050611899565b5050505050505050565b600054610100900460ff161580801561196a5750600054600160ff909116105b806119845750303b158015611984575060005460ff166001145b6119f65760405162461bcd60e51b815260206004820152602e60248201527f496e697469616c697a61626c653a20636f6e747261637420697320616c72656160448201527f647920696e697469616c697a6564000000000000000000000000000000000000606482015260840161094d565b600080547fffffffffffffffffffffffffffffffffffffffffffffffffffffffffffffff001660011790558015611a5457600080547fffffffffffffffffffffffffffffffffffffffffffffffffffffffffffff00ff166101001790555b8351855114611af15760405162461bcd60e51b815260206004820152604760248201527f4352573a492d45616368204e6574776f726b4964206e656564206120636f727260448201527f6573706f6e64696e672052657761726450657245706f636820616e642076696360648201527f6520766572736100000000000000000000000000000000000000000000000000608482015260a40161094d565b8251855114611b8e5760405162461bcd60e51b815260206004820152604860248201527f4352573a492d45616368204e6574776f726b4964206e656564206120636f727260448201527f6573706f6e64696e6720636c757374657253656c6563746f7220616e6420766960648201527f6365207665727361000000000000000000000000000000000000000000000000608482015260a40161094d565b611b96613147565b611b9e613147565b611ba6613147565b611bae613147565b611bb6613147565b611bbe613147565b611bc96000896131c6565b611bf37f11a8cb5a02bd6c42679835e867ef2118ba78f088f8300511420c6603c21d9c78886131c6565b611bfc86612f7f565b6000805b8651811015611e3957858181518110611c1b57611c1b614327565b60200260200101516103546000898481518110611c3a57611c3a614327565b602002602001015181526020019081526020016000208190555060006001600160a01b0316858281518110611c7157611c71614327565b60200260200101516001600160a01b031603611cf55760405162461bcd60e51b815260206004820152602160248201527f4352573a434e2d436c757374657253656c6563746f72206d757374206578697360448201527f7400000000000000000000000000000000000000000000000000000000000000606482015260840161094d565b848181518110611d0757611d07614327565b602002602001015161035c6000898481518110611d2657611d26614327565b6020026020010151815260200190815260200160002060006101000a8154816001600160a01b0302191690836001600160a01b03160217905550858181518110611d7257611d72614327565b602002602001015182611d8591906143b1565b91507fd527d933533fca35060f0cb4c3d0d306aa76807f2669606487b28954e8d8ca51878281518110611dba57611dba614327565b6020026020010151878381518110611dd457611dd4614327565b6020026020010151878481518110611dee57611dee614327565b6020026020010151604051611e1f9392919092835260208301919091526001600160a01b0316604082015260600190565b60405180910390a180611e31816143c4565b915050611c00565b50610355819055611e49836131d0565b50670de0b6b3a764000061035755801561194057600080547fffffffffffffffffffffffffffffffffffffffffffffffffffffffffffff00ff169055604051600181527f7f26b83ff96e1f2b6a682f133852f6798a09c465da95921460cefb38474024989060200160405180910390a15050505050505050565b611ece60003361058d565b611f1a5760405162461bcd60e51b815260206004820152600a60248201527f6f6e6c792061646d696e00000000000000000000000000000000000000000000604482015260640161094d565b600083815261035460205260409020546001600160a01b038216611fa65760405162461bcd60e51b815260206004820152602160248201527f4352573a554e2d436c757374657253656c6563746f72206d757374206578697360448201527f7400000000000000000000000000000000000000000000000000000000000000606482015260840161094d565b600084815261035c60205260409020546001600160a01b03168061200c5760405162461bcd60e51b815260206004820152601b60248201527f4352573a554e2d4e6574776f726b20646f65736e742065786973740000000000604482015260640161094d565b806001600160a01b0316836001600160a01b0316146122c45761035d54604080517fddaa26ad000000000000000000000000000000000000000000000000000000008152905185926001600160a01b03169163ddaa26ad9160048083019260209291908290030181865afa158015612088573d6000803e3d6000fd5b505050506040513d601f19601f820116820180604052508101906120ac9190614398565b816001600160a01b031663ddaa26ad6040518163ffffffff1660e01b8152600401602060405180830381865afa1580156120ea573d6000803e3d6000fd5b505050506040513d601f19601f8201168201806040525081019061210e9190614398565b1461215b5760405162461bcd60e51b815260206004820152601e60248201527f4352573a554e2d73746172742074696d6520696e636f6e73697374656e740000604482015260640161094d565b61035d60009054906101000a90046001600160a01b03166001600160a01b031663ac4746ab6040518163ffffffff1660e01b8152600401602060405180830381865afa1580156121af573d6000803e3d6000fd5b505050506040513d601f19601f820116820180604052508101906121d39190614398565b816001600160a01b031663ac4746ab6040518163ffffffff1660e01b8152600401602060405180830381865afa158015612211573d6000803e3d6000fd5b505050506040513d601f19601f820116820180604052508101906122359190614398565b146122825760405162461bcd60e51b815260206004820181905260248201527f4352573a554e2d65706f6368206c656e67746820696e636f6e73697374656e74604482015260640161094d565b50600085815261035c6020526040902080547fffffffffffffffffffffffff0000000000000000000000000000000000000000166001600160a01b0385161790555b6000858152610354602052604090208490556103555484906122e7908490614385565b6122f191906143b1565b6103555560408051868152602081018690526001600160a01b0385168183015290517f4d5619329616576b8a23c55200af1bf3facbd3ed1ebdca4ab119f81a8c71a25e9181900360600190a15050505050565b61236e7f80a586cc4ecf40a390b370be075aa38ab3cc512c5c1a7bc1007974dbdf2663c73361058d565b6123ba5760405162461bcd60e51b815260206004820152600b60248201527f6f6e6c7920666565646572000000000000000000000000000000000000000000604482015260640161094d565b42622b818061035d60009054906101000a90046001600160a01b03166001600160a01b031663ddaa26ad6040518163ffffffff1660e01b8152600401602060405180830381865afa158015612413573d6000803e3d6000fd5b505050506040513d601f19601f820116820180604052508101906124379190614398565b61244191906143b1565b61244e90620151806143b1565b1161249b5760405162461bcd60e51b815260206004820152601460248201527f4352573a462d496e76616c6964206d6574686f64000000000000000000000000604482015260640161094d565b60008181526103586020526040812054908190036125655761035a54610359546124c591906143b1565b421161255f5760405162461bcd60e51b815260206004820152604560248201527f4352573a462d43616e7420646973747269627574652072657761726420666f7260448201527f206e65772065706f63682077697468696e20737563682073686f727420696e7460648201527f657276616c000000000000000000000000000000000000000000000000000000608482015260a40161094d565b42610359555b61035754600088815261035460209081526040808320546103555461035d5483517fac4746ab0000000000000000000000000000000000000000000000000000000081529351929594919386936001600160a01b039092169263ac4746ab926004808401938290030181865afa1580156125e3573d6000803e3d6000fd5b505050506040513d601f19601f820116820180604052508101906126079190614398565b6103565461261890620151806143fc565b6126229190614442565b61262c91906143fc565b6126369190614442565b905060005b888110156127335760008489898481811061265857612658614327565b905060200201358461266a91906143fc565b6126749190614442565b905061268081876143b1565b95508061035360008d8d8681811061269a5761269a614327565b90506020020160208101906126af9190613e0b565b6001600160a01b03166001600160a01b03168152602001908152602001600020546126da91906143b1565b61035360008d8d868181106126f1576126f1614327565b90506020020160208101906127069190613e0b565b6001600160a01b03168152602081019190915260400160002055508061272b816143c4565b91505061263b565b50808411156127d05760405162461bcd60e51b815260206004820152604160248201527f4352573a462d526577617264204469737472696275746564202063616e74202060448201527f6265206d6f726520207468616e20746f74616c52657761726450657245706f6360648201527f6800000000000000000000000000000000000000000000000000000000000000608482015260a40161094d565b6000858152610358602052604090819020859055517f3fdd4ae70d0675c6923caf899c19621fbb5ccff8acc1128bd12bd5b46066bb5a90612814908c815260200190565b60405180910390a150505050505050505050565b6000622b818061035d60009054906101000a90046001600160a01b03166001600160a01b031663ddaa26ad6040518163ffffffff1660e01b8152600401602060405180830381865afa158015612882573d6000803e3d6000fd5b505050506040513d601f19601f820116820180604052508101906128a69190614398565b6128b091906143b1565b4210156128bf57506000919050565b6103555460008381526103546020526040902054610356546128e191906143fc565b61086d9190614442565b6128f660003361058d565b6129425760405162461bcd60e51b815260206004820152600a60248201527f6f6e6c792061646d696e00000000000000000000000000000000000000000000604482015260640161094d565b610e96816131d0565b6001600160a01b03163b151590565b60007fffffffff0000000000000000000000000000000000000000000000000000000082167f5a05180f00000000000000000000000000000000000000000000000000000000148061086d575061086d82613206565b61035d546040517fc64ea9820000000000000000000000000000000000000000000000000000000081526001600160a01b03888116600483015260248201889052600092839291169063c64ea982906044016040805180830381865afa158015612a1e573d6000803e3d6000fd5b505050506040513d601f19601f82011682018060405250810190612a42919061447d565b6001600160a01b038116600090815261035b602090815260408083206101008d048452909152902054919350915060ff808916900360020a1615612ac85760405162461bcd60e51b815260206004820152601f60248201527f4352573a495052542d5469636b65747320616c72656164792069737375656400604482015260640161094d565b600083612ad584876143fc565b612adf9190614442565b90506000805b8751811015612c0757670de0b6b3a7640000888281518110612b0957612b09614327565b60200260200101511115612b5f5760405162461bcd60e51b815260206004820152601d60248201527f4352573a495052542d496e76616c6964207469636b657420636f756e74000000604482015260640161094d565b670de0b6b3a7640000888281518110612b7a57612b7a614327565b6020026020010151840281612b9157612b91614413565b0461035360008b8481518110612ba957612ba9614327565b60200260200101516001600160a01b03166001600160a01b0316815260200190815260200160002060008282540192505081905550878181518110612bf057612bf0614327565b602002602001015182019150806001019050612ae5565b50670de0b6b3a76400008114612c855760405162461bcd60e51b815260206004820152602360248201527f4352573a495052542d546f74616c207469636b657420636f756e7420696e766160448201527f6c69640000000000000000000000000000000000000000000000000000000000606482015260840161094d565b506001600160a01b038216600090815261035b602090815260408083206101008c0484529091529020805460ff808b16900360020a179055505050505050505050565b610e96813361329d565b610cf88282613312565b612ce68282613334565b612cf06000611647565b600003610cf85760405162461bcd60e51b815260206004820152601360248201527f43616e6e6f742062652061646d696e6c65737300000000000000000000000000604482015260640161094d565b612d4a60003361058d565b610e965760405162461bcd60e51b815260206004820152600a60248201527f6f6e6c792061646d696e00000000000000000000000000000000000000000000604482015260640161094d565b7f4910fdfa16fed3260ed0e7147f7cc6da11a60208b5b9406d12a635614ffd91435460ff1615612dc957610b1083613356565b826001600160a01b03166352d1902d6040518163ffffffff1660e01b8152600401602060405180830381865afa925050508015612e23575060408051601f3d908101601f19168201909252612e2091810190614398565b60015b612e955760405162461bcd60e51b815260206004820152602e60248201527f45524331393637557067726164653a206e657720696d706c656d656e7461746960448201527f6f6e206973206e6f742055555053000000000000000000000000000000000000606482015260840161094d565b7f360894a13ba1a3210667c828492db98dca3e2076cc3735a920a3ca505d382bbc8114612f2a5760405162461bcd60e51b815260206004820152602960248201527f45524331393637557067726164653a20756e737570706f727465642070726f7860448201527f6961626c65555549440000000000000000000000000000000000000000000000606482015260840161094d565b50610b1083838361342c565b61035a8190556040518181527fa8981e71e498e96c265179bb22e89df96dcf5d4ddb400c8b5a126bbfc8892086906020015b60405180910390a150565b60006115a58383613457565b61035d80547fffffffffffffffffffffffff0000000000000000000000000000000000000000166001600160a01b0383169081179091556040519081527f6f006887fb31c9b1cb84f0612e0d1d6f46206e939840603ab42d186c182d633e90602001612f68565b600061086d825490565b604080518082018252601c81527f19457468657265756d205369676e6564204d6573736167653a0a33320000000060208083019190915285519251600093849284926130409289928992016144a2565b6040516020818303038152906040528051906020012060405160200161306792919061451b565b60408051601f198184030181528282528051602091820120898201518a8401516060808d01516000885294870180875284905260ff909216948601949094528401929092526080830152915060019060a0016020604051602081039080840390855afa1580156130db573d6000803e3d6000fd5b5050604051601f1901519350506001600160a01b03831661313e5760405162461bcd60e51b815260206004820152601a60248201527f4352573a495653542d496e76616c6964207369676e6174757265000000000000604482015260640161094d565b50509392505050565b600054610100900460ff166131c45760405162461bcd60e51b815260206004820152602b60248201527f496e697469616c697a61626c653a20636f6e7472616374206973206e6f74206960448201527f6e697469616c697a696e67000000000000000000000000000000000000000000606482015260840161094d565b565b610cf88282612cd2565b6103568190556040518181527f2200a867406d1045d4ee4da8938118683406f907803111905cc0354edca57cc790602001612f68565b60007fffffffff0000000000000000000000000000000000000000000000000000000082167f7965db0b00000000000000000000000000000000000000000000000000000000148061086d57507f01ffc9a7000000000000000000000000000000000000000000000000000000007fffffffff0000000000000000000000000000000000000000000000000000000083161461086d565b60008281526065602090815260408083206001600160a01b038516845290915290205460ff16610cf8576132d081613481565b6132db836020613493565b6040516020016132ec92919061453d565b60408051601f198184030181529082905262461bcd60e51b825261094d916004016145be565b61331c82826136bc565b6000828152609760205260409020610b10908261377c565b61333e8282613791565b6000828152609760205260409020610b109082613832565b6001600160a01b0381163b6133d35760405162461bcd60e51b815260206004820152602d60248201527f455243313936373a206e657720696d706c656d656e746174696f6e206973206e60448201527f6f74206120636f6e747261637400000000000000000000000000000000000000606482015260840161094d565b7f360894a13ba1a3210667c828492db98dca3e2076cc3735a920a3ca505d382bbc80547fffffffffffffffffffffffff0000000000000000000000000000000000000000166001600160a01b0392909216919091179055565b61343583613847565b6000825111806134425750805b15610b10576134518383613887565b50505050565b600082600001828154811061346e5761346e614327565b9060005260206000200154905092915050565b606061086d6001600160a01b03831660145b606060006134a28360026143fc565b6134ad9060026143b1565b67ffffffffffffffff8111156134c5576134c5613b6d565b6040519080825280601f01601f1916602001820160405280156134ef576020820181803683370190505b5090507f30000000000000000000000000000000000000000000000000000000000000008160008151811061352657613526614327565b60200101907effffffffffffffffffffffffffffffffffffffffffffffffffffffffffffff1916908160001a9053507f78000000000000000000000000000000000000000000000000000000000000008160018151811061358957613589614327565b60200101907effffffffffffffffffffffffffffffffffffffffffffffffffffffffffffff1916908160001a90535060006135c58460026143fc565b6135d09060016143b1565b90505b600181111561366d577f303132333435363738396162636465660000000000000000000000000000000085600f166010811061361157613611614327565b1a60f81b82828151811061362757613627614327565b60200101907effffffffffffffffffffffffffffffffffffffffffffffffffffffffffffff1916908160001a90535060049490941c93613666816145f1565b90506135d3565b5083156115a55760405162461bcd60e51b815260206004820181905260248201527f537472696e67733a20686578206c656e67746820696e73756666696369656e74604482015260640161094d565b60008281526065602090815260408083206001600160a01b038516845290915290205460ff16610cf85760008281526065602090815260408083206001600160a01b0385168452909152902080547fffffffffffffffffffffffffffffffffffffffffffffffffffffffffffffff001660011790556137383390565b6001600160a01b0316816001600160a01b0316837f2f8788117e7eff1d82e926ec794901d17c78024a50270940304540a733656f0d60405160405180910390a45050565b60006115a5836001600160a01b038416613992565b60008281526065602090815260408083206001600160a01b038516845290915290205460ff1615610cf85760008281526065602090815260408083206001600160a01b038516808552925280832080547fffffffffffffffffffffffffffffffffffffffffffffffffffffffffffffff0016905551339285917ff6391f5c32d9c69d2a47ea670b442974b53935d1edc7fd64eb21e047a839171b9190a45050565b60006115a5836001600160a01b0384166139e1565b61385081613356565b6040516001600160a01b038216907fbc7cd75a20ee27fd9adebab32041f755214dbc6bffa90cc0225b39da2e5c2d3b90600090a250565b60606001600160a01b0383163b6139065760405162461bcd60e51b815260206004820152602660248201527f416464726573733a2064656c65676174652063616c6c20746f206e6f6e2d636f60448201527f6e74726163740000000000000000000000000000000000000000000000000000606482015260840161094d565b600080846001600160a01b0316846040516139219190614626565b600060405180830381855af49150503d806000811461395c576040519150601f19603f3d011682016040523d82523d6000602084013e613961565b606091505b5091509150613989828260405180606001604052806027815260200161467260279139613ad4565b95945050505050565b60008181526001830160205260408120546139d95750815460018181018455600084815260208082209093018490558454848252828601909352604090209190915561086d565b50600061086d565b60008181526001830160205260408120548015613aca576000613a05600183614385565b8554909150600090613a1990600190614385565b9050818114613a7e576000866000018281548110613a3957613a39614327565b9060005260206000200154905080876000018481548110613a5c57613a5c614327565b6000918252602080832090910192909255918252600188019052604090208390555b8554869080613a8f57613a8f614642565b60019003818190600052602060002001600090559055856001016000868152602001908152602001600020600090556001935050505061086d565b600091505061086d565b60608315613ae35750816115a5565b6115a58383815115613af85781518083602001fd5b8060405162461bcd60e51b815260040161094d91906145be565b600060208284031215613b2457600080fd5b81357fffffffff00000000000000000000000000000000000000000000000000000000811681146115a557600080fd5b600060208284031215613b6657600080fd5b5035919050565b7f4e487b7100000000000000000000000000000000000000000000000000000000600052604160045260246000fd5b6040516080810167ffffffffffffffff81118282101715613bbf57613bbf613b6d565b60405290565b604051601f8201601f1916810167ffffffffffffffff81118282101715613bee57613bee613b6d565b604052919050565b600067ffffffffffffffff821115613c1057613c10613b6d565b5060051b60200190565b600082601f830112613c2b57600080fd5b81356020613c40613c3b83613bf6565b613bc5565b82815260059290921b84018101918181019086841115613c5f57600080fd5b8286015b84811015613c7a5780358352918301918301613c63565b509695505050505050565b600080600060608486031215613c9a57600080fd5b8335925060208401359150604084013567ffffffffffffffff811115613cbf57600080fd5b613ccb86828701613c1a565b9150509250925092565b600080600060608486031215613cea57600080fd5b8335925060208085013567ffffffffffffffff80821115613d0a57600080fd5b613d1688838901613c1a565b94506040870135915080821115613d2c57600080fd5b818701915087601f830112613d4057600080fd5b8135613d4e613c3b82613bf6565b81815260059190911b8301840190848101908a831115613d6d57600080fd5b8585015b83811015613da557803585811115613d895760008081fd5b613d978d89838a0101613c1a565b845250918601918601613d71565b508096505050505050509250925092565b6001600160a01b0381168114610e9657600080fd5b8035613dd681613db6565b919050565b60008060408385031215613dee57600080fd5b823591506020830135613e0081613db6565b809150509250929050565b600060208284031215613e1d57600080fd5b81356115a581613db6565b600080600060608486031215613e3d57600080fd5b83359250602084013591506040840135613e5681613db6565b809150509250925092565b60008060408385031215613e7457600080fd5b8235613e7f81613db6565b915060208381013567ffffffffffffffff80821115613e9d57600080fd5b818601915086601f830112613eb157600080fd5b813581811115613ec357613ec3613b6d565b613ed584601f19601f84011601613bc5565b91508082528784828501011115613eeb57600080fd5b80848401858401376000848284010152508093505050509250929050565b60008060408385031215613f1c57600080fd5b50508035926020909101359150565b60008060408385031215613f3e57600080fd5b8235613f4981613db6565b946020939093013593505050565b600080600060608486031215613f6c57600080fd5b833592506020808501359250604085013567ffffffffffffffff80821115613f9357600080fd5b818701915087601f830112613fa757600080fd5b8135613fb5613c3b82613bf6565b81815260059190911b8301840190848101908a831115613fd457600080fd5b8585015b83811015613da557803585811115613fef57600080fd5b86016080818e03601f190112156140065760008081fd5b61400e613b9c565b88820135878111156140205760008081fd5b61402e8f8b83860101613c1a565b825250604082013560ff811681146140465760008081fd5b818a01526060828101356040830152608090920135918101919091528352918601918601613fd8565b600082601f83011261408057600080fd5b81356020614090613c3b83613bf6565b82815260059290921b840181019181810190868411156140af57600080fd5b8286015b84811015613c7a5780356140c681613db6565b83529183019183016140b3565b600080600080600080600060e0888a0312156140ee57600080fd5b87356140f981613db6565b9650602088013561410981613db6565b955061411760408901613dcb565b9450606088013567ffffffffffffffff8082111561413457600080fd5b6141408b838c01613c1a565b955060808a013591508082111561415657600080fd5b6141628b838c01613c1a565b945060a08a013591508082111561417857600080fd5b506141858a828b0161406f565b92505060c0880135905092959891949750929550565b60008083601f8401126141ad57600080fd5b50813567ffffffffffffffff8111156141c557600080fd5b6020830191508360208260051b85010111156141e057600080fd5b9250929050565b6000806000806000806080878903121561420057600080fd5b86359550602087013567ffffffffffffffff8082111561421f57600080fd5b61422b8a838b0161419b565b9097509550604089013591508082111561424457600080fd5b5061425189828a0161419b565b979a9699509497949695606090950135949350505050565b6000806040838503121561427c57600080fd5b505080516020909101519092909150565b600060208083850312156142a057600080fd5b825167ffffffffffffffff8111156142b757600080fd5b8301601f810185136142c857600080fd5b80516142d6613c3b82613bf6565b81815260059190911b820183019083810190878311156142f557600080fd5b928401925b8284101561431c57835161430d81613db6565b825292840192908401906142fa565b979650505050505050565b7f4e487b7100000000000000000000000000000000000000000000000000000000600052603260045260246000fd5b7f4e487b7100000000000000000000000000000000000000000000000000000000600052601160045260246000fd5b8181038181111561086d5761086d614356565b6000602082840312156143aa57600080fd5b5051919050565b8082018082111561086d5761086d614356565b60007fffffffffffffffffffffffffffffffffffffffffffffffffffffffffffffffff82036143f5576143f5614356565b5060010190565b808202811582820484141761086d5761086d614356565b7f4e487b7100000000000000000000000000000000000000000000000000000000600052601260045260246000fd5b600082614478577f4e487b7100000000000000000000000000000000000000000000000000000000600052601260045260246000fd5b500490565b6000806040838503121561449057600080fd5b825191506020830151613e0081613db6565b6000606082018583526020858185015260606040850152818551808452608086019150828701935060005b818110156144e9578451835293830193918301916001016144cd565b509098975050505050505050565b60005b838110156145125781810151838201526020016144fa565b50506000910152565b6000835161452d8184602088016144f7565b9190910191825250602001919050565b7f416363657373436f6e74726f6c3a206163636f756e74200000000000000000008152600083516145758160178501602088016144f7565b7f206973206d697373696e6720726f6c652000000000000000000000000000000060179184019182015283516145b28160288401602088016144f7565b01602801949350505050565b60208152600082518060208401526145dd8160408501602087016144f7565b601f01601f19169190910160400192915050565b60008161460057614600614356565b507fffffffffffffffffffffffffffffffffffffffffffffffffffffffffffffffff0190565b600082516146388184602087016144f7565b9190910192915050565b7f4e487b7100000000000000000000000000000000000000000000000000000000600052603160045260246000fdfe416464726573733a206c6f772d6c6576656c2064656c65676174652063616c6c206661696c6564a26469706673582212206f718ad3c84a12d53595d08075e76e411aeb7b5c615a47243a7a096ed60ab0f264736f6c63430008110033",
  "linkReferences": {},
  "deployedLinkReferences": {}
}