{
  "_format": "hh-sol-artifact-1",
  "contractName": "ClusterRegistry",
  "sourceName": "contracts/staking/ClusterRegistry.sol",
  "abi": [
    {
      "inputs": [],
      "stateMutability": "nonpayable",
      "type": "constructor"
    },
    {
      "anonymous": false,
      "inputs": [
        {
          "indexed": false,
          "internalType": "address",
          "name": "previousAdmin",
          "type": "address"
        },
        {
          "indexed": false,
          "internalType": "address",
          "name": "newAdmin",
          "type": "address"
        }
      ],
      "name": "AdminChanged",
      "type": "event"
    },
    {
      "anonymous": false,
      "inputs": [
        {
          "indexed": true,
          "internalType": "address",
          "name": "beacon",
          "type": "address"
        }
      ],
      "name": "BeaconUpgraded",
      "type": "event"
    },
    {
      "anonymous": false,
      "inputs": [
        {
          "indexed": true,
          "internalType": "address",
          "name": "cluster",
          "type": "address"
        },
        {
          "indexed": false,
          "internalType": "address",
          "name": "clientKey",
          "type": "address"
        }
      ],
      "name": "ClientKeyUpdated",
      "type": "event"
    },
    {
      "anonymous": false,
      "inputs": [
        {
          "indexed": true,
          "internalType": "address",
          "name": "cluster",
          "type": "address"
        },
        {
          "indexed": true,
          "internalType": "bytes32",
          "name": "networkId",
          "type": "bytes32"
        },
        {
          "indexed": false,
          "internalType": "uint256",
          "name": "commission",
          "type": "uint256"
        },
        {
          "indexed": false,
          "internalType": "address",
          "name": "rewardAddress",
          "type": "address"
        },
        {
          "indexed": false,
          "internalType": "address",
          "name": "clientKey",
          "type": "address"
        }
      ],
      "name": "ClusterRegistered",
      "type": "event"
    },
    {
      "anonymous": false,
      "inputs": [
        {
          "indexed": true,
          "internalType": "address",
          "name": "cluster",
          "type": "address"
        },
        {
          "indexed": false,
          "internalType": "uint256",
          "name": "effectiveTime",
          "type": "uint256"
        }
      ],
      "name": "ClusterUnregisterRequested",
      "type": "event"
    },
    {
      "anonymous": false,
      "inputs": [
        {
          "indexed": true,
          "internalType": "address",
          "name": "cluster",
          "type": "address"
        },
        {
          "indexed": false,
          "internalType": "uint256",
          "name": "updatedAt",
          "type": "uint256"
        }
      ],
      "name": "ClusterUnregistered",
      "type": "event"
    },
    {
      "anonymous": false,
      "inputs": [
        {
          "indexed": true,
          "internalType": "address",
          "name": "cluster",
          "type": "address"
        },
        {
          "indexed": false,
          "internalType": "uint256",
          "name": "commissionAfterUpdate",
          "type": "uint256"
        },
        {
          "indexed": false,
          "internalType": "uint256",
          "name": "effectiveTime",
          "type": "uint256"
        }
      ],
      "name": "CommissionUpdateRequested",
      "type": "event"
    },
    {
      "anonymous": false,
      "inputs": [
        {
          "indexed": true,
          "internalType": "address",
          "name": "cluster",
          "type": "address"
        },
        {
          "indexed": false,
          "internalType": "uint256",
          "name": "updatedCommission",
          "type": "uint256"
        },
        {
          "indexed": false,
          "internalType": "uint256",
          "name": "updatedAt",
          "type": "uint256"
        }
      ],
      "name": "CommissionUpdated",
      "type": "event"
    },
    {
      "anonymous": false,
      "inputs": [
        {
          "indexed": false,
          "internalType": "uint8",
          "name": "version",
          "type": "uint8"
        }
      ],
      "name": "Initialized",
      "type": "event"
    },
    {
      "anonymous": false,
      "inputs": [
        {
          "indexed": true,
          "internalType": "bytes32",
          "name": "selector",
          "type": "bytes32"
        },
        {
          "indexed": false,
          "internalType": "uint256",
          "name": "prevLockTime",
          "type": "uint256"
        },
        {
          "indexed": false,
          "internalType": "uint256",
          "name": "updatedLockTime",
          "type": "uint256"
        }
      ],
      "name": "LockTimeUpdated",
      "type": "event"
    },
    {
      "anonymous": false,
      "inputs": [
        {
          "indexed": true,
          "internalType": "address",
          "name": "cluster",
          "type": "address"
        },
        {
          "indexed": true,
          "internalType": "bytes32",
          "name": "networkId",
          "type": "bytes32"
        },
        {
          "indexed": false,
          "internalType": "uint256",
          "name": "effectiveTime",
          "type": "uint256"
        }
      ],
      "name": "NetworkSwitchRequested",
      "type": "event"
    },
    {
      "anonymous": false,
      "inputs": [
        {
          "indexed": true,
          "internalType": "address",
          "name": "cluster",
          "type": "address"
        },
        {
          "indexed": true,
          "internalType": "bytes32",
          "name": "networkId",
          "type": "bytes32"
        },
        {
          "indexed": false,
          "internalType": "uint256",
          "name": "updatedAt",
          "type": "uint256"
        }
      ],
      "name": "NetworkSwitched",
      "type": "event"
    },
    {
      "anonymous": false,
      "inputs": [
        {
          "indexed": true,
          "internalType": "address",
          "name": "cluster",
          "type": "address"
        },
        {
          "indexed": false,
          "internalType": "address",
          "name": "updatedRewardAddress",
          "type": "address"
        }
      ],
      "name": "RewardAddressUpdated",
      "type": "event"
    },
    {
      "anonymous": false,
      "inputs": [
        {
          "indexed": true,
          "internalType": "address",
          "name": "rewardDelegators",
          "type": "address"
        }
      ],
      "name": "RewardDelegatorsUpdated",
      "type": "event"
    },
    {
      "anonymous": false,
      "inputs": [
        {
          "indexed": true,
          "internalType": "bytes32",
          "name": "role",
          "type": "bytes32"
        },
        {
          "indexed": true,
          "internalType": "bytes32",
          "name": "previousAdminRole",
          "type": "bytes32"
        },
        {
          "indexed": true,
          "internalType": "bytes32",
          "name": "newAdminRole",
          "type": "bytes32"
        }
      ],
      "name": "RoleAdminChanged",
      "type": "event"
    },
    {
      "anonymous": false,
      "inputs": [
        {
          "indexed": true,
          "internalType": "bytes32",
          "name": "role",
          "type": "bytes32"
        },
        {
          "indexed": true,
          "internalType": "address",
          "name": "account",
          "type": "address"
        },
        {
          "indexed": true,
          "internalType": "address",
          "name": "sender",
          "type": "address"
        }
      ],
      "name": "RoleGranted",
      "type": "event"
    },
    {
      "anonymous": false,
      "inputs": [
        {
          "indexed": true,
          "internalType": "bytes32",
          "name": "role",
          "type": "bytes32"
        },
        {
          "indexed": true,
          "internalType": "address",
          "name": "account",
          "type": "address"
        },
        {
          "indexed": true,
          "internalType": "address",
          "name": "sender",
          "type": "address"
        }
      ],
      "name": "RoleRevoked",
      "type": "event"
    },
    {
      "anonymous": false,
      "inputs": [
        {
          "indexed": true,
          "internalType": "address",
          "name": "implementation",
          "type": "address"
        }
      ],
      "name": "Upgraded",
      "type": "event"
    },
    {
      "inputs": [],
      "name": "DEFAULT_ADMIN_ROLE",
      "outputs": [
        {
          "internalType": "bytes32",
          "name": "",
          "type": "bytes32"
        }
      ],
      "stateMutability": "view",
      "type": "function"
    },
    {
      "inputs": [
        {
          "internalType": "address",
          "name": "",
          "type": "address"
        }
      ],
      "name": "clientKeys",
      "outputs": [
        {
          "internalType": "address",
          "name": "",
          "type": "address"
        }
      ],
      "stateMutability": "view",
      "type": "function"
    },
    {
      "inputs": [
        {
          "internalType": "address",
          "name": "_cluster",
          "type": "address"
        }
      ],
      "name": "getClientKey",
      "outputs": [
        {
          "internalType": "address",
          "name": "",
          "type": "address"
        }
      ],
      "stateMutability": "view",
      "type": "function"
    },
    {
      "inputs": [
        {
          "internalType": "address",
          "name": "_cluster",
          "type": "address"
        }
      ],
      "name": "getCluster",
      "outputs": [
        {
          "internalType": "uint256",
          "name": "commission",
          "type": "uint256"
        },
        {
          "internalType": "address",
          "name": "rewardAddress",
          "type": "address"
        },
        {
          "internalType": "address",
          "name": "clientKey",
          "type": "address"
        },
        {
          "internalType": "bytes32",
          "name": "networkId",
          "type": "bytes32"
        },
        {
          "internalType": "bool",
          "name": "isValidCluster",
          "type": "bool"
        }
      ],
      "stateMutability": "view",
      "type": "function"
    },
    {
      "inputs": [
        {
          "internalType": "address",
          "name": "_cluster",
          "type": "address"
        }
      ],
      "name": "getCommission",
      "outputs": [
        {
          "internalType": "uint256",
          "name": "",
          "type": "uint256"
        }
      ],
      "stateMutability": "view",
      "type": "function"
    },
    {
      "inputs": [
        {
          "internalType": "address",
          "name": "_cluster",
          "type": "address"
        }
      ],
      "name": "getNetwork",
      "outputs": [
        {
          "internalType": "bytes32",
          "name": "",
          "type": "bytes32"
        }
      ],
      "stateMutability": "view",
      "type": "function"
    },
    {
      "inputs": [
        {
          "internalType": "address",
          "name": "_cluster",
          "type": "address"
        }
      ],
      "name": "getRewardAddress",
      "outputs": [
        {
          "internalType": "address",
          "name": "",
          "type": "address"
        }
      ],
      "stateMutability": "view",
      "type": "function"
    },
    {
      "inputs": [
        {
          "internalType": "address",
          "name": "_cluster",
          "type": "address"
        }
      ],
      "name": "getRewardInfo",
      "outputs": [
        {
          "internalType": "uint256",
          "name": "",
          "type": "uint256"
        },
        {
          "internalType": "address",
          "name": "",
          "type": "address"
        }
      ],
      "stateMutability": "view",
      "type": "function"
    },
    {
      "inputs": [
        {
          "internalType": "bytes32",
          "name": "role",
          "type": "bytes32"
        }
      ],
      "name": "getRoleAdmin",
      "outputs": [
        {
          "internalType": "bytes32",
          "name": "",
          "type": "bytes32"
        }
      ],
      "stateMutability": "view",
      "type": "function"
    },
    {
      "inputs": [
        {
          "internalType": "bytes32",
          "name": "role",
          "type": "bytes32"
        },
        {
          "internalType": "uint256",
          "name": "index",
          "type": "uint256"
        }
      ],
      "name": "getRoleMember",
      "outputs": [
        {
          "internalType": "address",
          "name": "",
          "type": "address"
        }
      ],
      "stateMutability": "view",
      "type": "function"
    },
    {
      "inputs": [
        {
          "internalType": "bytes32",
          "name": "role",
          "type": "bytes32"
        }
      ],
      "name": "getRoleMemberCount",
      "outputs": [
        {
          "internalType": "uint256",
          "name": "",
          "type": "uint256"
        }
      ],
      "stateMutability": "view",
      "type": "function"
    },
    {
      "inputs": [
        {
          "internalType": "bytes32",
          "name": "role",
          "type": "bytes32"
        },
        {
          "internalType": "address",
          "name": "account",
          "type": "address"
        }
      ],
      "name": "grantRole",
      "outputs": [],
      "stateMutability": "nonpayable",
      "type": "function"
    },
    {
      "inputs": [
        {
          "internalType": "bytes32",
          "name": "role",
          "type": "bytes32"
        },
        {
          "internalType": "address",
          "name": "account",
          "type": "address"
        }
      ],
      "name": "hasRole",
      "outputs": [
        {
          "internalType": "bool",
          "name": "",
          "type": "bool"
        }
      ],
      "stateMutability": "view",
      "type": "function"
    },
    {
      "inputs": [
        {
          "internalType": "uint256[3]",
          "name": "_lockWaitTimes",
          "type": "uint256[3]"
        },
        {
          "internalType": "address",
          "name": "_rewardDelegators",
          "type": "address"
        }
      ],
      "name": "initialize",
      "outputs": [],
      "stateMutability": "nonpayable",
      "type": "function"
    },
    {
      "inputs": [
        {
          "internalType": "address",
          "name": "_cluster",
          "type": "address"
        }
      ],
      "name": "isClusterValid",
      "outputs": [
        {
          "internalType": "bool",
          "name": "",
          "type": "bool"
        }
      ],
      "stateMutability": "view",
      "type": "function"
    },
    {
      "inputs": [
        {
          "internalType": "bytes32",
          "name": "",
          "type": "bytes32"
        }
      ],
      "name": "lockWaitTime",
      "outputs": [
        {
          "internalType": "uint256",
          "name": "",
          "type": "uint256"
        }
      ],
      "stateMutability": "view",
      "type": "function"
    },
    {
      "inputs": [
        {
          "internalType": "bytes32",
          "name": "",
          "type": "bytes32"
        }
      ],
      "name": "locks",
      "outputs": [
        {
          "internalType": "uint256",
          "name": "unlockTime",
          "type": "uint256"
        },
        {
          "internalType": "uint256",
          "name": "iValue",
          "type": "uint256"
        }
      ],
      "stateMutability": "view",
      "type": "function"
    },
    {
      "inputs": [],
      "name": "proxiableUUID",
      "outputs": [
        {
          "internalType": "bytes32",
          "name": "",
          "type": "bytes32"
        }
      ],
      "stateMutability": "view",
      "type": "function"
    },
    {
      "inputs": [
        {
          "internalType": "bytes32",
          "name": "_networkId",
          "type": "bytes32"
        },
        {
          "internalType": "uint256",
          "name": "_commission",
          "type": "uint256"
        },
        {
          "internalType": "address",
          "name": "_rewardAddress",
          "type": "address"
        },
        {
          "internalType": "address",
          "name": "_clientKey",
          "type": "address"
        }
      ],
      "name": "register",
      "outputs": [],
      "stateMutability": "nonpayable",
      "type": "function"
    },
    {
      "inputs": [
        {
          "internalType": "bytes32",
          "name": "role",
          "type": "bytes32"
        },
        {
          "internalType": "address",
          "name": "account",
          "type": "address"
        }
      ],
      "name": "renounceRole",
      "outputs": [],
      "stateMutability": "nonpayable",
      "type": "function"
    },
    {
      "inputs": [
        {
          "internalType": "uint256",
          "name": "_commission",
          "type": "uint256"
        }
      ],
      "name": "requestCommissionUpdate",
      "outputs": [],
      "stateMutability": "nonpayable",
      "type": "function"
    },
    {
      "inputs": [
        {
          "internalType": "bytes32",
          "name": "_networkId",
          "type": "bytes32"
        }
      ],
      "name": "requestNetworkSwitch",
      "outputs": [],
      "stateMutability": "nonpayable",
      "type": "function"
    },
    {
      "inputs": [],
      "name": "requestUnregister",
      "outputs": [],
      "stateMutability": "nonpayable",
      "type": "function"
    },
    {
      "inputs": [
        {
          "internalType": "bytes32",
          "name": "role",
          "type": "bytes32"
        },
        {
          "internalType": "address",
          "name": "account",
          "type": "address"
        }
      ],
      "name": "revokeRole",
      "outputs": [],
      "stateMutability": "nonpayable",
      "type": "function"
    },
    {
      "inputs": [],
      "name": "rewardDelegators",
      "outputs": [
        {
          "internalType": "contract IRewardDelegators",
          "name": "",
          "type": "address"
        }
      ],
      "stateMutability": "view",
      "type": "function"
    },
    {
      "inputs": [
        {
          "internalType": "bytes4",
          "name": "interfaceId",
          "type": "bytes4"
        }
      ],
      "name": "supportsInterface",
      "outputs": [
        {
          "internalType": "bool",
          "name": "",
          "type": "bool"
        }
      ],
      "stateMutability": "view",
      "type": "function"
    },
    {
      "inputs": [],
      "name": "switchNetwork",
      "outputs": [],
      "stateMutability": "nonpayable",
      "type": "function"
    },
    {
      "inputs": [],
      "name": "unregister",
      "outputs": [],
      "stateMutability": "nonpayable",
      "type": "function"
    },
    {
      "inputs": [
        {
          "internalType": "address",
          "name": "_clientKey",
          "type": "address"
        }
      ],
      "name": "updateClientKey",
      "outputs": [],
      "stateMutability": "nonpayable",
      "type": "function"
    },
    {
      "inputs": [
        {
          "internalType": "uint256",
          "name": "_commission",
          "type": "uint256"
        },
        {
          "internalType": "bytes32",
          "name": "_networkId",
          "type": "bytes32"
        },
        {
          "internalType": "address",
          "name": "_rewardAddress",
          "type": "address"
        },
        {
          "internalType": "address",
          "name": "_clientKey",
          "type": "address"
        }
      ],
      "name": "updateCluster",
      "outputs": [],
      "stateMutability": "nonpayable",
      "type": "function"
    },
    {
      "inputs": [],
      "name": "updateCommission",
      "outputs": [],
      "stateMutability": "nonpayable",
      "type": "function"
    },
    {
      "inputs": [
        {
          "internalType": "bytes32",
          "name": "_selector",
          "type": "bytes32"
        },
        {
          "internalType": "uint256",
          "name": "_updatedWaitTime",
          "type": "uint256"
        }
      ],
      "name": "updateLockWaitTime",
      "outputs": [],
      "stateMutability": "nonpayable",
      "type": "function"
    },
    {
      "inputs": [
        {
          "internalType": "address",
          "name": "_rewardAddress",
          "type": "address"
        }
      ],
      "name": "updateRewardAddress",
      "outputs": [],
      "stateMutability": "nonpayable",
      "type": "function"
    },
    {
      "inputs": [
        {
          "internalType": "address",
          "name": "_updatedRewardDelegators",
          "type": "address"
        }
      ],
      "name": "updateRewardDelegators",
      "outputs": [],
      "stateMutability": "nonpayable",
      "type": "function"
    },
    {
      "inputs": [
        {
          "internalType": "address",
          "name": "newImplementation",
          "type": "address"
        }
      ],
      "name": "upgradeTo",
      "outputs": [],
      "stateMutability": "nonpayable",
      "type": "function"
    },
    {
      "inputs": [
        {
          "internalType": "address",
          "name": "newImplementation",
          "type": "address"
        },
        {
          "internalType": "bytes",
          "name": "data",
          "type": "bytes"
        }
      ],
      "name": "upgradeToAndCall",
      "outputs": [],
      "stateMutability": "payable",
      "type": "function"
    }
  ],
  "bytecode": "0x60a0604052306080523480156200001557600080fd5b50600054610100900460ff1615808015620000375750600054600160ff909116105b8062000067575062000054306200014160201b6200269d1760201c565b15801562000067575060005460ff166001145b620000cf5760405162461bcd60e51b815260206004820152602e60248201527f496e697469616c697a61626c653a20636f6e747261637420697320616c72656160448201526d191e481a5b9a5d1a585b1a5e995960921b606482015260840160405180910390fd5b6000805460ff191660011790558015620000f3576000805461ff0019166101001790555b80156200013a576000805461ff0019169055604051600181527f7f26b83ff96e1f2b6a682f133852f6798a09c465da95921460cefb38474024989060200160405180910390a15b5062000150565b6001600160a01b03163b151590565b6080516138f8620001886000396000818161115f015281816111f50152818161135c015281816113f2015261153d01526138f86000f3fe60806040526004361061024f5760003560e01c80637566d90911610138578063ca15c873116100b0578063e7f037661161007f578063f334dcb211610064578063f334dcb21461079c578063fe7b5fa7146107d6578063fff0d1901461080d57600080fd5b8063e7f037661461073d578063ed5e84371461075257600080fd5b8063ca15c873146106d3578063d547741f146106f3578063d75c6ec014610713578063e79a198f1461072857600080fd5b80639ebd3a2b11610107578063a217fddf116100ec578063a217fddf14610667578063bb62b3e21461067c578063c634c1651461069c57600080fd5b80639ebd3a2b14610632578063a173f7be1461065257600080fd5b80637566d9091461058c5780639010d07c146105ac57806391d14854146105cc578063944dd5a21461061257600080fd5b80632f74ada0116101cb57806347ae58b31161019a5780634f1ef2861161017f5780634f1ef2861461054457806351ce9fae1461055757806352d1902d1461057757600080fd5b806347ae58b3146104f657806348ad85721461051657600080fd5b80632f74ada01461047557806336568abe146104955780633659cfe6146104b55780633fa364cd146104d557600080fd5b806317915e8d116102225780631f4c06f7116102075780631f4c06f7146103f7578063248a9ca3146104175780632f2ff15d1461045557600080fd5b806317915e8d1461037f5780631c3a3182146103d557600080fd5b806301ffc9a71461025457806306032d74146102895780630e327ee8146102ed5780630f96ffc214610342575b600080fd5b34801561026057600080fd5b5061027461026f3660046133d7565b61082d565b60405190151581526020015b60405180910390f35b34801561029557600080fd5b506102d06102a4366004613435565b6001600160a01b0390811660009081526103556020526040902060018101546002909101549092911690565b604080519283526001600160a01b03909116602083015201610280565b3480156102f957600080fd5b5061032a610308366004613435565b6001600160a01b03908116600090815261035560205260409020600201541690565b6040516001600160a01b039091168152602001610280565b34801561034e57600080fd5b5061032a61035d366004613435565b6001600160a01b03908116600090815261035560205260409020600301541690565b34801561038b57600080fd5b5061039f61039a366004613435565b61083e565b604080519586526001600160a01b039485166020870152929093169184019190915260608301521515608082015260a001610280565b3480156103e157600080fd5b506103f56103f0366004613450565b6108b3565b005b34801561040357600080fd5b506103f5610412366004613469565b610b25565b34801561042357600080fd5b50610447610432366004613450565b60009081526065602052604090206001015490565b604051908152602001610280565b34801561046157600080fd5b506103f56104703660046134af565b610e19565b34801561048157600080fd5b506103f56104903660046134db565b610e43565b3480156104a157600080fd5b506103f56104b03660046134af565b6110c9565b3480156104c157600080fd5b506103f56104d0366004613435565b611155565b3480156104e157600080fd5b506103575461032a906001600160a01b031681565b34801561050257600080fd5b506103f5610511366004613435565b6112f2565b34801561052257600080fd5b50610447610531366004613450565b6103546020526000908152604090205481565b6103f5610552366004613544565b611352565b34801561056357600080fd5b50610274610572366004613435565b6114dc565b34801561058357600080fd5b50610447611530565b34801561059857600080fd5b506103f56105a7366004613469565b6115f5565b3480156105b857600080fd5b5061032a6105c7366004613606565b61166a565b3480156105d857600080fd5b506102746105e73660046134af565b60009182526065602090815260408084206001600160a01b0393909316845291905290205460ff1690565b34801561061e57600080fd5b506103f561062d366004613435565b611689565b34801561063e57600080fd5b506103f561064d366004613450565b61175d565b34801561065e57600080fd5b506103f5611976565b34801561067357600080fd5b50610447600081565b34801561068857600080fd5b506103f5610697366004613435565b611b9b565b3480156106a857600080fd5b5061032a6106b7366004613435565b610356602052600090815260409020546001600160a01b031681565b3480156106df57600080fd5b506104476106ee366004613450565b611d1e565b3480156106ff57600080fd5b506103f561070e3660046134af565b611d35565b34801561071f57600080fd5b506103f5611d5a565b34801561073457600080fd5b506103f561203e565b34801561074957600080fd5b506103f5612448565b34801561075e57600080fd5b5061078761076d366004613450565b610353602052600090815260409020805460019091015482565b60408051928352602083019190915201610280565b3480156107a857600080fd5b506104476107b7366004613435565b6001600160a01b03166000908152610355602052604090206001015490565b3480156107e257600080fd5b506104476107f1366004613435565b6001600160a01b03166000908152610355602052604090205490565b34801561081957600080fd5b506103f5610828366004613606565b61263c565b6000610838826126ac565b92915050565b6000806000806000610869866001600160a01b03166000908152610355602052604090206001015490565b6001600160a01b038781166000908152610355602052604090206002810154600382015491549083169291909116906108a18a6114dc565b939a9299509097509550909350915050565b6108bc336114dc565b61090d5760405162461bcd60e51b815260206004820152601d60248201527f43523a5243552d436c7573746572206e6f74207265676973746572656400000060448201526064015b60405180910390fd5b606481111561095e5760405162461bcd60e51b815260206004820181905260248201527f43523a5243552d436f6d6d697373696f6e206d6f7265207468616e20313030256044820152606401610904565b60007f7877e81172e1242eb265a9ff5a14c913d44197a6e15e0bc1d984f40be9096403336040516020016109c192919091825260601b7fffffffffffffffffffffffffffffffffffffffff00000000000000000000000016602082015260340190565b60408051601f19818403018152918152815160209283012060008181526103539093529120549091508015610a5d5760405162461bcd60e51b8152602060048201526024808201527f43523a5243552d436f6d6d697373696f6e2075706461746520696e2070726f6760448201527f72657373000000000000000000000000000000000000000000000000000000006064820152608401610904565b7f7877e81172e1242eb265a9ff5a14c913d44197a6e15e0bc1d984f40be909640360009081526103546020527f60fcc90382a4d3b58fe9b5d36497fc099c7897eb35852f7de6d7a351a503f92254610ab59042613657565b6040805180820182528281526020808201888152600088815261035383528490209251835551600190920191909155815187815290810183905291925033917f02ad6423bf8f7f88434f991300ee2389a81cf3a7603554f7671b8df602149b62910160405180910390a250505050565b610b2e336114dc565b15610ba15760405162461bcd60e51b815260206004820152602260248201527f43523a522d436c757374657220697320616c726561647920726567697374657260448201527f65640000000000000000000000000000000000000000000000000000000000006064820152608401610904565b6064831115610bf25760405162461bcd60e51b815260206004820152601e60248201527f43523a522d436f6d6d697373696f6e206d6f7265207468616e203130302500006044820152606401610904565b6001600160a01b03818116600090815261035660205260409020541615610c815760405162461bcd60e51b815260206004820152602160248201527f43523a52202d20436c69656e74206b657920697320616c72656164792075736560448201527f64000000000000000000000000000000000000000000000000000000000000006064820152608401610904565b33600081815261035560209081526040808320600181018890556002810180546001600160a01b038981167fffffffffffffffffffffffff000000000000000000000000000000000000000092831617909255600383018054938c90558883167fffffffffffffffffffffff0000000000000000000000000000000000000000009094168417740100000000000000000000000000000000000000001790559185526103569093528184208054909116851790556103575481517f349b15cb000000000000000000000000000000000000000000000000000000008152600481019590955260248501899052905191169263349b15cb92604480830193919282900301818387803b158015610d9557600080fd5b505af1158015610da9573d6000803e3d6000fd5b5050505083610db53390565b6001600160a01b03167f94d6ec8e8d159bff788a0f0fd13c3142344c8d63b22872ec56c8473e42fd6a26858585604051610e0b939291909283526001600160a01b03918216602084015216604082015260600190565b60405180910390a350505050565b600082815260656020526040902060010154610e3481612702565b610e3e838361270c565b505050565b600054610100900460ff1615808015610e635750600054600160ff909116105b80610e7d5750303b158015610e7d575060005460ff166001145b610eef5760405162461bcd60e51b815260206004820152602e60248201527f496e697469616c697a61626c653a20636f6e747261637420697320616c72656160448201527f647920696e697469616c697a65640000000000000000000000000000000000006064820152608401610904565b600080547fffffffffffffffffffffffffffffffffffffffffffffffffffffffffffffff001660011790558015610f4d57600080547fffffffffffffffffffffffffffffffffffffffffffffffffffffffffffff00ff166101001790555b610f55612716565b610f5d612716565b610f65612716565b610f6d612716565b610f75612716565b610f7d612716565b610f88600033612795565b604080516060810182527f7877e81172e1242eb265a9ff5a14c913d44197a6e15e0bc1d984f40be909640381527f18981a75d138782f14f3fbd4153783a0dc1558f28dc5538bf045e7de84cb2ae260208201527f027b176aae0bed270786878cbabc238973eac20b1957aae44b82a73cc8c7080c9181019190915260005b60038110156110575761104582826003811061102457611024613699565b602002015186836003811061103b5761103b613699565b602002013561279f565b8061104f816136c8565b915050611006565b50611061836127fe565b508015610e3e57600080547fffffffffffffffffffffffffffffffffffffffffffffffffffffffffffff00ff169055604051600181527f7f26b83ff96e1f2b6a682f133852f6798a09c465da95921460cefb38474024989060200160405180910390a1505050565b6001600160a01b03811633146111475760405162461bcd60e51b815260206004820152602f60248201527f416363657373436f6e74726f6c3a2063616e206f6e6c792072656e6f756e636560448201527f20726f6c657320666f722073656c6600000000000000000000000000000000006064820152608401610904565b6111518282612861565b5050565b6001600160a01b037f00000000000000000000000000000000000000000000000000000000000000001630036111f35760405162461bcd60e51b815260206004820152602c60248201527f46756e6374696f6e206d7573742062652063616c6c6564207468726f7567682060448201527f64656c656761746563616c6c00000000000000000000000000000000000000006064820152608401610904565b7f00000000000000000000000000000000000000000000000000000000000000006001600160a01b031661124e7f360894a13ba1a3210667c828492db98dca3e2076cc3735a920a3ca505d382bbc546001600160a01b031690565b6001600160a01b0316146112ca5760405162461bcd60e51b815260206004820152602c60248201527f46756e6374696f6e206d7573742062652063616c6c6564207468726f7567682060448201527f6163746976652070726f787900000000000000000000000000000000000000006064820152608401610904565b6112d3816128c4565b604080516000808252602082019092526112ef9183919061291b565b50565b6112fd6000336105e7565b6113495760405162461bcd60e51b815260206004820152600a60248201527f6f6e6c792061646d696e000000000000000000000000000000000000000000006044820152606401610904565b6112ef816127fe565b6001600160a01b037f00000000000000000000000000000000000000000000000000000000000000001630036113f05760405162461bcd60e51b815260206004820152602c60248201527f46756e6374696f6e206d7573742062652063616c6c6564207468726f7567682060448201527f64656c656761746563616c6c00000000000000000000000000000000000000006064820152608401610904565b7f00000000000000000000000000000000000000000000000000000000000000006001600160a01b031661144b7f360894a13ba1a3210667c828492db98dca3e2076cc3735a920a3ca505d382bbc546001600160a01b031690565b6001600160a01b0316146114c75760405162461bcd60e51b815260206004820152602c60248201527f46756e6374696f6e206d7573742062652063616c6c6564207468726f7567682060448201527f6163746976652070726f787900000000000000000000000000000000000000006064820152608401610904565b6114d0826128c4565b6111518282600161291b565b6000806001600160a01b0383166000908152610355602052604090206003015474010000000000000000000000000000000000000000900460ff1660018111156115285761152861366a565b141592915050565b6000306001600160a01b037f000000000000000000000000000000000000000000000000000000000000000016146115d05760405162461bcd60e51b815260206004820152603860248201527f555550535570677261646561626c653a206d757374206e6f742062652063616c60448201527f6c6564207468726f7567682064656c656761746563616c6c00000000000000006064820152608401610904565b507f360894a13ba1a3210667c828492db98dca3e2076cc3735a920a3ca505d382bbc90565b8215611604576116048361175d565b6001600160a01b0382161561161c5761161c82611689565b6001600160a01b038116156116345761163481611b9b565b7fffffffffffffffffffffffffffffffffffffffffffffffffffffffffffffffff841461166457611664846108b3565b50505050565b60008281526097602052604081206116829083612abb565b9392505050565b611692336114dc565b6116de5760405162461bcd60e51b815260206004820152601d60248201527f43523a5552412d436c7573746572206e6f7420726567697374657265640000006044820152606401610904565b336000818152610355602090815260409182902060020180547fffffffffffffffffffffffff0000000000000000000000000000000000000000166001600160a01b03861690811790915591519182527f4c5b658b1805527ff7cb46c40a77c5aa5058aa9183f6b94c5d17a9de818cb4eb91015b60405180910390a250565b611766336114dc565b6117b25760405162461bcd60e51b815260206004820152601d60248201527f43523a524e532d436c7573746572206e6f7420726567697374657265640000006044820152606401610904565b60007f18981a75d138782f14f3fbd4153783a0dc1558f28dc5538bf045e7de84cb2ae23360405160200161181592919091825260601b7fffffffffffffffffffffffffffffffffffffffff00000000000000000000000016602082015260340190565b60408051601f198184030181529181528151602092830120600081815261035390935291205490915080156118b25760405162461bcd60e51b815260206004820152602160248201527f43523a524e532d4e6574776f726b2073776974636820696e2070726f6772657360448201527f73000000000000000000000000000000000000000000000000000000000000006064820152608401610904565b7f18981a75d138782f14f3fbd4153783a0dc1558f28dc5538bf045e7de84cb2ae260009081526103546020527f8696bc5553f0bd905da32ef1b5d632f93a3b498f6f1dc41023f17ca9c81c78ab5461190a9042613657565b60408051808201825282815260208082018881526000888152610353909252929020905181559051600190910155905083336001600160a01b03167f547dff4e33e8a0f3b5bc5d85967802696ebdfb70c2fb6535b816055626cc842a83604051610e0b91815260200190565b61197f336114dc565b6119cb5760405162461bcd60e51b815260206004820152601c60248201527f43523a52552d436c7573746572206e6f742072656769737465726564000000006044820152606401610904565b60007f027b176aae0bed270786878cbabc238973eac20b1957aae44b82a73cc8c7080c33604051602001611a2e92919091825260601b7fffffffffffffffffffffffffffffffffffffffff00000000000000000000000016602082015260340190565b60408051601f19818403018152918152815160209283012060008181526103539093529120549091508015611acb5760405162461bcd60e51b815260206004820152602860248201527f43523a52552d556e726567697374726174696f6e20616c726561647920696e2060448201527f70726f67726573730000000000000000000000000000000000000000000000006064820152608401610904565b7f027b176aae0bed270786878cbabc238973eac20b1957aae44b82a73cc8c7080c60009081526103546020527f71f3fc8dd7891fe14dc57ae98ab67035ee09d235cef48aae220e65ce5147d5aa54611b239042613657565b604080518082018252828152600060208083018281528883526103539091529290209051815590516001909101559050336001600160a01b03167fb27198c1c90d896e17e7fdcc7234d77a92839bf4629f6e514fa89efa9530477382604051611b8e91815260200190565b60405180910390a2505050565b611ba4336114dc565b611bf05760405162461bcd60e51b815260206004820152601d60248201527f43523a55434b2d436c7573746572206e6f7420726567697374657265640000006044820152606401610904565b6001600160a01b03818116600090815261035660205260409020541615611c7f5760405162461bcd60e51b815260206004820152602360248201527f43523a55434b202d20436c69656e74206b657920697320616c7265616479207560448201527f73656400000000000000000000000000000000000000000000000000000000006064820152608401610904565b3360008181526103556020908152604080832060030180546001600160a01b039081168552610356845282852080547fffffffffffffffffffffffff00000000000000000000000000000000000000009081169091558254811691881691821790925580855293829020805490911685179055519182527fe3278ea3ad4d101e07a8ed576698b53aa126ad3061abedd3eb4bda0b8590a8429101611752565b600081815260976020526040812061083890612ac7565b600082815260656020526040902060010154611d5081612702565b610e3e8383612861565b60007f18981a75d138782f14f3fbd4153783a0dc1558f28dc5538bf045e7de84cb2ae233604051602001611dbd92919091825260601b7fffffffffffffffffffffffffffffffffffffffff00000000000000000000000016602082015260340190565b60408051601f19818403018152918152815160209283012060008181526103539093529082205490925090819003611e375760405162461bcd60e51b815260206004820152601f60248201527f43523a534e2d4e6f20737769746368206e6574776f726b2072657175657374006044820152606401610904565b428110611e865760405162461bcd60e51b815260206004820181905260248201527f43523a534e2d4e6574776f726b2073776974636820696e2070726f67726573736044820152606401610904565b6000828152610353602090815260408083206001015461035754338086526103559094528285205483517f12b1a76600000000000000000000000000000000000000000000000000000000815260048101959095526024850152915190936001600160a01b03909216926312b1a76692604480830193919282900301818387803b158015611f1357600080fd5b505af1158015611f27573d6000803e3d6000fd5b50505050806103556000611f383390565b6001600160a01b039081168252602082019290925260400160002091909155610357541663349b15cb336040517fffffffff0000000000000000000000000000000000000000000000000000000060e084901b1681526001600160a01b03909116600482015260248101849052604401600060405180830381600087803b158015611fc257600080fd5b505af1158015611fd6573d6000803e3d6000fd5b5050505080611fe23390565b6001600160a01b03167f6baf22d499543edc2da95c5ede111d540373d2f84fe995079ecb45dbd7a47c518460405161201c91815260200190565b60405180910390a3505060009081526103536020526040812081815560010155565b336000908152610355602052604081206003015474010000000000000000000000000000000000000000900460ff16600181111561207e5761207e61366a565b036120cb5760405162461bcd60e51b815260206004820152601c60248201527f43523a55522d436c7573746572206e6f742072656769737465726564000000006044820152606401610904565b60007f027b176aae0bed270786878cbabc238973eac20b1957aae44b82a73cc8c7080c3360405160200161212e92919091825260601b7fffffffffffffffffffffffffffffffffffffffff00000000000000000000000016602082015260340190565b60408051601f198184030181529181528151602092830120600081815261035390935290822054909250908190036121a85760405162461bcd60e51b815260206004820152601f60248201527f43523a55522d4e6f20756e726567697374726174696f6e2072657175657374006044820152606401610904565b42811061221d5760405162461bcd60e51b815260206004820152602860248201527f43523a55522d556e726567697374726174696f6e20616c726561647920696e2060448201527f70726f67726573730000000000000000000000000000000000000000000000006064820152608401610904565b336000818152610355602090815260409182902060030180547fffffffffffffffffffffff00ffffffffffffffffffffffffffffffffffffffff169055815184815291517ff57f6deb3dd36063034fdd928555a21800a842054e759d406c427909ee4b6d329281900390910190a23360008181526103556020818152604080842060038101546001600160a01b039081168652610356845282862080547fffffffffffffffffffffffff0000000000000000000000000000000000000000169055888652610353808552838720878155600190810188905584517f7877e81172e1242eb265a9ff5a14c913d44197a6e15e0bc1d984f40be9096403818801527fffffffffffffffffffffffffffffffffffffffff00000000000000000000000060608b901b16818701819052865160348184030181526054830188528051908901208a52838852868a208a815583018a90557f18981a75d138782f14f3fbd4153783a0dc1558f28dc5538bf045e7de84cb2ae2607483015260948201528551608881830301815260a882018088528151918901919091208a52928752858920898155909101889055610357548989529690955291547f12b1a7660000000000000000000000000000000000000000000000000000000090925260ac84019690965260cc8301525191909316926312b1a7669260ec80830193919282900301818387803b15801561242c57600080fd5b505af1158015612440573d6000803e3d6000fd5b505050505050565b60007f7877e81172e1242eb265a9ff5a14c913d44197a6e15e0bc1d984f40be9096403336040516020016124ab92919091825260601b7fffffffffffffffffffffffffffffffffffffffff00000000000000000000000016602082015260340190565b60408051601f1981840301815291815281516020928301206000818152610353909352908220549092509081900361254b5760405162461bcd60e51b815260206004820152602360248201527f43523a55434d2d4e6f20636f6d6d697373696f6e20757064617465207265717560448201527f65737400000000000000000000000000000000000000000000000000000000006064820152608401610904565b4281106125bf5760405162461bcd60e51b8152602060048201526024808201527f43523a55434d2d436f6d6d697373696f6e2075706461746520696e2070726f6760448201527f72657373000000000000000000000000000000000000000000000000000000006064820152608401610904565b60008281526103536020908152604080832060019081015433808652610355855294839020909101819055815181815292830185905292917f6e500db30ce535d38852e318f333e9be41a3fec6c65d234ebb06203c896db9a5910160405180910390a2505060009081526103536020526040812081815560010155565b6126476000336105e7565b6126935760405162461bcd60e51b815260206004820152600a60248201527f6f6e6c792061646d696e000000000000000000000000000000000000000000006044820152606401610904565b611151828261279f565b6001600160a01b03163b151590565b60007fffffffff0000000000000000000000000000000000000000000000000000000082167f5a05180f000000000000000000000000000000000000000000000000000000001480610838575061083882612ad1565b6112ef8133612b68565b6111518282612bdd565b600054610100900460ff166127935760405162461bcd60e51b815260206004820152602b60248201527f496e697469616c697a61626c653a20636f6e7472616374206973206e6f74206960448201527f6e697469616c697a696e670000000000000000000000000000000000000000006064820152608401610904565b565b611151828261270c565b6000828152610354602090815260409182902054825190815290810183905283917f5793ae75ad4ae6b7dc6492360b49ac802ad3f243d386419158aa87761383df5a910160405180910390a26000918252610354602052604090912055565b61035780547fffffffffffffffffffffffff0000000000000000000000000000000000000000166001600160a01b0383169081179091556040517f243ffdd63877ab377a1957f30859f60dc0024c9f363070af2421c0298bc8277290600090a250565b61286b8282612bff565b6128756000611d1e565b6000036111515760405162461bcd60e51b815260206004820152601360248201527f43616e6e6f742062652061646d696e6c657373000000000000000000000000006044820152606401610904565b6128cf6000336105e7565b6112ef5760405162461bcd60e51b815260206004820152600a60248201527f6f6e6c792061646d696e000000000000000000000000000000000000000000006044820152606401610904565b7f4910fdfa16fed3260ed0e7147f7cc6da11a60208b5b9406d12a635614ffd91435460ff161561294e57610e3e83612c21565b826001600160a01b03166352d1902d6040518163ffffffff1660e01b8152600401602060405180830381865afa9250505080156129a8575060408051601f3d908101601f191682019092526129a591810190613700565b60015b612a1a5760405162461bcd60e51b815260206004820152602e60248201527f45524331393637557067726164653a206e657720696d706c656d656e7461746960448201527f6f6e206973206e6f7420555550530000000000000000000000000000000000006064820152608401610904565b7f360894a13ba1a3210667c828492db98dca3e2076cc3735a920a3ca505d382bbc8114612aaf5760405162461bcd60e51b815260206004820152602960248201527f45524331393637557067726164653a20756e737570706f727465642070726f7860448201527f6961626c655555494400000000000000000000000000000000000000000000006064820152608401610904565b50610e3e838383612cf7565b60006116828383612d1c565b6000610838825490565b60007fffffffff0000000000000000000000000000000000000000000000000000000082167f7965db0b00000000000000000000000000000000000000000000000000000000148061083857507f01ffc9a7000000000000000000000000000000000000000000000000000000007fffffffff00000000000000000000000000000000000000000000000000000000831614610838565b60008281526065602090815260408083206001600160a01b038516845290915290205460ff1661115157612b9b81612d46565b612ba6836020612d58565b604051602001612bb792919061373d565b60408051601f198184030181529082905262461bcd60e51b8252610904916004016137be565b612be78282612f81565b6000828152609760205260409020610e3e9082613041565b612c098282613056565b6000828152609760205260409020610e3e90826130f7565b6001600160a01b0381163b612c9e5760405162461bcd60e51b815260206004820152602d60248201527f455243313936373a206e657720696d706c656d656e746174696f6e206973206e60448201527f6f74206120636f6e7472616374000000000000000000000000000000000000006064820152608401610904565b7f360894a13ba1a3210667c828492db98dca3e2076cc3735a920a3ca505d382bbc80547fffffffffffffffffffffffff0000000000000000000000000000000000000000166001600160a01b0392909216919091179055565b612d008361310c565b600082511180612d0d5750805b15610e3e57611664838361314c565b6000826000018281548110612d3357612d33613699565b9060005260206000200154905092915050565b60606108386001600160a01b03831660145b60606000612d678360026137f1565b612d72906002613657565b67ffffffffffffffff811115612d8a57612d8a613515565b6040519080825280601f01601f191660200182016040528015612db4576020820181803683370190505b5090507f300000000000000000000000000000000000000000000000000000000000000081600081518110612deb57612deb613699565b60200101907effffffffffffffffffffffffffffffffffffffffffffffffffffffffffffff1916908160001a9053507f780000000000000000000000000000000000000000000000000000000000000081600181518110612e4e57612e4e613699565b60200101907effffffffffffffffffffffffffffffffffffffffffffffffffffffffffffff1916908160001a9053506000612e8a8460026137f1565b612e95906001613657565b90505b6001811115612f32577f303132333435363738396162636465660000000000000000000000000000000085600f1660108110612ed657612ed6613699565b1a60f81b828281518110612eec57612eec613699565b60200101907effffffffffffffffffffffffffffffffffffffffffffffffffffffffffffff1916908160001a90535060049490941c93612f2b81613808565b9050612e98565b5083156116825760405162461bcd60e51b815260206004820181905260248201527f537472696e67733a20686578206c656e67746820696e73756666696369656e746044820152606401610904565b60008281526065602090815260408083206001600160a01b038516845290915290205460ff166111515760008281526065602090815260408083206001600160a01b0385168452909152902080547fffffffffffffffffffffffffffffffffffffffffffffffffffffffffffffff00166001179055612ffd3390565b6001600160a01b0316816001600160a01b0316837f2f8788117e7eff1d82e926ec794901d17c78024a50270940304540a733656f0d60405160405180910390a45050565b6000611682836001600160a01b038416613257565b60008281526065602090815260408083206001600160a01b038516845290915290205460ff16156111515760008281526065602090815260408083206001600160a01b038516808552925280832080547fffffffffffffffffffffffffffffffffffffffffffffffffffffffffffffff0016905551339285917ff6391f5c32d9c69d2a47ea670b442974b53935d1edc7fd64eb21e047a839171b9190a45050565b6000611682836001600160a01b0384166132a6565b61311581612c21565b6040516001600160a01b038216907fbc7cd75a20ee27fd9adebab32041f755214dbc6bffa90cc0225b39da2e5c2d3b90600090a250565b60606001600160a01b0383163b6131cb5760405162461bcd60e51b815260206004820152602660248201527f416464726573733a2064656c65676174652063616c6c20746f206e6f6e2d636f60448201527f6e747261637400000000000000000000000000000000000000000000000000006064820152608401610904565b600080846001600160a01b0316846040516131e6919061383d565b600060405180830381855af49150503d8060008114613221576040519150601f19603f3d011682016040523d82523d6000602084013e613226565b606091505b509150915061324e828260405180606001604052806027815260200161389c60279139613399565b95945050505050565b600081815260018301602052604081205461329e57508154600181810184556000848152602080822090930184905584548482528286019093526040902091909155610838565b506000610838565b6000818152600183016020526040812054801561338f5760006132ca600183613859565b85549091506000906132de90600190613859565b90508181146133435760008660000182815481106132fe576132fe613699565b906000526020600020015490508087600001848154811061332157613321613699565b6000918252602080832090910192909255918252600188019052604090208390555b85548690806133545761335461386c565b600190038181906000526020600020016000905590558560010160008681526020019081526020016000206000905560019350505050610838565b6000915050610838565b606083156133a8575081611682565b61168283838151156133bd5781518083602001fd5b8060405162461bcd60e51b815260040161090491906137be565b6000602082840312156133e957600080fd5b81357fffffffff000000000000000000000000000000000000000000000000000000008116811461168257600080fd5b80356001600160a01b038116811461343057600080fd5b919050565b60006020828403121561344757600080fd5b61168282613419565b60006020828403121561346257600080fd5b5035919050565b6000806000806080858703121561347f57600080fd5b843593506020850135925061349660408601613419565b91506134a460608601613419565b905092959194509250565b600080604083850312156134c257600080fd5b823591506134d260208401613419565b90509250929050565b600080608083850312156134ee57600080fd5b60608301848111156134ff57600080fd5b83925061350b81613419565b9150509250929050565b7f4e487b7100000000000000000000000000000000000000000000000000000000600052604160045260246000fd5b6000806040838503121561355757600080fd5b61356083613419565b9150602083013567ffffffffffffffff8082111561357d57600080fd5b818501915085601f83011261359157600080fd5b8135818111156135a3576135a3613515565b604051601f8201601f19908116603f011681019083821181831017156135cb576135cb613515565b816040528281528860208487010111156135e457600080fd5b8260208601602083013760006020848301015280955050505050509250929050565b6000806040838503121561361957600080fd5b50508035926020909101359150565b7f4e487b7100000000000000000000000000000000000000000000000000000000600052601160045260246000fd5b8082018082111561083857610838613628565b7f4e487b7100000000000000000000000000000000000000000000000000000000600052602160045260246000fd5b7f4e487b7100000000000000000000000000000000000000000000000000000000600052603260045260246000fd5b60007fffffffffffffffffffffffffffffffffffffffffffffffffffffffffffffffff82036136f9576136f9613628565b5060010190565b60006020828403121561371257600080fd5b5051919050565b60005b8381101561373457818101518382015260200161371c565b50506000910152565b7f416363657373436f6e74726f6c3a206163636f756e7420000000000000000000815260008351613775816017850160208801613719565b7f206973206d697373696e6720726f6c652000000000000000000000000000000060179184019182015283516137b2816028840160208801613719565b01602801949350505050565b60208152600082518060208401526137dd816040850160208701613719565b601f01601f19169190910160400192915050565b808202811582820484141761083857610838613628565b60008161381757613817613628565b507fffffffffffffffffffffffffffffffffffffffffffffffffffffffffffffffff0190565b6000825161384f818460208701613719565b9190910192915050565b8181038181111561083857610838613628565b7f4e487b7100000000000000000000000000000000000000000000000000000000600052603160045260246000fdfe416464726573733a206c6f772d6c6576656c2064656c65676174652063616c6c206661696c6564a2646970667358221220e73b18c8269bda606758e199d991f91b639ca678c3e93da1712aa22d7e91364f64736f6c63430008110033",
  "linkReferences": {},
  "deployedLinkReferences": {}
}