{
  "_format": "hh-sol-artifact-1",
  "contractName": "ClusterRewards",
  "sourceName": "contracts/staking/ClusterRewards.sol",
  "abi": [
    {
      "inputs": [],
      "stateMutability": "nonpayable",
      "type": "constructor"
    },
    {
      "anonymous": false,
      "inputs": [
        {
          "indexed": false,
          "internalType": "address",
          "name": "previousAdmin",
          "type": "address"
        },
        {
          "indexed": false,
          "internalType": "address",
          "name": "newAdmin",
          "type": "address"
        }
      ],
      "name": "AdminChanged",
      "type": "event"
    },
    {
      "anonymous": false,
      "inputs": [
        {
          "indexed": true,
          "internalType": "address",
          "name": "beacon",
          "type": "address"
        }
      ],
      "name": "BeaconUpgraded",
      "type": "event"
    },
    {
      "anonymous": false,
      "inputs": [
        {
          "indexed": false,
          "internalType": "bytes32",
          "name": "networkId",
          "type": "bytes32"
        }
      ],
      "name": "ClusterRewarded",
      "type": "event"
    },
    {
      "anonymous": false,
      "inputs": [
        {
          "indexed": false,
          "internalType": "uint8",
          "name": "version",
          "type": "uint8"
        }
      ],
      "name": "Initialized",
      "type": "event"
    },
    {
      "anonymous": false,
      "inputs": [
        {
          "indexed": false,
          "internalType": "bytes32",
          "name": "networkId",
          "type": "bytes32"
        },
        {
          "indexed": false,
          "internalType": "uint256",
          "name": "rewardPerEpoch",
          "type": "uint256"
        },
        {
          "indexed": false,
          "internalType": "address",
          "name": "clusterSelector",
          "type": "address"
        }
      ],
      "name": "NetworkAdded",
      "type": "event"
    },
    {
      "anonymous": false,
      "inputs": [
        {
          "indexed": false,
          "internalType": "bytes32",
          "name": "networkId",
          "type": "bytes32"
        }
      ],
      "name": "NetworkRemoved",
      "type": "event"
    },
    {
      "anonymous": false,
      "inputs": [
        {
          "indexed": false,
          "internalType": "bytes32",
          "name": "networkId",
          "type": "bytes32"
        },
        {
          "indexed": false,
          "internalType": "uint256",
          "name": "updatedRewardPerEpoch",
          "type": "uint256"
        },
        {
          "indexed": false,
          "internalType": "address",
          "name": "clusterSelector",
          "type": "address"
        }
      ],
      "name": "NetworkUpdated",
      "type": "event"
    },
    {
      "anonymous": false,
      "inputs": [
        {
          "indexed": false,
          "internalType": "address",
          "name": "receiverStaking",
          "type": "address"
        }
      ],
      "name": "ReceiverStakingUpdated",
      "type": "event"
    },
    {
      "anonymous": false,
      "inputs": [
        {
          "indexed": false,
          "internalType": "uint256",
          "name": "updatedWaitTime",
          "type": "uint256"
        }
      ],
      "name": "RewardDistributionWaitTimeChanged",
      "type": "event"
    },
    {
      "anonymous": false,
      "inputs": [
        {
          "indexed": false,
          "internalType": "uint256",
          "name": "updatedRewardPerEpoch",
          "type": "uint256"
        }
      ],
      "name": "RewardPerEpochChanged",
      "type": "event"
    },
    {
      "anonymous": false,
      "inputs": [
        {
          "indexed": true,
          "internalType": "bytes32",
          "name": "role",
          "type": "bytes32"
        },
        {
          "indexed": true,
          "internalType": "bytes32",
          "name": "previousAdminRole",
          "type": "bytes32"
        },
        {
          "indexed": true,
          "internalType": "bytes32",
          "name": "newAdminRole",
          "type": "bytes32"
        }
      ],
      "name": "RoleAdminChanged",
      "type": "event"
    },
    {
      "anonymous": false,
      "inputs": [
        {
          "indexed": true,
          "internalType": "bytes32",
          "name": "role",
          "type": "bytes32"
        },
        {
          "indexed": true,
          "internalType": "address",
          "name": "account",
          "type": "address"
        },
        {
          "indexed": true,
          "internalType": "address",
          "name": "sender",
          "type": "address"
        }
      ],
      "name": "RoleGranted",
      "type": "event"
    },
    {
      "anonymous": false,
      "inputs": [
        {
          "indexed": true,
          "internalType": "bytes32",
          "name": "role",
          "type": "bytes32"
        },
        {
          "indexed": true,
          "internalType": "address",
          "name": "account",
          "type": "address"
        },
        {
          "indexed": true,
          "internalType": "address",
          "name": "sender",
          "type": "address"
        }
      ],
      "name": "RoleRevoked",
      "type": "event"
    },
    {
      "anonymous": false,
      "inputs": [
        {
          "indexed": true,
          "internalType": "bytes32",
          "name": "networkId",
          "type": "bytes32"
        },
        {
          "indexed": true,
          "internalType": "uint256",
          "name": "epoch",
          "type": "uint256"
        },
        {
          "indexed": true,
          "internalType": "address",
          "name": "user",
          "type": "address"
        }
      ],
      "name": "TicketsIssued",
      "type": "event"
    },
    {
      "anonymous": false,
      "inputs": [
        {
          "indexed": true,
          "internalType": "address",
          "name": "implementation",
          "type": "address"
        }
      ],
      "name": "Upgraded",
      "type": "event"
    },
    {
      "inputs": [],
      "name": "CLAIMER_ROLE",
      "outputs": [
        {
          "internalType": "bytes32",
          "name": "",
          "type": "bytes32"
        }
      ],
      "stateMutability": "view",
      "type": "function"
    },
    {
      "inputs": [],
      "name": "DEFAULT_ADMIN_ROLE",
      "outputs": [
        {
          "internalType": "bytes32",
          "name": "",
          "type": "bytes32"
        }
      ],
      "stateMutability": "view",
      "type": "function"
    },
    {
      "inputs": [],
      "name": "FEEDER_ROLE",
      "outputs": [
        {
          "internalType": "bytes32",
          "name": "",
          "type": "bytes32"
        }
      ],
      "stateMutability": "view",
      "type": "function"
    },
    {
      "inputs": [],
      "name": "RECEIVER_TICKETS_PER_EPOCH",
      "outputs": [
        {
          "internalType": "uint256",
          "name": "",
          "type": "uint256"
        }
      ],
      "stateMutability": "view",
      "type": "function"
    },
    {
      "inputs": [
        {
          "internalType": "bytes32",
          "name": "_networkId",
          "type": "bytes32"
        },
        {
          "internalType": "uint256",
          "name": "_rewardWeight",
          "type": "uint256"
        },
        {
          "internalType": "address",
          "name": "_clusterSelector",
          "type": "address"
        }
      ],
      "name": "addNetwork",
      "outputs": [],
      "stateMutability": "nonpayable",
      "type": "function"
    },
    {
      "inputs": [
        {
          "internalType": "uint256",
          "name": "_updatedRewardPerEpoch",
          "type": "uint256"
        }
      ],
      "name": "changeRewardPerEpoch",
      "outputs": [],
      "stateMutability": "nonpayable",
      "type": "function"
    },
    {
      "inputs": [
        {
          "internalType": "address",
          "name": "_cluster",
          "type": "address"
        }
      ],
      "name": "claimReward",
      "outputs": [
        {
          "internalType": "uint256",
          "name": "",
          "type": "uint256"
        }
      ],
      "stateMutability": "nonpayable",
      "type": "function"
    },
    {
      "inputs": [
        {
          "internalType": "address",
          "name": "",
          "type": "address"
        }
      ],
      "name": "clusterRewards",
      "outputs": [
        {
          "internalType": "uint256",
          "name": "",
          "type": "uint256"
        }
      ],
      "stateMutability": "view",
      "type": "function"
    },
    {
      "inputs": [
        {
          "internalType": "bytes32",
          "name": "",
          "type": "bytes32"
        }
      ],
      "name": "clusterSelectors",
      "outputs": [
        {
          "internalType": "contract IClusterSelector",
          "name": "",
          "type": "address"
        }
      ],
      "stateMutability": "view",
      "type": "function"
    },
    {
      "inputs": [
        {
          "internalType": "bytes32",
          "name": "_networkId",
          "type": "bytes32"
        },
        {
          "internalType": "address[]",
          "name": "_clusters",
          "type": "address[]"
        },
        {
          "internalType": "uint256[]",
          "name": "_payouts",
          "type": "uint256[]"
        },
        {
          "internalType": "uint256",
          "name": "_epoch",
          "type": "uint256"
        }
      ],
      "name": "feed",
      "outputs": [],
      "stateMutability": "nonpayable",
      "type": "function"
    },
    {
      "inputs": [
        {
          "internalType": "uint256",
          "name": "_epoch",
          "type": "uint256"
        },
        {
          "internalType": "bytes32",
          "name": "_networkId",
          "type": "bytes32"
        }
      ],
      "name": "getRewardForEpoch",
      "outputs": [
        {
          "internalType": "uint256",
          "name": "",
          "type": "uint256"
        }
      ],
      "stateMutability": "view",
      "type": "function"
    },
    {
      "inputs": [
        {
          "internalType": "bytes32",
          "name": "role",
          "type": "bytes32"
        }
      ],
      "name": "getRoleAdmin",
      "outputs": [
        {
          "internalType": "bytes32",
          "name": "",
          "type": "bytes32"
        }
      ],
      "stateMutability": "view",
      "type": "function"
    },
    {
      "inputs": [
        {
          "internalType": "bytes32",
          "name": "role",
          "type": "bytes32"
        },
        {
          "internalType": "uint256",
          "name": "index",
          "type": "uint256"
        }
      ],
      "name": "getRoleMember",
      "outputs": [
        {
          "internalType": "address",
          "name": "",
          "type": "address"
        }
      ],
      "stateMutability": "view",
      "type": "function"
    },
    {
      "inputs": [
        {
          "internalType": "bytes32",
          "name": "role",
          "type": "bytes32"
        }
      ],
      "name": "getRoleMemberCount",
      "outputs": [
        {
          "internalType": "uint256",
          "name": "",
          "type": "uint256"
        }
      ],
      "stateMutability": "view",
      "type": "function"
    },
    {
      "inputs": [
        {
          "internalType": "bytes32",
          "name": "role",
          "type": "bytes32"
        },
        {
          "internalType": "address",
          "name": "account",
          "type": "address"
        }
      ],
      "name": "grantRole",
      "outputs": [],
      "stateMutability": "nonpayable",
      "type": "function"
    },
    {
      "inputs": [
        {
          "internalType": "bytes32",
          "name": "role",
          "type": "bytes32"
        },
        {
          "internalType": "address",
          "name": "account",
          "type": "address"
        }
      ],
      "name": "hasRole",
      "outputs": [
        {
          "internalType": "bool",
          "name": "",
          "type": "bool"
        }
      ],
      "stateMutability": "view",
      "type": "function"
    },
    {
      "inputs": [
        {
          "internalType": "address",
          "name": "_admin",
          "type": "address"
        },
        {
          "internalType": "address",
          "name": "_claimer",
          "type": "address"
        },
        {
          "internalType": "address",
          "name": "_receiverStaking",
          "type": "address"
        },
        {
          "internalType": "bytes32[]",
          "name": "_networkIds",
          "type": "bytes32[]"
        },
        {
          "internalType": "uint256[]",
          "name": "_rewardWeight",
          "type": "uint256[]"
        },
        {
          "internalType": "address[]",
          "name": "_clusterSelectors",
          "type": "address[]"
        },
        {
          "internalType": "uint256",
          "name": "_totalRewardsPerEpoch",
          "type": "uint256"
        }
      ],
      "name": "initialize",
      "outputs": [],
      "stateMutability": "nonpayable",
      "type": "function"
    },
    {
      "inputs": [
        {
          "internalType": "address",
          "name": "_receiver",
          "type": "address"
        },
        {
          "internalType": "uint256",
          "name": "_epoch",
          "type": "uint256"
        }
      ],
      "name": "isTicketsIssued",
      "outputs": [
        {
          "internalType": "bool",
          "name": "",
          "type": "bool"
        }
      ],
      "stateMutability": "view",
      "type": "function"
    },
    {
      "inputs": [
        {
          "internalType": "bytes32",
          "name": "_networkId",
          "type": "bytes32"
        },
        {
          "internalType": "uint24",
          "name": "_epoch",
          "type": "uint24"
        },
        {
          "internalType": "uint16[]",
          "name": "_tickets",
          "type": "uint16[]"
        }
      ],
      "name": "issueTickets",
      "outputs": [],
      "stateMutability": "nonpayable",
      "type": "function"
    },
    {
      "inputs": [
        {
          "internalType": "bytes32",
          "name": "_networkId",
          "type": "bytes32"
        },
        {
          "internalType": "uint24[]",
          "name": "_epochs",
          "type": "uint24[]"
        },
        {
          "internalType": "uint16[][]",
          "name": "_tickets",
          "type": "uint16[][]"
        }
      ],
      "name": "issueTickets",
      "outputs": [],
      "stateMutability": "nonpayable",
      "type": "function"
    },
    {
      "inputs": [
        {
          "internalType": "bytes",
          "name": "_ticketInfo",
          "type": "bytes"
        }
      ],
      "name": "issueTickets",
      "outputs": [],
      "stateMutability": "nonpayable",
      "type": "function"
    },
    {
      "inputs": [],
      "name": "latestNewEpochRewardAt",
      "outputs": [
        {
          "internalType": "uint256",
          "name": "",
          "type": "uint256"
        }
      ],
      "stateMutability": "view",
      "type": "function"
    },
    {
      "inputs": [],
      "name": "payoutDenomination",
      "outputs": [
        {
          "internalType": "uint256",
          "name": "",
          "type": "uint256"
        }
      ],
      "stateMutability": "view",
      "type": "function"
    },
    {
      "inputs": [],
      "name": "proxiableUUID",
      "outputs": [
        {
          "internalType": "bytes32",
          "name": "",
          "type": "bytes32"
        }
      ],
      "stateMutability": "view",
      "type": "function"
    },
    {
      "inputs": [],
      "name": "receiverStaking",
      "outputs": [
        {
          "internalType": "contract ReceiverStaking",
          "name": "",
          "type": "address"
        }
      ],
      "stateMutability": "view",
      "type": "function"
    },
    {
      "inputs": [
        {
          "internalType": "bytes32",
          "name": "_networkId",
          "type": "bytes32"
        }
      ],
      "name": "removeNetwork",
      "outputs": [],
      "stateMutability": "nonpayable",
      "type": "function"
    },
    {
      "inputs": [
        {
          "internalType": "bytes32",
          "name": "role",
          "type": "bytes32"
        },
        {
          "internalType": "address",
          "name": "account",
          "type": "address"
        }
      ],
      "name": "renounceRole",
      "outputs": [],
      "stateMutability": "nonpayable",
      "type": "function"
    },
    {
      "inputs": [
        {
          "internalType": "bytes32",
          "name": "role",
          "type": "bytes32"
        },
        {
          "internalType": "address",
          "name": "account",
          "type": "address"
        }
      ],
      "name": "revokeRole",
      "outputs": [],
      "stateMutability": "nonpayable",
      "type": "function"
    },
    {
      "inputs": [
        {
          "internalType": "uint256",
          "name": "",
          "type": "uint256"
        }
      ],
      "name": "rewardDistributedPerEpoch",
      "outputs": [
        {
          "internalType": "uint256",
          "name": "",
          "type": "uint256"
        }
      ],
      "stateMutability": "view",
      "type": "function"
    },
    {
      "inputs": [],
      "name": "rewardDistributionWaitTime",
      "outputs": [
        {
          "internalType": "uint256",
          "name": "",
          "type": "uint256"
        }
      ],
      "stateMutability": "view",
      "type": "function"
    },
    {
      "inputs": [
        {
          "internalType": "bytes32",
          "name": "",
          "type": "bytes32"
        }
      ],
      "name": "rewardWeight",
      "outputs": [
        {
          "internalType": "uint256",
          "name": "",
          "type": "uint256"
        }
      ],
      "stateMutability": "view",
      "type": "function"
    },
    {
      "inputs": [
        {
          "internalType": "bytes4",
          "name": "interfaceId",
          "type": "bytes4"
        }
      ],
      "name": "supportsInterface",
      "outputs": [
        {
          "internalType": "bool",
          "name": "",
          "type": "bool"
        }
      ],
      "stateMutability": "view",
      "type": "function"
    },
    {
      "inputs": [
        {
          "internalType": "address",
          "name": "",
          "type": "address"
        },
        {
          "internalType": "uint256",
          "name": "",
          "type": "uint256"
        }
      ],
      "name": "ticketsIssued",
      "outputs": [
        {
          "internalType": "uint256",
          "name": "",
          "type": "uint256"
        }
      ],
      "stateMutability": "view",
      "type": "function"
    },
    {
      "inputs": [],
      "name": "totalRewardWeight",
      "outputs": [
        {
          "internalType": "uint256",
          "name": "",
          "type": "uint256"
        }
      ],
      "stateMutability": "view",
      "type": "function"
    },
    {
      "inputs": [],
      "name": "totalRewardsPerEpoch",
      "outputs": [
        {
          "internalType": "uint256",
          "name": "",
          "type": "uint256"
        }
      ],
      "stateMutability": "view",
      "type": "function"
    },
    {
      "inputs": [
        {
          "internalType": "bytes32",
          "name": "_networkId",
          "type": "bytes32"
        },
        {
          "internalType": "uint256",
          "name": "_updatedRewardWeight",
          "type": "uint256"
        },
        {
          "internalType": "address",
          "name": "_updatedClusterSelector",
          "type": "address"
        }
      ],
      "name": "updateNetwork",
      "outputs": [],
      "stateMutability": "nonpayable",
      "type": "function"
    },
    {
      "inputs": [
        {
          "internalType": "address",
          "name": "_receiverStaking",
          "type": "address"
        }
      ],
      "name": "updateReceiverStaking",
      "outputs": [],
      "stateMutability": "nonpayable",
      "type": "function"
    },
    {
      "inputs": [
        {
          "internalType": "uint256",
          "name": "_updatedWaitTime",
          "type": "uint256"
        }
      ],
      "name": "updateRewardWaitTime",
      "outputs": [],
      "stateMutability": "nonpayable",
      "type": "function"
    },
    {
      "inputs": [
        {
          "internalType": "address",
          "name": "newImplementation",
          "type": "address"
        }
      ],
      "name": "upgradeTo",
      "outputs": [],
      "stateMutability": "nonpayable",
      "type": "function"
    },
    {
      "inputs": [
        {
          "internalType": "address",
          "name": "newImplementation",
          "type": "address"
        },
        {
          "internalType": "bytes",
          "name": "data",
          "type": "bytes"
        }
      ],
      "name": "upgradeToAndCall",
      "outputs": [],
      "stateMutability": "payable",
      "type": "function"
    }
  ],
  "bytecode": "0x60a0604052306080523480156200001557600080fd5b50600054610100900460ff1615808015620000375750600054600160ff909116105b8062000067575062000054306200014160201b62002c6a1760201c565b15801562000067575060005460ff166001145b620000cf5760405162461bcd60e51b815260206004820152602e60248201527f496e697469616c697a61626c653a20636f6e747261637420697320616c72656160448201526d191e481a5b9a5d1a585b1a5e995960921b606482015260840160405180910390fd5b6000805460ff191660011790558015620000f3576000805461ff0019166101001790555b80156200013a576000805461ff0019169055604051600181527f7f26b83ff96e1f2b6a682f133852f6798a09c465da95921460cefb38474024989060200160405180910390a15b5062000150565b6001600160a01b03163b151590565b608051614c006200018860003960008181610a8e01528181610b24015281816110700152818161110601526111fd0152614c006000f3fe6080604052600436106102bb5760003560e01c8063929887401161016e578063d64b84b5116100cb578063ecbd9bd41161007f578063fc5f18d311610064578063fc5f18d3146107f2578063fdc4c41f14610826578063fe259f8a1461083d57600080fd5b8063ecbd9bd4146107bb578063fc2efed9146107db57600080fd5b8063e6dbfd1f116100b0578063e6dbfd1f1461075b578063e91f693d1461077b578063ea395bc61461079b57600080fd5b8063d64b84b51461070b578063dbb797241461072257600080fd5b8063bde8eb3211610122578063ceb2097111610107578063ceb2097114610697578063d279c191146106cb578063d547741f146106eb57600080fd5b8063bde8eb3214610656578063ca15c8731461067757600080fd5b8063a217fddf11610153578063a217fddf146105f3578063a2fb75f714610608578063b47ec8d51461062857600080fd5b806392988740146105b3578063a13a20db146105d357600080fd5b806348ba5b771161021c57806370af5fb3116101d05780637de2a230116101b55780637de2a2301461052d5780639010d07c1461054d57806391d148541461056d57600080fd5b806370af5fb3146104e85780637d6186831461051657600080fd5b806352d1902d1161020157806352d1902d146104935780636206ec6e146104a85780636d5c22ee146104c857600080fd5b806348ba5b77146104695780634f1ef2861461048057600080fd5b806330d6be2c116102735780633659cfe6116102585780633659cfe6146103da578063440912e3146103fa578063452761311461041a57600080fd5b806330d6be2c1461039a57806336568abe146103ba57600080fd5b806323c9e4be116102a457806323c9e4be14610331578063248a9ca3146103485780632f2ff15d1461037857600080fd5b806301ffc9a7146102c05780630e87eeed146102f5575b600080fd5b3480156102cc57600080fd5b506102e06102db3660046140ed565b61085d565b60405190151581526020015b60405180910390f35b34801561030157600080fd5b5061032361031036600461412f565b6103546020526000908152604090205481565b6040519081526020016102ec565b34801561033d57600080fd5b506103236201000081565b34801561035457600080fd5b5061032361036336600461412f565b60009081526065602052604090206001015490565b34801561038457600080fd5b5061039861039336600461416d565b61086e565b005b3480156103a657600080fd5b506103986103b536600461412f565b610898565b3480156103c657600080fd5b506103986103d536600461416d565b6109f8565b3480156103e657600080fd5b506103986103f536600461419d565b610a84565b34801561040657600080fd5b506103986104153660046141ba565b610c21565b34801561042657600080fd5b5061045161043536600461412f565b61035c602052600090815260409020546001600160a01b031681565b6040516001600160a01b0390911681526020016102ec565b34801561047557600080fd5b506103236103565481565b61039861048e366004614253565b611066565b34801561049f57600080fd5b506103236111f0565b3480156104b457600080fd5b506103986104c3366004614332565b6112b5565b3480156104d457600080fd5b506103236104e33660046143f5565b61149c565b3480156104f457600080fd5b5061032361050336600461412f565b6103586020526000908152604090205481565b34801561052257600080fd5b506103236103595481565b34801561053957600080fd5b5061039861054836600461412f565b611573565b34801561055957600080fd5b506104516105683660046143f5565b6115d3565b34801561057957600080fd5b506102e061058836600461416d565b60009182526065602090815260408084206001600160a01b0393909316845291905290205460ff1690565b3480156105bf57600080fd5b506103986105ce366004614463565b6115eb565b3480156105df57600080fd5b506102e06105ee3660046144dd565b611980565b3480156105ff57600080fd5b50610323600081565b34801561061457600080fd5b5061039861062336600461419d565b6119bb565b34801561063457600080fd5b5061032361064336600461419d565b6103536020526000908152604090205481565b34801561066257600080fd5b5061035d54610451906001600160a01b031681565b34801561068357600080fd5b5061032361069236600461412f565b611a1b565b3480156106a357600080fd5b506103237f80a586cc4ecf40a390b370be075aa38ab3cc512c5c1a7bc1007974dbdf2663c781565b3480156106d757600080fd5b506103236106e636600461419d565b611a32565b3480156106f757600080fd5b5061039861070636600461416d565b611ac1565b34801561071757600080fd5b506103236103555481565b34801561072e57600080fd5b5061032361073d3660046144dd565b61035b60209081526000928352604080842090915290825290205481565b34801561076757600080fd5b506103986107763660046145d3565b611ae6565b34801561078757600080fd5b5061039861079636600461469b565b612060565b3480156107a757600080fd5b506103986107b63660046141ba565b6122a5565b3480156107c757600080fd5b506103986107d636600461470d565b612726565b3480156107e757600080fd5b506103236103575481565b3480156107fe57600080fd5b506103237f11a8cb5a02bd6c42679835e867ef2118ba78f088f8300511420c6603c21d9c7881565b34801561083257600080fd5b5061032361035a5481565b34801561084957600080fd5b5061039861085836600461412f565b612c0a565b600061086882612c79565b92915050565b60008281526065602052604090206001015461088981612ccf565b6108938383612cd9565b505050565b6108a3600033610588565b6108f45760405162461bcd60e51b815260206004820152600a60248201527f6f6e6c792061646d696e0000000000000000000000000000000000000000000060448201526064015b60405180910390fd5b6000818152610354602090815260408083205461035c909252909120546001600160a01b03166109665760405162461bcd60e51b815260206004820152601b60248201527f4352573a524e2d4e6574776f726b20646f65736e74206578697374000000000060448201526064016108eb565b60008281526103546020908152604080832083905561035c909152812080547fffffffffffffffffffffffff000000000000000000000000000000000000000016905561035580548392906109bc9084906147be565b90915550506040518281527f5facada410c6be008b72512db0d04c9210ef1b5336cff9c7306c741f083bdc5b9060200160405180910390a15050565b6001600160a01b0381163314610a765760405162461bcd60e51b815260206004820152602f60248201527f416363657373436f6e74726f6c3a2063616e206f6e6c792072656e6f756e636560448201527f20726f6c657320666f722073656c66000000000000000000000000000000000060648201526084016108eb565b610a808282612ce3565b5050565b6001600160a01b037f0000000000000000000000000000000000000000000000000000000000000000163003610b225760405162461bcd60e51b815260206004820152602c60248201527f46756e6374696f6e206d7573742062652063616c6c6564207468726f7567682060448201527f64656c656761746563616c6c000000000000000000000000000000000000000060648201526084016108eb565b7f00000000000000000000000000000000000000000000000000000000000000006001600160a01b0316610b7d7f360894a13ba1a3210667c828492db98dca3e2076cc3735a920a3ca505d382bbc546001600160a01b031690565b6001600160a01b031614610bf95760405162461bcd60e51b815260206004820152602c60248201527f46756e6374696f6e206d7573742062652063616c6c6564207468726f7567682060448201527f6163746976652070726f7879000000000000000000000000000000000000000060648201526084016108eb565b610c0281612d46565b60408051600080825260208201909252610c1e91839190612d9d565b50565b610c2c600033610588565b610c785760405162461bcd60e51b815260206004820152600a60248201527f6f6e6c792061646d696e0000000000000000000000000000000000000000000060448201526064016108eb565b6000838152610354602052604090205415610cd55760405162461bcd60e51b815260206004820152601d60248201527f4352573a414e2d4e6574776f726b20616c72656164792065786973747300000060448201526064016108eb565b6001600160a01b038116610d515760405162461bcd60e51b815260206004820152602160248201527f4352573a414e2d436c757374657253656c6563746f72206d757374206578697360448201527f740000000000000000000000000000000000000000000000000000000000000060648201526084016108eb565b6000838152610354602090815260409182902084905561035d5482517fddaa26ad000000000000000000000000000000000000000000000000000000008152925184936001600160a01b039092169263ddaa26ad92600480820193918290030181865afa158015610dc6573d6000803e3d6000fd5b505050506040513d601f19601f82011682018060405250810190610dea91906147d1565b816001600160a01b031663ddaa26ad6040518163ffffffff1660e01b8152600401602060405180830381865afa158015610e28573d6000803e3d6000fd5b505050506040513d601f19601f82011682018060405250810190610e4c91906147d1565b14610e995760405162461bcd60e51b815260206004820152601e60248201527f4352573a414e2d73746172742074696d6520696e636f6e73697374656e74000060448201526064016108eb565b61035d60009054906101000a90046001600160a01b03166001600160a01b031663ac4746ab6040518163ffffffff1660e01b8152600401602060405180830381865afa158015610eed573d6000803e3d6000fd5b505050506040513d601f19601f82011682018060405250810190610f1191906147d1565b816001600160a01b031663ac4746ab6040518163ffffffff1660e01b8152600401602060405180830381865afa158015610f4f573d6000803e3d6000fd5b505050506040513d601f19601f82011682018060405250810190610f7391906147d1565b14610fc05760405162461bcd60e51b815260206004820181905260248201527f4352573a414e2d65706f6368206c656e67746820696e636f6e73697374656e7460448201526064016108eb565b600084815261035c6020526040812080547fffffffffffffffffffffffff0000000000000000000000000000000000000000166001600160a01b03841617905561035580548592906110139084906147ea565b909155505060408051858152602081018590526001600160a01b0384168183015290517fd527d933533fca35060f0cb4c3d0d306aa76807f2669606487b28954e8d8ca519181900360600190a150505050565b6001600160a01b037f00000000000000000000000000000000000000000000000000000000000000001630036111045760405162461bcd60e51b815260206004820152602c60248201527f46756e6374696f6e206d7573742062652063616c6c6564207468726f7567682060448201527f64656c656761746563616c6c000000000000000000000000000000000000000060648201526084016108eb565b7f00000000000000000000000000000000000000000000000000000000000000006001600160a01b031661115f7f360894a13ba1a3210667c828492db98dca3e2076cc3735a920a3ca505d382bbc546001600160a01b031690565b6001600160a01b0316146111db5760405162461bcd60e51b815260206004820152602c60248201527f46756e6374696f6e206d7573742062652063616c6c6564207468726f7567682060448201527f6163746976652070726f7879000000000000000000000000000000000000000060648201526084016108eb565b6111e482612d46565b610a8082826001612d9d565b6000306001600160a01b037f000000000000000000000000000000000000000000000000000000000000000016146112905760405162461bcd60e51b815260206004820152603860248201527f555550535570677261646561626c653a206d757374206e6f742062652063616c60448201527f6c6564207468726f7567682064656c656761746563616c6c000000000000000060648201526084016108eb565b507f360894a13ba1a3210667c828492db98dca3e2076cc3735a920a3ca505d382bbc90565b61035d546040517f135022c200000000000000000000000000000000000000000000000000000000815262ffffff8416600482015260009182916001600160a01b039091169063135022c2906024016040805180830381865afa158015611320573d6000803e3d6000fd5b505050506040513d601f19601f8201168201806040525081019061134491906147fd565b91509150808462ffffff161061139c5760405162461bcd60e51b815260206004820152601a60248201527f4352573a49542d45706f6368206e6f7420636f6d706c6574656400000000000060448201526064016108eb565b600085815261035c60205260408082205490517fd7cd2ced00000000000000000000000000000000000000000000000000000000815262ffffff871660048201526001600160a01b039091169063d7cd2ced90602401600060405180830381865afa15801561140f573d6000803e3d6000fd5b505050506040513d6000823e601f3d908101601f191682016040526114379190810190614821565b9050600061144a8662ffffff168861149c565b905061145f338762ffffff1684888589612f3d565b604051339062ffffff88169089907ffacf1123214cd463a29c32c17b086f14a8dcbea1cdf58061be4846268513132b90600090a450505050505050565b61035d54604080517fac4746ab00000000000000000000000000000000000000000000000000000000815290516000926001600160a01b03169163ac4746ab9160048083019260209291908290030181865afa158015611500573d6000803e3d6000fd5b505050506040513d601f19601f8201168201806040525081019061152491906147d1565b61153190622b81806148ea565b83101561154057506000610868565b6103555460008381526103546020526040902054610356546115629190614925565b61156c91906148ea565b9392505050565b61157e600033610588565b6115ca5760405162461bcd60e51b815260206004820152600a60248201527f6f6e6c792061646d696e0000000000000000000000000000000000000000000060448201526064016108eb565b610c1e8161329a565b600082815260976020526040812061156c90836132d7565b8281811461163b5760405162461bcd60e51b815260206004820152601660248201527f4352573a4d49542d696e76616c696420696e707574730000000000000000000060448201526064016108eb565b60005b8181101561197757600061167d87878481811061165d5761165d61493c565b9050602002016020810190611672919061496b565b62ffffff168961149c565b61035d5490915060009081906001600160a01b031663135022c28a8a878181106116a9576116a961493c565b90506020020160208101906116be919061496b565b6040517fffffffff0000000000000000000000000000000000000000000000000000000060e084901b16815262ffffff90911660048201526024016040805180830381865afa158015611715573d6000803e3d6000fd5b505050506040513d601f19601f8201168201806040525081019061173991906147fd565b91509150808989868181106117505761175061493c565b9050602002016020810190611765919061496b565b62ffffff16106117b75760405162461bcd60e51b815260206004820152601a60248201527f4352573a49542d45706f6368206e6f7420636f6d706c6574656400000000000060448201526064016108eb565b60008a815261035c60205260408120546001600160a01b031663d7cd2ced8b8b888181106117e7576117e761493c565b90506020020160208101906117fc919061496b565b6040517fffffffff0000000000000000000000000000000000000000000000000000000060e084901b16815262ffffff9091166004820152602401600060405180830381865afa158015611854573d6000803e3d6000fd5b505050506040513d6000823e601f3d908101601f1916820160405261187c9190810190614821565b905061190e338b8b888181106118945761189461493c565b90506020020160208101906118a9919061496b565b62ffffff16838b8b8a8181106118c1576118c161493c565b90506020028101906118d39190614986565b808060200260200160405190810160405280939291908181526020018383602002808284376000920191909152508b92508a9150612f3d9050565b338a8a878181106119215761192161493c565b9050602002016020810190611936919061496b565b62ffffff168c7ffacf1123214cd463a29c32c17b086f14a8dcbea1cdf58061be4846268513132b60405160405180910390a45050505080600101905061163e565b50505050505050565b6001600160a01b038216600090815261035b602090815260408083206101008504845290915281205460ff808416900360020a16151561156c565b6119c6600033610588565b611a125760405162461bcd60e51b815260206004820152600a60248201527f6f6e6c792061646d696e0000000000000000000000000000000000000000000060448201526064016108eb565b610c1e816132e3565b60008181526097602052604081206108689061334a565b60007f11a8cb5a02bd6c42679835e867ef2118ba78f088f8300511420c6603c21d9c78611a5e81612ccf565b6001600160a01b038316600090815261035360205260409020546001811115611ab5576000611a8e6001836147be565b6001600160a01b038616600090815261035360205260409020600190559350611abb915050565b60009250505b50919050565b600082815260656020526040902060010154611adc81612ccf565b6108938383612ce3565b600054610100900460ff1615808015611b065750600054600160ff909116105b80611b205750303b158015611b20575060005460ff166001145b611b925760405162461bcd60e51b815260206004820152602e60248201527f496e697469616c697a61626c653a20636f6e747261637420697320616c72656160448201527f647920696e697469616c697a656400000000000000000000000000000000000060648201526084016108eb565b600080547fffffffffffffffffffffffffffffffffffffffffffffffffffffffffffffff001660011790558015611bf057600080547fffffffffffffffffffffffffffffffffffffffffffffffffffffffffffff00ff166101001790555b8351855114611c8d5760405162461bcd60e51b815260206004820152604760248201527f4352573a492d45616368204e6574776f726b4964206e656564206120636f727260448201527f6573706f6e64696e672052657761726450657245706f636820616e642076696360648201527f6520766572736100000000000000000000000000000000000000000000000000608482015260a4016108eb565b8251855114611d2a5760405162461bcd60e51b815260206004820152604860248201527f4352573a492d45616368204e6574776f726b4964206e656564206120636f727260448201527f6573706f6e64696e6720636c757374657253656c6563746f7220616e6420766960648201527f6365207665727361000000000000000000000000000000000000000000000000608482015260a4016108eb565b611d32613354565b611d3a613354565b611d42613354565b611d4a613354565b611d52613354565b611d5a613354565b611d656000896133d3565b611d8f7f11a8cb5a02bd6c42679835e867ef2118ba78f088f8300511420c6603c21d9c78886133d3565b611d98866132e3565b6000805b8651811015611fd557858181518110611db757611db761493c565b60200260200101516103546000898481518110611dd657611dd661493c565b602002602001015181526020019081526020016000208190555060006001600160a01b0316858281518110611e0d57611e0d61493c565b60200260200101516001600160a01b031603611e915760405162461bcd60e51b815260206004820152602160248201527f4352573a434e2d436c757374657253656c6563746f72206d757374206578697360448201527f740000000000000000000000000000000000000000000000000000000000000060648201526084016108eb565b848181518110611ea357611ea361493c565b602002602001015161035c6000898481518110611ec257611ec261493c565b6020026020010151815260200190815260200160002060006101000a8154816001600160a01b0302191690836001600160a01b03160217905550858181518110611f0e57611f0e61493c565b602002602001015182611f2191906147ea565b91507fd527d933533fca35060f0cb4c3d0d306aa76807f2669606487b28954e8d8ca51878281518110611f5657611f5661493c565b6020026020010151878381518110611f7057611f7061493c565b6020026020010151878481518110611f8a57611f8a61493c565b6020026020010151604051611fbb9392919092835260208301919091526001600160a01b0316604082015260600190565b60405180910390a180611fcd816149ee565b915050611d9c565b50610355819055611fe5836133dd565b50670de0b6b3a764000061035755801561205657600080547fffffffffffffffffffffffffffffffffffffffffffffffffffffffffffff00ff169055604051600181527f7f26b83ff96e1f2b6a682f133852f6798a09c465da95921460cefb38474024989060200160405180910390a15b5050505050505050565b6000806000806120a586868080601f01602080910402602001604051908101604052809392919081815260200183838082843760009201919091525061341392505050565b935093509350935060005b828110156119775783810160006120c7828861149c565b61035d546040517f135022c20000000000000000000000000000000000000000000000000000000081526004810185905291925060009182916001600160a01b03169063135022c2906024016040805180830381865afa15801561212f573d6000803e3d6000fd5b505050506040513d601f19601f8201168201806040525081019061215391906147fd565b915091508084106121a65760405162461bcd60e51b815260206004820152601b60248201527f4352573a4954432d45706f6368206e6f7420636f6d706c65746564000000000060448201526064016108eb565b600089815261035c60205260408082205490517fd7cd2ced000000000000000000000000000000000000000000000000000000008152600481018790526001600160a01b039091169063d7cd2ced90602401600060405180830381865afa158015612215573d6000803e3d6000fd5b505050506040513d6000823e601f3d908101601f1916820160405261223d9190810190614821565b90506122663386838a8a815181106122575761225761493c565b60200260200101518888612f3d565b604051339086908c907ffacf1123214cd463a29c32c17b086f14a8dcbea1cdf58061be4846268513132b90600090a450505050508060010190506120b0565b6122b0600033610588565b6122fc5760405162461bcd60e51b815260206004820152600a60248201527f6f6e6c792061646d696e0000000000000000000000000000000000000000000060448201526064016108eb565b600083815261035460205260409020546001600160a01b0382166123885760405162461bcd60e51b815260206004820152602160248201527f4352573a554e2d436c757374657253656c6563746f72206d757374206578697360448201527f740000000000000000000000000000000000000000000000000000000000000060648201526084016108eb565b600084815261035c60205260409020546001600160a01b0316806123ee5760405162461bcd60e51b815260206004820152601b60248201527f4352573a554e2d4e6574776f726b20646f65736e74206578697374000000000060448201526064016108eb565b806001600160a01b0316836001600160a01b0316146126a65761035d54604080517fddaa26ad000000000000000000000000000000000000000000000000000000008152905185926001600160a01b03169163ddaa26ad9160048083019260209291908290030181865afa15801561246a573d6000803e3d6000fd5b505050506040513d601f19601f8201168201806040525081019061248e91906147d1565b816001600160a01b031663ddaa26ad6040518163ffffffff1660e01b8152600401602060405180830381865afa1580156124cc573d6000803e3d6000fd5b505050506040513d601f19601f820116820180604052508101906124f091906147d1565b1461253d5760405162461bcd60e51b815260206004820152601e60248201527f4352573a554e2d73746172742074696d6520696e636f6e73697374656e74000060448201526064016108eb565b61035d60009054906101000a90046001600160a01b03166001600160a01b031663ac4746ab6040518163ffffffff1660e01b8152600401602060405180830381865afa158015612591573d6000803e3d6000fd5b505050506040513d601f19601f820116820180604052508101906125b591906147d1565b816001600160a01b031663ac4746ab6040518163ffffffff1660e01b8152600401602060405180830381865afa1580156125f3573d6000803e3d6000fd5b505050506040513d601f19601f8201168201806040525081019061261791906147d1565b146126645760405162461bcd60e51b815260206004820181905260248201527f4352573a554e2d65706f6368206c656e67746820696e636f6e73697374656e7460448201526064016108eb565b50600085815261035c6020526040902080547fffffffffffffffffffffffff0000000000000000000000000000000000000000166001600160a01b0385161790555b6000858152610354602052604090208490556103555484906126c99084906147be565b6126d391906147ea565b6103555560408051868152602081018690526001600160a01b0385168183015290517f4d5619329616576b8a23c55200af1bf3facbd3ed1ebdca4ab119f81a8c71a25e9181900360600190a15050505050565b6127507f80a586cc4ecf40a390b370be075aa38ab3cc512c5c1a7bc1007974dbdf2663c733610588565b61279c5760405162461bcd60e51b815260206004820152600b60248201527f6f6e6c792066656564657200000000000000000000000000000000000000000060448201526064016108eb565b42622b818061035d60009054906101000a90046001600160a01b03166001600160a01b031663ddaa26ad6040518163ffffffff1660e01b8152600401602060405180830381865afa1580156127f5573d6000803e3d6000fd5b505050506040513d601f19601f8201168201806040525081019061281991906147d1565b61282391906147ea565b61283090620151806147ea565b1161287d5760405162461bcd60e51b815260206004820152601460248201527f4352573a462d496e76616c6964206d6574686f6400000000000000000000000060448201526064016108eb565b60008181526103586020526040812054908190036129475761035a54610359546128a791906147ea565b42116129415760405162461bcd60e51b815260206004820152604560248201527f4352573a462d43616e7420646973747269627574652072657761726420666f7260448201527f206e65772065706f63682077697468696e20737563682073686f727420696e7460648201527f657276616c000000000000000000000000000000000000000000000000000000608482015260a4016108eb565b42610359555b61035754600088815261035460209081526040808320546103555461035d5483517fac4746ab0000000000000000000000000000000000000000000000000000000081529351929594919386936001600160a01b039092169263ac4746ab926004808401938290030181865afa1580156129c5573d6000803e3d6000fd5b505050506040513d601f19601f820116820180604052508101906129e991906147d1565b610356546129fa9062015180614925565b612a0491906148ea565b612a0e9190614925565b612a1891906148ea565b905060005b88811015612b1557600084898984818110612a3a57612a3a61493c565b9050602002013584612a4c9190614925565b612a5691906148ea565b9050612a6281876147ea565b95508061035360008d8d86818110612a7c57612a7c61493c565b9050602002016020810190612a91919061419d565b6001600160a01b03166001600160a01b0316815260200190815260200160002054612abc91906147ea565b61035360008d8d86818110612ad357612ad361493c565b9050602002016020810190612ae8919061419d565b6001600160a01b031681526020810191909152604001600020555080612b0d816149ee565b915050612a1d565b5080841115612bb25760405162461bcd60e51b815260206004820152604160248201527f4352573a462d526577617264204469737472696275746564202063616e74202060448201527f6265206d6f726520207468616e20746f74616c52657761726450657245706f6360648201527f6800000000000000000000000000000000000000000000000000000000000000608482015260a4016108eb565b6000858152610358602052604090819020859055517f3fdd4ae70d0675c6923caf899c19621fbb5ccff8acc1128bd12bd5b46066bb5a90612bf6908c815260200190565b60405180910390a150505050505050505050565b612c15600033610588565b612c615760405162461bcd60e51b815260206004820152600a60248201527f6f6e6c792061646d696e0000000000000000000000000000000000000000000060448201526064016108eb565b610c1e816133dd565b6001600160a01b03163b151590565b60007fffffffff0000000000000000000000000000000000000000000000000000000082167f5a05180f00000000000000000000000000000000000000000000000000000000148061086857506108688261369f565b610c1e8133613736565b610a8082826137ab565b612ced82826137cd565b612cf76000611a1b565b600003610a805760405162461bcd60e51b815260206004820152601360248201527f43616e6e6f742062652061646d696e6c6573730000000000000000000000000060448201526064016108eb565b612d51600033610588565b610c1e5760405162461bcd60e51b815260206004820152600a60248201527f6f6e6c792061646d696e0000000000000000000000000000000000000000000060448201526064016108eb565b7f4910fdfa16fed3260ed0e7147f7cc6da11a60208b5b9406d12a635614ffd91435460ff1615612dd057610893836137ef565b826001600160a01b03166352d1902d6040518163ffffffff1660e01b8152600401602060405180830381865afa925050508015612e2a575060408051601f3d908101601f19168201909252612e27918101906147d1565b60015b612e9c5760405162461bcd60e51b815260206004820152602e60248201527f45524331393637557067726164653a206e657720696d706c656d656e7461746960448201527f6f6e206973206e6f74205555505300000000000000000000000000000000000060648201526084016108eb565b7f360894a13ba1a3210667c828492db98dca3e2076cc3735a920a3ca505d382bbc8114612f315760405162461bcd60e51b815260206004820152602960248201527f45524331393637557067726164653a20756e737570706f727465642070726f7860448201527f6961626c6555554944000000000000000000000000000000000000000000000060648201526084016108eb565b506108938383836138c5565b61035d546040517fc64ea9820000000000000000000000000000000000000000000000000000000081526001600160a01b03888116600483015260248201889052600092839291169063c64ea982906044016040805180830381865afa158015612fab573d6000803e3d6000fd5b505050506040513d601f19601f82011682018060405250810190612fcf9190614a26565b6001600160a01b038116600090815261035b602090815260408083206101008d048452909152902054919350915060ff808916900360020a16156130555760405162461bcd60e51b815260206004820152601f60248201527f4352573a495052542d5469636b65747320616c7265616479206973737565640060448201526064016108eb565b84516001018651146130cf5760405162461bcd60e51b815260206004820152603660248201527f4352573a495052542d5469636b657473206c656e677468206e6f74206d61746360448201527f68696e672073656c656374656420636c7573746572730000000000000000000060648201526084016108eb565b600083838602816130e2576130e26148bb565b0490506000805b875181101561319d57620100008882815181106131085761310861493c565b602002602001015161ffff16840281613123576131236148bb565b0461035360008b848151811061313b5761313b61493c565b60200260200101516001600160a01b03166001600160a01b03168152602001908152602001600020600082825401925050819055508781815181106131825761318261493c565b602002602001015161ffff16820191508060010190506130e9565b816201000010156132165760405162461bcd60e51b815260206004820152602360248201527f4352573a495052542d546f74616c207469636b657420636f756e7420696e766160448201527f6c6964000000000000000000000000000000000000000000000000000000000060648201526084016108eb565b6201000082810384020461035360008b84815181106132375761323761493c565b6020908102919091018101516001600160a01b03908116835282820193909352604091820160009081208054909501909455918716835261035b82528083206101008e0484529091529020805460ff808d16900360020a17905550612056915050565b61035a8190556040518181527fa8981e71e498e96c265179bb22e89df96dcf5d4ddb400c8b5a126bbfc8892086906020015b60405180910390a150565b600061156c83836138f0565b61035d80547fffffffffffffffffffffffff0000000000000000000000000000000000000000166001600160a01b0383169081179091556040519081527f6f006887fb31c9b1cb84f0612e0d1d6f46206e939840603ab42d186c182d633e906020016132cc565b6000610868825490565b600054610100900460ff166133d15760405162461bcd60e51b815260206004820152602b60248201527f496e697469616c697a61626c653a20636f6e7472616374206973206e6f74206960448201527f6e697469616c697a696e6700000000000000000000000000000000000000000060648201526084016108eb565b565b610a808282612cd9565b6103568190556040518181527f2200a867406d1045d4ee4da8938118683406f907803111905cc0354edca57cc7906020016132cc565b805160208201516040830151909160e082901c9160009160609160248210801590613461575060087fffffffffffffffffffffffffffffffffffffffffffffffffffffffffffffffdc830106155b6134d25760405162461bcd60e51b8152602060048201526024808201527f43523a495054492d696e76616c6964207469636b657420696e666f20656e636f60448201527f64696e670000000000000000000000000000000000000000000000000000000060648201526084016108eb565b60087fffffffffffffffffffffffffffffffffffffffffffffffffffffffffffffffdc8301049350602082048467ffffffffffffffff811115613517576135176141f3565b60405190808252806020026020018201604052801561354a57816020015b60608152602001906001900390816135355790505b50600088815261035c602090815260408083205481517f4146f269000000000000000000000000000000000000000000000000000000008152915194985092936001600160a01b0390931692634146f269926004808401939192918290030181865afa1580156135be573d6000803e3d6000fd5b505050506040513d601f19601f820116820180604052508101906135e291906147d1565b90506001810367ffffffffffffffff811115613600576136006141f3565b604051908082528060200260200182016040528015613629578160200160208202803683370190505b508560008151811061363d5761363d61493c565b602002602001018190525060008061365a8560026000808b61391a565b909250905060015b8481101561369157806020026040018c0151955061368486600085858c61391a565b9093509150600101613662565b505050505050509193509193565b60007fffffffff0000000000000000000000000000000000000000000000000000000082167f7965db0b00000000000000000000000000000000000000000000000000000000148061086857507f01ffc9a7000000000000000000000000000000000000000000000000000000007fffffffff00000000000000000000000000000000000000000000000000000000831614610868565b60008281526065602090815260408083206001600160a01b038516845290915290205460ff16610a805761376981613a5c565b613774836020613a6e565b604051602001613785929190614a6f565b60408051601f198184030181529082905262461bcd60e51b82526108eb91600401614af0565b6137b58282613c97565b60008281526097602052604090206108939082613d57565b6137d78282613d6c565b60008281526097602052604090206108939082613e0d565b6001600160a01b0381163b61386c5760405162461bcd60e51b815260206004820152602d60248201527f455243313936373a206e657720696d706c656d656e746174696f6e206973206e60448201527f6f74206120636f6e74726163740000000000000000000000000000000000000060648201526084016108eb565b7f360894a13ba1a3210667c828492db98dca3e2076cc3735a920a3ca505d382bbc80547fffffffffffffffffffffffff0000000000000000000000000000000000000000166001600160a01b0392909216919091179055565b6138ce83613e22565b6000825111806138db5750805b15610893576138ea8383613e62565b50505050565b60008260000182815481106139075761390761493c565b9060005260206000200154905092915050565b600080855b6010811015613a4a57806001016010026101000388901c60001c84878151811061394b5761394b61493c565b602002602001015186815181106139645761396461493c565b602002602001019061ffff16908161ffff1681525050848060010195505060018487815181106139965761399661493c565b60200260200101515103851115613a4257600184510386036139be5785859250925050613a52565b83516001870196859181106139d5576139d561493c565b60200260200101515167ffffffffffffffff8111156139f6576139f66141f3565b604051908082528060200260200182016040528015613a1f578160200160208202803683370190505b50848781518110613a3257613a3261493c565b6020026020010181905250600094505b60010161391f565b508484915091505b9550959350505050565b60606108686001600160a01b03831660145b60606000613a7d836002614925565b613a889060026147ea565b67ffffffffffffffff811115613aa057613aa06141f3565b6040519080825280601f01601f191660200182016040528015613aca576020820181803683370190505b5090507f300000000000000000000000000000000000000000000000000000000000000081600081518110613b0157613b0161493c565b60200101907effffffffffffffffffffffffffffffffffffffffffffffffffffffffffffff1916908160001a9053507f780000000000000000000000000000000000000000000000000000000000000081600181518110613b6457613b6461493c565b60200101907effffffffffffffffffffffffffffffffffffffffffffffffffffffffffffff1916908160001a9053506000613ba0846002614925565b613bab9060016147ea565b90505b6001811115613c48577f303132333435363738396162636465660000000000000000000000000000000085600f1660108110613bec57613bec61493c565b1a60f81b828281518110613c0257613c0261493c565b60200101907effffffffffffffffffffffffffffffffffffffffffffffffffffffffffffff1916908160001a90535060049490941c93613c4181614b23565b9050613bae565b50831561156c5760405162461bcd60e51b815260206004820181905260248201527f537472696e67733a20686578206c656e67746820696e73756666696369656e7460448201526064016108eb565b60008281526065602090815260408083206001600160a01b038516845290915290205460ff16610a805760008281526065602090815260408083206001600160a01b0385168452909152902080547fffffffffffffffffffffffffffffffffffffffffffffffffffffffffffffff00166001179055613d133390565b6001600160a01b0316816001600160a01b0316837f2f8788117e7eff1d82e926ec794901d17c78024a50270940304540a733656f0d60405160405180910390a45050565b600061156c836001600160a01b038416613f6d565b60008281526065602090815260408083206001600160a01b038516845290915290205460ff1615610a805760008281526065602090815260408083206001600160a01b038516808552925280832080547fffffffffffffffffffffffffffffffffffffffffffffffffffffffffffffff0016905551339285917ff6391f5c32d9c69d2a47ea670b442974b53935d1edc7fd64eb21e047a839171b9190a45050565b600061156c836001600160a01b038416613fbc565b613e2b816137ef565b6040516001600160a01b038216907fbc7cd75a20ee27fd9adebab32041f755214dbc6bffa90cc0225b39da2e5c2d3b90600090a250565b60606001600160a01b0383163b613ee15760405162461bcd60e51b815260206004820152602660248201527f416464726573733a2064656c65676174652063616c6c20746f206e6f6e2d636f60448201527f6e7472616374000000000000000000000000000000000000000000000000000060648201526084016108eb565b600080846001600160a01b031684604051613efc9190614b58565b600060405180830381855af49150503d8060008114613f37576040519150601f19603f3d011682016040523d82523d6000602084013e613f3c565b606091505b5091509150613f648282604051806060016040528060278152602001614ba4602791396140af565b95945050505050565b6000818152600183016020526040812054613fb457508154600181810184556000848152602080822090930184905584548482528286019093526040902091909155610868565b506000610868565b600081815260018301602052604081205480156140a5576000613fe06001836147be565b8554909150600090613ff4906001906147be565b90508181146140595760008660000182815481106140145761401461493c565b90600052602060002001549050808760000184815481106140375761403761493c565b6000918252602080832090910192909255918252600188019052604090208390555b855486908061406a5761406a614b74565b600190038181906000526020600020016000905590558560010160008681526020019081526020016000206000905560019350505050610868565b6000915050610868565b606083156140be57508161156c565b61156c83838151156140d35781518083602001fd5b8060405162461bcd60e51b81526004016108eb9190614af0565b6000602082840312156140ff57600080fd5b81357fffffffff000000000000000000000000000000000000000000000000000000008116811461156c57600080fd5b60006020828403121561414157600080fd5b5035919050565b6001600160a01b0381168114610c1e57600080fd5b803561416881614148565b919050565b6000806040838503121561418057600080fd5b82359150602083013561419281614148565b809150509250929050565b6000602082840312156141af57600080fd5b813561156c81614148565b6000806000606084860312156141cf57600080fd5b833592506020840135915060408401356141e881614148565b809150509250925092565b7f4e487b7100000000000000000000000000000000000000000000000000000000600052604160045260246000fd5b604051601f8201601f1916810167ffffffffffffffff8111828210171561424b5761424b6141f3565b604052919050565b6000806040838503121561426657600080fd5b823561427181614148565b915060208381013567ffffffffffffffff8082111561428f57600080fd5b818601915086601f8301126142a357600080fd5b8135818111156142b5576142b56141f3565b6142c784601f19601f84011601614222565b915080825287848285010111156142dd57600080fd5b80848401858401376000848284010152508093505050509250929050565b803562ffffff8116811461416857600080fd5b600067ffffffffffffffff821115614328576143286141f3565b5060051b60200190565b60008060006060848603121561434757600080fd5b8335925060206143588186016142fb565b9250604085013567ffffffffffffffff81111561437457600080fd5b8501601f8101871361438557600080fd5b80356143986143938261430e565b614222565b81815260059190911b820183019083810190898311156143b757600080fd5b928401925b828410156143e657833561ffff811681146143d75760008081fd5b825292840192908401906143bc565b80955050505050509250925092565b6000806040838503121561440857600080fd5b50508035926020909101359150565b60008083601f84011261442957600080fd5b50813567ffffffffffffffff81111561444157600080fd5b6020830191508360208260051b850101111561445c57600080fd5b9250929050565b60008060008060006060868803121561447b57600080fd5b85359450602086013567ffffffffffffffff8082111561449a57600080fd5b6144a689838a01614417565b909650945060408801359150808211156144bf57600080fd5b506144cc88828901614417565b969995985093965092949392505050565b600080604083850312156144f057600080fd5b82356144fb81614148565b946020939093013593505050565b600082601f83011261451a57600080fd5b8135602061452a6143938361430e565b82815260059290921b8401810191818101908684111561454957600080fd5b8286015b84811015614564578035835291830191830161454d565b509695505050505050565b600082601f83011261458057600080fd5b813560206145906143938361430e565b82815260059290921b840181019181810190868411156145af57600080fd5b8286015b848110156145645780356145c681614148565b83529183019183016145b3565b600080600080600080600060e0888a0312156145ee57600080fd5b87356145f981614148565b9650602088013561460981614148565b95506146176040890161415d565b9450606088013567ffffffffffffffff8082111561463457600080fd5b6146408b838c01614509565b955060808a013591508082111561465657600080fd5b6146628b838c01614509565b945060a08a013591508082111561467857600080fd5b506146858a828b0161456f565b92505060c0880135905092959891949750929550565b600080602083850312156146ae57600080fd5b823567ffffffffffffffff808211156146c657600080fd5b818501915085601f8301126146da57600080fd5b8135818111156146e957600080fd5b8660208285010111156146fb57600080fd5b60209290920196919550909350505050565b6000806000806000806080878903121561472657600080fd5b86359550602087013567ffffffffffffffff8082111561474557600080fd5b6147518a838b01614417565b9097509550604089013591508082111561476a57600080fd5b5061477789828a01614417565b979a9699509497949695606090950135949350505050565b7f4e487b7100000000000000000000000000000000000000000000000000000000600052601160045260246000fd5b818103818111156108685761086861478f565b6000602082840312156147e357600080fd5b5051919050565b808201808211156108685761086861478f565b6000806040838503121561481057600080fd5b505080516020909101519092909150565b6000602080838503121561483457600080fd5b825167ffffffffffffffff81111561484b57600080fd5b8301601f8101851361485c57600080fd5b805161486a6143938261430e565b81815260059190911b8201830190838101908783111561488957600080fd5b928401925b828410156148b05783516148a181614148565b8252928401929084019061488e565b979650505050505050565b7f4e487b7100000000000000000000000000000000000000000000000000000000600052601260045260246000fd5b600082614920577f4e487b7100000000000000000000000000000000000000000000000000000000600052601260045260246000fd5b500490565b80820281158282048414176108685761086861478f565b7f4e487b7100000000000000000000000000000000000000000000000000000000600052603260045260246000fd5b60006020828403121561497d57600080fd5b61156c826142fb565b60008083357fffffffffffffffffffffffffffffffffffffffffffffffffffffffffffffffe18436030181126149bb57600080fd5b83018035915067ffffffffffffffff8211156149d657600080fd5b6020019150600581901b360382131561445c57600080fd5b60007fffffffffffffffffffffffffffffffffffffffffffffffffffffffffffffffff8203614a1f57614a1f61478f565b5060010190565b60008060408385031215614a3957600080fd5b82519150602083015161419281614148565b60005b83811015614a66578181015183820152602001614a4e565b50506000910152565b7f416363657373436f6e74726f6c3a206163636f756e7420000000000000000000815260008351614aa7816017850160208801614a4b565b7f206973206d697373696e6720726f6c65200000000000000000000000000000006017918401918201528351614ae4816028840160208801614a4b565b01602801949350505050565b6020815260008251806020840152614b0f816040850160208701614a4b565b601f01601f19169190910160400192915050565b600081614b3257614b3261478f565b507fffffffffffffffffffffffffffffffffffffffffffffffffffffffffffffffff0190565b60008251614b6a818460208701614a4b565b9190910192915050565b7f4e487b7100000000000000000000000000000000000000000000000000000000600052603160045260246000fdfe416464726573733a206c6f772d6c6576656c2064656c65676174652063616c6c206661696c6564a2646970667358221220bdc52b3ecc51906d549bfc7d355b24502b76ce3cdcd5250ad4b07244d1b8922a64736f6c63430008110033",
  "linkReferences": {},
  "deployedLinkReferences": {}
}