{
  "_format": "hh-sol-artifact-1",
  "contractName": "ClusterRegistry",
  "sourceName": "contracts/staking/ClusterRegistry.sol",
  "abi": [
    {
      "inputs": [],
      "stateMutability": "nonpayable",
      "type": "constructor"
    },
    {
      "anonymous": false,
      "inputs": [
        {
          "indexed": false,
          "internalType": "address",
          "name": "previousAdmin",
          "type": "address"
        },
        {
          "indexed": false,
          "internalType": "address",
          "name": "newAdmin",
          "type": "address"
        }
      ],
      "name": "AdminChanged",
      "type": "event"
    },
    {
      "anonymous": false,
      "inputs": [
        {
          "indexed": true,
          "internalType": "address",
          "name": "beacon",
          "type": "address"
        }
      ],
      "name": "BeaconUpgraded",
      "type": "event"
    },
    {
      "anonymous": false,
      "inputs": [
        {
          "indexed": true,
          "internalType": "address",
          "name": "cluster",
          "type": "address"
        },
        {
          "indexed": false,
          "internalType": "address",
          "name": "clientKey",
          "type": "address"
        }
      ],
      "name": "ClientKeyUpdated",
      "type": "event"
    },
    {
      "anonymous": false,
      "inputs": [
        {
          "indexed": true,
          "internalType": "address",
          "name": "cluster",
          "type": "address"
        },
        {
          "indexed": true,
          "internalType": "bytes32",
          "name": "networkId",
          "type": "bytes32"
        },
        {
          "indexed": false,
          "internalType": "uint256",
          "name": "commission",
          "type": "uint256"
        },
        {
          "indexed": false,
          "internalType": "address",
          "name": "rewardAddress",
          "type": "address"
        },
        {
          "indexed": false,
          "internalType": "address",
          "name": "clientKey",
          "type": "address"
        }
      ],
      "name": "ClusterRegistered",
      "type": "event"
    },
    {
      "anonymous": false,
      "inputs": [
        {
          "indexed": true,
          "internalType": "address",
          "name": "cluster",
          "type": "address"
        },
        {
          "indexed": false,
          "internalType": "uint256",
          "name": "effectiveTime",
          "type": "uint256"
        }
      ],
      "name": "ClusterUnregisterRequested",
      "type": "event"
    },
    {
      "anonymous": false,
      "inputs": [
        {
          "indexed": true,
          "internalType": "address",
          "name": "cluster",
          "type": "address"
        },
        {
          "indexed": false,
          "internalType": "uint256",
          "name": "updatedAt",
          "type": "uint256"
        }
      ],
      "name": "ClusterUnregistered",
      "type": "event"
    },
    {
      "anonymous": false,
      "inputs": [
        {
          "indexed": true,
          "internalType": "address",
          "name": "cluster",
          "type": "address"
        },
        {
          "indexed": false,
          "internalType": "uint256",
          "name": "commissionAfterUpdate",
          "type": "uint256"
        },
        {
          "indexed": false,
          "internalType": "uint256",
          "name": "effectiveTime",
          "type": "uint256"
        }
      ],
      "name": "CommissionUpdateRequested",
      "type": "event"
    },
    {
      "anonymous": false,
      "inputs": [
        {
          "indexed": true,
          "internalType": "address",
          "name": "cluster",
          "type": "address"
        },
        {
          "indexed": false,
          "internalType": "uint256",
          "name": "updatedCommission",
          "type": "uint256"
        },
        {
          "indexed": false,
          "internalType": "uint256",
          "name": "updatedAt",
          "type": "uint256"
        }
      ],
      "name": "CommissionUpdated",
      "type": "event"
    },
    {
      "anonymous": false,
      "inputs": [
        {
          "indexed": false,
          "internalType": "uint8",
          "name": "version",
          "type": "uint8"
        }
      ],
      "name": "Initialized",
      "type": "event"
    },
    {
      "anonymous": false,
      "inputs": [
        {
          "indexed": true,
          "internalType": "bytes32",
          "name": "selector",
          "type": "bytes32"
        },
        {
          "indexed": false,
          "internalType": "uint256",
          "name": "prevLockTime",
          "type": "uint256"
        },
        {
          "indexed": false,
          "internalType": "uint256",
          "name": "updatedLockTime",
          "type": "uint256"
        }
      ],
      "name": "LockTimeUpdated",
      "type": "event"
    },
    {
      "anonymous": false,
      "inputs": [
        {
          "indexed": true,
          "internalType": "address",
          "name": "cluster",
          "type": "address"
        },
        {
          "indexed": true,
          "internalType": "bytes32",
          "name": "networkId",
          "type": "bytes32"
        },
        {
          "indexed": false,
          "internalType": "uint256",
          "name": "effectiveTime",
          "type": "uint256"
        }
      ],
      "name": "NetworkSwitchRequested",
      "type": "event"
    },
    {
      "anonymous": false,
      "inputs": [
        {
          "indexed": true,
          "internalType": "address",
          "name": "cluster",
          "type": "address"
        },
        {
          "indexed": true,
          "internalType": "bytes32",
          "name": "networkId",
          "type": "bytes32"
        },
        {
          "indexed": false,
          "internalType": "uint256",
          "name": "updatedAt",
          "type": "uint256"
        }
      ],
      "name": "NetworkSwitched",
      "type": "event"
    },
    {
      "anonymous": false,
      "inputs": [
        {
          "indexed": true,
          "internalType": "address",
          "name": "cluster",
          "type": "address"
        },
        {
          "indexed": false,
          "internalType": "address",
          "name": "updatedRewardAddress",
          "type": "address"
        }
      ],
      "name": "RewardAddressUpdated",
      "type": "event"
    },
    {
      "anonymous": false,
      "inputs": [
        {
          "indexed": true,
          "internalType": "address",
          "name": "rewardDelegators",
          "type": "address"
        }
      ],
      "name": "RewardDelegatorsUpdated",
      "type": "event"
    },
    {
      "anonymous": false,
      "inputs": [
        {
          "indexed": true,
          "internalType": "bytes32",
          "name": "role",
          "type": "bytes32"
        },
        {
          "indexed": true,
          "internalType": "bytes32",
          "name": "previousAdminRole",
          "type": "bytes32"
        },
        {
          "indexed": true,
          "internalType": "bytes32",
          "name": "newAdminRole",
          "type": "bytes32"
        }
      ],
      "name": "RoleAdminChanged",
      "type": "event"
    },
    {
      "anonymous": false,
      "inputs": [
        {
          "indexed": true,
          "internalType": "bytes32",
          "name": "role",
          "type": "bytes32"
        },
        {
          "indexed": true,
          "internalType": "address",
          "name": "account",
          "type": "address"
        },
        {
          "indexed": true,
          "internalType": "address",
          "name": "sender",
          "type": "address"
        }
      ],
      "name": "RoleGranted",
      "type": "event"
    },
    {
      "anonymous": false,
      "inputs": [
        {
          "indexed": true,
          "internalType": "bytes32",
          "name": "role",
          "type": "bytes32"
        },
        {
          "indexed": true,
          "internalType": "address",
          "name": "account",
          "type": "address"
        },
        {
          "indexed": true,
          "internalType": "address",
          "name": "sender",
          "type": "address"
        }
      ],
      "name": "RoleRevoked",
      "type": "event"
    },
    {
      "anonymous": false,
      "inputs": [
        {
          "indexed": true,
          "internalType": "address",
          "name": "implementation",
          "type": "address"
        }
      ],
      "name": "Upgraded",
      "type": "event"
    },
    {
      "inputs": [],
      "name": "DEFAULT_ADMIN_ROLE",
      "outputs": [
        {
          "internalType": "bytes32",
          "name": "",
          "type": "bytes32"
        }
      ],
      "stateMutability": "view",
      "type": "function"
    },
    {
      "inputs": [
        {
          "internalType": "address",
          "name": "",
          "type": "address"
        }
      ],
      "name": "clientKeys",
      "outputs": [
        {
          "internalType": "address",
          "name": "",
          "type": "address"
        }
      ],
      "stateMutability": "view",
      "type": "function"
    },
    {
      "inputs": [
        {
          "internalType": "address",
          "name": "_cluster",
          "type": "address"
        }
      ],
      "name": "getClientKey",
      "outputs": [
        {
          "internalType": "address",
          "name": "",
          "type": "address"
        }
      ],
      "stateMutability": "view",
      "type": "function"
    },
    {
      "inputs": [
        {
          "internalType": "address",
          "name": "_cluster",
          "type": "address"
        }
      ],
      "name": "getCluster",
      "outputs": [
        {
          "internalType": "uint256",
          "name": "commission",
          "type": "uint256"
        },
        {
          "internalType": "address",
          "name": "rewardAddress",
          "type": "address"
        },
        {
          "internalType": "address",
          "name": "clientKey",
          "type": "address"
        },
        {
          "internalType": "bytes32",
          "name": "networkId",
          "type": "bytes32"
        },
        {
          "internalType": "bool",
          "name": "isValidCluster",
          "type": "bool"
        }
      ],
      "stateMutability": "view",
      "type": "function"
    },
    {
      "inputs": [
        {
          "internalType": "address",
          "name": "_cluster",
          "type": "address"
        }
      ],
      "name": "getCommission",
      "outputs": [
        {
          "internalType": "uint256",
          "name": "",
          "type": "uint256"
        }
      ],
      "stateMutability": "view",
      "type": "function"
    },
    {
      "inputs": [
        {
          "internalType": "address",
          "name": "_cluster",
          "type": "address"
        }
      ],
      "name": "getNetwork",
      "outputs": [
        {
          "internalType": "bytes32",
          "name": "",
          "type": "bytes32"
        }
      ],
      "stateMutability": "view",
      "type": "function"
    },
    {
      "inputs": [
        {
          "internalType": "address",
          "name": "_cluster",
          "type": "address"
        }
      ],
      "name": "getRewardAddress",
      "outputs": [
        {
          "internalType": "address",
          "name": "",
          "type": "address"
        }
      ],
      "stateMutability": "view",
      "type": "function"
    },
    {
      "inputs": [
        {
          "internalType": "address",
          "name": "_cluster",
          "type": "address"
        }
      ],
      "name": "getRewardInfo",
      "outputs": [
        {
          "internalType": "uint256",
          "name": "",
          "type": "uint256"
        },
        {
          "internalType": "address",
          "name": "",
          "type": "address"
        }
      ],
      "stateMutability": "view",
      "type": "function"
    },
    {
      "inputs": [
        {
          "internalType": "bytes32",
          "name": "role",
          "type": "bytes32"
        }
      ],
      "name": "getRoleAdmin",
      "outputs": [
        {
          "internalType": "bytes32",
          "name": "",
          "type": "bytes32"
        }
      ],
      "stateMutability": "view",
      "type": "function"
    },
    {
      "inputs": [
        {
          "internalType": "bytes32",
          "name": "role",
          "type": "bytes32"
        },
        {
          "internalType": "uint256",
          "name": "index",
          "type": "uint256"
        }
      ],
      "name": "getRoleMember",
      "outputs": [
        {
          "internalType": "address",
          "name": "",
          "type": "address"
        }
      ],
      "stateMutability": "view",
      "type": "function"
    },
    {
      "inputs": [
        {
          "internalType": "bytes32",
          "name": "role",
          "type": "bytes32"
        }
      ],
      "name": "getRoleMemberCount",
      "outputs": [
        {
          "internalType": "uint256",
          "name": "",
          "type": "uint256"
        }
      ],
      "stateMutability": "view",
      "type": "function"
    },
    {
      "inputs": [
        {
          "internalType": "bytes32",
          "name": "role",
          "type": "bytes32"
        },
        {
          "internalType": "address",
          "name": "account",
          "type": "address"
        }
      ],
      "name": "grantRole",
      "outputs": [],
      "stateMutability": "nonpayable",
      "type": "function"
    },
    {
      "inputs": [
        {
          "internalType": "bytes32",
          "name": "role",
          "type": "bytes32"
        },
        {
          "internalType": "address",
          "name": "account",
          "type": "address"
        }
      ],
      "name": "hasRole",
      "outputs": [
        {
          "internalType": "bool",
          "name": "",
          "type": "bool"
        }
      ],
      "stateMutability": "view",
      "type": "function"
    },
    {
      "inputs": [
        {
          "internalType": "uint256[3]",
          "name": "_lockWaitTimes",
          "type": "uint256[3]"
        },
        {
          "internalType": "address",
          "name": "_rewardDelegators",
          "type": "address"
        }
      ],
      "name": "initialize",
      "outputs": [],
      "stateMutability": "nonpayable",
      "type": "function"
    },
    {
      "inputs": [
        {
          "internalType": "address",
          "name": "_cluster",
          "type": "address"
        }
      ],
      "name": "isClusterValid",
      "outputs": [
        {
          "internalType": "bool",
          "name": "",
          "type": "bool"
        }
      ],
      "stateMutability": "view",
      "type": "function"
    },
    {
      "inputs": [
        {
          "internalType": "bytes32",
          "name": "",
          "type": "bytes32"
        }
      ],
      "name": "lockWaitTime",
      "outputs": [
        {
          "internalType": "uint256",
          "name": "",
          "type": "uint256"
        }
      ],
      "stateMutability": "view",
      "type": "function"
    },
    {
      "inputs": [
        {
          "internalType": "bytes32",
          "name": "",
          "type": "bytes32"
        }
      ],
      "name": "locks",
      "outputs": [
        {
          "internalType": "uint256",
          "name": "unlockTime",
          "type": "uint256"
        },
        {
          "internalType": "uint256",
          "name": "iValue",
          "type": "uint256"
        }
      ],
      "stateMutability": "view",
      "type": "function"
    },
    {
      "inputs": [],
      "name": "proxiableUUID",
      "outputs": [
        {
          "internalType": "bytes32",
          "name": "",
          "type": "bytes32"
        }
      ],
      "stateMutability": "view",
      "type": "function"
    },
    {
      "inputs": [
        {
          "internalType": "bytes32",
          "name": "_networkId",
          "type": "bytes32"
        },
        {
          "internalType": "uint256",
          "name": "_commission",
          "type": "uint256"
        },
        {
          "internalType": "address",
          "name": "_rewardAddress",
          "type": "address"
        },
        {
          "internalType": "address",
          "name": "_clientKey",
          "type": "address"
        }
      ],
      "name": "register",
      "outputs": [],
      "stateMutability": "nonpayable",
      "type": "function"
    },
    {
      "inputs": [
        {
          "internalType": "bytes32",
          "name": "role",
          "type": "bytes32"
        },
        {
          "internalType": "address",
          "name": "account",
          "type": "address"
        }
      ],
      "name": "renounceRole",
      "outputs": [],
      "stateMutability": "nonpayable",
      "type": "function"
    },
    {
      "inputs": [
        {
          "internalType": "uint256",
          "name": "_commission",
          "type": "uint256"
        }
      ],
      "name": "requestCommissionUpdate",
      "outputs": [],
      "stateMutability": "nonpayable",
      "type": "function"
    },
    {
      "inputs": [
        {
          "internalType": "bytes32",
          "name": "_networkId",
          "type": "bytes32"
        }
      ],
      "name": "requestNetworkSwitch",
      "outputs": [],
      "stateMutability": "nonpayable",
      "type": "function"
    },
    {
      "inputs": [],
      "name": "requestUnregister",
      "outputs": [],
      "stateMutability": "nonpayable",
      "type": "function"
    },
    {
      "inputs": [
        {
          "internalType": "bytes32",
          "name": "role",
          "type": "bytes32"
        },
        {
          "internalType": "address",
          "name": "account",
          "type": "address"
        }
      ],
      "name": "revokeRole",
      "outputs": [],
      "stateMutability": "nonpayable",
      "type": "function"
    },
    {
      "inputs": [],
      "name": "rewardDelegators",
      "outputs": [
        {
          "internalType": "contract IRewardDelegators",
          "name": "",
          "type": "address"
        }
      ],
      "stateMutability": "view",
      "type": "function"
    },
    {
      "inputs": [
        {
          "internalType": "bytes4",
          "name": "interfaceId",
          "type": "bytes4"
        }
      ],
      "name": "supportsInterface",
      "outputs": [
        {
          "internalType": "bool",
          "name": "",
          "type": "bool"
        }
      ],
      "stateMutability": "view",
      "type": "function"
    },
    {
      "inputs": [],
      "name": "switchNetwork",
      "outputs": [],
      "stateMutability": "nonpayable",
      "type": "function"
    },
    {
      "inputs": [],
      "name": "unregister",
      "outputs": [],
      "stateMutability": "nonpayable",
      "type": "function"
    },
    {
      "inputs": [
        {
          "internalType": "address",
          "name": "_clientKey",
          "type": "address"
        }
      ],
      "name": "updateClientKey",
      "outputs": [],
      "stateMutability": "nonpayable",
      "type": "function"
    },
    {
      "inputs": [
        {
          "internalType": "uint256",
          "name": "_commission",
          "type": "uint256"
        },
        {
          "internalType": "bytes32",
          "name": "_networkId",
          "type": "bytes32"
        },
        {
          "internalType": "address",
          "name": "_rewardAddress",
          "type": "address"
        },
        {
          "internalType": "address",
          "name": "_clientKey",
          "type": "address"
        }
      ],
      "name": "updateCluster",
      "outputs": [],
      "stateMutability": "nonpayable",
      "type": "function"
    },
    {
      "inputs": [],
      "name": "updateCommission",
      "outputs": [],
      "stateMutability": "nonpayable",
      "type": "function"
    },
    {
      "inputs": [
        {
          "internalType": "bytes32",
          "name": "_selector",
          "type": "bytes32"
        },
        {
          "internalType": "uint256",
          "name": "_updatedWaitTime",
          "type": "uint256"
        }
      ],
      "name": "updateLockWaitTime",
      "outputs": [],
      "stateMutability": "nonpayable",
      "type": "function"
    },
    {
      "inputs": [
        {
          "internalType": "address",
          "name": "_rewardAddress",
          "type": "address"
        }
      ],
      "name": "updateRewardAddress",
      "outputs": [],
      "stateMutability": "nonpayable",
      "type": "function"
    },
    {
      "inputs": [
        {
          "internalType": "address",
          "name": "_updatedRewardDelegators",
          "type": "address"
        }
      ],
      "name": "updateRewardDelegators",
      "outputs": [],
      "stateMutability": "nonpayable",
      "type": "function"
    },
    {
      "inputs": [
        {
          "internalType": "address",
          "name": "newImplementation",
          "type": "address"
        }
      ],
      "name": "upgradeTo",
      "outputs": [],
      "stateMutability": "nonpayable",
      "type": "function"
    },
    {
      "inputs": [
        {
          "internalType": "address",
          "name": "newImplementation",
          "type": "address"
        },
        {
          "internalType": "bytes",
          "name": "data",
          "type": "bytes"
        }
      ],
      "name": "upgradeToAndCall",
      "outputs": [],
      "stateMutability": "payable",
      "type": "function"
    }
  ],
  "bytecode": "0x60a0604052306080523480156200001557600080fd5b50600054610100900460ff1615808015620000375750600054600160ff909116105b8062000067575062000054306200014160201b620026f31760201c565b15801562000067575060005460ff166001145b620000cf5760405162461bcd60e51b815260206004820152602e60248201527f496e697469616c697a61626c653a20636f6e747261637420697320616c72656160448201526d191e481a5b9a5d1a585b1a5e995960921b606482015260840160405180910390fd5b6000805460ff191660011790558015620000f3576000805461ff0019166101001790555b80156200013a576000805461ff0019169055604051600181527f7f26b83ff96e1f2b6a682f133852f6798a09c465da95921460cefb38474024989060200160405180910390a15b5062000150565b6001600160a01b03163b151590565b60805161394e6200018860003960008181611139015281816111cf01528181611336015281816113cc0152611517015261394e6000f3fe60806040526004361061024f5760003560e01c80637566d90911610138578063ca15c873116100b0578063e7f037661161007f578063f334dcb211610064578063f334dcb21461079c578063fe7b5fa7146107d6578063fff0d1901461080d57600080fd5b8063e7f037661461073d578063ed5e84371461075257600080fd5b8063ca15c873146106d3578063d547741f146106f3578063d75c6ec014610713578063e79a198f1461072857600080fd5b80639ebd3a2b11610107578063a217fddf116100ec578063a217fddf14610667578063bb62b3e21461067c578063c634c1651461069c57600080fd5b80639ebd3a2b14610632578063a173f7be1461065257600080fd5b80637566d9091461058c5780639010d07c146105ac57806391d14854146105cc578063944dd5a21461061257600080fd5b80632f74ada0116101cb57806347ae58b31161019a5780634f1ef2861161017f5780634f1ef2861461054457806351ce9fae1461055757806352d1902d1461057757600080fd5b806347ae58b3146104f657806348ad85721461051657600080fd5b80632f74ada01461047557806336568abe146104955780633659cfe6146104b55780633fa364cd146104d557600080fd5b806317915e8d116102225780631f4c06f7116102075780631f4c06f7146103f7578063248a9ca3146104175780632f2ff15d1461045557600080fd5b806317915e8d1461037f5780631c3a3182146103d557600080fd5b806301ffc9a71461025457806306032d74146102895780630e327ee8146102ed5780630f96ffc214610342575b600080fd5b34801561026057600080fd5b5061027461026f36600461342d565b61082d565b60405190151581526020015b60405180910390f35b34801561029557600080fd5b506102d06102a436600461348b565b6001600160a01b0390811660009081526103556020526040902060018101546002909101549092911690565b604080519283526001600160a01b03909116602083015201610280565b3480156102f957600080fd5b5061032a61030836600461348b565b6001600160a01b03908116600090815261035560205260409020600201541690565b6040516001600160a01b039091168152602001610280565b34801561034e57600080fd5b5061032a61035d36600461348b565b6001600160a01b03908116600090815261035560205260409020600301541690565b34801561038b57600080fd5b5061039f61039a36600461348b565b61083e565b604080519586526001600160a01b039485166020870152929093169184019190915260608301521515608082015260a001610280565b3480156103e157600080fd5b506103f56103f03660046134a6565b6108b3565b005b34801561040357600080fd5b506103f56104123660046134bf565b610b25565b34801561042357600080fd5b506104476104323660046134a6565b60009081526065602052604090206001015490565b604051908152602001610280565b34801561046157600080fd5b506103f5610470366004613505565b610df3565b34801561048157600080fd5b506103f5610490366004613531565b610e1d565b3480156104a157600080fd5b506103f56104b0366004613505565b6110a3565b3480156104c157600080fd5b506103f56104d036600461348b565b61112f565b3480156104e157600080fd5b506103575461032a906001600160a01b031681565b34801561050257600080fd5b506103f561051136600461348b565b6112cc565b34801561052257600080fd5b506104476105313660046134a6565b6103546020526000908152604090205481565b6103f561055236600461359a565b61132c565b34801561056357600080fd5b5061027461057236600461348b565b6114b6565b34801561058357600080fd5b5061044761150a565b34801561059857600080fd5b506103f56105a73660046134bf565b6115cf565b3480156105b857600080fd5b5061032a6105c736600461365c565b611644565b3480156105d857600080fd5b506102746105e7366004613505565b60009182526065602090815260408084206001600160a01b0393909316845291905290205460ff1690565b34801561061e57600080fd5b506103f561062d36600461348b565b611663565b34801561063e57600080fd5b506103f561064d3660046134a6565b611737565b34801561065e57600080fd5b506103f5611950565b34801561067357600080fd5b50610447600081565b34801561068857600080fd5b506103f561069736600461348b565b611b75565b3480156106a857600080fd5b5061032a6106b736600461348b565b610356602052600090815260409020546001600160a01b031681565b3480156106df57600080fd5b506104476106ee3660046134a6565b611d74565b3480156106ff57600080fd5b506103f561070e366004613505565b611d8b565b34801561071f57600080fd5b506103f5611db0565b34801561073457600080fd5b506103f5612094565b34801561074957600080fd5b506103f561249e565b34801561075e57600080fd5b5061078761076d3660046134a6565b610353602052600090815260409020805460019091015482565b60408051928352602083019190915201610280565b3480156107a857600080fd5b506104476107b736600461348b565b6001600160a01b03166000908152610355602052604090206001015490565b3480156107e257600080fd5b506104476107f136600461348b565b6001600160a01b03166000908152610355602052604090205490565b34801561081957600080fd5b506103f561082836600461365c565b612692565b600061083882612702565b92915050565b6000806000806000610869866001600160a01b03166000908152610355602052604090206001015490565b6001600160a01b038781166000908152610355602052604090206002810154600382015491549083169291909116906108a18a6114b6565b939a9299509097509550909350915050565b6108bc336114b6565b61090d5760405162461bcd60e51b815260206004820152601d60248201527f43523a5243552d436c7573746572206e6f74207265676973746572656400000060448201526064015b60405180910390fd5b606481111561095e5760405162461bcd60e51b815260206004820181905260248201527f43523a5243552d436f6d6d697373696f6e206d6f7265207468616e20313030256044820152606401610904565b60007f7877e81172e1242eb265a9ff5a14c913d44197a6e15e0bc1d984f40be9096403336040516020016109c192919091825260601b7fffffffffffffffffffffffffffffffffffffffff00000000000000000000000016602082015260340190565b60408051601f19818403018152918152815160209283012060008181526103539093529120549091508015610a5d5760405162461bcd60e51b8152602060048201526024808201527f43523a5243552d436f6d6d697373696f6e2075706461746520696e2070726f6760448201527f72657373000000000000000000000000000000000000000000000000000000006064820152608401610904565b7f7877e81172e1242eb265a9ff5a14c913d44197a6e15e0bc1d984f40be909640360009081526103546020527f60fcc90382a4d3b58fe9b5d36497fc099c7897eb35852f7de6d7a351a503f92254610ab590426136ad565b6040805180820182528281526020808201888152600088815261035383528490209251835551600190920191909155815187815290810183905291925033917f02ad6423bf8f7f88434f991300ee2389a81cf3a7603554f7671b8df602149b62910160405180910390a250505050565b610b2e336114b6565b15610ba15760405162461bcd60e51b815260206004820152602260248201527f43523a522d436c757374657220697320616c726561647920726567697374657260448201527f65640000000000000000000000000000000000000000000000000000000000006064820152608401610904565b6064831115610bf25760405162461bcd60e51b815260206004820152601e60248201527f43523a522d436f6d6d697373696f6e206d6f7265207468616e203130302500006044820152606401610904565b6001600160a01b03818116600090815261035660205260409020541615610c5b5760405162461bcd60e51b815260206004820152601f60248201527f43523a522d436c69656e74206b657920697320616c72656164792075736564006044820152606401610904565b33600081815261035560209081526040808320600181018890556002810180546001600160a01b038981167fffffffffffffffffffffffff000000000000000000000000000000000000000092831617909255600383018054938c90558883167fffffffffffffffffffffff0000000000000000000000000000000000000000009094168417740100000000000000000000000000000000000000001790559185526103569093528184208054909116851790556103575481517f349b15cb000000000000000000000000000000000000000000000000000000008152600481019590955260248501899052905191169263349b15cb92604480830193919282900301818387803b158015610d6f57600080fd5b505af1158015610d83573d6000803e3d6000fd5b5050505083610d8f3390565b6001600160a01b03167f94d6ec8e8d159bff788a0f0fd13c3142344c8d63b22872ec56c8473e42fd6a26858585604051610de5939291909283526001600160a01b03918216602084015216604082015260600190565b60405180910390a350505050565b600082815260656020526040902060010154610e0e81612758565b610e188383612762565b505050565b600054610100900460ff1615808015610e3d5750600054600160ff909116105b80610e575750303b158015610e57575060005460ff166001145b610ec95760405162461bcd60e51b815260206004820152602e60248201527f496e697469616c697a61626c653a20636f6e747261637420697320616c72656160448201527f647920696e697469616c697a65640000000000000000000000000000000000006064820152608401610904565b600080547fffffffffffffffffffffffffffffffffffffffffffffffffffffffffffffff001660011790558015610f2757600080547fffffffffffffffffffffffffffffffffffffffffffffffffffffffffffff00ff166101001790555b610f2f61276c565b610f3761276c565b610f3f61276c565b610f4761276c565b610f4f61276c565b610f5761276c565b610f626000336127eb565b604080516060810182527f7877e81172e1242eb265a9ff5a14c913d44197a6e15e0bc1d984f40be909640381527f18981a75d138782f14f3fbd4153783a0dc1558f28dc5538bf045e7de84cb2ae260208201527f027b176aae0bed270786878cbabc238973eac20b1957aae44b82a73cc8c7080c9181019190915260005b60038110156110315761101f828260038110610ffe57610ffe6136ef565b6020020151868360038110611015576110156136ef565b60200201356127f5565b806110298161371e565b915050610fe0565b5061103b83612854565b508015610e1857600080547fffffffffffffffffffffffffffffffffffffffffffffffffffffffffffff00ff169055604051600181527f7f26b83ff96e1f2b6a682f133852f6798a09c465da95921460cefb38474024989060200160405180910390a1505050565b6001600160a01b03811633146111215760405162461bcd60e51b815260206004820152602f60248201527f416363657373436f6e74726f6c3a2063616e206f6e6c792072656e6f756e636560448201527f20726f6c657320666f722073656c6600000000000000000000000000000000006064820152608401610904565b61112b82826128b7565b5050565b6001600160a01b037f00000000000000000000000000000000000000000000000000000000000000001630036111cd5760405162461bcd60e51b815260206004820152602c60248201527f46756e6374696f6e206d7573742062652063616c6c6564207468726f7567682060448201527f64656c656761746563616c6c00000000000000000000000000000000000000006064820152608401610904565b7f00000000000000000000000000000000000000000000000000000000000000006001600160a01b03166112287f360894a13ba1a3210667c828492db98dca3e2076cc3735a920a3ca505d382bbc546001600160a01b031690565b6001600160a01b0316146112a45760405162461bcd60e51b815260206004820152602c60248201527f46756e6374696f6e206d7573742062652063616c6c6564207468726f7567682060448201527f6163746976652070726f787900000000000000000000000000000000000000006064820152608401610904565b6112ad8161291a565b604080516000808252602082019092526112c991839190612971565b50565b6112d76000336105e7565b6113235760405162461bcd60e51b815260206004820152600a60248201527f6f6e6c792061646d696e000000000000000000000000000000000000000000006044820152606401610904565b6112c981612854565b6001600160a01b037f00000000000000000000000000000000000000000000000000000000000000001630036113ca5760405162461bcd60e51b815260206004820152602c60248201527f46756e6374696f6e206d7573742062652063616c6c6564207468726f7567682060448201527f64656c656761746563616c6c00000000000000000000000000000000000000006064820152608401610904565b7f00000000000000000000000000000000000000000000000000000000000000006001600160a01b03166114257f360894a13ba1a3210667c828492db98dca3e2076cc3735a920a3ca505d382bbc546001600160a01b031690565b6001600160a01b0316146114a15760405162461bcd60e51b815260206004820152602c60248201527f46756e6374696f6e206d7573742062652063616c6c6564207468726f7567682060448201527f6163746976652070726f787900000000000000000000000000000000000000006064820152608401610904565b6114aa8261291a565b61112b82826001612971565b6000806001600160a01b0383166000908152610355602052604090206003015474010000000000000000000000000000000000000000900460ff166001811115611502576115026136c0565b141592915050565b6000306001600160a01b037f000000000000000000000000000000000000000000000000000000000000000016146115aa5760405162461bcd60e51b815260206004820152603860248201527f555550535570677261646561626c653a206d757374206e6f742062652063616c60448201527f6c6564207468726f7567682064656c656761746563616c6c00000000000000006064820152608401610904565b507f360894a13ba1a3210667c828492db98dca3e2076cc3735a920a3ca505d382bbc90565b82156115de576115de83611737565b6001600160a01b038216156115f6576115f682611663565b6001600160a01b0381161561160e5761160e81611b75565b7fffffffffffffffffffffffffffffffffffffffffffffffffffffffffffffffff841461163e5761163e846108b3565b50505050565b600082815260976020526040812061165c9083612b11565b9392505050565b61166c336114b6565b6116b85760405162461bcd60e51b815260206004820152601d60248201527f43523a5552412d436c7573746572206e6f7420726567697374657265640000006044820152606401610904565b336000818152610355602090815260409182902060020180547fffffffffffffffffffffffff0000000000000000000000000000000000000000166001600160a01b03861690811790915591519182527f4c5b658b1805527ff7cb46c40a77c5aa5058aa9183f6b94c5d17a9de818cb4eb91015b60405180910390a250565b611740336114b6565b61178c5760405162461bcd60e51b815260206004820152601d60248201527f43523a524e532d436c7573746572206e6f7420726567697374657265640000006044820152606401610904565b60007f18981a75d138782f14f3fbd4153783a0dc1558f28dc5538bf045e7de84cb2ae2336040516020016117ef92919091825260601b7fffffffffffffffffffffffffffffffffffffffff00000000000000000000000016602082015260340190565b60408051601f1981840301815291815281516020928301206000818152610353909352912054909150801561188c5760405162461bcd60e51b815260206004820152602160248201527f43523a524e532d4e6574776f726b2073776974636820696e2070726f6772657360448201527f73000000000000000000000000000000000000000000000000000000000000006064820152608401610904565b7f18981a75d138782f14f3fbd4153783a0dc1558f28dc5538bf045e7de84cb2ae260009081526103546020527f8696bc5553f0bd905da32ef1b5d632f93a3b498f6f1dc41023f17ca9c81c78ab546118e490426136ad565b60408051808201825282815260208082018881526000888152610353909252929020905181559051600190910155905083336001600160a01b03167f547dff4e33e8a0f3b5bc5d85967802696ebdfb70c2fb6535b816055626cc842a83604051610de591815260200190565b611959336114b6565b6119a55760405162461bcd60e51b815260206004820152601c60248201527f43523a52552d436c7573746572206e6f742072656769737465726564000000006044820152606401610904565b60007f027b176aae0bed270786878cbabc238973eac20b1957aae44b82a73cc8c7080c33604051602001611a0892919091825260601b7fffffffffffffffffffffffffffffffffffffffff00000000000000000000000016602082015260340190565b60408051601f19818403018152918152815160209283012060008181526103539093529120549091508015611aa55760405162461bcd60e51b815260206004820152602860248201527f43523a52552d556e726567697374726174696f6e20616c726561647920696e2060448201527f70726f67726573730000000000000000000000000000000000000000000000006064820152608401610904565b7f027b176aae0bed270786878cbabc238973eac20b1957aae44b82a73cc8c7080c60009081526103546020527f71f3fc8dd7891fe14dc57ae98ab67035ee09d235cef48aae220e65ce5147d5aa54611afd90426136ad565b604080518082018252828152600060208083018281528883526103539091529290209051815590516001909101559050336001600160a01b03167fb27198c1c90d896e17e7fdcc7234d77a92839bf4629f6e514fa89efa9530477382604051611b6891815260200190565b60405180910390a2505050565b611b7e336114b6565b611bca5760405162461bcd60e51b815260206004820152601d60248201527f43523a55434b2d436c7573746572206e6f7420726567697374657265640000006044820152606401610904565b6001600160a01b038116611c465760405162461bcd60e51b815260206004820152602260248201527f43523a55434b202d20436c69656e74206b65792063616e6e6f74206265207a6560448201527f726f0000000000000000000000000000000000000000000000000000000000006064820152608401610904565b6001600160a01b03818116600090815261035660205260409020541615611cd55760405162461bcd60e51b815260206004820152602360248201527f43523a55434b202d20436c69656e74206b657920697320616c7265616479207560448201527f73656400000000000000000000000000000000000000000000000000000000006064820152608401610904565b3360008181526103556020908152604080832060030180546001600160a01b039081168552610356845282852080547fffffffffffffffffffffffff00000000000000000000000000000000000000009081169091558254811691881691821790925580855293829020805490911685179055519182527fe3278ea3ad4d101e07a8ed576698b53aa126ad3061abedd3eb4bda0b8590a842910161172c565b600081815260976020526040812061083890612b1d565b600082815260656020526040902060010154611da681612758565b610e1883836128b7565b60007f18981a75d138782f14f3fbd4153783a0dc1558f28dc5538bf045e7de84cb2ae233604051602001611e1392919091825260601b7fffffffffffffffffffffffffffffffffffffffff00000000000000000000000016602082015260340190565b60408051601f19818403018152918152815160209283012060008181526103539093529082205490925090819003611e8d5760405162461bcd60e51b815260206004820152601f60248201527f43523a534e2d4e6f20737769746368206e6574776f726b2072657175657374006044820152606401610904565b428110611edc5760405162461bcd60e51b815260206004820181905260248201527f43523a534e2d4e6574776f726b2073776974636820696e2070726f67726573736044820152606401610904565b6000828152610353602090815260408083206001015461035754338086526103559094528285205483517f12b1a76600000000000000000000000000000000000000000000000000000000815260048101959095526024850152915190936001600160a01b03909216926312b1a76692604480830193919282900301818387803b158015611f6957600080fd5b505af1158015611f7d573d6000803e3d6000fd5b50505050806103556000611f8e3390565b6001600160a01b039081168252602082019290925260400160002091909155610357541663349b15cb336040517fffffffff0000000000000000000000000000000000000000000000000000000060e084901b1681526001600160a01b03909116600482015260248101849052604401600060405180830381600087803b15801561201857600080fd5b505af115801561202c573d6000803e3d6000fd5b50505050806120383390565b6001600160a01b03167f6baf22d499543edc2da95c5ede111d540373d2f84fe995079ecb45dbd7a47c518460405161207291815260200190565b60405180910390a3505060009081526103536020526040812081815560010155565b336000908152610355602052604081206003015474010000000000000000000000000000000000000000900460ff1660018111156120d4576120d46136c0565b036121215760405162461bcd60e51b815260206004820152601c60248201527f43523a55522d436c7573746572206e6f742072656769737465726564000000006044820152606401610904565b60007f027b176aae0bed270786878cbabc238973eac20b1957aae44b82a73cc8c7080c3360405160200161218492919091825260601b7fffffffffffffffffffffffffffffffffffffffff00000000000000000000000016602082015260340190565b60408051601f198184030181529181528151602092830120600081815261035390935290822054909250908190036121fe5760405162461bcd60e51b815260206004820152601f60248201527f43523a55522d4e6f20756e726567697374726174696f6e2072657175657374006044820152606401610904565b4281106122735760405162461bcd60e51b815260206004820152602860248201527f43523a55522d556e726567697374726174696f6e20616c726561647920696e2060448201527f70726f67726573730000000000000000000000000000000000000000000000006064820152608401610904565b336000818152610355602090815260409182902060030180547fffffffffffffffffffffff00ffffffffffffffffffffffffffffffffffffffff169055815184815291517ff57f6deb3dd36063034fdd928555a21800a842054e759d406c427909ee4b6d329281900390910190a23360008181526103556020818152604080842060038101546001600160a01b039081168652610356845282862080547fffffffffffffffffffffffff0000000000000000000000000000000000000000169055888652610353808552838720878155600190810188905584517f7877e81172e1242eb265a9ff5a14c913d44197a6e15e0bc1d984f40be9096403818801527fffffffffffffffffffffffffffffffffffffffff00000000000000000000000060608b901b16818701819052865160348184030181526054830188528051908901208a52838852868a208a815583018a90557f18981a75d138782f14f3fbd4153783a0dc1558f28dc5538bf045e7de84cb2ae2607483015260948201528551608881830301815260a882018088528151918901919091208a52928752858920898155909101889055610357548989529690955291547f12b1a7660000000000000000000000000000000000000000000000000000000090925260ac84019690965260cc8301525191909316926312b1a7669260ec80830193919282900301818387803b15801561248257600080fd5b505af1158015612496573d6000803e3d6000fd5b505050505050565b60007f7877e81172e1242eb265a9ff5a14c913d44197a6e15e0bc1d984f40be90964033360405160200161250192919091825260601b7fffffffffffffffffffffffffffffffffffffffff00000000000000000000000016602082015260340190565b60408051601f198184030181529181528151602092830120600081815261035390935290822054909250908190036125a15760405162461bcd60e51b815260206004820152602360248201527f43523a55434d2d4e6f20636f6d6d697373696f6e20757064617465207265717560448201527f65737400000000000000000000000000000000000000000000000000000000006064820152608401610904565b4281106126155760405162461bcd60e51b8152602060048201526024808201527f43523a55434d2d436f6d6d697373696f6e2075706461746520696e2070726f6760448201527f72657373000000000000000000000000000000000000000000000000000000006064820152608401610904565b60008281526103536020908152604080832060019081015433808652610355855294839020909101819055815181815292830185905292917f6e500db30ce535d38852e318f333e9be41a3fec6c65d234ebb06203c896db9a5910160405180910390a2505060009081526103536020526040812081815560010155565b61269d6000336105e7565b6126e95760405162461bcd60e51b815260206004820152600a60248201527f6f6e6c792061646d696e000000000000000000000000000000000000000000006044820152606401610904565b61112b82826127f5565b6001600160a01b03163b151590565b60007fffffffff0000000000000000000000000000000000000000000000000000000082167f5a05180f000000000000000000000000000000000000000000000000000000001480610838575061083882612b27565b6112c98133612bbe565b61112b8282612c33565b600054610100900460ff166127e95760405162461bcd60e51b815260206004820152602b60248201527f496e697469616c697a61626c653a20636f6e7472616374206973206e6f74206960448201527f6e697469616c697a696e670000000000000000000000000000000000000000006064820152608401610904565b565b61112b8282612762565b6000828152610354602090815260409182902054825190815290810183905283917f5793ae75ad4ae6b7dc6492360b49ac802ad3f243d386419158aa87761383df5a910160405180910390a26000918252610354602052604090912055565b61035780547fffffffffffffffffffffffff0000000000000000000000000000000000000000166001600160a01b0383169081179091556040517f243ffdd63877ab377a1957f30859f60dc0024c9f363070af2421c0298bc8277290600090a250565b6128c18282612c55565b6128cb6000611d74565b60000361112b5760405162461bcd60e51b815260206004820152601360248201527f43616e6e6f742062652061646d696e6c657373000000000000000000000000006044820152606401610904565b6129256000336105e7565b6112c95760405162461bcd60e51b815260206004820152600a60248201527f6f6e6c792061646d696e000000000000000000000000000000000000000000006044820152606401610904565b7f4910fdfa16fed3260ed0e7147f7cc6da11a60208b5b9406d12a635614ffd91435460ff16156129a457610e1883612c77565b826001600160a01b03166352d1902d6040518163ffffffff1660e01b8152600401602060405180830381865afa9250505080156129fe575060408051601f3d908101601f191682019092526129fb91810190613756565b60015b612a705760405162461bcd60e51b815260206004820152602e60248201527f45524331393637557067726164653a206e657720696d706c656d656e7461746960448201527f6f6e206973206e6f7420555550530000000000000000000000000000000000006064820152608401610904565b7f360894a13ba1a3210667c828492db98dca3e2076cc3735a920a3ca505d382bbc8114612b055760405162461bcd60e51b815260206004820152602960248201527f45524331393637557067726164653a20756e737570706f727465642070726f7860448201527f6961626c655555494400000000000000000000000000000000000000000000006064820152608401610904565b50610e18838383612d4d565b600061165c8383612d72565b6000610838825490565b60007fffffffff0000000000000000000000000000000000000000000000000000000082167f7965db0b00000000000000000000000000000000000000000000000000000000148061083857507f01ffc9a7000000000000000000000000000000000000000000000000000000007fffffffff00000000000000000000000000000000000000000000000000000000831614610838565b60008281526065602090815260408083206001600160a01b038516845290915290205460ff1661112b57612bf181612d9c565b612bfc836020612dae565b604051602001612c0d929190613793565b60408051601f198184030181529082905262461bcd60e51b825261090491600401613814565b612c3d8282612fd7565b6000828152609760205260409020610e189082613097565b612c5f82826130ac565b6000828152609760205260409020610e18908261314d565b6001600160a01b0381163b612cf45760405162461bcd60e51b815260206004820152602d60248201527f455243313936373a206e657720696d706c656d656e746174696f6e206973206e60448201527f6f74206120636f6e7472616374000000000000000000000000000000000000006064820152608401610904565b7f360894a13ba1a3210667c828492db98dca3e2076cc3735a920a3ca505d382bbc80547fffffffffffffffffffffffff0000000000000000000000000000000000000000166001600160a01b0392909216919091179055565b612d5683613162565b600082511180612d635750805b15610e185761163e83836131a2565b6000826000018281548110612d8957612d896136ef565b9060005260206000200154905092915050565b60606108386001600160a01b03831660145b60606000612dbd836002613847565b612dc89060026136ad565b67ffffffffffffffff811115612de057612de061356b565b6040519080825280601f01601f191660200182016040528015612e0a576020820181803683370190505b5090507f300000000000000000000000000000000000000000000000000000000000000081600081518110612e4157612e416136ef565b60200101907effffffffffffffffffffffffffffffffffffffffffffffffffffffffffffff1916908160001a9053507f780000000000000000000000000000000000000000000000000000000000000081600181518110612ea457612ea46136ef565b60200101907effffffffffffffffffffffffffffffffffffffffffffffffffffffffffffff1916908160001a9053506000612ee0846002613847565b612eeb9060016136ad565b90505b6001811115612f88577f303132333435363738396162636465660000000000000000000000000000000085600f1660108110612f2c57612f2c6136ef565b1a60f81b828281518110612f4257612f426136ef565b60200101907effffffffffffffffffffffffffffffffffffffffffffffffffffffffffffff1916908160001a90535060049490941c93612f818161385e565b9050612eee565b50831561165c5760405162461bcd60e51b815260206004820181905260248201527f537472696e67733a20686578206c656e67746820696e73756666696369656e746044820152606401610904565b60008281526065602090815260408083206001600160a01b038516845290915290205460ff1661112b5760008281526065602090815260408083206001600160a01b0385168452909152902080547fffffffffffffffffffffffffffffffffffffffffffffffffffffffffffffff001660011790556130533390565b6001600160a01b0316816001600160a01b0316837f2f8788117e7eff1d82e926ec794901d17c78024a50270940304540a733656f0d60405160405180910390a45050565b600061165c836001600160a01b0384166132ad565b60008281526065602090815260408083206001600160a01b038516845290915290205460ff161561112b5760008281526065602090815260408083206001600160a01b038516808552925280832080547fffffffffffffffffffffffffffffffffffffffffffffffffffffffffffffff0016905551339285917ff6391f5c32d9c69d2a47ea670b442974b53935d1edc7fd64eb21e047a839171b9190a45050565b600061165c836001600160a01b0384166132fc565b61316b81612c77565b6040516001600160a01b038216907fbc7cd75a20ee27fd9adebab32041f755214dbc6bffa90cc0225b39da2e5c2d3b90600090a250565b60606001600160a01b0383163b6132215760405162461bcd60e51b815260206004820152602660248201527f416464726573733a2064656c65676174652063616c6c20746f206e6f6e2d636f60448201527f6e747261637400000000000000000000000000000000000000000000000000006064820152608401610904565b600080846001600160a01b03168460405161323c9190613893565b600060405180830381855af49150503d8060008114613277576040519150601f19603f3d011682016040523d82523d6000602084013e61327c565b606091505b50915091506132a482826040518060600160405280602781526020016138f2602791396133ef565b95945050505050565b60008181526001830160205260408120546132f457508154600181810184556000848152602080822090930184905584548482528286019093526040902091909155610838565b506000610838565b600081815260018301602052604081205480156133e55760006133206001836138af565b8554909150600090613334906001906138af565b9050818114613399576000866000018281548110613354576133546136ef565b9060005260206000200154905080876000018481548110613377576133776136ef565b6000918252602080832090910192909255918252600188019052604090208390555b85548690806133aa576133aa6138c2565b600190038181906000526020600020016000905590558560010160008681526020019081526020016000206000905560019350505050610838565b6000915050610838565b606083156133fe57508161165c565b61165c83838151156134135781518083602001fd5b8060405162461bcd60e51b81526004016109049190613814565b60006020828403121561343f57600080fd5b81357fffffffff000000000000000000000000000000000000000000000000000000008116811461165c57600080fd5b80356001600160a01b038116811461348657600080fd5b919050565b60006020828403121561349d57600080fd5b61165c8261346f565b6000602082840312156134b857600080fd5b5035919050565b600080600080608085870312156134d557600080fd5b84359350602085013592506134ec6040860161346f565b91506134fa6060860161346f565b905092959194509250565b6000806040838503121561351857600080fd5b823591506135286020840161346f565b90509250929050565b6000806080838503121561354457600080fd5b606083018481111561355557600080fd5b8392506135618161346f565b9150509250929050565b7f4e487b7100000000000000000000000000000000000000000000000000000000600052604160045260246000fd5b600080604083850312156135ad57600080fd5b6135b68361346f565b9150602083013567ffffffffffffffff808211156135d357600080fd5b818501915085601f8301126135e757600080fd5b8135818111156135f9576135f961356b565b604051601f8201601f19908116603f011681019083821181831017156136215761362161356b565b8160405282815288602084870101111561363a57600080fd5b8260208601602083013760006020848301015280955050505050509250929050565b6000806040838503121561366f57600080fd5b50508035926020909101359150565b7f4e487b7100000000000000000000000000000000000000000000000000000000600052601160045260246000fd5b808201808211156108385761083861367e565b7f4e487b7100000000000000000000000000000000000000000000000000000000600052602160045260246000fd5b7f4e487b7100000000000000000000000000000000000000000000000000000000600052603260045260246000fd5b60007fffffffffffffffffffffffffffffffffffffffffffffffffffffffffffffffff820361374f5761374f61367e565b5060010190565b60006020828403121561376857600080fd5b5051919050565b60005b8381101561378a578181015183820152602001613772565b50506000910152565b7f416363657373436f6e74726f6c3a206163636f756e74200000000000000000008152600083516137cb81601785016020880161376f565b7f206973206d697373696e6720726f6c6520000000000000000000000000000000601791840191820152835161380881602884016020880161376f565b01602801949350505050565b602081526000825180602084015261383381604085016020870161376f565b601f01601f19169190910160400192915050565b80820281158282048414176108385761083861367e565b60008161386d5761386d61367e565b507fffffffffffffffffffffffffffffffffffffffffffffffffffffffffffffffff0190565b600082516138a581846020870161376f565b9190910192915050565b818103818111156108385761083861367e565b7f4e487b7100000000000000000000000000000000000000000000000000000000600052603160045260246000fdfe416464726573733a206c6f772d6c6576656c2064656c65676174652063616c6c206661696c6564a26469706673582212204796ae877b494f82646f30188cb2a6f3131a6e00c2a133bd9cba0fe169725b2b64736f6c63430008110033",
  "linkReferences": {},
  "deployedLinkReferences": {}
}