{
  "_format": "hh-sol-artifact-1",
  "contractName": "EpochSelectorUpgradeable",
  "sourceName": "contracts/staking/EpochSelection/EpochSelector.sol",
  "abi": [
    {
      "inputs": [
        {
          "internalType": "uint256",
          "name": "_startTime",
          "type": "uint256"
        },
        {
          "internalType": "uint256",
          "name": "_epochLength",
          "type": "uint256"
        }
      ],
      "stateMutability": "nonpayable",
      "type": "constructor"
    },
    {
      "anonymous": false,
      "inputs": [
        {
          "indexed": false,
          "internalType": "address",
          "name": "previousAdmin",
          "type": "address"
        },
        {
          "indexed": false,
          "internalType": "address",
          "name": "newAdmin",
          "type": "address"
        }
      ],
      "name": "AdminChanged",
      "type": "event"
    },
    {
      "anonymous": false,
      "inputs": [
        {
          "indexed": true,
          "internalType": "address",
          "name": "beacon",
          "type": "address"
        }
      ],
      "name": "BeaconUpgraded",
      "type": "event"
    },
    {
      "anonymous": false,
      "inputs": [
        {
          "indexed": true,
          "internalType": "uint256",
          "name": "epoch",
          "type": "uint256"
        },
        {
          "indexed": true,
          "internalType": "address",
          "name": "cluster",
          "type": "address"
        }
      ],
      "name": "ClusterSelected",
      "type": "event"
    },
    {
      "anonymous": false,
      "inputs": [
        {
          "indexed": false,
          "internalType": "uint8",
          "name": "version",
          "type": "uint8"
        }
      ],
      "name": "Initialized",
      "type": "event"
    },
    {
      "anonymous": false,
      "inputs": [
        {
          "indexed": true,
          "internalType": "bytes32",
          "name": "role",
          "type": "bytes32"
        },
        {
          "indexed": true,
          "internalType": "bytes32",
          "name": "previousAdminRole",
          "type": "bytes32"
        },
        {
          "indexed": true,
          "internalType": "bytes32",
          "name": "newAdminRole",
          "type": "bytes32"
        }
      ],
      "name": "RoleAdminChanged",
      "type": "event"
    },
    {
      "anonymous": false,
      "inputs": [
        {
          "indexed": true,
          "internalType": "bytes32",
          "name": "role",
          "type": "bytes32"
        },
        {
          "indexed": true,
          "internalType": "address",
          "name": "account",
          "type": "address"
        },
        {
          "indexed": true,
          "internalType": "address",
          "name": "sender",
          "type": "address"
        }
      ],
      "name": "RoleGranted",
      "type": "event"
    },
    {
      "anonymous": false,
      "inputs": [
        {
          "indexed": true,
          "internalType": "bytes32",
          "name": "role",
          "type": "bytes32"
        },
        {
          "indexed": true,
          "internalType": "address",
          "name": "account",
          "type": "address"
        },
        {
          "indexed": true,
          "internalType": "address",
          "name": "sender",
          "type": "address"
        }
      ],
      "name": "RoleRevoked",
      "type": "event"
    },
    {
      "anonymous": false,
      "inputs": [
        {
          "indexed": false,
          "internalType": "uint256",
          "name": "newNumberOfClusters",
          "type": "uint256"
        }
      ],
      "name": "UpdateNumberOfClustersToSelect",
      "type": "event"
    },
    {
      "anonymous": false,
      "inputs": [
        {
          "indexed": false,
          "internalType": "uint256",
          "name": "newReward",
          "type": "uint256"
        }
      ],
      "name": "UpdateRewardForSelectingTheNodes",
      "type": "event"
    },
    {
      "anonymous": false,
      "inputs": [
        {
          "indexed": false,
          "internalType": "address",
          "name": "_newRewardToken",
          "type": "address"
        }
      ],
      "name": "UpdateRewardToken",
      "type": "event"
    },
    {
      "anonymous": false,
      "inputs": [
        {
          "indexed": true,
          "internalType": "address",
          "name": "implementation",
          "type": "address"
        }
      ],
      "name": "Upgraded",
      "type": "event"
    },
    {
      "inputs": [],
      "name": "ADMIN_ROLE",
      "outputs": [
        {
          "internalType": "bytes32",
          "name": "",
          "type": "bytes32"
        }
      ],
      "stateMutability": "view",
      "type": "function"
    },
    {
      "inputs": [],
      "name": "DEFAULT_ADMIN_ROLE",
      "outputs": [
        {
          "internalType": "bytes32",
          "name": "",
          "type": "bytes32"
        }
      ],
      "stateMutability": "view",
      "type": "function"
    },
    {
      "inputs": [],
      "name": "EPOCH_LENGTH",
      "outputs": [
        {
          "internalType": "uint256",
          "name": "",
          "type": "uint256"
        }
      ],
      "stateMutability": "view",
      "type": "function"
    },
    {
      "inputs": [],
      "name": "REWARD_CONTROLLER_ROLE",
      "outputs": [
        {
          "internalType": "bytes32",
          "name": "",
          "type": "bytes32"
        }
      ],
      "stateMutability": "view",
      "type": "function"
    },
    {
      "inputs": [],
      "name": "START_TIME",
      "outputs": [
        {
          "internalType": "uint256",
          "name": "",
          "type": "uint256"
        }
      ],
      "stateMutability": "view",
      "type": "function"
    },
    {
      "inputs": [],
      "name": "UPDATER_ROLE",
      "outputs": [
        {
          "internalType": "bytes32",
          "name": "",
          "type": "bytes32"
        }
      ],
      "stateMutability": "view",
      "type": "function"
    },
    {
      "inputs": [
        {
          "internalType": "address",
          "name": "",
          "type": "address"
        }
      ],
      "name": "addressToIndexMap",
      "outputs": [
        {
          "internalType": "uint256",
          "name": "",
          "type": "uint256"
        }
      ],
      "stateMutability": "view",
      "type": "function"
    },
    {
      "inputs": [
        {
          "internalType": "address",
          "name": "node",
          "type": "address"
        }
      ],
      "name": "deleteIfPresent",
      "outputs": [],
      "stateMutability": "nonpayable",
      "type": "function"
    },
    {
      "inputs": [
        {
          "internalType": "address",
          "name": "node",
          "type": "address"
        }
      ],
      "name": "delete_unchecked",
      "outputs": [],
      "stateMutability": "nonpayable",
      "type": "function"
    },
    {
      "inputs": [
        {
          "internalType": "address",
          "name": "token",
          "type": "address"
        },
        {
          "internalType": "address",
          "name": "to",
          "type": "address"
        }
      ],
      "name": "flushTokens",
      "outputs": [],
      "stateMutability": "nonpayable",
      "type": "function"
    },
    {
      "inputs": [
        {
          "internalType": "uint256",
          "name": "epochNumber",
          "type": "uint256"
        }
      ],
      "name": "getClusters",
      "outputs": [
        {
          "internalType": "address[]",
          "name": "",
          "type": "address[]"
        }
      ],
      "stateMutability": "view",
      "type": "function"
    },
    {
      "inputs": [],
      "name": "getCurrentEpoch",
      "outputs": [
        {
          "internalType": "uint256",
          "name": "",
          "type": "uint256"
        }
      ],
      "stateMutability": "view",
      "type": "function"
    },
    {
      "inputs": [
        {
          "internalType": "bytes32",
          "name": "role",
          "type": "bytes32"
        }
      ],
      "name": "getRoleAdmin",
      "outputs": [
        {
          "internalType": "bytes32",
          "name": "",
          "type": "bytes32"
        }
      ],
      "stateMutability": "view",
      "type": "function"
    },
    {
      "inputs": [
        {
          "internalType": "bytes32",
          "name": "role",
          "type": "bytes32"
        },
        {
          "internalType": "uint256",
          "name": "index",
          "type": "uint256"
        }
      ],
      "name": "getRoleMember",
      "outputs": [
        {
          "internalType": "address",
          "name": "",
          "type": "address"
        }
      ],
      "stateMutability": "view",
      "type": "function"
    },
    {
      "inputs": [
        {
          "internalType": "bytes32",
          "name": "role",
          "type": "bytes32"
        }
      ],
      "name": "getRoleMemberCount",
      "outputs": [
        {
          "internalType": "uint256",
          "name": "",
          "type": "uint256"
        }
      ],
      "stateMutability": "view",
      "type": "function"
    },
    {
      "inputs": [
        {
          "internalType": "bytes32",
          "name": "role",
          "type": "bytes32"
        },
        {
          "internalType": "address",
          "name": "account",
          "type": "address"
        }
      ],
      "name": "grantRole",
      "outputs": [],
      "stateMutability": "nonpayable",
      "type": "function"
    },
    {
      "inputs": [
        {
          "internalType": "bytes32",
          "name": "role",
          "type": "bytes32"
        },
        {
          "internalType": "address",
          "name": "account",
          "type": "address"
        }
      ],
      "name": "hasRole",
      "outputs": [
        {
          "internalType": "bool",
          "name": "",
          "type": "bool"
        }
      ],
      "stateMutability": "view",
      "type": "function"
    },
    {
      "inputs": [
        {
          "internalType": "uint256",
          "name": "",
          "type": "uint256"
        }
      ],
      "name": "indexToAddressMap",
      "outputs": [
        {
          "internalType": "address",
          "name": "",
          "type": "address"
        }
      ],
      "stateMutability": "view",
      "type": "function"
    },
    {
      "inputs": [
        {
          "internalType": "address",
          "name": "_admin",
          "type": "address"
        },
        {
          "internalType": "address",
          "name": "_updater",
          "type": "address"
        },
        {
          "internalType": "uint256",
          "name": "_numberOfClustersToSelect",
          "type": "uint256"
        },
        {
          "internalType": "address",
          "name": "_rewardToken",
          "type": "address"
        },
        {
          "internalType": "uint256",
          "name": "_rewardForSelectingClusters",
          "type": "uint256"
        }
      ],
      "name": "initialize",
      "outputs": [],
      "stateMutability": "nonpayable",
      "type": "function"
    },
    {
      "inputs": [
        {
          "internalType": "address[]",
          "name": "newNodes",
          "type": "address[]"
        },
        {
          "internalType": "uint64[]",
          "name": "balances",
          "type": "uint64[]"
        }
      ],
      "name": "insertMultiple_unchecked",
      "outputs": [],
      "stateMutability": "nonpayable",
      "type": "function"
    },
    {
      "inputs": [
        {
          "internalType": "address",
          "name": "newNode",
          "type": "address"
        },
        {
          "internalType": "uint64",
          "name": "balance",
          "type": "uint64"
        }
      ],
      "name": "insert_unchecked",
      "outputs": [],
      "stateMutability": "nonpayable",
      "type": "function"
    },
    {
      "inputs": [
        {
          "internalType": "uint256",
          "name": "",
          "type": "uint256"
        }
      ],
      "name": "nodes",
      "outputs": [
        {
          "internalType": "uint64",
          "name": "value",
          "type": "uint64"
        },
        {
          "internalType": "uint64",
          "name": "leftSum",
          "type": "uint64"
        },
        {
          "internalType": "uint64",
          "name": "rightSum",
          "type": "uint64"
        }
      ],
      "stateMutability": "view",
      "type": "function"
    },
    {
      "inputs": [],
      "name": "numberOfClustersToSelect",
      "outputs": [
        {
          "internalType": "uint256",
          "name": "",
          "type": "uint256"
        }
      ],
      "stateMutability": "view",
      "type": "function"
    },
    {
      "inputs": [],
      "name": "proxiableUUID",
      "outputs": [
        {
          "internalType": "bytes32",
          "name": "",
          "type": "bytes32"
        }
      ],
      "stateMutability": "view",
      "type": "function"
    },
    {
      "inputs": [
        {
          "internalType": "bytes32",
          "name": "role",
          "type": "bytes32"
        },
        {
          "internalType": "address",
          "name": "account",
          "type": "address"
        }
      ],
      "name": "renounceRole",
      "outputs": [],
      "stateMutability": "nonpayable",
      "type": "function"
    },
    {
      "inputs": [
        {
          "internalType": "bytes32",
          "name": "role",
          "type": "bytes32"
        },
        {
          "internalType": "address",
          "name": "account",
          "type": "address"
        }
      ],
      "name": "revokeRole",
      "outputs": [],
      "stateMutability": "nonpayable",
      "type": "function"
    },
    {
      "inputs": [],
      "name": "rewardForSelectingClusters",
      "outputs": [
        {
          "internalType": "uint256",
          "name": "",
          "type": "uint256"
        }
      ],
      "stateMutability": "view",
      "type": "function"
    },
    {
      "inputs": [],
      "name": "rewardToken",
      "outputs": [
        {
          "internalType": "address",
          "name": "",
          "type": "address"
        }
      ],
      "stateMutability": "view",
      "type": "function"
    },
    {
      "inputs": [],
      "name": "selectClusters",
      "outputs": [
        {
          "internalType": "address[]",
          "name": "selectedClusters",
          "type": "address[]"
        }
      ],
      "stateMutability": "nonpayable",
      "type": "function"
    },
    {
      "inputs": [
        {
          "internalType": "bytes4",
          "name": "interfaceId",
          "type": "bytes4"
        }
      ],
      "name": "supportsInterface",
      "outputs": [
        {
          "internalType": "bool",
          "name": "",
          "type": "bool"
        }
      ],
      "stateMutability": "view",
      "type": "function"
    },
    {
      "inputs": [
        {
          "internalType": "uint256",
          "name": "anyPreviousEpochNumber",
          "type": "uint256"
        }
      ],
      "name": "updateMissingClusters",
      "outputs": [
        {
          "internalType": "address[]",
          "name": "previousSelectedClusters",
          "type": "address[]"
        }
      ],
      "stateMutability": "nonpayable",
      "type": "function"
    },
    {
      "inputs": [
        {
          "internalType": "uint256",
          "name": "_numberOfClusters",
          "type": "uint256"
        }
      ],
      "name": "updateNumberOfClustersToSelect",
      "outputs": [],
      "stateMutability": "nonpayable",
      "type": "function"
    },
    {
      "inputs": [
        {
          "internalType": "address",
          "name": "_rewardToken",
          "type": "address"
        }
      ],
      "name": "updateRewardToken",
      "outputs": [],
      "stateMutability": "nonpayable",
      "type": "function"
    },
    {
      "inputs": [
        {
          "internalType": "address",
          "name": "node",
          "type": "address"
        },
        {
          "internalType": "uint64",
          "name": "balance",
          "type": "uint64"
        }
      ],
      "name": "update_unchecked",
      "outputs": [],
      "stateMutability": "nonpayable",
      "type": "function"
    },
    {
      "inputs": [
        {
          "internalType": "address",
          "name": "newImplementation",
          "type": "address"
        }
      ],
      "name": "upgradeTo",
      "outputs": [],
      "stateMutability": "nonpayable",
      "type": "function"
    },
    {
      "inputs": [
        {
          "internalType": "address",
          "name": "newImplementation",
          "type": "address"
        },
        {
          "internalType": "bytes",
          "name": "data",
          "type": "bytes"
        }
      ],
      "name": "upgradeToAndCall",
      "outputs": [],
      "stateMutability": "payable",
      "type": "function"
    },
    {
      "inputs": [
        {
          "internalType": "address",
          "name": "newNode",
          "type": "address"
        },
        {
          "internalType": "uint64",
          "name": "balance",
          "type": "uint64"
        }
      ],
      "name": "upsert",
      "outputs": [],
      "stateMutability": "nonpayable",
      "type": "function"
    },
    {
      "inputs": [
        {
          "internalType": "address[]",
          "name": "newNodes",
          "type": "address[]"
        },
        {
          "internalType": "uint64[]",
          "name": "balances",
          "type": "uint64[]"
        }
      ],
      "name": "upsertMultiple",
      "outputs": [],
      "stateMutability": "nonpayable",
      "type": "function"
    }
  ],
  "bytecode": "0x60e0604052306080523480156200001557600080fd5b506040516200454d3803806200454d83398101604081905262000038916200017e565b600054610100900460ff1615808015620000595750600054600160ff909116105b8062000089575062000076306200016f60201b62001cd11760201c565b15801562000089575060005460ff166001145b620000f15760405162461bcd60e51b815260206004820152602e60248201527f496e697469616c697a61626c653a20636f6e747261637420697320616c72656160448201526d191e481a5b9a5d1a585b1a5e995960921b606482015260840160405180910390fd5b6000805460ff19166001179055801562000115576000805461ff0019166101001790555b60a083905260c0829052801562000166576000805461ff0019169055604051600181527f7f26b83ff96e1f2b6a682f133852f6798a09c465da95921460cefb38474024989060200160405180910390a15b505050620001a3565b6001600160a01b03163b151590565b600080604083850312156200019257600080fd5b505080516020909101519092909150565b60805160a05160c051614350620001fd6000396000818161066b01526115c101526000818161075401526115e5015260008181610a4701528181610add01528181610c2501528181610cbb0152610db201526143506000f3fe6080604052600436106102855760003560e01c806375b238fc11610153578063ac78129f116100cb578063d7cd2ced1161007f578063f7c00e6311610064578063f7c00e6314610776578063f7c618c114610796578063f8cf31cb146107b757600080fd5b8063d7cd2ced14610722578063ddaa26ad1461074257600080fd5b8063b97dd9e2116100b0578063b97dd9e2146106cd578063ca15c873146106e2578063d547741f1461070257600080fd5b8063ac78129f1461068d578063b53b8c89146106ad57600080fd5b80639010d07c11610122578063a217fddf11610107578063a217fddf1461062d578063a4cccf2c14610642578063ac4746ab1461065957600080fd5b80639010d07c146105c757806391d14854146105e757600080fd5b806375b238fc146105525780638298e2ba146105675780638870ce50146105875780638ebe4170146105a757600080fd5b8063348d61e81161020157806352d1902d116101b55780635ef680df1161019a5780635ef680df146104f25780635f47a4cc1461051257806367c5bab81461053257600080fd5b806352d1902d146104bb578063582beda4146104d057600080fd5b80633659cfe6116101e65780633659cfe61461047357806347e63380146104935780634f1ef286146104a857600080fd5b8063348d61e81461043357806336568abe1461045357600080fd5b80631e5e32f8116102585780632efd0a921161023d5780632efd0a92146103ad5780632f2ff15d146103c457806332dc9a96146103e457600080fd5b80631e5e32f81461035b578063248a9ca31461037d57600080fd5b806301ffc9a71461028a57806304da78c9146102bf5780631a2c9de7146102e25780631c53c28014610310575b600080fd5b34801561029657600080fd5b506102aa6102a5366004613c06565b6107d7565b60405190151581526020015b60405180910390f35b3480156102cb57600080fd5b506102d46107e8565b6040519081526020016102b6565b3480156102ee57600080fd5b506102d46102fd366004613c64565b61012d6020526000908152604090205481565b34801561031c57600080fd5b5061033061032b366004613c7f565b610842565b6040805167ffffffffffffffff948516815292841660208401529216918101919091526060016102b6565b34801561036757600080fd5b5061037b610376366004613c64565b610894565b005b34801561038957600080fd5b506102d4610398366004613c7f565b60009081526065602052604090206001015490565b3480156103b957600080fd5b506102d461015f5481565b3480156103d057600080fd5b5061037b6103df366004613c98565b61091d565b3480156103f057600080fd5b5061041b6103ff366004613c7f565b61012e602052600090815260409020546001600160a01b031681565b6040516001600160a01b0390911681526020016102b6565b34801561043f57600080fd5b5061037b61044e366004613c64565b610947565b34801561045f57600080fd5b5061037b61046e366004613c98565b6109b0565b34801561047f57600080fd5b5061037b61048e366004613c64565b610a3d565b34801561049f57600080fd5b506102d4610bda565b61037b6104b6366004613cf3565b610c1b565b3480156104c757600080fd5b506102d4610da5565b3480156104dc57600080fd5b506104e5610e6a565b6040516102b69190613dd3565b3480156104fe57600080fd5b5061037b61050d366004613e20565b610fe0565b34801561051e57600080fd5b5061037b61052d366004613c7f565b6110e9565b34801561053e57600080fd5b5061037b61054d366004613e62565b6111e5565b34801561055e57600080fd5b506102d461124f565b34801561057357600080fd5b5061037b610582366004613e62565b611290565b34801561059357600080fd5b5061037b6105a2366004613e62565b6112fa565b3480156105b357600080fd5b5061037b6105c2366004613ed8565b611364565b3480156105d357600080fd5b5061041b6105e2366004613f44565b61143f565b3480156105f357600080fd5b506102aa610602366004613c98565b60009182526065602090815260408084206001600160a01b0393909316845291905290205460ff1690565b34801561063957600080fd5b506102d4600081565b34801561064e57600080fd5b506102d46101615481565b34801561066557600080fd5b506102d47f000000000000000000000000000000000000000000000000000000000000000081565b34801561069957600080fd5b5061037b6106a8366004613ed8565b61145e565b3480156106b957600080fd5b506104e56106c8366004613c7f565b611531565b3480156106d957600080fd5b506102d46115bd565b3480156106ee57600080fd5b506102d46106fd366004613c7f565b611619565b34801561070e57600080fd5b5061037b61071d366004613c98565b611630565b34801561072e57600080fd5b506104e561073d366004613c7f565b611655565b34801561074e57600080fd5b506102d47f000000000000000000000000000000000000000000000000000000000000000081565b34801561078257600080fd5b5061037b610791366004613f66565b6117c1565b3480156107a257600080fd5b506101625461041b906001600160a01b031681565b3480156107c357600080fd5b5061037b6107d2366004613c64565b611bac565b60006107e282611ce0565b92915050565b604051602001610829906020808252600e908201527f7265776172642d636f6e74726f6c000000000000000000000000000000000000604082015260600190565b6040516020818303038152906040528051906020012081565b61012f818154811061085357600080fd5b60009182526020909120015467ffffffffffffffff808216925068010000000000000000820481169170010000000000000000000000000000000090041683565b6040516020016108d59060208082526007908201527f7570646174657200000000000000000000000000000000000000000000000000604082015260600190565b604051602081830303815290604052805190602001206108f481611d36565b6001600160a01b038216600090815261012d6020526040902054610919908390611d40565b5050565b60008281526065602052604090206001015461093881611d36565b6109428383611e95565b505050565b6040516020016109889060208082526007908201527f7570646174657200000000000000000000000000000000000000000000000000604082015260600190565b604051602081830303815290604052805190602001206109a781611d36565b61091982611e9f565b6001600160a01b0381163314610a335760405162461bcd60e51b815260206004820152602f60248201527f416363657373436f6e74726f6c3a2063616e206f6e6c792072656e6f756e636560448201527f20726f6c657320666f722073656c66000000000000000000000000000000000060648201526084015b60405180910390fd5b6109198282611ecf565b6001600160a01b037f0000000000000000000000000000000000000000000000000000000000000000163003610adb5760405162461bcd60e51b815260206004820152602c60248201527f46756e6374696f6e206d7573742062652063616c6c6564207468726f7567682060448201527f64656c656761746563616c6c00000000000000000000000000000000000000006064820152608401610a2a565b7f00000000000000000000000000000000000000000000000000000000000000006001600160a01b0316610b367f360894a13ba1a3210667c828492db98dca3e2076cc3735a920a3ca505d382bbc546001600160a01b031690565b6001600160a01b031614610bb25760405162461bcd60e51b815260206004820152602c60248201527f46756e6374696f6e206d7573742062652063616c6c6564207468726f7567682060448201527f6163746976652070726f787900000000000000000000000000000000000000006064820152608401610a2a565b610bbb81611f32565b60408051600080825260208201909252610bd791839190611f92565b50565b6040516020016108299060208082526007908201527f7570646174657200000000000000000000000000000000000000000000000000604082015260600190565b6001600160a01b037f0000000000000000000000000000000000000000000000000000000000000000163003610cb95760405162461bcd60e51b815260206004820152602c60248201527f46756e6374696f6e206d7573742062652063616c6c6564207468726f7567682060448201527f64656c656761746563616c6c00000000000000000000000000000000000000006064820152608401610a2a565b7f00000000000000000000000000000000000000000000000000000000000000006001600160a01b0316610d147f360894a13ba1a3210667c828492db98dca3e2076cc3735a920a3ca505d382bbc546001600160a01b031690565b6001600160a01b031614610d905760405162461bcd60e51b815260206004820152602c60248201527f46756e6374696f6e206d7573742062652063616c6c6564207468726f7567682060448201527f6163746976652070726f787900000000000000000000000000000000000000006064820152608401610a2a565b610d9982611f32565b61091982826001611f92565b6000306001600160a01b037f00000000000000000000000000000000000000000000000000000000000000001614610e455760405162461bcd60e51b815260206004820152603860248201527f555550535570677261646561626c653a206d757374206e6f742062652063616c60448201527f6c6564207468726f7567682064656c656761746563616c6c00000000000000006064820152608401610a2a565b507f360894a13ba1a3210667c828492db98dca3e2076cc3735a920a3ca505d382bbc90565b60606000610e766115bd565b610e81906001613fea565b600081815261016060209081526040918290208054835181840281018401909452808452939450919290830182828015610ee457602002820191906000526020600020905b81546001600160a01b03168152600190910190602001808311610ec6575b505050505091508151600003610fdc576000610f01600143613ffd565b604080519140602083015242908201526060016040516020818303038152906040528051906020012060001c9050610f3c8161015f54612150565b6000838152610160602090815260409091208251929550610f61929091860190613b7d565b5060005b8351811015610fd057838181518110610f8057610f80614010565b60200260200101516001600160a01b0316837f3eab2ebcc6e521dc4fa7d2a04c29e41da885de5dc6137565e93ff9966bfd145660405160405180910390a380610fc88161403f565b915050610f65565b50610fda336123ad565b505b5090565b604051602001611021906020808252600e908201527f7265776172642d636f6e74726f6c000000000000000000000000000000000000604082015260600190565b6040516020818303038152906040528051906020012061104081611d36565b6040517f70a0823100000000000000000000000000000000000000000000000000000000815230600482015283906000906001600160a01b038316906370a0823190602401602060405180830381865afa1580156110a2573d6000803e3d6000fd5b505050506040513d601f19601f820116820180604052508101906110c69190614077565b905080156110e2576110e26001600160a01b038316858361245d565b5050505050565b60405160200161112a9060208082526005908201527f61646d696e000000000000000000000000000000000000000000000000000000604082015260600190565b6040516020818303038152906040528051906020012061114981611d36565b811580159061115b57508161015f5414155b6111a75760405162461bcd60e51b815260206004820152601860248201527f53686f756c6420626520612076616c6964206e756d62657200000000000000006044820152606401610a2a565b61015f8290556040518281527f93b741bd4f26bd08f0177e3f9c5e8d09473d8465f30c8baf6b82fc5418a1669c906020015b60405180910390a15050565b6040516020016112269060208082526007908201527f7570646174657200000000000000000000000000000000000000000000000000604082015260600190565b6040516020818303038152906040528051906020012061124581611d36565b61094283836124dd565b6040516020016108299060208082526005908201527f61646d696e000000000000000000000000000000000000000000000000000000604082015260600190565b6040516020016112d19060208082526007908201527f7570646174657200000000000000000000000000000000000000000000000000604082015260600190565b604051602081830303815290604052805190602001206112f081611d36565b6109428383612513565b60405160200161133b9060208082526007908201527f7570646174657200000000000000000000000000000000000000000000000000604082015260600190565b6040516020818303038152906040528051906020012061135a81611d36565b6109428383612537565b6040516020016113a59060208082526007908201527f7570646174657200000000000000000000000000000000000000000000000000604082015260600190565b604051602081830303815290604052805190602001206113c481611d36565b60005b84811015611437576114258686838181106113e4576113e4614010565b90506020020160208101906113f99190613c64565b85858481811061140b5761140b614010565b90506020020160208101906114209190614090565b6124dd565b8061142f8161403f565b9150506113c7565b505050505050565b6000828152609760205260408120611457908361266c565b9392505050565b60405160200161149f9060208082526007908201527f7570646174657200000000000000000000000000000000000000000000000000604082015260600190565b604051602081830303815290604052805190602001206114be81611d36565b60005b848110156114375761151f8686838181106114de576114de614010565b90506020020160208101906114f39190613c64565b85858481811061150557611505614010565b905060200201602081019061151a9190614090565b612537565b806115298161403f565b9150506114c1565b6060600061153d6115bd565b90508083106115b45760405162461bcd60e51b815260206004820152602360248201527f43616e2774207570646174652063757272656e74206f72206d6f72652065706f60448201527f63687300000000000000000000000000000000000000000000000000000000006064820152608401610a2a565b61145783612678565b60007f000000000000000000000000000000000000000000000000000000000000000061160a7f000000000000000000000000000000000000000000000000000000000000000042613ffd565b61161491906140da565b905090565b60008181526097602052604081206107e290612737565b60008281526065602052604090206001015461164b81611d36565b6109428383611ecf565b606060006116616115bd565b61166c906001613fea565b9050808311156040518060400160405280600181526020017f3600000000000000000000000000000000000000000000000000000000000000815250906116c65760405162461bcd60e51b8152600401610a2a9190614112565b50826000036116e5575050604080516000815260208101909152919050565b6000838152610160602090815260408083208054825181850281018501909352808352919290919083018282801561174657602002820191906000526020600020905b81546001600160a01b03168152600190910190602001808311611728575b5050505050905080516000036114575760408051808201909152600181527f360000000000000000000000000000000000000000000000000000000000000060208201528483036117aa5760405162461bcd60e51b8152600401610a2a9190614112565b506117b961073d600186613ffd565b949350505050565b600054610100900460ff16158080156117e15750600054600160ff909116105b806117fb5750303b1580156117fb575060005460ff166001145b61186d5760405162461bcd60e51b815260206004820152602e60248201527f496e697469616c697a61626c653a20636f6e747261637420697320616c72656160448201527f647920696e697469616c697a65640000000000000000000000000000000000006064820152608401610a2a565b600080547fffffffffffffffffffffffffffffffffffffffffffffffffffffffffffffff0016600117905580156118cb57600080547fffffffffffffffffffffffffffffffffffffffffffffffffffffffffffff00ff166101001790555b6118d3612741565b6118db612741565b6118e3612741565b6118eb612741565b6118f3612741565b6118fb612741565b6119036127c0565b61015f8490556040516119c09061194e906020016020808252600e908201527f7265776172642d636f6e74726f6c000000000000000000000000000000000000604082015260600190565b604051602081830303815290604052805190602001206040516020016119a59060208082526005908201527f61646d696e000000000000000000000000000000000000000000000000000000604082015260600190565b60405160208183030381529060405280519060200120612845565b611a0460405160200161194e9060208082526007908201527f7570646174657200000000000000000000000000000000000000000000000000604082015260600190565b611a64604051602001611a48906020808252600e908201527f7265776172642d636f6e74726f6c000000000000000000000000000000000000604082015260600190565b6040516020818303038152906040528051906020012087611e95565b611aa8604051602001611a489060208082526005908201527f61646d696e000000000000000000000000000000000000000000000000000000604082015260600190565b611b08604051602001611aec9060208082526007908201527f7570646174657200000000000000000000000000000000000000000000000000604082015260600190565b6040516020818303038152906040528051906020012086611e95565b61016280547fffffffffffffffffffffffff0000000000000000000000000000000000000000166001600160a01b038516179055610161829055801561143757600080547fffffffffffffffffffffffffffffffffffffffffffffffffffffffffffff00ff169055604051600181527f7f26b83ff96e1f2b6a682f133852f6798a09c465da95921460cefb38474024989060200160405180910390a1505050505050565b604051602001611bed906020808252600e908201527f7265776172642d636f6e74726f6c000000000000000000000000000000000000604082015260600190565b60405160208183030381529060405280519060200120611c0c81611d36565b610162546001600160a01b03838116911614611c6a5760405162461bcd60e51b815260206004820152601360248201527f5570646174652072657761726420746f6b656e000000000000000000000000006044820152606401610a2a565b61016280547fffffffffffffffffffffffff0000000000000000000000000000000000000000166001600160a01b0384169081179091556040519081527f2c4ac1b8f73a4c815fd4e9ad4229676d967b32d1346a029139bf318831635c4e906020016111d9565b6001600160a01b03163b151590565b60007fffffffff0000000000000000000000000000000000000000000000000000000082167f5a05180f0000000000000000000000000000000000000000000000000000000014806107e257506107e282612890565b610bd78133612927565b61012f54600090611d5390600190613ffd565b600081815261012e602052604081205461012f80549394506001600160a01b039091169284908110611d8757611d87614010565b60009182526020909120015467ffffffffffffffff169050611da983826129ba565b611db38482612b2d565b600084815261012e6020818152604080842080546001600160a01b038089167fffffffffffffffffffffffff0000000000000000000000000000000000000000928316811790935591865261012d8085528387208b9055898752948452828620805490911690558916845291905281205561012f805480611e3657611e36614163565b60008281526020902081017fffffffffffffffffffffffffffffffffffffffffffffffffffffffffffffffff90810180547fffffffffffffffff0000000000000000000000000000000000000000000000001690550190555050505050565b6109198282612b8b565b6001600160a01b038116600090815261012d602052604081205490819003611ec5575050565b6109198282611d40565b611ed98282612bad565b611ee36000611619565b6000036109195760405162461bcd60e51b815260206004820152601360248201527f43616e6e6f742062652061646d696e6c657373000000000000000000000000006044820152606401610a2a565b604051602001611f739060208082526005908201527f61646d696e000000000000000000000000000000000000000000000000000000604082015260600190565b6040516020818303038152906040528051906020012061091981611d36565b7f4910fdfa16fed3260ed0e7147f7cc6da11a60208b5b9406d12a635614ffd91435460ff1615611fc55761094283612bcf565b826001600160a01b03166352d1902d6040518163ffffffff1660e01b8152600401602060405180830381865afa92505050801561203d575060408051601f3d9081017fffffffffffffffffffffffffffffffffffffffffffffffffffffffffffffffe016820190925261203a91810190614077565b60015b6120af5760405162461bcd60e51b815260206004820152602e60248201527f45524331393637557067726164653a206e657720696d706c656d656e7461746960448201527f6f6e206973206e6f7420555550530000000000000000000000000000000000006064820152608401610a2a565b7f360894a13ba1a3210667c828492db98dca3e2076cc3735a920a3ca505d382bbc81146121445760405162461bcd60e51b815260206004820152602960248201527f45524331393637557067726164653a20756e737570706f727465642070726f7860448201527f6961626c655555494400000000000000000000000000000000000000000000006064820152608401610a2a565b50610942838383612ca5565b61012f5460609060009061216690600190613ffd565b905080831115612174578092505b6060604051610a8081016040525060538152600061012f60018154811061219d5761219d614010565b600091825260208083206040805160608082018352929094015467ffffffffffffffff80821686526801000000000000000082048116868601527001000000000000000000000000000000009091041684820152805160c08101825260018082529381018690529081018590529081018490526080810184905260a081019390935284519193508491811061223457612234614010565b60200260200101819052506000600190506000826000015167ffffffffffffffff169050826040015183602001510167ffffffffffffffff168101905060008767ffffffffffffffff81111561228c5761228c613cc4565b6040519080825280602002602001820160405280156122b5578160200160208202803683370190505b50965060005b888110156123a05760408051602081018c9052908101829052606001604080517fffffffffffffffffffffffffffffffffffffffffffffffffffffffffffffffe081840301815291905280516020909101209950600061231b8385613ffd565b612325908c614192565b90506000806123396001848b60018b612cd0565b63ffffffff8316600090815261012e60205260409020548e51919a509294509092506001600160a01b03909116908c908690811061237957612379614010565b6001600160a01b0390921660209283029190910190910152939093019250506001016122bb565b5050505050505092915050565b6101615415610bd75761016254610161546040517f70a082310000000000000000000000000000000000000000000000000000000081523060048201526001600160a01b039092169182906370a0823190602401602060405180830381865afa15801561241e573d6000803e3d6000fd5b505050506040513d601f19601f820116820180604052508101906124429190614077565b106109195761016154610919906001600160a01b0383169084905b604080516001600160a01b038416602482015260448082018490528251808303909101815260649091019091526020810180517bffffffffffffffffffffffffffffffffffffffffffffffffffffffff167fa9059cbb00000000000000000000000000000000000000000000000000000000179052610942908490612e9b565b6001600160a01b038216600090815261012d602052604081205490819003612509576109428383612537565b6109428183612b2d565b6001600160a01b038216600090815261012d60205260409020546109199082612b2d565b61012f8054604080516060810182526000808252602080830182815283850183815260018701885596835292517f232da9e50dad2971456a78fb5cd6ff6b75019984d6e918139ce990999420f979860180549451975167ffffffffffffffff908116700100000000000000000000000000000000027fffffffffffffffff0000000000000000ffffffffffffffffffffffffffffffff99821668010000000000000000027fffffffffffffffffffffffffffffffff0000000000000000000000000000000090971693909116929092179490941796909616959095179091556001600160a01b03861680825261012d855282822084905583825261012e9094522080547fffffffffffffffffffffffff0000000000000000000000000000000000000000169092179091556109428183612f80565b600061145783836130f3565b60608160000361268757919050565b600082815261016060209081526040808320805482518185028101850190935280835291929091908301828280156126e857602002820191906000526020600020905b81546001600160a01b031681526001909101906020018083116126ca575b5050505050905080516000036107e25761270b612706600185613ffd565b612678565b6000848152610160602090815260409091208251929350612730929091840190613b7d565b5050919050565b60006107e2825490565b600054610100900460ff166127be5760405162461bcd60e51b815260206004820152602b60248201527f496e697469616c697a61626c653a20636f6e7472616374206973206e6f74206960448201527f6e697469616c697a696e670000000000000000000000000000000000000000006064820152608401610a2a565b565b600054610100900460ff1661283d5760405162461bcd60e51b815260206004820152602b60248201527f496e697469616c697a61626c653a20636f6e7472616374206973206e6f74206960448201527f6e697469616c697a696e670000000000000000000000000000000000000000006064820152608401610a2a565b6127be61311d565b600082815260656020526040808220600101805490849055905190918391839186917fbd79b86ffe0ab8e8776151514217cd7cacd52c909f66475c3af44e129f0b00ff9190a4505050565b60007fffffffff0000000000000000000000000000000000000000000000000000000082167f7965db0b0000000000000000000000000000000000000000000000000000000014806107e257507f01ffc9a7000000000000000000000000000000000000000000000000000000007fffffffff000000000000000000000000000000000000000000000000000000008316146107e2565b60008281526065602090815260408083206001600160a01b038516845290915290205460ff166109195761295a81613251565b612965836020613263565b6040516020016129769291906141a6565b604080517fffffffffffffffffffffffffffffffffffffffffffffffffffffffffffffffe08184030181529082905262461bcd60e51b8252610a2a91600401614112565b8061012f83815481106129cf576129cf614010565b6000918252602082200180549091906129f390849067ffffffffffffffff16614227565b92506101000a81548167ffffffffffffffff021916908367ffffffffffffffff1602179055505b6001821115610919576000612a30600284614192565b600193841c9390159150819003612ab2578161012f8481548110612a5657612a56614010565b60009182526020909120018054600890612a8790849068010000000000000000900467ffffffffffffffff16614227565b92506101000a81548167ffffffffffffffff021916908367ffffffffffffffff160217905550612b27565b8161012f8481548110612ac757612ac7614010565b60009182526020909120018054601090612b00908490700100000000000000000000000000000000900467ffffffffffffffff16614227565b92506101000a81548167ffffffffffffffff021916908367ffffffffffffffff1602179055505b50612a1a565b600061012f8381548110612b4357612b43614010565b60009182526020909120015467ffffffffffffffff908116915082168110612b785761094283612b738484614227565b6129ba565b61094283612b868385614227565b612f80565b612b95828261348c565b6000828152609760205260409020610942908261354c565b612bb78282613561565b60008281526097602052604090206109429082613602565b6001600160a01b0381163b612c4c5760405162461bcd60e51b815260206004820152602d60248201527f455243313936373a206e657720696d706c656d656e746174696f6e206973206e60448201527f6f74206120636f6e7472616374000000000000000000000000000000000000006064820152608401610a2a565b7f360894a13ba1a3210667c828492db98dca3e2076cc3735a920a3ca505d382bbc80547fffffffffffffffffffffffff0000000000000000000000000000000000000000166001600160a01b0392909216919091179055565b612cae83613617565b600082511180612cbb5750805b1561094257612cca8383613657565b50505050565b60008060008061012f8981548110612cea57612cea614010565b600091825260208083206040805160608082018352929094015467ffffffffffffffff80821686526801000000000000000082048116868601527001000000000000000000000000000000009091041684820152805160c081018252858152928301859052820184905281018390526080810183905260a081019290925291506020820151825167ffffffffffffffff918216911681018815612dc057898981518110612d9957612d99614010565b60200260200101519250826060015182039150826020015183606001510181039050612dee565b8b8352895160019098019850889783908b908a908110612de257612de2614010565b60200260200101819052505b818b118015612dfd5750808b11155b15612e5457836000015167ffffffffffffffff168a8a81518110612e2357612e23614010565b60209081029190910181015101805190910190525050905189945067ffffffffffffffff169250849150612e909050565b818b11612e7c57612e6d8c8c8c86604001518d8d613762565b96509650965050505050612e90565b612e6d8c828d038c86608001518d8d6137eb565b955095509592505050565b6000612ef0826040518060400160405280602081526020017f5361666545524332303a206c6f772d6c6576656c2063616c6c206661696c6564815250856001600160a01b03166138779092919063ffffffff16565b8051909150156109425780806020019051810190612f0e9190614248565b6109425760405162461bcd60e51b815260206004820152602a60248201527f5361666545524332303a204552433230206f7065726174696f6e20646964206e60448201527f6f742073756363656564000000000000000000000000000000000000000000006064820152608401610a2a565b8061012f8381548110612f9557612f95614010565b600091825260208220018054909190612fb990849067ffffffffffffffff1661426a565b92506101000a81548167ffffffffffffffff021916908367ffffffffffffffff1602179055505b6001821115610919576000612ff6600284614192565b600193841c9390159150819003613078578161012f848154811061301c5761301c614010565b6000918252602090912001805460089061304d90849068010000000000000000900467ffffffffffffffff1661426a565b92506101000a81548167ffffffffffffffff021916908367ffffffffffffffff1602179055506130ed565b8161012f848154811061308d5761308d614010565b600091825260209091200180546010906130c6908490700100000000000000000000000000000000900467ffffffffffffffff1661426a565b92506101000a81548167ffffffffffffffff021916908367ffffffffffffffff1602179055505b50612fe0565b600082600001828154811061310a5761310a614010565b9060005260206000200154905092915050565b61012f5460408051808201909152600181527f3500000000000000000000000000000000000000000000000000000000000000602082015290156131745760405162461bcd60e51b8152600401610a2a9190614112565b506040805160608101825260008082526020820181815292820181815261012f8054600181018255925291517f232da9e50dad2971456a78fb5cd6ff6b75019984d6e918139ce990999420f97990910180549351925167ffffffffffffffff908116700100000000000000000000000000000000027fffffffffffffffff0000000000000000ffffffffffffffffffffffffffffffff94821668010000000000000000027fffffffffffffffffffffffffffffffff0000000000000000000000000000000090961693909116929092179390931791909116179055565b60606107e26001600160a01b03831660145b6060600061327283600261428b565b61327d906002613fea565b67ffffffffffffffff81111561329557613295613cc4565b6040519080825280601f01601f1916602001820160405280156132bf576020820181803683370190505b5090507f3000000000000000000000000000000000000000000000000000000000000000816000815181106132f6576132f6614010565b60200101907effffffffffffffffffffffffffffffffffffffffffffffffffffffffffffff1916908160001a9053507f78000000000000000000000000000000000000000000000000000000000000008160018151811061335957613359614010565b60200101907effffffffffffffffffffffffffffffffffffffffffffffffffffffffffffff1916908160001a905350600061339584600261428b565b6133a0906001613fea565b90505b600181111561343d577f303132333435363738396162636465660000000000000000000000000000000085600f16601081106133e1576133e1614010565b1a60f81b8282815181106133f7576133f7614010565b60200101907effffffffffffffffffffffffffffffffffffffffffffffffffffffffffffff1916908160001a90535060049490941c93613436816142a2565b90506133a3565b5083156114575760405162461bcd60e51b815260206004820181905260248201527f537472696e67733a20686578206c656e67746820696e73756666696369656e746044820152606401610a2a565b60008281526065602090815260408083206001600160a01b038516845290915290205460ff166109195760008281526065602090815260408083206001600160a01b0385168452909152902080547fffffffffffffffffffffffffffffffffffffffffffffffffffffffffffffff001660011790556135083390565b6001600160a01b0316816001600160a01b0316837f2f8788117e7eff1d82e926ec794901d17c78024a50270940304540a733656f0d60405160405180910390a45050565b6000611457836001600160a01b038416613886565b60008281526065602090815260408083206001600160a01b038516845290915290205460ff16156109195760008281526065602090815260408083206001600160a01b038516808552925280832080547fffffffffffffffffffffffffffffffffffffffffffffffffffffffffffffff0016905551339285917ff6391f5c32d9c69d2a47ea670b442974b53935d1edc7fd64eb21e047a839171b9190a45050565b6000611457836001600160a01b0384166138d5565b61362081612bcf565b6040516001600160a01b038216907fbc7cd75a20ee27fd9adebab32041f755214dbc6bffa90cc0225b39da2e5c2d3b90600090a250565b60606001600160a01b0383163b6136d65760405162461bcd60e51b815260206004820152602660248201527f416464726573733a2064656c65676174652063616c6c20746f206e6f6e2d636f60448201527f6e747261637400000000000000000000000000000000000000000000000000006064820152608401610a2a565b600080846001600160a01b0316846040516136f191906142d7565b600060405180830381855af49150503d806000811461372c576040519150601f19603f3d011682016040523d82523d6000602084013e613731565b606091505b509150915061375982826040518060600160405280602781526020016142f4602791396139cf565b95945050505050565b60008060008060008061377b8c6002028c8c8c8b612cd0565b925092509250886000036137b057866001018a898151811061379f5761379f614010565b602002602001015160400181815250505b818a89815181106137c3576137c3614010565b6020908102919091010151606001805190910190529194509250905096509650969350505050565b6000806000806000806138078c6002026001018c8c8c8b612cd0565b9250925092508860000361383c57866001018a898151811061382b5761382b614010565b602002602001015160800181815250505b818a898151811061384f5761384f614010565b602090810291909101015160a001805190910190529194509250905096509650969350505050565b60606117b984846000856139e8565b60008181526001830160205260408120546138cd575081546001818101845560008481526020808220909301849055845484825282860190935260409020919091556107e2565b5060006107e2565b600081815260018301602052604081205480156139be5760006138f9600183613ffd565b855490915060009061390d90600190613ffd565b905081811461397257600086600001828154811061392d5761392d614010565b906000526020600020015490508087600001848154811061395057613950614010565b6000918252602080832090910192909255918252600188019052604090208390555b855486908061398357613983614163565b6001900381819060005260206000200160009055905585600101600086815260200190815260200160002060009055600193505050506107e2565b60009150506107e2565b5092915050565b606083156139de575081611457565b6114578383613ada565b606082471015613a605760405162461bcd60e51b815260206004820152602660248201527f416464726573733a20696e73756666696369656e742062616c616e636520666f60448201527f722063616c6c00000000000000000000000000000000000000000000000000006064820152608401610a2a565b600080866001600160a01b03168587604051613a7c91906142d7565b60006040518083038185875af1925050503d8060008114613ab9576040519150601f19603f3d011682016040523d82523d6000602084013e613abe565b606091505b5091509150613acf87838387613b04565b979650505050505050565b815115613aea5781518083602001fd5b8060405162461bcd60e51b8152600401610a2a9190614112565b60608315613b73578251600003613b6c576001600160a01b0385163b613b6c5760405162461bcd60e51b815260206004820152601d60248201527f416464726573733a2063616c6c20746f206e6f6e2d636f6e74726163740000006044820152606401610a2a565b50816117b9565b6117b98383613ada565b828054828255906000526020600020908101928215613bea579160200282015b82811115613bea57825182547fffffffffffffffffffffffff0000000000000000000000000000000000000000166001600160a01b03909116178255602090920191600190910190613b9d565b50610fdc9291505b80821115610fdc5760008155600101613bf2565b600060208284031215613c1857600080fd5b81357fffffffff000000000000000000000000000000000000000000000000000000008116811461145757600080fd5b80356001600160a01b0381168114613c5f57600080fd5b919050565b600060208284031215613c7657600080fd5b61145782613c48565b600060208284031215613c9157600080fd5b5035919050565b60008060408385031215613cab57600080fd5b82359150613cbb60208401613c48565b90509250929050565b7f4e487b7100000000000000000000000000000000000000000000000000000000600052604160045260246000fd5b60008060408385031215613d0657600080fd5b613d0f83613c48565b9150602083013567ffffffffffffffff80821115613d2c57600080fd5b818501915085601f830112613d4057600080fd5b813581811115613d5257613d52613cc4565b604051601f82017fffffffffffffffffffffffffffffffffffffffffffffffffffffffffffffffe0908116603f01168101908382118183101715613d9857613d98613cc4565b81604052828152886020848701011115613db157600080fd5b8260208601602083013760006020848301015280955050505050509250929050565b6020808252825182820181905260009190848201906040850190845b81811015613e145783516001600160a01b031683529284019291840191600101613def565b50909695505050505050565b60008060408385031215613e3357600080fd5b613e3c83613c48565b9150613cbb60208401613c48565b803567ffffffffffffffff81168114613c5f57600080fd5b60008060408385031215613e7557600080fd5b613e7e83613c48565b9150613cbb60208401613e4a565b60008083601f840112613e9e57600080fd5b50813567ffffffffffffffff811115613eb657600080fd5b6020830191508360208260051b8501011115613ed157600080fd5b9250929050565b60008060008060408587031215613eee57600080fd5b843567ffffffffffffffff80821115613f0657600080fd5b613f1288838901613e8c565b90965094506020870135915080821115613f2b57600080fd5b50613f3887828801613e8c565b95989497509550505050565b60008060408385031215613f5757600080fd5b50508035926020909101359150565b600080600080600060a08688031215613f7e57600080fd5b613f8786613c48565b9450613f9560208701613c48565b935060408601359250613faa60608701613c48565b949793965091946080013592915050565b7f4e487b7100000000000000000000000000000000000000000000000000000000600052601160045260246000fd5b808201808211156107e2576107e2613fbb565b818103818111156107e2576107e2613fbb565b7f4e487b7100000000000000000000000000000000000000000000000000000000600052603260045260246000fd5b60007fffffffffffffffffffffffffffffffffffffffffffffffffffffffffffffffff820361407057614070613fbb565b5060010190565b60006020828403121561408957600080fd5b5051919050565b6000602082840312156140a257600080fd5b61145782613e4a565b7f4e487b7100000000000000000000000000000000000000000000000000000000600052601260045260246000fd5b6000826140e9576140e96140ab565b500490565b60005b838110156141095781810151838201526020016140f1565b50506000910152565b60208152600082518060208401526141318160408501602087016140ee565b601f017fffffffffffffffffffffffffffffffffffffffffffffffffffffffffffffffe0169190910160400192915050565b7f4e487b7100000000000000000000000000000000000000000000000000000000600052603160045260246000fd5b6000826141a1576141a16140ab565b500690565b7f416363657373436f6e74726f6c3a206163636f756e74200000000000000000008152600083516141de8160178501602088016140ee565b7f206973206d697373696e6720726f6c6520000000000000000000000000000000601791840191820152835161421b8160288401602088016140ee565b01602801949350505050565b67ffffffffffffffff8281168282160390808211156139c8576139c8613fbb565b60006020828403121561425a57600080fd5b8151801515811461145757600080fd5b67ffffffffffffffff8181168382160190808211156139c8576139c8613fbb565b80820281158282048414176107e2576107e2613fbb565b6000816142b1576142b1613fbb565b507fffffffffffffffffffffffffffffffffffffffffffffffffffffffffffffffff0190565b600082516142e98184602087016140ee565b919091019291505056fe416464726573733a206c6f772d6c6576656c2064656c65676174652063616c6c206661696c6564a264697066735822122073fd08aa7d470e4ac251938e8c85bdb747c4a068444f481c0ecff4dba83a234a64736f6c63430008110033",
  "linkReferences": {},
  "deployedLinkReferences": {}
}