{
  "_format": "hh-sol-artifact-1",
  "contractName": "ReceiverStaking",
  "sourceName": "contracts/staking/ReceiverStaking.sol",
  "abi": [
    {
      "inputs": [
        {
          "internalType": "uint256",
          "name": "_startTime",
          "type": "uint256"
        },
        {
          "internalType": "uint256",
          "name": "_epochLength",
          "type": "uint256"
        },
        {
          "internalType": "address",
          "name": "_stakingToken",
          "type": "address"
        }
      ],
      "stateMutability": "nonpayable",
      "type": "constructor"
    },
    {
      "anonymous": false,
      "inputs": [
        {
          "indexed": false,
          "internalType": "address",
          "name": "previousAdmin",
          "type": "address"
        },
        {
          "indexed": false,
          "internalType": "address",
          "name": "newAdmin",
          "type": "address"
        }
      ],
      "name": "AdminChanged",
      "type": "event"
    },
    {
      "anonymous": false,
      "inputs": [
        {
          "indexed": true,
          "internalType": "address",
          "name": "owner",
          "type": "address"
        },
        {
          "indexed": true,
          "internalType": "address",
          "name": "spender",
          "type": "address"
        },
        {
          "indexed": false,
          "internalType": "uint256",
          "name": "value",
          "type": "uint256"
        }
      ],
      "name": "Approval",
      "type": "event"
    },
    {
      "anonymous": false,
      "inputs": [
        {
          "indexed": true,
          "internalType": "address",
          "name": "_address",
          "type": "address"
        },
        {
          "indexed": true,
          "internalType": "uint256",
          "name": "epoch",
          "type": "uint256"
        },
        {
          "indexed": false,
          "internalType": "uint256",
          "name": "balance",
          "type": "uint256"
        }
      ],
      "name": "BalanceUpdate",
      "type": "event"
    },
    {
      "anonymous": false,
      "inputs": [
        {
          "indexed": true,
          "internalType": "address",
          "name": "beacon",
          "type": "address"
        }
      ],
      "name": "BeaconUpgraded",
      "type": "event"
    },
    {
      "anonymous": false,
      "inputs": [
        {
          "indexed": false,
          "internalType": "uint8",
          "name": "version",
          "type": "uint8"
        }
      ],
      "name": "Initialized",
      "type": "event"
    },
    {
      "anonymous": false,
      "inputs": [
        {
          "indexed": true,
          "internalType": "bytes32",
          "name": "role",
          "type": "bytes32"
        },
        {
          "indexed": true,
          "internalType": "bytes32",
          "name": "previousAdminRole",
          "type": "bytes32"
        },
        {
          "indexed": true,
          "internalType": "bytes32",
          "name": "newAdminRole",
          "type": "bytes32"
        }
      ],
      "name": "RoleAdminChanged",
      "type": "event"
    },
    {
      "anonymous": false,
      "inputs": [
        {
          "indexed": true,
          "internalType": "bytes32",
          "name": "role",
          "type": "bytes32"
        },
        {
          "indexed": true,
          "internalType": "address",
          "name": "account",
          "type": "address"
        },
        {
          "indexed": true,
          "internalType": "address",
          "name": "sender",
          "type": "address"
        }
      ],
      "name": "RoleGranted",
      "type": "event"
    },
    {
      "anonymous": false,
      "inputs": [
        {
          "indexed": true,
          "internalType": "bytes32",
          "name": "role",
          "type": "bytes32"
        },
        {
          "indexed": true,
          "internalType": "address",
          "name": "account",
          "type": "address"
        },
        {
          "indexed": true,
          "internalType": "address",
          "name": "sender",
          "type": "address"
        }
      ],
      "name": "RoleRevoked",
      "type": "event"
    },
    {
      "anonymous": false,
      "inputs": [
        {
          "indexed": false,
          "internalType": "uint256",
          "name": "id",
          "type": "uint256"
        }
      ],
      "name": "Snapshot",
      "type": "event"
    },
    {
      "anonymous": false,
      "inputs": [
        {
          "indexed": true,
          "internalType": "address",
          "name": "from",
          "type": "address"
        },
        {
          "indexed": true,
          "internalType": "address",
          "name": "to",
          "type": "address"
        },
        {
          "indexed": false,
          "internalType": "uint256",
          "name": "value",
          "type": "uint256"
        }
      ],
      "name": "Transfer",
      "type": "event"
    },
    {
      "anonymous": false,
      "inputs": [
        {
          "indexed": true,
          "internalType": "address",
          "name": "implementation",
          "type": "address"
        }
      ],
      "name": "Upgraded",
      "type": "event"
    },
    {
      "inputs": [],
      "name": "DEFAULT_ADMIN_ROLE",
      "outputs": [
        {
          "internalType": "bytes32",
          "name": "",
          "type": "bytes32"
        }
      ],
      "stateMutability": "view",
      "type": "function"
    },
    {
      "inputs": [],
      "name": "EPOCH_LENGTH",
      "outputs": [
        {
          "internalType": "uint256",
          "name": "",
          "type": "uint256"
        }
      ],
      "stateMutability": "view",
      "type": "function"
    },
    {
      "inputs": [],
      "name": "STAKING_TOKEN",
      "outputs": [
        {
          "internalType": "contract IERC20Upgradeable",
          "name": "",
          "type": "address"
        }
      ],
      "stateMutability": "view",
      "type": "function"
    },
    {
      "inputs": [],
      "name": "START_TIME",
      "outputs": [
        {
          "internalType": "uint256",
          "name": "",
          "type": "uint256"
        }
      ],
      "stateMutability": "view",
      "type": "function"
    },
    {
      "inputs": [
        {
          "internalType": "address",
          "name": "owner",
          "type": "address"
        },
        {
          "internalType": "address",
          "name": "spender",
          "type": "address"
        }
      ],
      "name": "allowance",
      "outputs": [
        {
          "internalType": "uint256",
          "name": "",
          "type": "uint256"
        }
      ],
      "stateMutability": "view",
      "type": "function"
    },
    {
      "inputs": [
        {
          "internalType": "address",
          "name": "spender",
          "type": "address"
        },
        {
          "internalType": "uint256",
          "name": "amount",
          "type": "uint256"
        }
      ],
      "name": "approve",
      "outputs": [
        {
          "internalType": "bool",
          "name": "",
          "type": "bool"
        }
      ],
      "stateMutability": "nonpayable",
      "type": "function"
    },
    {
      "inputs": [
        {
          "internalType": "address",
          "name": "account",
          "type": "address"
        }
      ],
      "name": "balanceOf",
      "outputs": [
        {
          "internalType": "uint256",
          "name": "",
          "type": "uint256"
        }
      ],
      "stateMutability": "view",
      "type": "function"
    },
    {
      "inputs": [
        {
          "internalType": "address",
          "name": "account",
          "type": "address"
        },
        {
          "internalType": "uint256",
          "name": "snapshotId",
          "type": "uint256"
        }
      ],
      "name": "balanceOfAt",
      "outputs": [
        {
          "internalType": "uint256",
          "name": "",
          "type": "uint256"
        }
      ],
      "stateMutability": "view",
      "type": "function"
    },
    {
      "inputs": [],
      "name": "decimals",
      "outputs": [
        {
          "internalType": "uint8",
          "name": "",
          "type": "uint8"
        }
      ],
      "stateMutability": "view",
      "type": "function"
    },
    {
      "inputs": [
        {
          "internalType": "address",
          "name": "spender",
          "type": "address"
        },
        {
          "internalType": "uint256",
          "name": "subtractedValue",
          "type": "uint256"
        }
      ],
      "name": "decreaseAllowance",
      "outputs": [
        {
          "internalType": "bool",
          "name": "",
          "type": "bool"
        }
      ],
      "stateMutability": "nonpayable",
      "type": "function"
    },
    {
      "inputs": [
        {
          "internalType": "uint256",
          "name": "amount",
          "type": "uint256"
        }
      ],
      "name": "deposit",
      "outputs": [],
      "stateMutability": "nonpayable",
      "type": "function"
    },
    {
      "inputs": [
        {
          "internalType": "bytes32",
          "name": "role",
          "type": "bytes32"
        }
      ],
      "name": "getRoleAdmin",
      "outputs": [
        {
          "internalType": "bytes32",
          "name": "",
          "type": "bytes32"
        }
      ],
      "stateMutability": "view",
      "type": "function"
    },
    {
      "inputs": [
        {
          "internalType": "bytes32",
          "name": "role",
          "type": "bytes32"
        },
        {
          "internalType": "uint256",
          "name": "index",
          "type": "uint256"
        }
      ],
      "name": "getRoleMember",
      "outputs": [
        {
          "internalType": "address",
          "name": "",
          "type": "address"
        }
      ],
      "stateMutability": "view",
      "type": "function"
    },
    {
      "inputs": [
        {
          "internalType": "bytes32",
          "name": "role",
          "type": "bytes32"
        }
      ],
      "name": "getRoleMemberCount",
      "outputs": [
        {
          "internalType": "uint256",
          "name": "",
          "type": "uint256"
        }
      ],
      "stateMutability": "view",
      "type": "function"
    },
    {
      "inputs": [
        {
          "internalType": "address",
          "name": "user",
          "type": "address"
        },
        {
          "internalType": "uint256",
          "name": "epoch",
          "type": "uint256"
        }
      ],
      "name": "getStakeInfo",
      "outputs": [
        {
          "internalType": "uint256",
          "name": "userStake",
          "type": "uint256"
        },
        {
          "internalType": "uint256",
          "name": "totalStake",
          "type": "uint256"
        },
        {
          "internalType": "uint256",
          "name": "currentEpoch",
          "type": "uint256"
        }
      ],
      "stateMutability": "view",
      "type": "function"
    },
    {
      "inputs": [
        {
          "internalType": "bytes32",
          "name": "role",
          "type": "bytes32"
        },
        {
          "internalType": "address",
          "name": "account",
          "type": "address"
        }
      ],
      "name": "grantRole",
      "outputs": [],
      "stateMutability": "nonpayable",
      "type": "function"
    },
    {
      "inputs": [
        {
          "internalType": "bytes32",
          "name": "role",
          "type": "bytes32"
        },
        {
          "internalType": "address",
          "name": "account",
          "type": "address"
        }
      ],
      "name": "hasRole",
      "outputs": [
        {
          "internalType": "bool",
          "name": "",
          "type": "bool"
        }
      ],
      "stateMutability": "view",
      "type": "function"
    },
    {
      "inputs": [
        {
          "internalType": "address",
          "name": "spender",
          "type": "address"
        },
        {
          "internalType": "uint256",
          "name": "addedValue",
          "type": "uint256"
        }
      ],
      "name": "increaseAllowance",
      "outputs": [
        {
          "internalType": "bool",
          "name": "",
          "type": "bool"
        }
      ],
      "stateMutability": "nonpayable",
      "type": "function"
    },
    {
      "inputs": [
        {
          "internalType": "address",
          "name": "_admin",
          "type": "address"
        }
      ],
      "name": "initialize",
      "outputs": [],
      "stateMutability": "nonpayable",
      "type": "function"
    },
    {
      "inputs": [],
      "name": "name",
      "outputs": [
        {
          "internalType": "string",
          "name": "",
          "type": "string"
        }
      ],
      "stateMutability": "view",
      "type": "function"
    },
    {
      "inputs": [],
      "name": "proxiableUUID",
      "outputs": [
        {
          "internalType": "bytes32",
          "name": "",
          "type": "bytes32"
        }
      ],
      "stateMutability": "view",
      "type": "function"
    },
    {
      "inputs": [
        {
          "internalType": "bytes32",
          "name": "role",
          "type": "bytes32"
        },
        {
          "internalType": "address",
          "name": "account",
          "type": "address"
        }
      ],
      "name": "renounceRole",
      "outputs": [],
      "stateMutability": "nonpayable",
      "type": "function"
    },
    {
      "inputs": [
        {
          "internalType": "bytes32",
          "name": "role",
          "type": "bytes32"
        },
        {
          "internalType": "address",
          "name": "account",
          "type": "address"
        }
      ],
      "name": "revokeRole",
      "outputs": [],
      "stateMutability": "nonpayable",
      "type": "function"
    },
    {
      "inputs": [
        {
          "internalType": "bytes4",
          "name": "interfaceId",
          "type": "bytes4"
        }
      ],
      "name": "supportsInterface",
      "outputs": [
        {
          "internalType": "bool",
          "name": "",
          "type": "bool"
        }
      ],
      "stateMutability": "view",
      "type": "function"
    },
    {
      "inputs": [],
      "name": "symbol",
      "outputs": [
        {
          "internalType": "string",
          "name": "",
          "type": "string"
        }
      ],
      "stateMutability": "view",
      "type": "function"
    },
    {
      "inputs": [],
      "name": "totalSupply",
      "outputs": [
        {
          "internalType": "uint256",
          "name": "",
          "type": "uint256"
        }
      ],
      "stateMutability": "view",
      "type": "function"
    },
    {
      "inputs": [
        {
          "internalType": "uint256",
          "name": "snapshotId",
          "type": "uint256"
        }
      ],
      "name": "totalSupplyAt",
      "outputs": [
        {
          "internalType": "uint256",
          "name": "",
          "type": "uint256"
        }
      ],
      "stateMutability": "view",
      "type": "function"
    },
    {
      "inputs": [
        {
          "internalType": "address",
          "name": "to",
          "type": "address"
        },
        {
          "internalType": "uint256",
          "name": "amount",
          "type": "uint256"
        }
      ],
      "name": "transfer",
      "outputs": [
        {
          "internalType": "bool",
          "name": "",
          "type": "bool"
        }
      ],
      "stateMutability": "nonpayable",
      "type": "function"
    },
    {
      "inputs": [
        {
          "internalType": "address",
          "name": "from",
          "type": "address"
        },
        {
          "internalType": "address",
          "name": "to",
          "type": "address"
        },
        {
          "internalType": "uint256",
          "name": "amount",
          "type": "uint256"
        }
      ],
      "name": "transferFrom",
      "outputs": [
        {
          "internalType": "bool",
          "name": "",
          "type": "bool"
        }
      ],
      "stateMutability": "nonpayable",
      "type": "function"
    },
    {
      "inputs": [
        {
          "internalType": "address",
          "name": "newImplementation",
          "type": "address"
        }
      ],
      "name": "upgradeTo",
      "outputs": [],
      "stateMutability": "nonpayable",
      "type": "function"
    },
    {
      "inputs": [
        {
          "internalType": "address",
          "name": "newImplementation",
          "type": "address"
        },
        {
          "internalType": "bytes",
          "name": "data",
          "type": "bytes"
        }
      ],
      "name": "upgradeToAndCall",
      "outputs": [],
      "stateMutability": "payable",
      "type": "function"
    },
    {
      "inputs": [
        {
          "internalType": "uint256",
          "name": "amount",
          "type": "uint256"
        }
      ],
      "name": "withdraw",
      "outputs": [],
      "stateMutability": "nonpayable",
      "type": "function"
    }
  ],
  "bytecode": "0x610100604052306080523480156200001657600080fd5b50604051620030bf380380620030bf83398101604081905262000039916200018d565b600054610100900460ff16158080156200005a5750600054600160ff909116105b806200008a575062000077306200017e60201b620011c01760201c565b1580156200008a575060005460ff166001145b620000f25760405162461bcd60e51b815260206004820152602e60248201527f496e697469616c697a61626c653a20636f6e747261637420697320616c72656160448201526d191e481a5b9a5d1a585b1a5e995960921b606482015260840160405180910390fd5b6000805460ff19166001179055801562000116576000805461ff0019166101001790555b60a084905260c08390526001600160a01b03821660e052801562000174576000805461ff0019169055604051600181527f7f26b83ff96e1f2b6a682f133852f6798a09c465da95921460cefb38474024989060200160405180910390a15b50505050620001d5565b6001600160a01b03163b151590565b600080600060608486031215620001a357600080fd5b83516020850151604086015191945092506001600160a01b0381168114620001ca57600080fd5b809150509250925092565b60805160a05160c05160e051612e716200024e6000396000818161022f015281816108250152610f510152600081816105930152611a1501526000818161068d01528181611a390152611d7a015260008181610957015281816109ed01528181610bb901528181610c4f0152610d460152612e716000f3fe6080604052600436106101e35760003560e01c806352d1902d11610102578063a9059cbb11610095578063ca15c87311610064578063ca15c873146105f5578063d547741f14610615578063dd62ed3e14610635578063ddaa26ad1461067b57600080fd5b8063a9059cbb14610561578063ac4746ab14610581578063b6b55f25146105b5578063c4d66de8146105d557600080fd5b806395d89b41116100d157806395d89b41146104f7578063981b24d01461050c578063a217fddf1461052c578063a457c2d71461054157600080fd5b806352d1902d1461044657806370a082311461045b5780639010d07c1461049157806391d14854146104b157600080fd5b80632f2ff15d1161017a578063395093511161014957806339509351146103b85780633b521efe146103d85780634ee2cd7e146104135780634f1ef2861461043357600080fd5b80632f2ff15d1461033c578063313ce5671461035c57806336568abe146103785780633659cfe61461039857600080fd5b806318160ddd116101b657806318160ddd146102ab57806323b872dd146102ca578063248a9ca3146102ea5780632e1a7d4d1461031a57600080fd5b806301ffc9a7146101e85780630479d6441461021d57806306fdde0314610269578063095ea7b31461028b575b600080fd5b3480156101f457600080fd5b506102086102033660046128c0565b6106af565b60405190151581526020015b60405180910390f35b34801561022957600080fd5b506102517f000000000000000000000000000000000000000000000000000000000000000081565b6040516001600160a01b039091168152602001610214565b34801561027557600080fd5b5061027e61070b565b6040516102149190612926565b34801561029757600080fd5b506102086102a636600461298e565b61079d565b3480156102b757600080fd5b506035545b604051908152602001610214565b3480156102d657600080fd5b506102086102e53660046129b8565b6107b5565b3480156102f657600080fd5b506102bc6103053660046129f4565b600090815260c9602052604090206001015490565b34801561032657600080fd5b5061033a6103353660046129f4565b6107db565b005b34801561034857600080fd5b5061033a610357366004612a0d565b610897565b34801561036857600080fd5b5060405160128152602001610214565b34801561038457600080fd5b5061033a610393366004612a0d565b6108bc565b3480156103a457600080fd5b5061033a6103b3366004612a39565b61094d565b3480156103c457600080fd5b506102086103d336600461298e565b610aea565b3480156103e457600080fd5b506103f86103f336600461298e565b610b29565b60408051938452602084019290925290820152606001610214565b34801561041f57600080fd5b506102bc61042e36600461298e565b610b56565b61033a610441366004612a83565b610baf565b34801561045257600080fd5b506102bc610d39565b34801561046757600080fd5b506102bc610476366004612a39565b6001600160a01b031660009081526033602052604090205490565b34801561049d57600080fd5b506102516104ac366004612b63565b610dfe565b3480156104bd57600080fd5b506102086104cc366004612a0d565b600091825260c9602090815260408084206001600160a01b0393909316845291905290205460ff1690565b34801561050357600080fd5b5061027e610e16565b34801561051857600080fd5b506102bc6105273660046129f4565b610e25565b34801561053857600080fd5b506102bc600081565b34801561054d57600080fd5b5061020861055c36600461298e565b610e50565b34801561056d57600080fd5b5061020861057c36600461298e565b610f05565b34801561058d57600080fd5b506102bc7f000000000000000000000000000000000000000000000000000000000000000081565b3480156105c157600080fd5b5061033a6105d03660046129f4565b610f13565b3480156105e157600080fd5b5061033a6105f0366004612a39565b610fd1565b34801561060157600080fd5b506102bc6106103660046129f4565b611184565b34801561062157600080fd5b5061033a610630366004612a0d565b61119b565b34801561064157600080fd5b506102bc610650366004612b85565b6001600160a01b03918216600090815260346020908152604080832093909416825291909152205490565b34801561068757600080fd5b506102bc7f000000000000000000000000000000000000000000000000000000000000000081565b60007fffffffff0000000000000000000000000000000000000000000000000000000082167f5a05180f0000000000000000000000000000000000000000000000000000000014806107055750610705826111cf565b92915050565b60606036805461071a90612baf565b80601f016020809104026020016040519081016040528092919081815260200182805461074690612baf565b80156107935780601f1061076857610100808354040283529160200191610793565b820191906000526020600020905b81548152906001019060200180831161077657829003601f168201915b5050505050905090565b6000336107ab818585611266565b5060019392505050565b6000336107c38582856113be565b6107ce85858561146e565b60019150505b9392505050565b336107e68183611673565b6040517fa9059cbb0000000000000000000000000000000000000000000000000000000081526001600160a01b038281166004830152602482018490527f0000000000000000000000000000000000000000000000000000000000000000169063a9059cbb906044016020604051808303816000875af115801561086e573d6000803e3d6000fd5b505050506040513d601f19601f820116820180604052508101906108929190612c02565b505050565b600082815260c960205260409020600101546108b2816117f1565b61089283836117fb565b6001600160a01b038116331461093f5760405162461bcd60e51b815260206004820152602f60248201527f416363657373436f6e74726f6c3a2063616e206f6e6c792072656e6f756e636560448201527f20726f6c657320666f722073656c66000000000000000000000000000000000060648201526084015b60405180910390fd5b610949828261181d565b5050565b6001600160a01b037f00000000000000000000000000000000000000000000000000000000000000001630036109eb5760405162461bcd60e51b815260206004820152602c60248201527f46756e6374696f6e206d7573742062652063616c6c6564207468726f7567682060448201527f64656c656761746563616c6c00000000000000000000000000000000000000006064820152608401610936565b7f00000000000000000000000000000000000000000000000000000000000000006001600160a01b0316610a467f360894a13ba1a3210667c828492db98dca3e2076cc3735a920a3ca505d382bbc546001600160a01b031690565b6001600160a01b031614610ac25760405162461bcd60e51b815260206004820152602c60248201527f46756e6374696f6e206d7573742062652063616c6c6564207468726f7567682060448201527f6163746976652070726f787900000000000000000000000000000000000000006064820152608401610936565b610acb8161183f565b60408051600080825260208201909252610ae791839190611853565b50565b3360008181526034602090815260408083206001600160a01b03871684529091528120549091906107ab9082908690610b24908790612c53565b611266565b6000806000610b388585610b56565b9250610b4384610e25565b9150610b4d611a11565b90509250925092565b6001600160a01b038216600090815260656020526040812081908190610b7d908590611a78565b9150915081610ba4576001600160a01b038516600090815260336020526040902054610ba6565b805b95945050505050565b6001600160a01b037f0000000000000000000000000000000000000000000000000000000000000000163003610c4d5760405162461bcd60e51b815260206004820152602c60248201527f46756e6374696f6e206d7573742062652063616c6c6564207468726f7567682060448201527f64656c656761746563616c6c00000000000000000000000000000000000000006064820152608401610936565b7f00000000000000000000000000000000000000000000000000000000000000006001600160a01b0316610ca87f360894a13ba1a3210667c828492db98dca3e2076cc3735a920a3ca505d382bbc546001600160a01b031690565b6001600160a01b031614610d245760405162461bcd60e51b815260206004820152602c60248201527f46756e6374696f6e206d7573742062652063616c6c6564207468726f7567682060448201527f6163746976652070726f787900000000000000000000000000000000000000006064820152608401610936565b610d2d8261183f565b61094982826001611853565b6000306001600160a01b037f00000000000000000000000000000000000000000000000000000000000000001614610dd95760405162461bcd60e51b815260206004820152603860248201527f555550535570677261646561626c653a206d757374206e6f742062652063616c60448201527f6c6564207468726f7567682064656c656761746563616c6c00000000000000006064820152608401610936565b507f360894a13ba1a3210667c828492db98dca3e2076cc3735a920a3ca505d382bbc90565b600082815260fb602052604081206107d49083611b75565b60606037805461071a90612baf565b6000806000610e35846066611a78565b9150915081610e4657603554610e48565b805b949350505050565b3360008181526034602090815260408083206001600160a01b038716845290915281205490919083811015610eed5760405162461bcd60e51b815260206004820152602560248201527f45524332303a2064656372656173656420616c6c6f77616e63652062656c6f7760448201527f207a65726f0000000000000000000000000000000000000000000000000000006064820152608401610936565b610efa8286868403611266565b506001949350505050565b6000336107ab81858561146e565b6040517f23b872dd000000000000000000000000000000000000000000000000000000008152336004820181905230602483015260448201839052907f00000000000000000000000000000000000000000000000000000000000000006001600160a01b0316906323b872dd906064016020604051808303816000875af1158015610fa2573d6000803e3d6000fd5b505050506040513d601f19601f82011682018060405250810190610fc69190612c02565b506109498183611b81565b600054610100900460ff1615808015610ff15750600054600160ff909116105b8061100b5750303b15801561100b575060005460ff166001145b61107d5760405162461bcd60e51b815260206004820152602e60248201527f496e697469616c697a61626c653a20636f6e747261637420697320616c72656160448201527f647920696e697469616c697a65640000000000000000000000000000000000006064820152608401610936565b600080547fffffffffffffffffffffffffffffffffffffffffffffffffffffffffffffff0016600117905580156110db57600080547fffffffffffffffffffffffffffffffffffffffffffffffffffffffffffff00ff166101001790555b6110e3611c56565b6110eb611c56565b6110f3611c56565b6110fb611c56565b611103611c56565b61110b611c56565b611113611c56565b61111e600083611cd5565b801561094957600080547fffffffffffffffffffffffffffffffffffffffffffffffffffffffffffff00ff169055604051600181527f7f26b83ff96e1f2b6a682f133852f6798a09c465da95921460cefb38474024989060200160405180910390a15050565b600081815260fb6020526040812061070590611cdf565b600082815260c960205260409020600101546111b6816117f1565b610892838361181d565b6001600160a01b03163b151590565b60007fffffffff0000000000000000000000000000000000000000000000000000000082167f7965db0b00000000000000000000000000000000000000000000000000000000148061070557507f01ffc9a7000000000000000000000000000000000000000000000000000000007fffffffff00000000000000000000000000000000000000000000000000000000831614610705565b6001600160a01b0383166112e15760405162461bcd60e51b8152602060048201526024808201527f45524332303a20617070726f76652066726f6d20746865207a65726f2061646460448201527f72657373000000000000000000000000000000000000000000000000000000006064820152608401610936565b6001600160a01b03821661135d5760405162461bcd60e51b815260206004820152602260248201527f45524332303a20617070726f766520746f20746865207a65726f20616464726560448201527f73730000000000000000000000000000000000000000000000000000000000006064820152608401610936565b6001600160a01b0383811660008181526034602090815260408083209487168084529482529182902085905590518481527f8c5be1e5ebec7d5bd14f71427d1e84f3dd0314c0f7b2291e5b200ac8c7c3b925910160405180910390a3505050565b6001600160a01b038381166000908152603460209081526040808320938616835292905220547fffffffffffffffffffffffffffffffffffffffffffffffffffffffffffffffff8114611468578181101561145b5760405162461bcd60e51b815260206004820152601d60248201527f45524332303a20696e73756666696369656e7420616c6c6f77616e63650000006044820152606401610936565b6114688484848403611266565b50505050565b6001600160a01b0383166114ea5760405162461bcd60e51b815260206004820152602560248201527f45524332303a207472616e736665722066726f6d20746865207a65726f20616460448201527f64726573730000000000000000000000000000000000000000000000000000006064820152608401610936565b6001600160a01b0382166115665760405162461bcd60e51b815260206004820152602360248201527f45524332303a207472616e7366657220746f20746865207a65726f206164647260448201527f65737300000000000000000000000000000000000000000000000000000000006064820152608401610936565b611571838383611ce9565b6001600160a01b038316600090815260336020526040902054818110156116005760405162461bcd60e51b815260206004820152602660248201527f45524332303a207472616e7366657220616d6f756e742065786365656473206260448201527f616c616e636500000000000000000000000000000000000000000000000000006064820152608401610936565b6001600160a01b0380851660008181526033602052604080822086860390559286168082529083902080548601905591517fddf252ad1be2c89b69c2b068fc378daa952ba7f163c4a11628f55a4df523b3ef906116609086815260200190565b60405180910390a3611468848484611db0565b6001600160a01b0382166116ef5760405162461bcd60e51b815260206004820152602160248201527f45524332303a206275726e2066726f6d20746865207a65726f2061646472657360448201527f73000000000000000000000000000000000000000000000000000000000000006064820152608401610936565b6116fb82600083611ce9565b6001600160a01b0382166000908152603360205260409020548181101561178a5760405162461bcd60e51b815260206004820152602260248201527f45524332303a206275726e20616d6f756e7420657863656564732062616c616e60448201527f63650000000000000000000000000000000000000000000000000000000000006064820152608401610936565b6001600160a01b03831660008181526033602090815260408083208686039055603580548790039055518581529192917fddf252ad1be2c89b69c2b068fc378daa952ba7f163c4a11628f55a4df523b3ef910160405180910390a361089283600084611db0565b610ae78133611e96565b6118058282611f29565b600082815260fb602052604090206108929082611fe9565b6118278282611ffe565b600082815260fb60205260409020610892908261209f565b61184a6000336104cc565b610ae757600080fd5b7f4910fdfa16fed3260ed0e7147f7cc6da11a60208b5b9406d12a635614ffd91435460ff161561188657610892836120b4565b826001600160a01b03166352d1902d6040518163ffffffff1660e01b8152600401602060405180830381865afa9250505080156118fe575060408051601f3d9081017fffffffffffffffffffffffffffffffffffffffffffffffffffffffffffffffe01682019092526118fb91810190612c66565b60015b6119705760405162461bcd60e51b815260206004820152602e60248201527f45524331393637557067726164653a206e657720696d706c656d656e7461746960448201527f6f6e206973206e6f7420555550530000000000000000000000000000000000006064820152608401610936565b7f360894a13ba1a3210667c828492db98dca3e2076cc3735a920a3ca505d382bbc8114611a055760405162461bcd60e51b815260206004820152602960248201527f45524331393637557067726164653a20756e737570706f727465642070726f7860448201527f6961626c655555494400000000000000000000000000000000000000000000006064820152608401610936565b5061089283838361218a565b60007f0000000000000000000000000000000000000000000000000000000000000000611a5e7f000000000000000000000000000000000000000000000000000000000000000042612c7f565b611a689190612c92565b611a73906001612c53565b905090565b60008060008411611acb5760405162461bcd60e51b815260206004820152601660248201527f4552433230536e617073686f743a2069642069732030000000000000000000006044820152606401610936565b611ad3611a11565b841115611b225760405162461bcd60e51b815260206004820152601d60248201527f4552433230536e617073686f743a206e6f6e6578697374656e742069640000006044820152606401610936565b6000611b2e84866121af565b84549091508103611b46576000809250925050611b6e565b6001846001018281548110611b5d57611b5d612ccd565b906000526020600020015492509250505b9250929050565b60006107d4838361225c565b6001600160a01b038216611bd75760405162461bcd60e51b815260206004820152601f60248201527f45524332303a206d696e7420746f20746865207a65726f2061646472657373006044820152606401610936565b611be360008383611ce9565b8060356000828254611bf59190612c53565b90915550506001600160a01b0382166000818152603360209081526040808320805486019055518481527fddf252ad1be2c89b69c2b068fc378daa952ba7f163c4a11628f55a4df523b3ef910160405180910390a361094960008383611db0565b600054610100900460ff16611cd35760405162461bcd60e51b815260206004820152602b60248201527f496e697469616c697a61626c653a20636f6e7472616374206973206e6f74206960448201527f6e697469616c697a696e670000000000000000000000000000000000000000006064820152608401610936565b565b61094982826117fb565b6000610705825490565b6001600160a01b0383161580611d0657506001600160a01b038216155b611d785760405162461bcd60e51b815260206004820152602660248201527f5374616b696e6720506f736974696f6e73207472616e73666572206e6f74206160448201527f6c6c6f77656400000000000000000000000000000000000000000000000000006064820152608401610936565b7f0000000000000000000000000000000000000000000000000000000000000000421015611da557505050565b610892838383612286565b6001600160a01b038216610892576001600160a01b0383166000908152603360209081526040808320546065909252909120600180820180548492611df491612c7f565b81548110611e0457611e04612ccd565b90600052602060002001541115611e8f57600180820180548492611e2791612c7f565b81548110611e3757611e37612ccd565b600091825260209091200155611e4b611a11565b856001600160a01b03167fbbac117825721ba643d8ad675fe8e22c08ec438c38be7b6981ce85c631c88eb784604051611e8691815260200190565b60405180910390a35b5050505050565b600082815260c9602090815260408083206001600160a01b038516845290915290205460ff1661094957611ec9816122ce565b611ed48360206122e0565b604051602001611ee5929190612cfc565b604080517fffffffffffffffffffffffffffffffffffffffffffffffffffffffffffffffe08184030181529082905262461bcd60e51b825261093691600401612926565b600082815260c9602090815260408083206001600160a01b038516845290915290205460ff1661094957600082815260c9602090815260408083206001600160a01b0385168452909152902080547fffffffffffffffffffffffffffffffffffffffffffffffffffffffffffffff00166001179055611fa53390565b6001600160a01b0316816001600160a01b0316837f2f8788117e7eff1d82e926ec794901d17c78024a50270940304540a733656f0d60405160405180910390a45050565b60006107d4836001600160a01b038416612509565b600082815260c9602090815260408083206001600160a01b038516845290915290205460ff161561094957600082815260c9602090815260408083206001600160a01b038516808552925280832080547fffffffffffffffffffffffffffffffffffffffffffffffffffffffffffffff0016905551339285917ff6391f5c32d9c69d2a47ea670b442974b53935d1edc7fd64eb21e047a839171b9190a45050565b60006107d4836001600160a01b038416612558565b6001600160a01b0381163b6121315760405162461bcd60e51b815260206004820152602d60248201527f455243313936373a206e657720696d706c656d656e746174696f6e206973206e60448201527f6f74206120636f6e7472616374000000000000000000000000000000000000006064820152608401610936565b7f360894a13ba1a3210667c828492db98dca3e2076cc3735a920a3ca505d382bbc80547fffffffffffffffffffffffff0000000000000000000000000000000000000000166001600160a01b0392909216919091179055565b6121938361264b565b6000825111806121a05750805b1561089257611468838361268b565b815460009081036121c257506000610705565b82546000905b8082101561220f5760006121dc838361278d565b600087815260209020909150859082015411156121fb57809150612209565b612206816001612c53565b92505b506121c8565b60008211801561223b5750836122388661222a600186612c7f565b600091825260209091200190565b54145b156122545761224b600183612c7f565b92505050610705565b509050610705565b600082600001828154811061227357612273612ccd565b9060005260206000200154905092915050565b6001600160a01b0383166122a55761229d826127a8565b6108926127db565b6001600160a01b0382166122bc5761229d836127a8565b6122c5836127a8565b610892826127a8565b60606107056001600160a01b03831660145b606060006122ef836002612d7d565b6122fa906002612c53565b67ffffffffffffffff81111561231257612312612a54565b6040519080825280601f01601f19166020018201604052801561233c576020820181803683370190505b5090507f30000000000000000000000000000000000000000000000000000000000000008160008151811061237357612373612ccd565b60200101907effffffffffffffffffffffffffffffffffffffffffffffffffffffffffffff1916908160001a9053507f7800000000000000000000000000000000000000000000000000000000000000816001815181106123d6576123d6612ccd565b60200101907effffffffffffffffffffffffffffffffffffffffffffffffffffffffffffff1916908160001a9053506000612412846002612d7d565b61241d906001612c53565b90505b60018111156124ba577f303132333435363738396162636465660000000000000000000000000000000085600f166010811061245e5761245e612ccd565b1a60f81b82828151811061247457612474612ccd565b60200101907effffffffffffffffffffffffffffffffffffffffffffffffffffffffffffff1916908160001a90535060049490941c936124b381612d94565b9050612420565b5083156107d45760405162461bcd60e51b815260206004820181905260248201527f537472696e67733a20686578206c656e67746820696e73756666696369656e746044820152606401610936565b600081815260018301602052604081205461255057508154600181810184556000848152602080822090930184905584548482528286019093526040902091909155610705565b506000610705565b6000818152600183016020526040812054801561264157600061257c600183612c7f565b855490915060009061259090600190612c7f565b90508181146125f55760008660000182815481106125b0576125b0612ccd565b90600052602060002001549050808760000184815481106125d3576125d3612ccd565b6000918252602080832090910192909255918252600188019052604090208390555b855486908061260657612606612dc9565b600190038181906000526020600020016000905590558560010160008681526020019081526020016000206000905560019350505050610705565b6000915050610705565b612654816120b4565b6040516001600160a01b038216907fbc7cd75a20ee27fd9adebab32041f755214dbc6bffa90cc0225b39da2e5c2d3b90600090a250565b60606001600160a01b0383163b61270a5760405162461bcd60e51b815260206004820152602660248201527f416464726573733a2064656c65676174652063616c6c20746f206e6f6e2d636f60448201527f6e747261637400000000000000000000000000000000000000000000000000006064820152608401610936565b600080846001600160a01b0316846040516127259190612df8565b600060405180830381855af49150503d8060008114612760576040519150601f19603f3d011682016040523d82523d6000602084013e612765565b606091505b5091509150610ba68282604051806060016040528060278152602001612e15602791396127e9565b600061279c6002848418612c92565b6107d490848416612c53565b6001600160a01b0381166000908152606560209081526040808320603390925290912054610ae79190612802565b612802565b611cd360666127d660355490565b606083156127f85750816107d4565b6107d4838361284c565b600061280c611a11565b90508061281884612876565b1015610892578254600180820185556000858152602080822090930193909355938401805494850181558252902090910155565b81511561285c5781518083602001fd5b8060405162461bcd60e51b81526004016109369190612926565b8054600090810361288957506000919050565b8154829061289990600190612c7f565b815481106128a9576128a9612ccd565b90600052602060002001549050919050565b919050565b6000602082840312156128d257600080fd5b81357fffffffff00000000000000000000000000000000000000000000000000000000811681146107d457600080fd5b60005b8381101561291d578181015183820152602001612905565b50506000910152565b6020815260008251806020840152612945816040850160208701612902565b601f017fffffffffffffffffffffffffffffffffffffffffffffffffffffffffffffffe0169190910160400192915050565b80356001600160a01b03811681146128bb57600080fd5b600080604083850312156129a157600080fd5b6129aa83612977565b946020939093013593505050565b6000806000606084860312156129cd57600080fd5b6129d684612977565b92506129e460208501612977565b9150604084013590509250925092565b600060208284031215612a0657600080fd5b5035919050565b60008060408385031215612a2057600080fd5b82359150612a3060208401612977565b90509250929050565b600060208284031215612a4b57600080fd5b6107d482612977565b7f4e487b7100000000000000000000000000000000000000000000000000000000600052604160045260246000fd5b60008060408385031215612a9657600080fd5b612a9f83612977565b9150602083013567ffffffffffffffff80821115612abc57600080fd5b818501915085601f830112612ad057600080fd5b813581811115612ae257612ae2612a54565b604051601f82017fffffffffffffffffffffffffffffffffffffffffffffffffffffffffffffffe0908116603f01168101908382118183101715612b2857612b28612a54565b81604052828152886020848701011115612b4157600080fd5b8260208601602083013760006020848301015280955050505050509250929050565b60008060408385031215612b7657600080fd5b50508035926020909101359150565b60008060408385031215612b9857600080fd5b612ba183612977565b9150612a3060208401612977565b600181811c90821680612bc357607f821691505b602082108103612bfc577f4e487b7100000000000000000000000000000000000000000000000000000000600052602260045260246000fd5b50919050565b600060208284031215612c1457600080fd5b815180151581146107d457600080fd5b7f4e487b7100000000000000000000000000000000000000000000000000000000600052601160045260246000fd5b8082018082111561070557610705612c24565b600060208284031215612c7857600080fd5b5051919050565b8181038181111561070557610705612c24565b600082612cc8577f4e487b7100000000000000000000000000000000000000000000000000000000600052601260045260246000fd5b500490565b7f4e487b7100000000000000000000000000000000000000000000000000000000600052603260045260246000fd5b7f416363657373436f6e74726f6c3a206163636f756e7420000000000000000000815260008351612d34816017850160208801612902565b7f206973206d697373696e6720726f6c65200000000000000000000000000000006017918401918201528351612d71816028840160208801612902565b01602801949350505050565b808202811582820484141761070557610705612c24565b600081612da357612da3612c24565b507fffffffffffffffffffffffffffffffffffffffffffffffffffffffffffffffff0190565b7f4e487b7100000000000000000000000000000000000000000000000000000000600052603160045260246000fd5b60008251612e0a818460208701612902565b919091019291505056fe416464726573733a206c6f772d6c6576656c2064656c65676174652063616c6c206661696c6564a2646970667358221220a0b0bd18bb6c48c1e5944a2db92a5be7f654d21608e7fe9972a4b865ca137fe364736f6c63430008110033",
  "linkReferences": {},
  "deployedLinkReferences": {}
}