{
  "_format": "hh-sol-artifact-1",
  "contractName": "ReceiverStaking",
  "sourceName": "contracts/staking/ReceiverStaking.sol",
  "abi": [
    {
      "inputs": [
        {
          "internalType": "uint256",
          "name": "_startTime",
          "type": "uint256"
        },
        {
          "internalType": "uint256",
          "name": "_epochLength",
          "type": "uint256"
        },
        {
          "internalType": "address",
          "name": "_stakingToken",
          "type": "address"
        }
      ],
      "stateMutability": "nonpayable",
      "type": "constructor"
    },
    {
      "anonymous": false,
      "inputs": [
        {
          "indexed": false,
          "internalType": "address",
          "name": "previousAdmin",
          "type": "address"
        },
        {
          "indexed": false,
          "internalType": "address",
          "name": "newAdmin",
          "type": "address"
        }
      ],
      "name": "AdminChanged",
      "type": "event"
    },
    {
      "anonymous": false,
      "inputs": [
        {
          "indexed": true,
          "internalType": "address",
          "name": "owner",
          "type": "address"
        },
        {
          "indexed": true,
          "internalType": "address",
          "name": "spender",
          "type": "address"
        },
        {
          "indexed": false,
          "internalType": "uint256",
          "name": "value",
          "type": "uint256"
        }
      ],
      "name": "Approval",
      "type": "event"
    },
    {
      "anonymous": false,
      "inputs": [
        {
          "indexed": true,
          "internalType": "address",
          "name": "beacon",
          "type": "address"
        }
      ],
      "name": "BeaconUpgraded",
      "type": "event"
    },
    {
      "anonymous": false,
      "inputs": [
        {
          "indexed": false,
          "internalType": "uint8",
          "name": "version",
          "type": "uint8"
        }
      ],
      "name": "Initialized",
      "type": "event"
    },
    {
      "anonymous": false,
      "inputs": [
        {
          "indexed": true,
          "internalType": "bytes32",
          "name": "role",
          "type": "bytes32"
        },
        {
          "indexed": true,
          "internalType": "bytes32",
          "name": "previousAdminRole",
          "type": "bytes32"
        },
        {
          "indexed": true,
          "internalType": "bytes32",
          "name": "newAdminRole",
          "type": "bytes32"
        }
      ],
      "name": "RoleAdminChanged",
      "type": "event"
    },
    {
      "anonymous": false,
      "inputs": [
        {
          "indexed": true,
          "internalType": "bytes32",
          "name": "role",
          "type": "bytes32"
        },
        {
          "indexed": true,
          "internalType": "address",
          "name": "account",
          "type": "address"
        },
        {
          "indexed": true,
          "internalType": "address",
          "name": "sender",
          "type": "address"
        }
      ],
      "name": "RoleGranted",
      "type": "event"
    },
    {
      "anonymous": false,
      "inputs": [
        {
          "indexed": true,
          "internalType": "bytes32",
          "name": "role",
          "type": "bytes32"
        },
        {
          "indexed": true,
          "internalType": "address",
          "name": "account",
          "type": "address"
        },
        {
          "indexed": true,
          "internalType": "address",
          "name": "sender",
          "type": "address"
        }
      ],
      "name": "RoleRevoked",
      "type": "event"
    },
    {
      "anonymous": false,
      "inputs": [
        {
          "indexed": false,
          "internalType": "address",
          "name": "staker",
          "type": "address"
        },
        {
          "indexed": false,
          "internalType": "address",
          "name": "signer",
          "type": "address"
        }
      ],
      "name": "SignerUpdated",
      "type": "event"
    },
    {
      "anonymous": false,
      "inputs": [
        {
          "indexed": false,
          "internalType": "uint256",
          "name": "id",
          "type": "uint256"
        }
      ],
      "name": "Snapshot",
      "type": "event"
    },
    {
      "anonymous": false,
      "inputs": [
        {
          "indexed": true,
          "internalType": "address",
          "name": "from",
          "type": "address"
        },
        {
          "indexed": true,
          "internalType": "address",
          "name": "to",
          "type": "address"
        },
        {
          "indexed": false,
          "internalType": "uint256",
          "name": "value",
          "type": "uint256"
        }
      ],
      "name": "Transfer",
      "type": "event"
    },
    {
      "anonymous": false,
      "inputs": [
        {
          "indexed": true,
          "internalType": "address",
          "name": "implementation",
          "type": "address"
        }
      ],
      "name": "Upgraded",
      "type": "event"
    },
    {
      "inputs": [],
      "name": "DEFAULT_ADMIN_ROLE",
      "outputs": [
        {
          "internalType": "bytes32",
          "name": "",
          "type": "bytes32"
        }
      ],
      "stateMutability": "view",
      "type": "function"
    },
    {
      "inputs": [],
      "name": "EPOCH_LENGTH",
      "outputs": [
        {
          "internalType": "uint256",
          "name": "",
          "type": "uint256"
        }
      ],
      "stateMutability": "view",
      "type": "function"
    },
    {
      "inputs": [],
      "name": "STAKING_TOKEN",
      "outputs": [
        {
          "internalType": "contract IERC20Upgradeable",
          "name": "",
          "type": "address"
        }
      ],
      "stateMutability": "view",
      "type": "function"
    },
    {
      "inputs": [],
      "name": "START_TIME",
      "outputs": [
        {
          "internalType": "uint256",
          "name": "",
          "type": "uint256"
        }
      ],
      "stateMutability": "view",
      "type": "function"
    },
    {
      "inputs": [
        {
          "internalType": "address",
          "name": "owner",
          "type": "address"
        },
        {
          "internalType": "address",
          "name": "spender",
          "type": "address"
        }
      ],
      "name": "allowance",
      "outputs": [
        {
          "internalType": "uint256",
          "name": "",
          "type": "uint256"
        }
      ],
      "stateMutability": "view",
      "type": "function"
    },
    {
      "inputs": [
        {
          "internalType": "address",
          "name": "spender",
          "type": "address"
        },
        {
          "internalType": "uint256",
          "name": "amount",
          "type": "uint256"
        }
      ],
      "name": "approve",
      "outputs": [
        {
          "internalType": "bool",
          "name": "",
          "type": "bool"
        }
      ],
      "stateMutability": "nonpayable",
      "type": "function"
    },
    {
      "inputs": [
        {
          "internalType": "address",
          "name": "account",
          "type": "address"
        }
      ],
      "name": "balanceOf",
      "outputs": [
        {
          "internalType": "uint256",
          "name": "",
          "type": "uint256"
        }
      ],
      "stateMutability": "view",
      "type": "function"
    },
    {
      "inputs": [
        {
          "internalType": "address",
          "name": "account",
          "type": "address"
        },
        {
          "internalType": "uint256",
          "name": "snapshotId",
          "type": "uint256"
        }
      ],
      "name": "balanceOfAt",
      "outputs": [
        {
          "internalType": "uint256",
          "name": "",
          "type": "uint256"
        }
      ],
      "stateMutability": "view",
      "type": "function"
    },
    {
      "inputs": [
        {
          "internalType": "address",
          "name": "signer",
          "type": "address"
        },
        {
          "internalType": "uint256",
          "name": "snapshotId",
          "type": "uint256"
        }
      ],
      "name": "balanceOfSignerAt",
      "outputs": [
        {
          "internalType": "uint256",
          "name": "balance",
          "type": "uint256"
        },
        {
          "internalType": "address",
          "name": "account",
          "type": "address"
        }
      ],
      "stateMutability": "view",
      "type": "function"
    },
    {
      "inputs": [],
      "name": "decimals",
      "outputs": [
        {
          "internalType": "uint8",
          "name": "",
          "type": "uint8"
        }
      ],
      "stateMutability": "view",
      "type": "function"
    },
    {
      "inputs": [
        {
          "internalType": "address",
          "name": "spender",
          "type": "address"
        },
        {
          "internalType": "uint256",
          "name": "subtractedValue",
          "type": "uint256"
        }
      ],
      "name": "decreaseAllowance",
      "outputs": [
        {
          "internalType": "bool",
          "name": "",
          "type": "bool"
        }
      ],
      "stateMutability": "nonpayable",
      "type": "function"
    },
    {
      "inputs": [
        {
          "internalType": "address",
          "name": "stakeFor",
          "type": "address"
        },
        {
          "internalType": "uint256",
          "name": "amount",
          "type": "uint256"
        }
      ],
      "name": "deposit",
      "outputs": [],
      "stateMutability": "nonpayable",
      "type": "function"
    },
    {
      "inputs": [
        {
          "internalType": "uint256",
          "name": "amount",
          "type": "uint256"
        },
        {
          "internalType": "address",
          "name": "_signer",
          "type": "address"
        }
      ],
      "name": "deposit",
      "outputs": [],
      "stateMutability": "nonpayable",
      "type": "function"
    },
    {
      "inputs": [
        {
          "internalType": "uint256",
          "name": "amount",
          "type": "uint256"
        }
      ],
      "name": "deposit",
      "outputs": [],
      "stateMutability": "nonpayable",
      "type": "function"
    },
    {
      "inputs": [
        {
          "internalType": "uint256",
          "name": "epoch",
          "type": "uint256"
        }
      ],
      "name": "getEpochInfo",
      "outputs": [
        {
          "internalType": "uint256",
          "name": "totalStake",
          "type": "uint256"
        },
        {
          "internalType": "uint256",
          "name": "currentEpoch",
          "type": "uint256"
        }
      ],
      "stateMutability": "view",
      "type": "function"
    },
    {
      "inputs": [
        {
          "internalType": "bytes32",
          "name": "role",
          "type": "bytes32"
        }
      ],
      "name": "getRoleAdmin",
      "outputs": [
        {
          "internalType": "bytes32",
          "name": "",
          "type": "bytes32"
        }
      ],
      "stateMutability": "view",
      "type": "function"
    },
    {
      "inputs": [
        {
          "internalType": "bytes32",
          "name": "role",
          "type": "bytes32"
        },
        {
          "internalType": "uint256",
          "name": "index",
          "type": "uint256"
        }
      ],
      "name": "getRoleMember",
      "outputs": [
        {
          "internalType": "address",
          "name": "",
          "type": "address"
        }
      ],
      "stateMutability": "view",
      "type": "function"
    },
    {
      "inputs": [
        {
          "internalType": "bytes32",
          "name": "role",
          "type": "bytes32"
        }
      ],
      "name": "getRoleMemberCount",
      "outputs": [
        {
          "internalType": "uint256",
          "name": "",
          "type": "uint256"
        }
      ],
      "stateMutability": "view",
      "type": "function"
    },
    {
      "inputs": [
        {
          "internalType": "bytes32",
          "name": "role",
          "type": "bytes32"
        },
        {
          "internalType": "address",
          "name": "account",
          "type": "address"
        }
      ],
      "name": "grantRole",
      "outputs": [],
      "stateMutability": "nonpayable",
      "type": "function"
    },
    {
      "inputs": [
        {
          "internalType": "bytes32",
          "name": "role",
          "type": "bytes32"
        },
        {
          "internalType": "address",
          "name": "account",
          "type": "address"
        }
      ],
      "name": "hasRole",
      "outputs": [
        {
          "internalType": "bool",
          "name": "",
          "type": "bool"
        }
      ],
      "stateMutability": "view",
      "type": "function"
    },
    {
      "inputs": [
        {
          "internalType": "address",
          "name": "spender",
          "type": "address"
        },
        {
          "internalType": "uint256",
          "name": "addedValue",
          "type": "uint256"
        }
      ],
      "name": "increaseAllowance",
      "outputs": [
        {
          "internalType": "bool",
          "name": "",
          "type": "bool"
        }
      ],
      "stateMutability": "nonpayable",
      "type": "function"
    },
    {
      "inputs": [
        {
          "internalType": "address",
          "name": "_admin",
          "type": "address"
        }
      ],
      "name": "initialize",
      "outputs": [],
      "stateMutability": "nonpayable",
      "type": "function"
    },
    {
      "inputs": [],
      "name": "name",
      "outputs": [
        {
          "internalType": "string",
          "name": "",
          "type": "string"
        }
      ],
      "stateMutability": "view",
      "type": "function"
    },
    {
      "inputs": [],
      "name": "proxiableUUID",
      "outputs": [
        {
          "internalType": "bytes32",
          "name": "",
          "type": "bytes32"
        }
      ],
      "stateMutability": "view",
      "type": "function"
    },
    {
      "inputs": [],
      "name": "removeSigner",
      "outputs": [],
      "stateMutability": "nonpayable",
      "type": "function"
    },
    {
      "inputs": [
        {
          "internalType": "bytes32",
          "name": "role",
          "type": "bytes32"
        },
        {
          "internalType": "address",
          "name": "account",
          "type": "address"
        }
      ],
      "name": "renounceRole",
      "outputs": [],
      "stateMutability": "nonpayable",
      "type": "function"
    },
    {
      "inputs": [
        {
          "internalType": "bytes32",
          "name": "role",
          "type": "bytes32"
        },
        {
          "internalType": "address",
          "name": "account",
          "type": "address"
        }
      ],
      "name": "revokeRole",
      "outputs": [],
      "stateMutability": "nonpayable",
      "type": "function"
    },
    {
      "inputs": [
        {
          "internalType": "address",
          "name": "_signer",
          "type": "address"
        }
      ],
      "name": "setSigner",
      "outputs": [],
      "stateMutability": "nonpayable",
      "type": "function"
    },
    {
      "inputs": [
        {
          "internalType": "address",
          "name": "",
          "type": "address"
        }
      ],
      "name": "signerToStaker",
      "outputs": [
        {
          "internalType": "address",
          "name": "",
          "type": "address"
        }
      ],
      "stateMutability": "view",
      "type": "function"
    },
    {
      "inputs": [
        {
          "internalType": "address",
          "name": "",
          "type": "address"
        }
      ],
      "name": "stakerToSigner",
      "outputs": [
        {
          "internalType": "address",
          "name": "",
          "type": "address"
        }
      ],
      "stateMutability": "view",
      "type": "function"
    },
    {
      "inputs": [
        {
          "internalType": "bytes4",
          "name": "interfaceId",
          "type": "bytes4"
        }
      ],
      "name": "supportsInterface",
      "outputs": [
        {
          "internalType": "bool",
          "name": "",
          "type": "bool"
        }
      ],
      "stateMutability": "view",
      "type": "function"
    },
    {
      "inputs": [],
      "name": "symbol",
      "outputs": [
        {
          "internalType": "string",
          "name": "",
          "type": "string"
        }
      ],
      "stateMutability": "view",
      "type": "function"
    },
    {
      "inputs": [],
      "name": "totalSupply",
      "outputs": [
        {
          "internalType": "uint256",
          "name": "",
          "type": "uint256"
        }
      ],
      "stateMutability": "view",
      "type": "function"
    },
    {
      "inputs": [
        {
          "internalType": "uint256",
          "name": "snapshotId",
          "type": "uint256"
        }
      ],
      "name": "totalSupplyAt",
      "outputs": [
        {
          "internalType": "uint256",
          "name": "",
          "type": "uint256"
        }
      ],
      "stateMutability": "view",
      "type": "function"
    },
    {
      "inputs": [
        {
          "internalType": "address",
          "name": "to",
          "type": "address"
        },
        {
          "internalType": "uint256",
          "name": "amount",
          "type": "uint256"
        }
      ],
      "name": "transfer",
      "outputs": [
        {
          "internalType": "bool",
          "name": "",
          "type": "bool"
        }
      ],
      "stateMutability": "nonpayable",
      "type": "function"
    },
    {
      "inputs": [
        {
          "internalType": "address",
          "name": "from",
          "type": "address"
        },
        {
          "internalType": "address",
          "name": "to",
          "type": "address"
        },
        {
          "internalType": "uint256",
          "name": "amount",
          "type": "uint256"
        }
      ],
      "name": "transferFrom",
      "outputs": [
        {
          "internalType": "bool",
          "name": "",
          "type": "bool"
        }
      ],
      "stateMutability": "nonpayable",
      "type": "function"
    },
    {
      "inputs": [
        {
          "internalType": "address",
          "name": "_signer",
          "type": "address"
        }
      ],
      "name": "updateSigner",
      "outputs": [],
      "stateMutability": "nonpayable",
      "type": "function"
    },
    {
      "inputs": [
        {
          "internalType": "address",
          "name": "newImplementation",
          "type": "address"
        }
      ],
      "name": "upgradeTo",
      "outputs": [],
      "stateMutability": "nonpayable",
      "type": "function"
    },
    {
      "inputs": [
        {
          "internalType": "address",
          "name": "newImplementation",
          "type": "address"
        },
        {
          "internalType": "bytes",
          "name": "data",
          "type": "bytes"
        }
      ],
      "name": "upgradeToAndCall",
      "outputs": [],
      "stateMutability": "payable",
      "type": "function"
    },
    {
      "inputs": [
        {
          "internalType": "uint256",
          "name": "amount",
          "type": "uint256"
        }
      ],
      "name": "withdraw",
      "outputs": [],
      "stateMutability": "nonpayable",
      "type": "function"
    }
  ],
  "bytecode": "0x6101006040523073ffffffffffffffffffffffffffffffffffffffff1660809073ffffffffffffffffffffffffffffffffffffffff168152503480156200004557600080fd5b50604051620078303803806200783083398181016040528101906200006b91906200043a565b60008060019054906101000a900460ff161590508080156200009d5750600160008054906101000a900460ff1660ff16105b80620000d95750620000ba306200036f60201b62002f1f1760201c565b158015620000d85750600160008054906101000a900460ff1660ff16145b5b6200011b576040517f08c379a000000000000000000000000000000000000000000000000000000000815260040162000112906200051d565b60405180910390fd5b60016000806101000a81548160ff021916908360ff160217905550801562000159576001600060016101000a81548160ff0219169083151502179055505b6200018d7f38276ec83b3abe893e9414580cf4365c06470c62a11ab69b65ad165c424fc22d60001b6200039260201b60201c565b620001c17fb03cf5344273713e446504b9970d280c080804b371ebb09b7472bcc3efa703ac60001b6200039260201b60201c565b620001f57f3fae0b1945bb4508e2a842ea19f2e8f044072e68c8011e7df44de3ab0978884660001b6200039260201b60201c565b8360a08181525050620002317f5fd0b0bf9e61ede6d2a14654f4e2fa049c718cec15a3b3c6aeec412d4e816f3260001b6200039260201b60201c565b620002657f3d18442d23509caa9bf7b76f9d86fe13408a8c86385cdbfd1e4693a5fdea8d5460001b6200039260201b60201c565b8260c08181525050620002a17feb0d54b8d5b9310ed3ead1b2805ce622e162a23a93fea5b41e8c3fd0d3e5500360001b6200039260201b60201c565b620002d57fc5157aa8598eff3c16094b6f873dc2958cb850b856d15b15105c2c490c3922a960001b6200039260201b60201c565b8173ffffffffffffffffffffffffffffffffffffffff1660e08173ffffffffffffffffffffffffffffffffffffffff16815250508015620003655760008060016101000a81548160ff0219169083151502179055507f7f26b83ff96e1f2b6a682f133852f6798a09c465da95921460cefb384740249860016040516200035c919062000599565b60405180910390a15b50505050620005b6565b6000808273ffffffffffffffffffffffffffffffffffffffff163b119050919050565b50565b600080fd5b6000819050919050565b620003af816200039a565b8114620003bb57600080fd5b50565b600081519050620003cf81620003a4565b92915050565b600073ffffffffffffffffffffffffffffffffffffffff82169050919050565b60006200040282620003d5565b9050919050565b6200041481620003f5565b81146200042057600080fd5b50565b600081519050620004348162000409565b92915050565b60008060006060848603121562000456576200045562000395565b5b60006200046686828701620003be565b93505060206200047986828701620003be565b92505060406200048c8682870162000423565b9150509250925092565b600082825260208201905092915050565b7f496e697469616c697a61626c653a20636f6e747261637420697320616c72656160008201527f647920696e697469616c697a6564000000000000000000000000000000000000602082015250565b600062000505602e8362000496565b91506200051282620004a7565b604082019050919050565b600060208201905081810360008301526200053881620004f6565b9050919050565b6000819050919050565b600060ff82169050919050565b6000819050919050565b6000620005816200057b62000575846200053f565b62000556565b62000549565b9050919050565b620005938162000560565b82525050565b6000602082019050620005b0600083018462000588565b92915050565b60805160a05160c05160e0516172016200062f60003960008181610b0101528181610e6f0152613c60015260008181612757015261321a015260008181612efd0152818161323b0152614384015260008181610fbf0152818161104d015281816112a80152818161133601526113e601526172016000f3fe6080604052600436106102bb5760003560e01c80636e553f651161016e578063ac4746ab116100cb578063c7bcae781161007f578063d547741f11610064578063d547741f146109f4578063dd62ed3e14610a1d578063ddaa26ad14610a5a576102bb565b8063c7bcae781461097a578063ca15c873146109b7576102bb565b8063b6b55f25116100b0578063b6b55f25146108ea578063c4d66de814610913578063c64ea9821461093c576102bb565b8063ac4746ab14610882578063ad5a98c5146108ad576102bb565b8063981b24d011610122578063a457c2d711610107578063a457c2d7146107df578063a7ecd37e1461081c578063a9059cbb14610845576102bb565b8063981b24d014610777578063a217fddf146107b4576102bb565b80639010d07c116101535780639010d07c146106d257806391d148541461070f57806395d89b411461074c576102bb565b80636e553f651461066c57806370a0823114610695576102bb565b8063313ce5671161021c5780634ee2cd7e116101d057806352d1902d116101b557806352d1902d14610601578063578c7a831461062c5780636c19e78314610643576102bb565b80634ee2cd7e146105a85780634f1ef286146105e5576102bb565b80633659cfe6116102015780633659cfe614610519578063395093511461054257806347e7ef241461057f576102bb565b8063313ce567146104c557806336568abe146104f0576102bb565b806318160ddd11610273578063248a9ca311610258578063248a9ca3146104365780632e1a7d4d146104735780632f2ff15d1461049c576102bb565b806318160ddd146103ce57806323b872dd146103f9576102bb565b806306fdde03116102a457806306fdde0314610328578063095ea7b314610353578063135022c214610390576102bb565b806301ffc9a7146102c05780630479d644146102fd575b600080fd5b3480156102cc57600080fd5b506102e760048036038101906102e29190615685565b610a85565b6040516102f491906156cd565b60405180910390f35b34801561030957600080fd5b50610312610aff565b60405161031f9190615767565b60405180910390f35b34801561033457600080fd5b5061033d610b23565b60405161034a9190615812565b60405180910390f35b34801561035f57600080fd5b5061037a600480360381019061037591906158a8565b610bb5565b60405161038791906156cd565b60405180910390f35b34801561039c57600080fd5b506103b760048036038101906103b291906158e8565b610bd8565b6040516103c5929190615924565b60405180910390f35b3480156103da57600080fd5b506103e3610cd1565b6040516103f0919061594d565b60405180910390f35b34801561040557600080fd5b50610420600480360381019061041b9190615968565b610cdb565b60405161042d91906156cd565b60405180910390f35b34801561044257600080fd5b5061045d600480360381019061045891906159f1565b610d0a565b60405161046a9190615a2d565b60405180910390f35b34801561047f57600080fd5b5061049a600480360381019061049591906158e8565b610d2a565b005b3480156104a857600080fd5b506104c360048036038101906104be9190615a48565b610f10565b005b3480156104d157600080fd5b506104da610f31565b6040516104e79190615aa4565b60405180910390f35b3480156104fc57600080fd5b5061051760048036038101906105129190615a48565b610f3a565b005b34801561052557600080fd5b50610540600480360381019061053b9190615abf565b610fbd565b005b34801561054e57600080fd5b50610569600480360381019061056491906158a8565b611145565b60405161057691906156cd565b60405180910390f35b34801561058b57600080fd5b506105a660048036038101906105a191906158a8565b61117c565b005b3480156105b457600080fd5b506105cf60048036038101906105ca91906158a8565b61120e565b6040516105dc919061594d565b60405180910390f35b6105ff60048036038101906105fa9190615c21565b6112a6565b005b34801561060d57600080fd5b506106166113e2565b6040516106239190615a2d565b60405180910390f35b34801561063857600080fd5b5061064161149b565b005b34801561064f57600080fd5b5061066a60048036038101906106659190615abf565b611856565b005b34801561067857600080fd5b50610693600480360381019061068e9190615c7d565b611dc2565b005b3480156106a157600080fd5b506106bc60048036038101906106b79190615abf565b611eb5565b6040516106c9919061594d565b60405180910390f35b3480156106de57600080fd5b506106f960048036038101906106f49190615cbd565b611efe565b6040516107069190615d0c565b60405180910390f35b34801561071b57600080fd5b5061073660048036038101906107319190615a48565b611f2d565b60405161074391906156cd565b60405180910390f35b34801561075857600080fd5b50610761611f98565b60405161076e9190615812565b60405180910390f35b34801561078357600080fd5b5061079e600480360381019061079991906158e8565b61202a565b6040516107ab919061594d565b60405180910390f35b3480156107c057600080fd5b506107c961205b565b6040516107d69190615a2d565b60405180910390f35b3480156107eb57600080fd5b50610806600480360381019061080191906158a8565b612062565b60405161081391906156cd565b60405180910390f35b34801561082857600080fd5b50610843600480360381019061083e9190615abf565b6120d9565b005b34801561085157600080fd5b5061086c600480360381019061086791906158a8565b612732565b60405161087991906156cd565b60405180910390f35b34801561088e57600080fd5b50610897612755565b6040516108a4919061594d565b60405180910390f35b3480156108b957600080fd5b506108d460048036038101906108cf9190615abf565b612779565b6040516108e19190615d0c565b60405180910390f35b3480156108f657600080fd5b50610911600480360381019061090c91906158e8565b6127ad565b005b34801561091f57600080fd5b5061093a60048036038101906109359190615abf565b61283e565b005b34801561094857600080fd5b50610963600480360381019061095e91906158a8565b612ca6565b604051610971929190615d27565b60405180910390f35b34801561098657600080fd5b506109a1600480360381019061099c9190615abf565b612dfb565b6040516109ae9190615d0c565b60405180910390f35b3480156109c357600080fd5b506109de60048036038101906109d991906159f1565b612e2f565b6040516109eb919061594d565b60405180910390f35b348015610a0057600080fd5b50610a1b6004803603810190610a169190615a48565b612e53565b005b348015610a2957600080fd5b50610a446004803603810190610a3f9190615d50565b612e74565b604051610a51919061594d565b60405180910390f35b348015610a6657600080fd5b50610a6f612efb565b604051610a7c919061594d565b60405180910390f35b60007f5a05180f000000000000000000000000000000000000000000000000000000007bffffffffffffffffffffffffffffffffffffffffffffffffffffffff1916827bffffffffffffffffffffffffffffffffffffffffffffffffffffffff19161480610af85750610af782612f42565b5b9050919050565b7f000000000000000000000000000000000000000000000000000000000000000081565b606060368054610b3290615dbf565b80601f0160208091040260200160405190810160405280929190818152602001828054610b5e90615dbf565b8015610bab5780601f10610b8057610100808354040283529160200191610bab565b820191906000526020600020905b815481529060010190602001808311610b8e57829003601f168201915b5050505050905090565b600080610bc0612fbc565b9050610bcd818585612fc4565b600191505092915050565b600080610c077ff97263b658e85bcf22909ff818c63640ae0747715af9cce80e3dbf9212269c1a60001b61318d565b610c337fd909bd69f5da4e2daced10e1120fa773938acd63afb6fcbc5b83c5b740a5146460001b61318d565b610c5f7f80276d0d0fe95a5963ebcbfe2d9e5973a9f7655ef9849047581091f07679bbaf60001b61318d565b610c688361202a565b9150610c967f077ca79947518035e398554eec6b023efe198343623ea0a284046e0e90ebc75860001b61318d565b610cc27f312108f90d1155afb17a19ca3f25b0794862ecd1a6516e7512fdecece3c6569760001b61318d565b610cca613190565b9050915091565b6000603554905090565b600080610ce6612fbc565b9050610cf385828561327e565b610cfe85858561330a565b60019150509392505050565b600060c96000838152602001908152602001600020600101549050919050565b610d567fe40cca51c36dd81482d0e2055728f917c052be6d888b23781ec8971f383c6ffa60001b61318d565b610d827f9295d311f61a18fb417ce37a4dda039c1e869ccce6f36a6d8ccb30321db3499560001b61318d565b610dae7f8fb2236c7ee2726829d7ef137b77dd675e985f02f8350ffda8c4df289fc4df5b60001b61318d565b6000339050610ddf7fd87a302a7efcbe1f1a657f93a0232b6515940dd5e1511051327233ac9f4f110260001b61318d565b610e0b7ff9a18455b4d59dbc549a8333437ab8fc8a1d32f3e34b0e1837a2fd5de9157c7960001b61318d565b610e158183613583565b610e417f43bb66588ca83e6f1e2225f6ded41b19a471a002107b159e470e39785e6a938660001b61318d565b610e6d7f28c8703440268e0f916e13a3f984dafa83fdb348aa51ec21b970e004c50d1da860001b61318d565b7f000000000000000000000000000000000000000000000000000000000000000073ffffffffffffffffffffffffffffffffffffffff1663a9059cbb82846040518363ffffffff1660e01b8152600401610ec8929190615df0565b6020604051808303816000875af1158015610ee7573d6000803e3d6000fd5b505050506040513d601f19601f82011682018060405250810190610f0b9190615e45565b505050565b610f1982610d0a565b610f2281613752565b610f2c8383613766565b505050565b60006012905090565b610f42612fbc565b73ffffffffffffffffffffffffffffffffffffffff168173ffffffffffffffffffffffffffffffffffffffff1614610faf576040517f08c379a0000000000000000000000000000000000000000000000000000000008152600401610fa690615ee4565b60405180910390fd5b610fb9828261379a565b5050565b7f000000000000000000000000000000000000000000000000000000000000000073ffffffffffffffffffffffffffffffffffffffff163073ffffffffffffffffffffffffffffffffffffffff160361104b576040517f08c379a000000000000000000000000000000000000000000000000000000000815260040161104290615f76565b60405180910390fd5b7f000000000000000000000000000000000000000000000000000000000000000073ffffffffffffffffffffffffffffffffffffffff1661108a6137ce565b73ffffffffffffffffffffffffffffffffffffffff16146110e0576040517f08c379a00000000000000000000000000000000000000000000000000000000081526004016110d790616008565b60405180910390fd5b6110e981613825565b61114281600067ffffffffffffffff81111561110857611107615af6565b5b6040519080825280601f01601f19166020018201604052801561113a5781602001600182028036833780820191505090505b506000613979565b50565b600080611150612fbc565b90506111718185856111628589612e74565b61116c9190616057565b612fc4565b600191505092915050565b6111a87fec03c4f5205d9533549fde31764c475d1dc0f7a54cadd4109545d7d8efe0e84560001b61318d565b6111d47fae18f071589f83a4ccdc454bfece087829bfdcd9714fdcdf781c8e4f9de8fe9860001b61318d565b6112007f7b648ed0a2510384822e1592dd2955585c72d4c5edb4b79dc8d5eaab133ca29d60001b61318d565b61120a8282613ae7565b5050565b600061123c7f612b66fcb5964a2ad36f5eae5d6b3e63981e4603a3645be51748bede48e8ec0b60001b61318d565b6112687f764ede0d9685be5f3d456381aa22bd2e7ac508e4da20e4024bccdcd65cdb805e60001b61318d565b6112947f9a6a9ed52a75abb446cef1ba02c1aeb6d36ac6291ffe66535e17e81da074edf060001b61318d565b61129e8383613d65565b905092915050565b7f000000000000000000000000000000000000000000000000000000000000000073ffffffffffffffffffffffffffffffffffffffff163073ffffffffffffffffffffffffffffffffffffffff1603611334576040517f08c379a000000000000000000000000000000000000000000000000000000000815260040161132b90615f76565b60405180910390fd5b7f000000000000000000000000000000000000000000000000000000000000000073ffffffffffffffffffffffffffffffffffffffff166113736137ce565b73ffffffffffffffffffffffffffffffffffffffff16146113c9576040517f08c379a00000000000000000000000000000000000000000000000000000000081526004016113c090616008565b60405180910390fd5b6113d282613825565b6113de82826001613979565b5050565b60007f000000000000000000000000000000000000000000000000000000000000000073ffffffffffffffffffffffffffffffffffffffff163073ffffffffffffffffffffffffffffffffffffffff1614611472576040517f08c379a0000000000000000000000000000000000000000000000000000000008152600401611469906160fd565b60405180910390fd5b7f360894a13ba1a3210667c828492db98dca3e2076cc3735a920a3ca505d382bbc60001b905090565b6114c77f5407a28733b2450408d83073edcfe5bf79958a21e68a698f08bb99b552b7498060001b61318d565b6114f37ff7916dfaab2b0020e337f3b949c36397df1d492e843b010564e639943bc8d51b60001b61318d565b61151f7fa389b8c6cbce3bee3b22812a16e69eda46b0d356698228e9a982431dab66246f60001b61318d565b600061038660003373ffffffffffffffffffffffffffffffffffffffff1673ffffffffffffffffffffffffffffffffffffffff16815260200190815260200160002060009054906101000a900473ffffffffffffffffffffffffffffffffffffffff1690506115b07fc4ac23e8f2d97685e8f7841b70520fc1a0543c00992c666309ccf647a55958af60001b61318d565b6115dc7f0ad0769f453356d3cba71e8fbcc6ddab067137d8ea923ecef7abd1556b8c67d760001b61318d565b6116087f6a99775d1cda97e75e03be04f0c3502b8955191df6af516e0356427e86d62a9460001b61318d565b600073ffffffffffffffffffffffffffffffffffffffff168173ffffffffffffffffffffffffffffffffffffffff1603611677576040517f08c379a000000000000000000000000000000000000000000000000000000000815260040161166e90616169565b60405180910390fd5b6116a37f7e8b9b154737df0abc51b496d258a7b596f98e3833f9f9be2ee7d59c78f7cb2560001b61318d565b6116cf7f6b6cbd57b01fea4bbd00888126fe0ca926925b683ac7c56fb2c1aeb73b9b6ef660001b61318d565b61038660003373ffffffffffffffffffffffffffffffffffffffff1673ffffffffffffffffffffffffffffffffffffffff16815260200190815260200160002060006101000a81549073ffffffffffffffffffffffffffffffffffffffff021916905561175e7f0cf3d573ed93c320dd0c74f23f353e4c2f40a2548d3c5505bf7eba1855d6dc1860001b61318d565b61038560008273ffffffffffffffffffffffffffffffffffffffff1673ffffffffffffffffffffffffffffffffffffffff16815260200190815260200160002060006101000a81549073ffffffffffffffffffffffffffffffffffffffff02191690556117ed7fa3942be8ffc936848eb471adc1ed9376fa1e10291c9c8e859d8949cd21c5bf4260001b61318d565b6118197f504f867c2b1934a45f6e89a5fd1f31b8379d7a07a9a261a09f476900d90517a360001b61318d565b7f2d025324f0a785e8c12d0a0d91a9caa49df4ef20ff87e0df7213a1d4f3157beb33600060405161184b929190616189565b60405180910390a150565b6118827fe51d0f1c4d8bf3db04089523cd3d0b30ca3d70aa71df994838980e1f3454b6f860001b61318d565b6118ae7fb05007a8ed7427097ea8c335e2101a2ca76661b53da90cfc117c175d756a7f3160001b61318d565b6118da7ffeb002e307330d00b58ebedd902f7d8ca83d97097b705b1a6d943e78260504ee60001b61318d565b6119067f8017abbce01908d71228bd9f23b290391d83d1d1c2769ef5380d12385d1d446e60001b61318d565b600073ffffffffffffffffffffffffffffffffffffffff1661038660003373ffffffffffffffffffffffffffffffffffffffff1673ffffffffffffffffffffffffffffffffffffffff16815260200190815260200160002060009054906101000a900473ffffffffffffffffffffffffffffffffffffffff1673ffffffffffffffffffffffffffffffffffffffff16146119d5576040517f08c379a00000000000000000000000000000000000000000000000000000000081526004016119cc906161fe565b60405180910390fd5b611a017f737fa400d758a5a679f292b5cc84b35e4561e8c2ac5ca71203e34604079b882960001b61318d565b611a2d7f14a07cca28febb4825114250f8ae3800f2d0c79310c4b192c9470c15be395cdd60001b61318d565b611a597ff81c05fc59ac1f3f32a17579f84cda87f691c1e546fcb4d0a89567c4a481a04d60001b61318d565b611a857f8d8985eb1511b3500ef725a978f48205258a9992aa4d71fc5f2210bed10851ac60001b61318d565b600073ffffffffffffffffffffffffffffffffffffffff1661038560008373ffffffffffffffffffffffffffffffffffffffff1673ffffffffffffffffffffffffffffffffffffffff16815260200190815260200160002060009054906101000a900473ffffffffffffffffffffffffffffffffffffffff1673ffffffffffffffffffffffffffffffffffffffff1614611b54576040517f08c379a0000000000000000000000000000000000000000000000000000000008152600401611b4b9061626a565b60405180910390fd5b611b807f8385d7e1ee90723d0a0a542e06674c2976be7bb063641453179b32b1383d415860001b61318d565b611bac7fdceec50aa49fe9779965e73512853dcf99d5edf5e939fecb204a818d6e355eec60001b61318d565b611bd87fafcc0a5db5c9440f75655350dbe86f5ce22f258f629c4c363eded5aac285260b60001b61318d565b8061038660003373ffffffffffffffffffffffffffffffffffffffff1673ffffffffffffffffffffffffffffffffffffffff16815260200190815260200160002060006101000a81548173ffffffffffffffffffffffffffffffffffffffff021916908373ffffffffffffffffffffffffffffffffffffffff160217905550611c837fc289cfe1500014172aaa390bf6868f1dcc26de81886f3c72bf53765f3db2672760001b61318d565b611caf7ff508a6d019f547717668f1167cbc40f4d91c11873ff8ec3ebdbb12b1060c111260001b61318d565b3361038560008373ffffffffffffffffffffffffffffffffffffffff1673ffffffffffffffffffffffffffffffffffffffff16815260200190815260200160002060006101000a81548173ffffffffffffffffffffffffffffffffffffffff021916908373ffffffffffffffffffffffffffffffffffffffff160217905550611d5a7fd3113d55550609ffc1edfbffc6918c226747126e94b74953e315b266a67dcf6d60001b61318d565b611d867f0210bbf5d168f20cbfdc8bc7b65948d72a0af8f5bc0ac5dcac456ebf3d63f82760001b61318d565b7f2d025324f0a785e8c12d0a0d91a9caa49df4ef20ff87e0df7213a1d4f3157beb3382604051611db7929190616189565b60405180910390a150565b611dee7f26e82ac9edd562859686c2c8f41307cb477253650ad67be4c92931f0b07210ab60001b61318d565b611e1a7fd49c09c6d463f6a1199e67b4cc8b6d6e35ce504559ae909e06d2badfe5fcd5c560001b61318d565b611e467f6ea64857c1c7097d8d4f398963f968f703291d216e8035cdf1319ce287d5d0b860001b61318d565b611e503383613ae7565b611e7c7fa81b4bf0b8941996e8fe179ab1ab4a7262a1058e3d7eeea0bdf334125a4054f860001b61318d565b611ea87f52fb909b83e91ffb923392d11ce0769df4dbe2786801e5e9943d3263bd2b08b060001b61318d565b611eb181611856565b5050565b6000603360008373ffffffffffffffffffffffffffffffffffffffff1673ffffffffffffffffffffffffffffffffffffffff168152602001908152602001600020549050919050565b6000611f258260fb6000868152602001908152602001600020613dd590919063ffffffff16565b905092915050565b600060c9600084815260200190815260200160002060000160008373ffffffffffffffffffffffffffffffffffffffff1673ffffffffffffffffffffffffffffffffffffffff16815260200190815260200160002060009054906101000a900460ff16905092915050565b606060378054611fa790615dbf565b80601f0160208091040260200160405190810160405280929190818152602001828054611fd390615dbf565b80156120205780601f10611ff557610100808354040283529160200191612020565b820191906000526020600020905b81548152906001019060200180831161200357829003601f168201915b5050505050905090565b600080600061203a846066613def565b91509150816120505761204b610cd1565b612052565b805b92505050919050565b6000801b81565b60008061206d612fbc565b9050600061207b8286612e74565b9050838110156120c0576040517f08c379a00000000000000000000000000000000000000000000000000000000081526004016120b7906162fc565b60405180910390fd5b6120cd8286868403612fc4565b60019250505092915050565b6121057f0d115be57065c2079c3e625054c3fe4dc38a53f9d489ab0b9cdc5ff88d3deaf860001b61318d565b6121317faa24a51c595d9befa34ea72bccc5651fb790151b99050fd9fbd0ba77828a8d0d60001b61318d565b61215d7f4b92346425eb2039baa044c469a0ae6a39805c61c20e06c4bf85b153baea0cad60001b61318d565b600061038660003373ffffffffffffffffffffffffffffffffffffffff1673ffffffffffffffffffffffffffffffffffffffff16815260200190815260200160002060009054906101000a900473ffffffffffffffffffffffffffffffffffffffff1690506121ee7f81ef12447999448e66033cc97b50157c2a3ea43a9e6c126d9b2f1a6875f5019760001b61318d565b61221a7f8cb1dd73bce68f34fbbf369f6756a63d5570bcb435afa8944edc1c95612143e060001b61318d565b6122467f2720da954449aa97718220cb7c0232069ca8f4def82121e2b98d34cce97a3b7460001b61318d565b600073ffffffffffffffffffffffffffffffffffffffff168173ffffffffffffffffffffffffffffffffffffffff16036122b5576040517f08c379a00000000000000000000000000000000000000000000000000000000081526004016122ac90616368565b60405180910390fd5b6122e17f21cec091ce6cc5cb8b26ef7eb5e903521c786fcd35ede3e657896813c0586b4660001b61318d565b61230d7f66e2ba52f66a1ddab158720d6056716ba49a7f357ad2f2d5d35f64fc1efb339260001b61318d565b6123397fde80941bd1e91cca3de62914673eadbabc585c0b34243fd3001991f7b72dc41c60001b61318d565b6123657fad18f07f8518f52e5cee06c7e5aad4d9f988b2733196466d2979909b96a06cb060001b61318d565b600073ffffffffffffffffffffffffffffffffffffffff1661038560008473ffffffffffffffffffffffffffffffffffffffff1673ffffffffffffffffffffffffffffffffffffffff16815260200190815260200160002060009054906101000a900473ffffffffffffffffffffffffffffffffffffffff1673ffffffffffffffffffffffffffffffffffffffff1614612434576040517f08c379a000000000000000000000000000000000000000000000000000000000815260040161242b9061626a565b60405180910390fd5b6124607f60608afeaca6952860ef14425110a0d5723768c35cf9da662128a52d36736a9560001b61318d565b61248c7f4bf2b44ebfe1dd372e9bdae70d00c27a9fa5fc72852e405ed79954bfb51e198260001b61318d565b6124b87fb502cb5b91297e59f768b470d48ab542f96d8b7a6a47caf1facce0d59c85ec1e60001b61318d565b8161038660003373ffffffffffffffffffffffffffffffffffffffff1673ffffffffffffffffffffffffffffffffffffffff16815260200190815260200160002060006101000a81548173ffffffffffffffffffffffffffffffffffffffff021916908373ffffffffffffffffffffffffffffffffffffffff1602179055506125637fee6b88e474677d4dab4adf390ac0b60b936155bdf6c6193277baabd7e4a3ac7260001b61318d565b61258f7f148ea8f07bf0727b361063f3ea5324c26771037220ce259f3f09a8f00e83deea60001b61318d565b3361038560008473ffffffffffffffffffffffffffffffffffffffff1673ffffffffffffffffffffffffffffffffffffffff16815260200190815260200160002060006101000a81548173ffffffffffffffffffffffffffffffffffffffff021916908373ffffffffffffffffffffffffffffffffffffffff16021790555061263a7f34c44209ea3a200817852b3cee2df014c7f9abb964d7b11295a6f804481252d760001b61318d565b61038560008273ffffffffffffffffffffffffffffffffffffffff1673ffffffffffffffffffffffffffffffffffffffff16815260200190815260200160002060006101000a81549073ffffffffffffffffffffffffffffffffffffffff02191690556126c97fc87eb31203cb95ae58e27e449331716616f2aecb454a9b4e8bc48ade5014decb60001b61318d565b6126f57f8e978988b2636a5c34c19297e8fea60e356dd2c5bc9f211f79fe2b961a13d65160001b61318d565b7f2d025324f0a785e8c12d0a0d91a9caa49df4ef20ff87e0df7213a1d4f3157beb3383604051612726929190616189565b60405180910390a15050565b60008061273d612fbc565b905061274a81858561330a565b600191505092915050565b7f000000000000000000000000000000000000000000000000000000000000000081565b6103856020528060005260406000206000915054906101000a900473ffffffffffffffffffffffffffffffffffffffff1681565b6127d97fd24c816387e0ee3a8efd4a2bd125fd818fbf830c9f7466b74cf2fec2830561ec60001b61318d565b6128057f6ee2d1da75369d09484bd2b80d257cc1fca935d529e944bba726b9bafb39a5d260001b61318d565b6128317f9af247918bc5325769df90bae59fde97ff6550f6130719c43c55c75e6e4126c060001b61318d565b61283b3382613ae7565b50565b60008060019054906101000a900460ff1615905080801561286f5750600160008054906101000a900460ff1660ff16105b8061289c575061287e30612f1f565b15801561289b5750600160008054906101000a900460ff1660ff16145b5b6128db576040517f08c379a00000000000000000000000000000000000000000000000000000000081526004016128d2906163fa565b60405180910390fd5b60016000806101000a81548160ff021916908360ff1602179055508015612918576001600060016101000a81548160ff0219169083151502179055505b6129447ff1788a1bb15998f33bd96a892212b8fa88d9d3d20b76e008566792736061046160001b61318d565b6129707fcac184f3f07cd91a958f07d7eeafe9f99206758e7aacdf7ec585a9781293870d60001b61318d565b61299c7fc4dc4c9ee3ede554081fae8e39953509821c49d185c99b7be565f1b7d77894b960001b61318d565b6129a4613ee4565b6129d07f14fd159a0da6ff96d2e831d8764c267d885d76c8afd55f82b0ed19a204f75bce60001b61318d565b6129fc7fb35a2d19dc1d8468160110769fab5c1aecbbf57ed9efbb61dfcf1aa3673cbe9460001b61318d565b612a04613f35565b612a307fa7415138a9db28c87d4760be78825e7c40e36a583993aed1c8ce00c657110e6360001b61318d565b612a5c7fa71800f40f1b600c269186e769741dbff32c8274f6b0c5d44d0db53e20546a3f60001b61318d565b612a64613f86565b612a907f7ab28a9c673086cfe01ae077986597a40b832e09d75923361bc991367ca9f5f360001b61318d565b612abc7f7809b4feb318d52f4721a477547422b98b3d60eb3385a27617e963140934b7cb60001b61318d565b612ac4613fd7565b612af07fee564bff7bc3cb4732faf258dcf60281522047477632659d49d9e7e3a00b1b0860001b61318d565b612b1c7fcad1f1a51e30b67dd9f38da15791a2e65701193bbd4ae62d1fa91a02050f4fca60001b61318d565b612b24614028565b612b507fe58abf2bc35fe054d6a0af3efd5ed4d4ac106e021c334d92a7d4b312cdd441d060001b61318d565b612b7c7f100596d46cf7b8f03c46a6c4cfe582c45a677d261eac2b46e6da4dbee5e9777b60001b61318d565b612b84614079565b612bb07f3d13d7cead7ae1c4ae6a0d72aa28a0fd3abde4ec79f29725f15a01b3c7162cd960001b61318d565b612bdc7f3be74e99e0f0b95fd62f14a6e658a009da86d6e4db11d37536227fa15da25de960001b61318d565b612be46140ca565b612c107f5632a6a6e796f68295c38b674febcef9f1a230eeac2f4870cc4f7a020619354360001b61318d565b612c3c7fea799eb746ae6248ae7fae28ba8a626d7b9658acd08f3482952059ff257c602d60001b61318d565b612c496000801b8361411b565b8015612ca25760008060016101000a81548160ff0219169083151502179055507f7f26b83ff96e1f2b6a682f133852f6798a09c465da95921460cefb38474024986001604051612c999190616455565b60405180910390a15b5050565b600080612cd57f7ffb6e7f831ef4f1e18c195b78ff683287c5d2ae504cd614f1e24a894b15cf9b60001b61318d565b612d017f21abc13069ff6b91e876d136ff5ad22fa42704de85f2a57d34d3651d75866f8460001b61318d565b612d2d7f750c1dd46c73403a59f29112f16c2693398783e0698b63f8e29489b16ba50cc260001b61318d565b61038560008573ffffffffffffffffffffffffffffffffffffffff1673ffffffffffffffffffffffffffffffffffffffff16815260200190815260200160002060009054906101000a900473ffffffffffffffffffffffffffffffffffffffff169050612dbc7f42af74feb27f9322ec3ef78fcf6370f3ed649c4ae015f45c6d13922d7963a27560001b61318d565b612de87ff5d75e63fc085114c74214025d41ebe3ed5ca7ff6363c7cb749b89b76fd992bc60001b61318d565b612df28184613d65565b91509250929050565b6103866020528060005260406000206000915054906101000a900473ffffffffffffffffffffffffffffffffffffffff1681565b6000612e4c60fb6000848152602001908152602001600020614129565b9050919050565b612e5c82610d0a565b612e6581613752565b612e6f838361379a565b505050565b6000603460008473ffffffffffffffffffffffffffffffffffffffff1673ffffffffffffffffffffffffffffffffffffffff16815260200190815260200160002060008373ffffffffffffffffffffffffffffffffffffffff1673ffffffffffffffffffffffffffffffffffffffff16815260200190815260200160002054905092915050565b7f000000000000000000000000000000000000000000000000000000000000000081565b6000808273ffffffffffffffffffffffffffffffffffffffff163b119050919050565b60007f7965db0b000000000000000000000000000000000000000000000000000000007bffffffffffffffffffffffffffffffffffffffffffffffffffffffff1916827bffffffffffffffffffffffffffffffffffffffffffffffffffffffff19161480612fb55750612fb48261413e565b5b9050919050565b600033905090565b600073ffffffffffffffffffffffffffffffffffffffff168373ffffffffffffffffffffffffffffffffffffffff1603613033576040517f08c379a000000000000000000000000000000000000000000000000000000000815260040161302a906164e2565b60405180910390fd5b600073ffffffffffffffffffffffffffffffffffffffff168273ffffffffffffffffffffffffffffffffffffffff16036130a2576040517f08c379a000000000000000000000000000000000000000000000000000000000815260040161309990616574565b60405180910390fd5b80603460008573ffffffffffffffffffffffffffffffffffffffff1673ffffffffffffffffffffffffffffffffffffffff16815260200190815260200160002060008473ffffffffffffffffffffffffffffffffffffffff1673ffffffffffffffffffffffffffffffffffffffff168152602001908152602001600020819055508173ffffffffffffffffffffffffffffffffffffffff168373ffffffffffffffffffffffffffffffffffffffff167f8c5be1e5ebec7d5bd14f71427d1e84f3dd0314c0f7b2291e5b200ac8c7c3b92583604051613180919061594d565b60405180910390a3505050565b50565b60006131be7fbcf763674ff1a1c568fa772f69dd667d7586a65a947992a5b825a3f4ec7d80f760001b61318d565b6131ea7fec71d987f13159c5259eacae58676047206f7f616415fc3c87a1ceb7f2ea52b560001b61318d565b6132167f8e2a8b1d588a98ab66bef6211c582012b380e9494442159fb5a050616a012e1760001b61318d565b60017f00000000000000000000000000000000000000000000000000000000000000007f0000000000000000000000000000000000000000000000000000000000000000426132659190616594565b61326f91906165f7565b6132799190616057565b905090565b600061328a8484612e74565b90507fffffffffffffffffffffffffffffffffffffffffffffffffffffffffffffffff811461330457818110156132f6576040517f08c379a00000000000000000000000000000000000000000000000000000000081526004016132ed90616674565b60405180910390fd5b6133038484848403612fc4565b5b50505050565b600073ffffffffffffffffffffffffffffffffffffffff168373ffffffffffffffffffffffffffffffffffffffff1603613379576040517f08c379a000000000000000000000000000000000000000000000000000000000815260040161337090616706565b60405180910390fd5b600073ffffffffffffffffffffffffffffffffffffffff168273ffffffffffffffffffffffffffffffffffffffff16036133e8576040517f08c379a00000000000000000000000000000000000000000000000000000000081526004016133df90616798565b60405180910390fd5b6133f38383836141a8565b6000603360008573ffffffffffffffffffffffffffffffffffffffff1673ffffffffffffffffffffffffffffffffffffffff1681526020019081526020016000205490508181101561347a576040517f08c379a00000000000000000000000000000000000000000000000000000000081526004016134719061682a565b60405180910390fd5b818103603360008673ffffffffffffffffffffffffffffffffffffffff1673ffffffffffffffffffffffffffffffffffffffff1681526020019081526020016000208190555081603360008573ffffffffffffffffffffffffffffffffffffffff1673ffffffffffffffffffffffffffffffffffffffff168152602001908152602001600020600082825401925050819055508273ffffffffffffffffffffffffffffffffffffffff168473ffffffffffffffffffffffffffffffffffffffff167fddf252ad1be2c89b69c2b068fc378daa952ba7f163c4a11628f55a4df523b3ef8460405161356a919061594d565b60405180910390a361357d84848461449c565b50505050565b600073ffffffffffffffffffffffffffffffffffffffff168273ffffffffffffffffffffffffffffffffffffffff16036135f2576040517f08c379a00000000000000000000000000000000000000000000000000000000081526004016135e9906168bc565b60405180910390fd5b6135fe826000836141a8565b6000603360008473ffffffffffffffffffffffffffffffffffffffff1673ffffffffffffffffffffffffffffffffffffffff16815260200190815260200160002054905081811015613685576040517f08c379a000000000000000000000000000000000000000000000000000000000815260040161367c9061694e565b60405180910390fd5b818103603360008573ffffffffffffffffffffffffffffffffffffffff1673ffffffffffffffffffffffffffffffffffffffff1681526020019081526020016000208190555081603560008282540392505081905550600073ffffffffffffffffffffffffffffffffffffffff168373ffffffffffffffffffffffffffffffffffffffff167fddf252ad1be2c89b69c2b068fc378daa952ba7f163c4a11628f55a4df523b3ef84604051613739919061594d565b60405180910390a361374d8360008461449c565b505050565b6137638161375e612fbc565b61483a565b50565b61377082826148bf565b6137958160fb60008581526020019081526020016000206149a090919063ffffffff16565b505050565b6137a482826149d0565b6137c98160fb6000858152602001908152602001600020614ab290919063ffffffff16565b505050565b60006137fc7f360894a13ba1a3210667c828492db98dca3e2076cc3735a920a3ca505d382bbc60001b614ae2565b60000160009054906101000a900473ffffffffffffffffffffffffffffffffffffffff16905090565b6138517f5c77627dca907509be3caa57b2a3b45c6992a6dd8523970fa5f1b0670ed3143460001b61318d565b61387d7f06c5f936c37410bcd3a4f504bb62694df264da2e400768c4068b204c672f093960001b61318d565b6138a97ff673650c3ee1b3c2686e505662b5b19ac6aa05b323ab5d7c7684e6af504a67a660001b61318d565b6138d57f15d087795fa78cf8d168b19d1f55e8fe985191886d61ca96298c626b8193fab160001b61318d565b6138e96000801b6138e4612fbc565b611f2d565b6138f257600080fd5b61391e7fdc8ae9b04fbfcb564d55ff94ca569b1073595b66e8b7dd88d59c0669570228e260001b61318d565b61394a7f3a2855b5154cc136e17a4ae30b1b7dcdd2ffc070c037864b53085681ce99b71860001b61318d565b6139767f361b4bc61c5e0e621367ebba5f31caa2e38f485d592390b5df48bbc8b996182f60001b61318d565b50565b6139a57f4910fdfa16fed3260ed0e7147f7cc6da11a60208b5b9406d12a635614ffd914360001b614aec565b60000160009054906101000a900460ff16156139c9576139c483614af6565b613ae2565b8273ffffffffffffffffffffffffffffffffffffffff166352d1902d6040518163ffffffff1660e01b8152600401602060405180830381865afa925050508015613a3157506040513d601f19601f82011682018060405250810190613a2e9190616983565b60015b613a70576040517f08c379a0000000000000000000000000000000000000000000000000000000008152600401613a6790616a22565b60405180910390fd5b7f360894a13ba1a3210667c828492db98dca3e2076cc3735a920a3ca505d382bbc60001b8114613ad5576040517f08c379a0000000000000000000000000000000000000000000000000000000008152600401613acc90616ab4565b60405180910390fd5b50613ae1838383614baf565b5b505050565b613b137f5354f5152c24b0040d1f026e2db3e7305afaf3012a6a9317731d00f55c4e99e560001b61318d565b613b3f7f5839bae316ec8b0f5489f9961fbfc069e818e8ad2ebdd816dadcad6e0ba0e47160001b61318d565b613b6b7f8211b412b6014a1e6e04b55746656a24f7d0357da24e6a18673223aabf27397d60001b61318d565b613b977fa35bf3c60c46e748e9b614734f23a8b44cdccbf0177cb5fe34e37dcc2e80cf6060001b61318d565b60008103613bda576040517f08c379a0000000000000000000000000000000000000000000000000000000008152600401613bd190616b20565b60405180910390fd5b613c067fef1d4a5efe00709e6d8eb0f3f930d377a593bea7349b568904c409de5b2399db60001b61318d565b613c327f28bef56b4116b55bb94ae97e8f4263aed1a701a75a50f8330dca84393ab6d4b160001b61318d565b613c5e7ff0205ed8688347db1e469892f4eccaa379e04d305ae3faa0cbafc98c6ca78b1060001b61318d565b7f000000000000000000000000000000000000000000000000000000000000000073ffffffffffffffffffffffffffffffffffffffff166323b872dd3330846040518463ffffffff1660e01b8152600401613cbb93929190616b40565b6020604051808303816000875af1158015613cda573d6000803e3d6000fd5b505050506040513d601f19601f82011682018060405250810190613cfe9190615e45565b50613d2b7fc8231e62b71d7db5a0d75271b387a8605c1e8854b817142c71317a5b54ee177260001b61318d565b613d577f1b5f66ff2364dd1f6dc43e56ade731bbeaeafca6e9f46a444c49ab1537f323a460001b61318d565b613d618282614bdb565b5050565b6000806000613db284606560008873ffffffffffffffffffffffffffffffffffffffff1673ffffffffffffffffffffffffffffffffffffffff168152602001908152602001600020613def565b9150915081613dc957613dc485611eb5565b613dcb565b805b9250505092915050565b6000613de48360000183614d32565b60001c905092915050565b60008060008411613e35576040517f08c379a0000000000000000000000000000000000000000000000000000000008152600401613e2c90616bc3565b60405180910390fd5b613e3d613190565b841115613e7f576040517f08c379a0000000000000000000000000000000000000000000000000000000008152600401613e7690616c2f565b60405180910390fd5b6000613e978585600001614d5d90919063ffffffff16565b905083600001805490508103613eb4576000809250925050613edd565b6001846001018281548110613ecc57613ecb616c4f565b5b906000526020600020015492509250505b9250929050565b600060019054906101000a900460ff16613f33576040517f08c379a0000000000000000000000000000000000000000000000000000000008152600401613f2a90616cf0565b60405180910390fd5b565b600060019054906101000a900460ff16613f84576040517f08c379a0000000000000000000000000000000000000000000000000000000008152600401613f7b90616cf0565b60405180910390fd5b565b600060019054906101000a900460ff16613fd5576040517f08c379a0000000000000000000000000000000000000000000000000000000008152600401613fcc90616cf0565b60405180910390fd5b565b600060019054906101000a900460ff16614026576040517f08c379a000000000000000000000000000000000000000000000000000000000815260040161401d90616cf0565b60405180910390fd5b565b600060019054906101000a900460ff16614077576040517f08c379a000000000000000000000000000000000000000000000000000000000815260040161406e90616cf0565b60405180910390fd5b565b600060019054906101000a900460ff166140c8576040517f08c379a00000000000000000000000000000000000000000000000000000000081526004016140bf90616cf0565b60405180910390fd5b565b600060019054906101000a900460ff16614119576040517f08c379a000000000000000000000000000000000000000000000000000000000815260040161411090616cf0565b60405180910390fd5b565b6141258282613766565b5050565b600061413782600001614e16565b9050919050565b60007f01ffc9a7000000000000000000000000000000000000000000000000000000007bffffffffffffffffffffffffffffffffffffffffffffffffffffffff1916827bffffffffffffffffffffffffffffffffffffffffffffffffffffffff1916149050919050565b6141d47f29f0030af6e77bc719da7e57bf62ea3a8db37ebe837a82fcef3cef5dc68fe6fd60001b61318d565b6142007f7e55594248c82974c77b9ff6538470be3290fe6d7f9300fec52622973b75900560001b61318d565b61422c7f32f6a2c1e2fc7346b474ce4f1b233b14bda3863e2de1caf65943ad19bf772c3f60001b61318d565b6142587f7f97a2ad72d9cfc263b2f88ecbd227c913a848f3e8ab04d243c18e046405fd6560001b61318d565b600073ffffffffffffffffffffffffffffffffffffffff168373ffffffffffffffffffffffffffffffffffffffff1614806142bf5750600073ffffffffffffffffffffffffffffffffffffffff168273ffffffffffffffffffffffffffffffffffffffff16145b6142fe576040517f08c379a00000000000000000000000000000000000000000000000000000000081526004016142f590616d82565b60405180910390fd5b61432a7f1fb79e4e0b02b9868a340b840d991bc0dad7c1d17c6d1f913f82c39da6723ddb60001b61318d565b6143567fdbcc63604a75d82a5c6e729486531ed33494791daa530a616eae64bbf63bef4660001b61318d565b6143827f375cb74cd04c317bd4c110fdb2e724dace135bd13b793e6f89cac5f0c3d4ea4560001b61318d565b7f0000000000000000000000000000000000000000000000000000000000000000421015614407576143d67f8c3cefa0555c25363e3a0ead7ebd24d250a48cf4c3eee41456e4ca38118840fb60001b61318d565b6144027f99458ce0fc3ed8a6ad15b0173bb8bb78af82a0bc6e93f75b39773da8cd6cfda660001b61318d565b614497565b6144337fe1d49ab4f3d078d15f0c98664cc1c66e3e49af8a0e42415e8fadc8affc7981e760001b61318d565b61445f7f5dbaabd7aea444b790a97614b0f317437d7ea391dea3ef35414f7733fef4bf4460001b61318d565b61448b7fba11890c16eeeb5642dc53f3c305b0ceb44dddf0e19e915d9c526a796081f2c760001b61318d565b614496838383614e27565b5b505050565b6144c87f73bff29bdea377be9f15b680d938246b1e8f0749bb4631e207b4cec8562ea8d660001b61318d565b6144f47fd0b5c37fd3dcfe1312fa82267c4a5ba0d154b23433f533bd6b7b415fcd756f4d60001b61318d565b6145207f624d14f9a7d41f087a60caa0a8b5a9b6721a925d82dbeb68cdb62b787d7b136160001b61318d565b600073ffffffffffffffffffffffffffffffffffffffff168273ffffffffffffffffffffffffffffffffffffffff1603614808576145807f09ecd9f1514d6b42b3796b872df50f44e6fa082989fa3208511602fe9b98c70260001b61318d565b6145ac7f3c70b3d2cf2b43a1fdde161b8e2d586138e38ee39b23a890d1fc1cc47d360d6a60001b61318d565b6145d87f382cfab0b81e75fb3f06e2a70e8cfbc44c7a28e33df0e3c9ac03994c4ac365ea60001b61318d565b60006145e384611eb5565b90506146117f418d7f48afa28659ab85a6b40e347c6d3eea593962e36f35b084c57b700d851f60001b61318d565b61463d7fa7ff93b24c9235a679d06d144700727ef71547b67b407e009dc2cf56a20201fc60001b61318d565b6000606560008673ffffffffffffffffffffffffffffffffffffffff1673ffffffffffffffffffffffffffffffffffffffff16815260200190815260200160002090506146ac7f096a87906e9a508516d52ed68cf2153bad052a90e7f679497f972a2b784c2c0260001b61318d565b6146d87fb260cd786ea779d92309fa34b72b88149e9b27402cd29fec981a4646fba202b160001b61318d565b8181600101600183600101805490506146f19190616594565b8154811061470257614701616c4f565b5b906000526020600020015411156147d45761473f7f14e5cc82e6203ffb5c688391284f04a4e0f307eee949d8377009a7d39e7e4efa60001b61318d565b61476b7f507974d6fe3de16e6fd0c20ef5687323d6f2f5999bdd488a9581f8a556d6494960001b61318d565b6147977fa5e64059f387a721a721b12640d0d3a4f2783d2d84a6574e88809865c5ae3e8260001b61318d565b8181600101600183600101805490506147b09190616594565b815481106147c1576147c0616c4f565b5b9060005260206000200181905550614801565b6148007f453ac0f3205956bd81a3f0077508aa65c5d8ab1f1df9cc8081e7fb68e614a8e460001b61318d565b5b5050614835565b6148347fbd87e7b196b935c5fe1f9cb0ac412ca64ca1a9a7c016b42c668811377a286a7260001b61318d565b5b505050565b6148448282611f2d565b6148bb5761485181614edf565b61485f8360001c6020614f0c565b604051602001614870929190616e76565b6040516020818303038152906040526040517f08c379a00000000000000000000000000000000000000000000000000000000081526004016148b29190615812565b60405180910390fd5b5050565b6148c98282611f2d565b61499c57600160c9600084815260200190815260200160002060000160008373ffffffffffffffffffffffffffffffffffffffff1673ffffffffffffffffffffffffffffffffffffffff16815260200190815260200160002060006101000a81548160ff021916908315150217905550614941612fbc565b73ffffffffffffffffffffffffffffffffffffffff168173ffffffffffffffffffffffffffffffffffffffff16837f2f8788117e7eff1d82e926ec794901d17c78024a50270940304540a733656f0d60405160405180910390a45b5050565b60006149c8836000018373ffffffffffffffffffffffffffffffffffffffff1660001b615148565b905092915050565b6149da8282611f2d565b15614aae57600060c9600084815260200190815260200160002060000160008373ffffffffffffffffffffffffffffffffffffffff1673ffffffffffffffffffffffffffffffffffffffff16815260200190815260200160002060006101000a81548160ff021916908315150217905550614a53612fbc565b73ffffffffffffffffffffffffffffffffffffffff168173ffffffffffffffffffffffffffffffffffffffff16837ff6391f5c32d9c69d2a47ea670b442974b53935d1edc7fd64eb21e047a839171b60405160405180910390a45b5050565b6000614ada836000018373ffffffffffffffffffffffffffffffffffffffff1660001b6151b8565b905092915050565b6000819050919050565b6000819050919050565b614aff81612f1f565b614b3e576040517f08c379a0000000000000000000000000000000000000000000000000000000008152600401614b3590616f22565b60405180910390fd5b80614b6b7f360894a13ba1a3210667c828492db98dca3e2076cc3735a920a3ca505d382bbc60001b614ae2565b60000160006101000a81548173ffffffffffffffffffffffffffffffffffffffff021916908373ffffffffffffffffffffffffffffffffffffffff16021790555050565b614bb8836152cc565b600082511180614bc55750805b15614bd657614bd4838361531b565b505b505050565b600073ffffffffffffffffffffffffffffffffffffffff168273ffffffffffffffffffffffffffffffffffffffff1603614c4a576040517f08c379a0000000000000000000000000000000000000000000000000000000008152600401614c4190616f8e565b60405180910390fd5b614c56600083836141a8565b8060356000828254614c689190616057565b9250508190555080603360008473ffffffffffffffffffffffffffffffffffffffff1673ffffffffffffffffffffffffffffffffffffffff168152602001908152602001600020600082825401925050819055508173ffffffffffffffffffffffffffffffffffffffff16600073ffffffffffffffffffffffffffffffffffffffff167fddf252ad1be2c89b69c2b068fc378daa952ba7f163c4a11628f55a4df523b3ef83604051614d1a919061594d565b60405180910390a3614d2e6000838361449c565b5050565b6000826000018281548110614d4a57614d49616c4f565b5b9060005260206000200154905092915050565b600080838054905003614d735760009050614e10565b600080848054905090505b80821015614dc7576000614d9283836153ff565b905084614d9f8783615425565b600001541115614db157809150614dc1565b600181614dbe9190616057565b92505b50614d7e565b600082118015614def575083614de986600185614de49190616594565b615425565b60000154145b15614e0a57600182614e019190616594565b92505050614e10565b81925050505b92915050565b600081600001805490509050919050565b614e32838383615447565b600073ffffffffffffffffffffffffffffffffffffffff168373ffffffffffffffffffffffffffffffffffffffff1603614e7c57614e6f8261544c565b614e7761549f565b614eda565b600073ffffffffffffffffffffffffffffffffffffffff168273ffffffffffffffffffffffffffffffffffffffff1603614ec657614eb98361544c565b614ec161549f565b614ed9565b614ecf8361544c565b614ed88261544c565b5b5b505050565b6060614f058273ffffffffffffffffffffffffffffffffffffffff16601460ff16614f0c565b9050919050565b606060006002836002614f1f9190616fae565b614f299190616057565b67ffffffffffffffff811115614f4257614f41615af6565b5b6040519080825280601f01601f191660200182016040528015614f745781602001600182028036833780820191505090505b5090507f300000000000000000000000000000000000000000000000000000000000000081600081518110614fac57614fab616c4f565b5b60200101907effffffffffffffffffffffffffffffffffffffffffffffffffffffffffffff1916908160001a9053507f7800000000000000000000000000000000000000000000000000000000000000816001815181106150105761500f616c4f565b5b60200101907effffffffffffffffffffffffffffffffffffffffffffffffffffffffffffff1916908160001a905350600060018460026150509190616fae565b61505a9190616057565b90505b60018111156150fa577f3031323334353637383961626364656600000000000000000000000000000000600f86166010811061509c5761509b616c4f565b5b1a60f81b8282815181106150b3576150b2616c4f565b5b60200101907effffffffffffffffffffffffffffffffffffffffffffffffffffffffffffff1916908160001a905350600485901c9450806150f390616ff0565b905061505d565b506000841461513e576040517f08c379a000000000000000000000000000000000000000000000000000000000815260040161513590617065565b60405180910390fd5b8091505092915050565b600061515483836154b3565b6151ad5782600001829080600181540180825580915050600190039060005260206000200160009091909190915055826000018054905083600101600084815260200190815260200160002081905550600190506151b2565b600090505b92915050565b600080836001016000848152602001908152602001600020549050600081146152c05760006001826151ea9190616594565b90506000600186600001805490506152029190616594565b905081811461527157600086600001828154811061522357615222616c4f565b5b906000526020600020015490508087600001848154811061524757615246616c4f565b5b90600052602060002001819055508387600101600083815260200190815260200160002081905550505b8560000180548061528557615284617085565b5b6001900381819060005260206000200160009055905585600101600086815260200190815260200160002060009055600193505050506152c6565b60009150505b92915050565b6152d581614af6565b8073ffffffffffffffffffffffffffffffffffffffff167fbc7cd75a20ee27fd9adebab32041f755214dbc6bffa90cc0225b39da2e5c2d3b60405160405180910390a250565b606061532683612f1f565b615365576040517f08c379a000000000000000000000000000000000000000000000000000000000815260040161535c90617126565b60405180910390fd5b6000808473ffffffffffffffffffffffffffffffffffffffff168460405161538d919061718d565b600060405180830381855af49150503d80600081146153c8576040519150601f19603f3d011682016040523d82523d6000602084013e6153cd565b606091505b50915091506153f582826040518060600160405280602781526020016171a5602791396154d6565b9250505092915050565b6000600282841861541091906165f7565b82841661541d9190616057565b905092915050565b6000808360005282602060002001905061543e816154f8565b91505092915050565b505050565b61549c606560008373ffffffffffffffffffffffffffffffffffffffff1673ffffffffffffffffffffffffffffffffffffffff16815260200190815260200160002061549783611eb5565b615502565b50565b6154b160666154ac610cd1565b615502565b565b600080836001016000848152602001908152602001600020541415905092915050565b606083156154e6578290506154f1565b6154f0838361557d565b5b9392505050565b6000819050919050565b600061550c613190565b90508061551b846000016155cd565b10156155785782600001819080600181540180825580915050600190039060005260206000200160009091909190915055826001018290806001815401808255809150506001900390600052602060002001600090919091909150555b505050565b6000825111156155905781518083602001fd5b806040517f08c379a00000000000000000000000000000000000000000000000000000000081526004016155c49190615812565b60405180910390fd5b6000808280549050036155e35760009050615614565b81600183805490506155f59190616594565b8154811061560657615605616c4f565b5b906000526020600020015490505b919050565b6000604051905090565b600080fd5b600080fd5b60007fffffffff0000000000000000000000000000000000000000000000000000000082169050919050565b6156628161562d565b811461566d57600080fd5b50565b60008135905061567f81615659565b92915050565b60006020828403121561569b5761569a615623565b5b60006156a984828501615670565b91505092915050565b60008115159050919050565b6156c7816156b2565b82525050565b60006020820190506156e260008301846156be565b92915050565b600073ffffffffffffffffffffffffffffffffffffffff82169050919050565b6000819050919050565b600061572d615728615723846156e8565b615708565b6156e8565b9050919050565b600061573f82615712565b9050919050565b600061575182615734565b9050919050565b61576181615746565b82525050565b600060208201905061577c6000830184615758565b92915050565b600081519050919050565b600082825260208201905092915050565b60005b838110156157bc5780820151818401526020810190506157a1565b60008484015250505050565b6000601f19601f8301169050919050565b60006157e482615782565b6157ee818561578d565b93506157fe81856020860161579e565b615807816157c8565b840191505092915050565b6000602082019050818103600083015261582c81846157d9565b905092915050565b600061583f826156e8565b9050919050565b61584f81615834565b811461585a57600080fd5b50565b60008135905061586c81615846565b92915050565b6000819050919050565b61588581615872565b811461589057600080fd5b50565b6000813590506158a28161587c565b92915050565b600080604083850312156158bf576158be615623565b5b60006158cd8582860161585d565b92505060206158de85828601615893565b9150509250929050565b6000602082840312156158fe576158fd615623565b5b600061590c84828501615893565b91505092915050565b61591e81615872565b82525050565b60006040820190506159396000830185615915565b6159466020830184615915565b9392505050565b60006020820190506159626000830184615915565b92915050565b60008060006060848603121561598157615980615623565b5b600061598f8682870161585d565b93505060206159a08682870161585d565b92505060406159b186828701615893565b9150509250925092565b6000819050919050565b6159ce816159bb565b81146159d957600080fd5b50565b6000813590506159eb816159c5565b92915050565b600060208284031215615a0757615a06615623565b5b6000615a15848285016159dc565b91505092915050565b615a27816159bb565b82525050565b6000602082019050615a426000830184615a1e565b92915050565b60008060408385031215615a5f57615a5e615623565b5b6000615a6d858286016159dc565b9250506020615a7e8582860161585d565b9150509250929050565b600060ff82169050919050565b615a9e81615a88565b82525050565b6000602082019050615ab96000830184615a95565b92915050565b600060208284031215615ad557615ad4615623565b5b6000615ae38482850161585d565b91505092915050565b600080fd5b600080fd5b7f4e487b7100000000000000000000000000000000000000000000000000000000600052604160045260246000fd5b615b2e826157c8565b810181811067ffffffffffffffff82111715615b4d57615b4c615af6565b5b80604052505050565b6000615b60615619565b9050615b6c8282615b25565b919050565b600067ffffffffffffffff821115615b8c57615b8b615af6565b5b615b95826157c8565b9050602081019050919050565b82818337600083830152505050565b6000615bc4615bbf84615b71565b615b56565b905082815260208101848484011115615be057615bdf615af1565b5b615beb848285615ba2565b509392505050565b600082601f830112615c0857615c07615aec565b5b8135615c18848260208601615bb1565b91505092915050565b60008060408385031215615c3857615c37615623565b5b6000615c468582860161585d565b925050602083013567ffffffffffffffff811115615c6757615c66615628565b5b615c7385828601615bf3565b9150509250929050565b60008060408385031215615c9457615c93615623565b5b6000615ca285828601615893565b9250506020615cb38582860161585d565b9150509250929050565b60008060408385031215615cd457615cd3615623565b5b6000615ce2858286016159dc565b9250506020615cf385828601615893565b9150509250929050565b615d0681615834565b82525050565b6000602082019050615d216000830184615cfd565b92915050565b6000604082019050615d3c6000830185615915565b615d496020830184615cfd565b9392505050565b60008060408385031215615d6757615d66615623565b5b6000615d758582860161585d565b9250506020615d868582860161585d565b9150509250929050565b7f4e487b7100000000000000000000000000000000000000000000000000000000600052602260045260246000fd5b60006002820490506001821680615dd757607f821691505b602082108103615dea57615de9615d90565b5b50919050565b6000604082019050615e056000830185615cfd565b615e126020830184615915565b9392505050565b615e22816156b2565b8114615e2d57600080fd5b50565b600081519050615e3f81615e19565b92915050565b600060208284031215615e5b57615e5a615623565b5b6000615e6984828501615e30565b91505092915050565b7f416363657373436f6e74726f6c3a2063616e206f6e6c792072656e6f756e636560008201527f20726f6c657320666f722073656c660000000000000000000000000000000000602082015250565b6000615ece602f8361578d565b9150615ed982615e72565b604082019050919050565b60006020820190508181036000830152615efd81615ec1565b9050919050565b7f46756e6374696f6e206d7573742062652063616c6c6564207468726f7567682060008201527f64656c656761746563616c6c0000000000000000000000000000000000000000602082015250565b6000615f60602c8361578d565b9150615f6b82615f04565b604082019050919050565b60006020820190508181036000830152615f8f81615f53565b9050919050565b7f46756e6374696f6e206d7573742062652063616c6c6564207468726f7567682060008201527f6163746976652070726f78790000000000000000000000000000000000000000602082015250565b6000615ff2602c8361578d565b9150615ffd82615f96565b604082019050919050565b6000602082019050818103600083015261602181615fe5565b9050919050565b7f4e487b7100000000000000000000000000000000000000000000000000000000600052601160045260246000fd5b600061606282615872565b915061606d83615872565b925082820190508082111561608557616084616028565b5b92915050565b7f555550535570677261646561626c653a206d757374206e6f742062652063616c60008201527f6c6564207468726f7567682064656c656761746563616c6c0000000000000000602082015250565b60006160e760388361578d565b91506160f28261608b565b604082019050919050565b60006020820190508181036000830152616116816160da565b9050919050565b7f7369676e657220646f65736e2774206578697374000000000000000000000000600082015250565b600061615360148361578d565b915061615e8261611d565b602082019050919050565b6000602082019050818103600083015261618281616146565b9050919050565b600060408201905061619e6000830185615cfd565b6161ab6020830184615cfd565b9392505050565b7f7374616b6572206861732061207369676e657200000000000000000000000000600082015250565b60006161e860138361578d565b91506161f3826161b2565b602082019050919050565b60006020820190508181036000830152616217816161db565b9050919050565b7f7369676e657220616c7265616479206d61707065640000000000000000000000600082015250565b600061625460158361578d565b915061625f8261621e565b602082019050919050565b6000602082019050818103600083015261628381616247565b9050919050565b7f45524332303a2064656372656173656420616c6c6f77616e63652062656c6f7760008201527f207a65726f000000000000000000000000000000000000000000000000000000602082015250565b60006162e660258361578d565b91506162f18261628a565b604082019050919050565b60006020820190508181036000830152616315816162d9565b9050919050565b7f7369676e657220646f65736e7420657869737400000000000000000000000000600082015250565b600061635260138361578d565b915061635d8261631c565b602082019050919050565b6000602082019050818103600083015261638181616345565b9050919050565b7f496e697469616c697a61626c653a20636f6e747261637420697320616c72656160008201527f647920696e697469616c697a6564000000000000000000000000000000000000602082015250565b60006163e4602e8361578d565b91506163ef82616388565b604082019050919050565b60006020820190508181036000830152616413816163d7565b9050919050565b6000819050919050565b600061643f61643a6164358461641a565b615708565b615a88565b9050919050565b61644f81616424565b82525050565b600060208201905061646a6000830184616446565b92915050565b7f45524332303a20617070726f76652066726f6d20746865207a65726f2061646460008201527f7265737300000000000000000000000000000000000000000000000000000000602082015250565b60006164cc60248361578d565b91506164d782616470565b604082019050919050565b600060208201905081810360008301526164fb816164bf565b9050919050565b7f45524332303a20617070726f766520746f20746865207a65726f20616464726560008201527f7373000000000000000000000000000000000000000000000000000000000000602082015250565b600061655e60228361578d565b915061656982616502565b604082019050919050565b6000602082019050818103600083015261658d81616551565b9050919050565b600061659f82615872565b91506165aa83615872565b92508282039050818111156165c2576165c1616028565b5b92915050565b7f4e487b7100000000000000000000000000000000000000000000000000000000600052601260045260246000fd5b600061660282615872565b915061660d83615872565b92508261661d5761661c6165c8565b5b828204905092915050565b7f45524332303a20696e73756666696369656e7420616c6c6f77616e6365000000600082015250565b600061665e601d8361578d565b915061666982616628565b602082019050919050565b6000602082019050818103600083015261668d81616651565b9050919050565b7f45524332303a207472616e736665722066726f6d20746865207a65726f20616460008201527f6472657373000000000000000000000000000000000000000000000000000000602082015250565b60006166f060258361578d565b91506166fb82616694565b604082019050919050565b6000602082019050818103600083015261671f816166e3565b9050919050565b7f45524332303a207472616e7366657220746f20746865207a65726f206164647260008201527f6573730000000000000000000000000000000000000000000000000000000000602082015250565b600061678260238361578d565b915061678d82616726565b604082019050919050565b600060208201905081810360008301526167b181616775565b9050919050565b7f45524332303a207472616e7366657220616d6f756e742065786365656473206260008201527f616c616e63650000000000000000000000000000000000000000000000000000602082015250565b600061681460268361578d565b915061681f826167b8565b604082019050919050565b6000602082019050818103600083015261684381616807565b9050919050565b7f45524332303a206275726e2066726f6d20746865207a65726f2061646472657360008201527f7300000000000000000000000000000000000000000000000000000000000000602082015250565b60006168a660218361578d565b91506168b18261684a565b604082019050919050565b600060208201905081810360008301526168d581616899565b9050919050565b7f45524332303a206275726e20616d6f756e7420657863656564732062616c616e60008201527f6365000000000000000000000000000000000000000000000000000000000000602082015250565b600061693860228361578d565b9150616943826168dc565b604082019050919050565b600060208201905081810360008301526169678161692b565b9050919050565b60008151905061697d816159c5565b92915050565b60006020828403121561699957616998615623565b5b60006169a78482850161696e565b91505092915050565b7f45524331393637557067726164653a206e657720696d706c656d656e7461746960008201527f6f6e206973206e6f742055555053000000000000000000000000000000000000602082015250565b6000616a0c602e8361578d565b9150616a17826169b0565b604082019050919050565b60006020820190508181036000830152616a3b816169ff565b9050919050565b7f45524331393637557067726164653a20756e737570706f727465642070726f7860008201527f6961626c65555549440000000000000000000000000000000000000000000000602082015250565b6000616a9e60298361578d565b9150616aa982616a42565b604082019050919050565b60006020820190508181036000830152616acd81616a91565b9050919050565b7f30206465706f7369740000000000000000000000000000000000000000000000600082015250565b6000616b0a60098361578d565b9150616b1582616ad4565b602082019050919050565b60006020820190508181036000830152616b3981616afd565b9050919050565b6000606082019050616b556000830186615cfd565b616b626020830185615cfd565b616b6f6040830184615915565b949350505050565b7f4552433230536e617073686f743a206964206973203000000000000000000000600082015250565b6000616bad60168361578d565b9150616bb882616b77565b602082019050919050565b60006020820190508181036000830152616bdc81616ba0565b9050919050565b7f4552433230536e617073686f743a206e6f6e6578697374656e74206964000000600082015250565b6000616c19601d8361578d565b9150616c2482616be3565b602082019050919050565b60006020820190508181036000830152616c4881616c0c565b9050919050565b7f4e487b7100000000000000000000000000000000000000000000000000000000600052603260045260246000fd5b7f496e697469616c697a61626c653a20636f6e7472616374206973206e6f74206960008201527f6e697469616c697a696e67000000000000000000000000000000000000000000602082015250565b6000616cda602b8361578d565b9150616ce582616c7e565b604082019050919050565b60006020820190508181036000830152616d0981616ccd565b9050919050565b7f5374616b696e6720506f736974696f6e73207472616e73666572206e6f74206160008201527f6c6c6f7765640000000000000000000000000000000000000000000000000000602082015250565b6000616d6c60268361578d565b9150616d7782616d10565b604082019050919050565b60006020820190508181036000830152616d9b81616d5f565b9050919050565b600081905092915050565b7f416363657373436f6e74726f6c3a206163636f756e7420000000000000000000600082015250565b6000616de3601783616da2565b9150616dee82616dad565b601782019050919050565b6000616e0482615782565b616e0e8185616da2565b9350616e1e81856020860161579e565b80840191505092915050565b7f206973206d697373696e6720726f6c6520000000000000000000000000000000600082015250565b6000616e60601183616da2565b9150616e6b82616e2a565b601182019050919050565b6000616e8182616dd6565b9150616e8d8285616df9565b9150616e9882616e53565b9150616ea48284616df9565b91508190509392505050565b7f455243313936373a206e657720696d706c656d656e746174696f6e206973206e60008201527f6f74206120636f6e747261637400000000000000000000000000000000000000602082015250565b6000616f0c602d8361578d565b9150616f1782616eb0565b604082019050919050565b60006020820190508181036000830152616f3b81616eff565b9050919050565b7f45524332303a206d696e7420746f20746865207a65726f206164647265737300600082015250565b6000616f78601f8361578d565b9150616f8382616f42565b602082019050919050565b60006020820190508181036000830152616fa781616f6b565b9050919050565b6000616fb982615872565b9150616fc483615872565b9250828202616fd281615872565b91508282048414831517616fe957616fe8616028565b5b5092915050565b6000616ffb82615872565b91506000820361700e5761700d616028565b5b600182039050919050565b7f537472696e67733a20686578206c656e67746820696e73756666696369656e74600082015250565b600061704f60208361578d565b915061705a82617019565b602082019050919050565b6000602082019050818103600083015261707e81617042565b9050919050565b7f4e487b7100000000000000000000000000000000000000000000000000000000600052603160045260246000fd5b7f416464726573733a2064656c65676174652063616c6c20746f206e6f6e2d636f60008201527f6e74726163740000000000000000000000000000000000000000000000000000602082015250565b600061711060268361578d565b915061711b826170b4565b604082019050919050565b6000602082019050818103600083015261713f81617103565b9050919050565b600081519050919050565b600081905092915050565b600061716782617146565b6171718185617151565b935061718181856020860161579e565b80840191505092915050565b6000617199828461715c565b91508190509291505056fe416464726573733a206c6f772d6c6576656c2064656c65676174652063616c6c206661696c6564a2646970667358221220c437f279726994022c0b71e1306b7f0c4237e38ba8307ab856474d94c6dcf09164736f6c63430008110033",
  "linkReferences": {},
  "deployedLinkReferences": {}
}