{
  "_format": "hh-sol-artifact-1",
  "contractName": "RewardDelegators",
  "sourceName": "contracts/staking/RewardDelegators.sol",
  "abi": [
    {
      "inputs": [],
      "stateMutability": "nonpayable",
      "type": "constructor"
    },
    {
      "anonymous": false,
      "inputs": [
        {
          "indexed": false,
          "internalType": "bytes32",
          "name": "tokenId",
          "type": "bytes32"
        },
        {
          "indexed": false,
          "internalType": "uint256",
          "name": "rewardFactor",
          "type": "uint256"
        }
      ],
      "name": "AddReward",
      "type": "event"
    },
    {
      "anonymous": false,
      "inputs": [
        {
          "indexed": false,
          "internalType": "address",
          "name": "previousAdmin",
          "type": "address"
        },
        {
          "indexed": false,
          "internalType": "address",
          "name": "newAdmin",
          "type": "address"
        }
      ],
      "name": "AdminChanged",
      "type": "event"
    },
    {
      "anonymous": false,
      "inputs": [
        {
          "indexed": true,
          "internalType": "address",
          "name": "beacon",
          "type": "address"
        }
      ],
      "name": "BeaconUpgraded",
      "type": "event"
    },
    {
      "anonymous": false,
      "inputs": [
        {
          "indexed": false,
          "internalType": "address",
          "name": "_updatedClusterRegistry",
          "type": "address"
        }
      ],
      "name": "ClusterRegistryUpdated",
      "type": "event"
    },
    {
      "anonymous": false,
      "inputs": [
        {
          "indexed": false,
          "internalType": "address",
          "name": "cluster",
          "type": "address"
        }
      ],
      "name": "ClusterRewardDistributed",
      "type": "event"
    },
    {
      "anonymous": false,
      "inputs": [
        {
          "indexed": false,
          "internalType": "address",
          "name": "_updatedClusterRewards",
          "type": "address"
        }
      ],
      "name": "ClusterRewardsAddressUpdated",
      "type": "event"
    },
    {
      "anonymous": false,
      "inputs": [
        {
          "indexed": false,
          "internalType": "uint8",
          "name": "version",
          "type": "uint8"
        }
      ],
      "name": "Initialized",
      "type": "event"
    },
    {
      "anonymous": false,
      "inputs": [
        {
          "indexed": false,
          "internalType": "address",
          "name": "_updatedPOND",
          "type": "address"
        }
      ],
      "name": "PONDAddressUpdated",
      "type": "event"
    },
    {
      "anonymous": false,
      "inputs": [
        {
          "indexed": true,
          "internalType": "address",
          "name": "cluster",
          "type": "address"
        }
      ],
      "name": "RefreshClusterDelegation",
      "type": "event"
    },
    {
      "anonymous": false,
      "inputs": [
        {
          "indexed": false,
          "internalType": "bytes32",
          "name": "tokenId",
          "type": "bytes32"
        }
      ],
      "name": "RemoveReward",
      "type": "event"
    },
    {
      "anonymous": false,
      "inputs": [
        {
          "indexed": false,
          "internalType": "bytes32",
          "name": "tokenId",
          "type": "bytes32"
        },
        {
          "indexed": false,
          "internalType": "uint256",
          "name": "rewardFactor",
          "type": "uint256"
        }
      ],
      "name": "RewardsUpdated",
      "type": "event"
    },
    {
      "anonymous": false,
      "inputs": [
        {
          "indexed": false,
          "internalType": "address",
          "name": "cluster",
          "type": "address"
        },
        {
          "indexed": false,
          "internalType": "address",
          "name": "delegator",
          "type": "address"
        },
        {
          "indexed": false,
          "internalType": "bytes32[]",
          "name": "tokenIds",
          "type": "bytes32[]"
        },
        {
          "indexed": false,
          "internalType": "uint256",
          "name": "rewards",
          "type": "uint256"
        }
      ],
      "name": "RewardsWithdrawn",
      "type": "event"
    },
    {
      "anonymous": false,
      "inputs": [
        {
          "indexed": true,
          "internalType": "bytes32",
          "name": "role",
          "type": "bytes32"
        },
        {
          "indexed": true,
          "internalType": "bytes32",
          "name": "previousAdminRole",
          "type": "bytes32"
        },
        {
          "indexed": true,
          "internalType": "bytes32",
          "name": "newAdminRole",
          "type": "bytes32"
        }
      ],
      "name": "RoleAdminChanged",
      "type": "event"
    },
    {
      "anonymous": false,
      "inputs": [
        {
          "indexed": true,
          "internalType": "bytes32",
          "name": "role",
          "type": "bytes32"
        },
        {
          "indexed": true,
          "internalType": "address",
          "name": "account",
          "type": "address"
        },
        {
          "indexed": true,
          "internalType": "address",
          "name": "sender",
          "type": "address"
        }
      ],
      "name": "RoleGranted",
      "type": "event"
    },
    {
      "anonymous": false,
      "inputs": [
        {
          "indexed": true,
          "internalType": "bytes32",
          "name": "role",
          "type": "bytes32"
        },
        {
          "indexed": true,
          "internalType": "address",
          "name": "account",
          "type": "address"
        },
        {
          "indexed": true,
          "internalType": "address",
          "name": "sender",
          "type": "address"
        }
      ],
      "name": "RoleRevoked",
      "type": "event"
    },
    {
      "anonymous": false,
      "inputs": [
        {
          "indexed": false,
          "internalType": "address",
          "name": "_updatedStakeAddress",
          "type": "address"
        }
      ],
      "name": "StakeAddressUpdated",
      "type": "event"
    },
    {
      "anonymous": false,
      "inputs": [
        {
          "indexed": false,
          "internalType": "bytes32",
          "name": "networkId",
          "type": "bytes32"
        },
        {
          "indexed": false,
          "internalType": "uint256",
          "name": "newThreshold",
          "type": "uint256"
        }
      ],
      "name": "ThresholdForSelectionUpdated",
      "type": "event"
    },
    {
      "anonymous": false,
      "inputs": [
        {
          "indexed": false,
          "internalType": "bytes32",
          "name": "tokenId",
          "type": "bytes32"
        },
        {
          "indexed": false,
          "internalType": "uint256",
          "name": "thresholdWeight",
          "type": "uint256"
        },
        {
          "indexed": false,
          "internalType": "uint256",
          "name": "delegationWeight",
          "type": "uint256"
        }
      ],
      "name": "TokenWeightsUpdated",
      "type": "event"
    },
    {
      "anonymous": false,
      "inputs": [
        {
          "indexed": true,
          "internalType": "address",
          "name": "implementation",
          "type": "address"
        }
      ],
      "name": "Upgraded",
      "type": "event"
    },
    {
      "inputs": [],
      "name": "DEFAULT_ADMIN_ROLE",
      "outputs": [
        {
          "internalType": "bytes32",
          "name": "",
          "type": "bytes32"
        }
      ],
      "stateMutability": "view",
      "type": "function"
    },
    {
      "inputs": [],
      "name": "PONDToken",
      "outputs": [
        {
          "internalType": "contract IERC20Upgradeable",
          "name": "",
          "type": "address"
        }
      ],
      "stateMutability": "view",
      "type": "function"
    },
    {
      "inputs": [
        {
          "internalType": "address",
          "name": "_cluster",
          "type": "address"
        }
      ],
      "name": "_updateRewards",
      "outputs": [],
      "stateMutability": "nonpayable",
      "type": "function"
    },
    {
      "inputs": [
        {
          "internalType": "bytes32",
          "name": "_tokenId",
          "type": "bytes32"
        },
        {
          "internalType": "uint256",
          "name": "_rewardFactor",
          "type": "uint256"
        }
      ],
      "name": "addRewardFactor",
      "outputs": [],
      "stateMutability": "nonpayable",
      "type": "function"
    },
    {
      "inputs": [],
      "name": "clusterRegistry",
      "outputs": [
        {
          "internalType": "contract IClusterRegistry",
          "name": "",
          "type": "address"
        }
      ],
      "stateMutability": "view",
      "type": "function"
    },
    {
      "inputs": [],
      "name": "clusterRewards",
      "outputs": [
        {
          "internalType": "contract IClusterRewards",
          "name": "",
          "type": "address"
        }
      ],
      "stateMutability": "view",
      "type": "function"
    },
    {
      "inputs": [
        {
          "internalType": "address",
          "name": "_delegator",
          "type": "address"
        },
        {
          "internalType": "address",
          "name": "_cluster",
          "type": "address"
        },
        {
          "internalType": "bytes32[]",
          "name": "_tokens",
          "type": "bytes32[]"
        },
        {
          "internalType": "uint256[]",
          "name": "_amounts",
          "type": "uint256[]"
        }
      ],
      "name": "delegate",
      "outputs": [],
      "stateMutability": "nonpayable",
      "type": "function"
    },
    {
      "inputs": [
        {
          "internalType": "address",
          "name": "_cluster",
          "type": "address"
        },
        {
          "internalType": "bytes32",
          "name": "_tokenId",
          "type": "bytes32"
        }
      ],
      "name": "getAccRewardPerShare",
      "outputs": [
        {
          "internalType": "uint256",
          "name": "",
          "type": "uint256"
        }
      ],
      "stateMutability": "view",
      "type": "function"
    },
    {
      "inputs": [
        {
          "internalType": "address",
          "name": "_cluster",
          "type": "address"
        },
        {
          "internalType": "bytes32",
          "name": "_tokenId",
          "type": "bytes32"
        }
      ],
      "name": "getClusterDelegation",
      "outputs": [
        {
          "internalType": "uint256",
          "name": "",
          "type": "uint256"
        }
      ],
      "stateMutability": "view",
      "type": "function"
    },
    {
      "inputs": [
        {
          "internalType": "address",
          "name": "_cluster",
          "type": "address"
        },
        {
          "internalType": "address",
          "name": "_delegator",
          "type": "address"
        },
        {
          "internalType": "bytes32",
          "name": "_tokenId",
          "type": "bytes32"
        }
      ],
      "name": "getDelegation",
      "outputs": [
        {
          "internalType": "uint256",
          "name": "",
          "type": "uint256"
        }
      ],
      "stateMutability": "view",
      "type": "function"
    },
    {
      "inputs": [
        {
          "internalType": "bytes32",
          "name": "role",
          "type": "bytes32"
        }
      ],
      "name": "getRoleAdmin",
      "outputs": [
        {
          "internalType": "bytes32",
          "name": "",
          "type": "bytes32"
        }
      ],
      "stateMutability": "view",
      "type": "function"
    },
    {
      "inputs": [
        {
          "internalType": "bytes32",
          "name": "role",
          "type": "bytes32"
        },
        {
          "internalType": "uint256",
          "name": "index",
          "type": "uint256"
        }
      ],
      "name": "getRoleMember",
      "outputs": [
        {
          "internalType": "address",
          "name": "",
          "type": "address"
        }
      ],
      "stateMutability": "view",
      "type": "function"
    },
    {
      "inputs": [
        {
          "internalType": "bytes32",
          "name": "role",
          "type": "bytes32"
        }
      ],
      "name": "getRoleMemberCount",
      "outputs": [
        {
          "internalType": "uint256",
          "name": "",
          "type": "uint256"
        }
      ],
      "stateMutability": "view",
      "type": "function"
    },
    {
      "inputs": [
        {
          "internalType": "bytes32",
          "name": "role",
          "type": "bytes32"
        },
        {
          "internalType": "address",
          "name": "account",
          "type": "address"
        }
      ],
      "name": "grantRole",
      "outputs": [],
      "stateMutability": "nonpayable",
      "type": "function"
    },
    {
      "inputs": [
        {
          "internalType": "bytes32",
          "name": "role",
          "type": "bytes32"
        },
        {
          "internalType": "address",
          "name": "account",
          "type": "address"
        }
      ],
      "name": "hasRole",
      "outputs": [
        {
          "internalType": "bool",
          "name": "",
          "type": "bool"
        }
      ],
      "stateMutability": "view",
      "type": "function"
    },
    {
      "inputs": [
        {
          "internalType": "address",
          "name": "_stakeAddress",
          "type": "address"
        },
        {
          "internalType": "address",
          "name": "_clusterRewardsAddress",
          "type": "address"
        },
        {
          "internalType": "address",
          "name": "_clusterRegistry",
          "type": "address"
        },
        {
          "internalType": "address",
          "name": "_PONDAddress",
          "type": "address"
        },
        {
          "internalType": "bytes32[]",
          "name": "_tokenIds",
          "type": "bytes32[]"
        },
        {
          "internalType": "uint256[]",
          "name": "_rewardFactors",
          "type": "uint256[]"
        },
        {
          "internalType": "uint128[]",
          "name": "_weightsForThreshold",
          "type": "uint128[]"
        },
        {
          "internalType": "uint128[]",
          "name": "_weightsForDelegation",
          "type": "uint128[]"
        },
        {
          "internalType": "bytes32[]",
          "name": "_networkIds",
          "type": "bytes32[]"
        },
        {
          "internalType": "uint256[]",
          "name": "_thresholdsForSection",
          "type": "uint256[]"
        }
      ],
      "name": "initialize",
      "outputs": [],
      "stateMutability": "nonpayable",
      "type": "function"
    },
    {
      "inputs": [],
      "name": "proxiableUUID",
      "outputs": [
        {
          "internalType": "bytes32",
          "name": "",
          "type": "bytes32"
        }
      ],
      "stateMutability": "view",
      "type": "function"
    },
    {
      "inputs": [
        {
          "internalType": "bytes32",
          "name": "_networkId",
          "type": "bytes32"
        },
        {
          "internalType": "address[]",
          "name": "clusterList",
          "type": "address[]"
        }
      ],
      "name": "refreshClusterDelegation",
      "outputs": [],
      "stateMutability": "nonpayable",
      "type": "function"
    },
    {
      "inputs": [
        {
          "internalType": "address",
          "name": "_cluster",
          "type": "address"
        },
        {
          "internalType": "bytes32",
          "name": "_networkId",
          "type": "bytes32"
        }
      ],
      "name": "removeClusterDelegation",
      "outputs": [],
      "stateMutability": "nonpayable",
      "type": "function"
    },
    {
      "inputs": [
        {
          "internalType": "bytes32",
          "name": "_tokenId",
          "type": "bytes32"
        }
      ],
      "name": "removeRewardFactor",
      "outputs": [],
      "stateMutability": "nonpayable",
      "type": "function"
    },
    {
      "inputs": [
        {
          "internalType": "bytes32",
          "name": "role",
          "type": "bytes32"
        },
        {
          "internalType": "address",
          "name": "account",
          "type": "address"
        }
      ],
      "name": "renounceRole",
      "outputs": [],
      "stateMutability": "nonpayable",
      "type": "function"
    },
    {
      "inputs": [
        {
          "internalType": "bytes32",
          "name": "role",
          "type": "bytes32"
        },
        {
          "internalType": "address",
          "name": "account",
          "type": "address"
        }
      ],
      "name": "revokeRole",
      "outputs": [],
      "stateMutability": "nonpayable",
      "type": "function"
    },
    {
      "inputs": [
        {
          "internalType": "bytes32",
          "name": "",
          "type": "bytes32"
        }
      ],
      "name": "rewardFactor",
      "outputs": [
        {
          "internalType": "uint256",
          "name": "",
          "type": "uint256"
        }
      ],
      "stateMutability": "view",
      "type": "function"
    },
    {
      "inputs": [],
      "name": "stakeAddress",
      "outputs": [
        {
          "internalType": "address",
          "name": "",
          "type": "address"
        }
      ],
      "stateMutability": "view",
      "type": "function"
    },
    {
      "inputs": [
        {
          "internalType": "bytes4",
          "name": "interfaceId",
          "type": "bytes4"
        }
      ],
      "name": "supportsInterface",
      "outputs": [
        {
          "internalType": "bool",
          "name": "",
          "type": "bool"
        }
      ],
      "stateMutability": "view",
      "type": "function"
    },
    {
      "inputs": [
        {
          "internalType": "bytes32",
          "name": "",
          "type": "bytes32"
        }
      ],
      "name": "thresholdForSelection",
      "outputs": [
        {
          "internalType": "uint256",
          "name": "",
          "type": "uint256"
        }
      ],
      "stateMutability": "view",
      "type": "function"
    },
    {
      "inputs": [
        {
          "internalType": "bytes32",
          "name": "",
          "type": "bytes32"
        }
      ],
      "name": "tokenIndex",
      "outputs": [
        {
          "internalType": "uint256",
          "name": "",
          "type": "uint256"
        }
      ],
      "stateMutability": "view",
      "type": "function"
    },
    {
      "inputs": [
        {
          "internalType": "uint256",
          "name": "",
          "type": "uint256"
        }
      ],
      "name": "tokenList",
      "outputs": [
        {
          "internalType": "bytes32",
          "name": "",
          "type": "bytes32"
        }
      ],
      "stateMutability": "view",
      "type": "function"
    },
    {
      "inputs": [
        {
          "internalType": "bytes32",
          "name": "",
          "type": "bytes32"
        }
      ],
      "name": "tokenWeights",
      "outputs": [
        {
          "internalType": "uint128",
          "name": "forThreshold",
          "type": "uint128"
        },
        {
          "internalType": "uint128",
          "name": "forDelegation",
          "type": "uint128"
        }
      ],
      "stateMutability": "view",
      "type": "function"
    },
    {
      "inputs": [
        {
          "internalType": "address",
          "name": "_delegator",
          "type": "address"
        },
        {
          "internalType": "address",
          "name": "_cluster",
          "type": "address"
        },
        {
          "internalType": "bytes32[]",
          "name": "_tokens",
          "type": "bytes32[]"
        },
        {
          "internalType": "uint256[]",
          "name": "_amounts",
          "type": "uint256[]"
        }
      ],
      "name": "undelegate",
      "outputs": [],
      "stateMutability": "nonpayable",
      "type": "function"
    },
    {
      "inputs": [
        {
          "internalType": "address",
          "name": "_cluster",
          "type": "address"
        },
        {
          "internalType": "bytes32",
          "name": "_networkId",
          "type": "bytes32"
        }
      ],
      "name": "updateClusterDelegation",
      "outputs": [],
      "stateMutability": "nonpayable",
      "type": "function"
    },
    {
      "inputs": [
        {
          "internalType": "address",
          "name": "_updatedClusterRegistry",
          "type": "address"
        }
      ],
      "name": "updateClusterRegistry",
      "outputs": [],
      "stateMutability": "nonpayable",
      "type": "function"
    },
    {
      "inputs": [
        {
          "internalType": "address",
          "name": "_updatedClusterRewards",
          "type": "address"
        }
      ],
      "name": "updateClusterRewards",
      "outputs": [],
      "stateMutability": "nonpayable",
      "type": "function"
    },
    {
      "inputs": [
        {
          "internalType": "address",
          "name": "_updatedPOND",
          "type": "address"
        }
      ],
      "name": "updatePONDAddress",
      "outputs": [],
      "stateMutability": "nonpayable",
      "type": "function"
    },
    {
      "inputs": [
        {
          "internalType": "bytes32",
          "name": "_tokenId",
          "type": "bytes32"
        },
        {
          "internalType": "uint256",
          "name": "_updatedRewardFactor",
          "type": "uint256"
        }
      ],
      "name": "updateRewardFactor",
      "outputs": [],
      "stateMutability": "nonpayable",
      "type": "function"
    },
    {
      "inputs": [
        {
          "internalType": "address",
          "name": "_updatedStakeAddress",
          "type": "address"
        }
      ],
      "name": "updateStakeAddress",
      "outputs": [],
      "stateMutability": "nonpayable",
      "type": "function"
    },
    {
      "inputs": [
        {
          "internalType": "bytes32",
          "name": "networkId",
          "type": "bytes32"
        },
        {
          "internalType": "uint256",
          "name": "newThreshold",
          "type": "uint256"
        }
      ],
      "name": "updateThresholdForSelection",
      "outputs": [],
      "stateMutability": "nonpayable",
      "type": "function"
    },
    {
      "inputs": [
        {
          "internalType": "bytes32",
          "name": "tokenId",
          "type": "bytes32"
        },
        {
          "internalType": "uint128",
          "name": "thresholdWeight",
          "type": "uint128"
        },
        {
          "internalType": "uint128",
          "name": "delegationWeight",
          "type": "uint128"
        }
      ],
      "name": "updateTokenWeights",
      "outputs": [],
      "stateMutability": "nonpayable",
      "type": "function"
    },
    {
      "inputs": [
        {
          "internalType": "address",
          "name": "newImplementation",
          "type": "address"
        }
      ],
      "name": "upgradeTo",
      "outputs": [],
      "stateMutability": "nonpayable",
      "type": "function"
    },
    {
      "inputs": [
        {
          "internalType": "address",
          "name": "newImplementation",
          "type": "address"
        },
        {
          "internalType": "bytes",
          "name": "data",
          "type": "bytes"
        }
      ],
      "name": "upgradeToAndCall",
      "outputs": [],
      "stateMutability": "payable",
      "type": "function"
    },
    {
      "inputs": [
        {
          "internalType": "address",
          "name": "_delegator",
          "type": "address"
        },
        {
          "internalType": "address[]",
          "name": "_clusters",
          "type": "address[]"
        }
      ],
      "name": "withdrawRewards",
      "outputs": [],
      "stateMutability": "nonpayable",
      "type": "function"
    },
    {
      "inputs": [
        {
          "internalType": "address",
          "name": "_delegator",
          "type": "address"
        },
        {
          "internalType": "address",
          "name": "_cluster",
          "type": "address"
        }
      ],
      "name": "withdrawRewards",
      "outputs": [
        {
          "internalType": "uint256",
          "name": "",
          "type": "uint256"
        }
      ],
      "stateMutability": "nonpayable",
      "type": "function"
    }
  ],
  "bytecode": "0x60a0604052306080523480156200001557600080fd5b50600054610100900460ff1615808015620000375750600054600160ff909116105b8062000067575062000054306200014160201b6200297b1760201c565b15801562000067575060005460ff166001145b620000cf5760405162461bcd60e51b815260206004820152602e60248201527f496e697469616c697a61626c653a20636f6e747261637420697320616c72656160448201526d191e481a5b9a5d1a585b1a5e995960921b606482015260840160405180910390fd5b6000805460ff191660011790558015620000f3576000805461ff0019166101001790555b80156200013a576000805461ff0019169055604051600181527f7f26b83ff96e1f2b6a682f133852f6798a09c465da95921460cefb38474024989060200160405180910390a15b5062000150565b6001600160a01b03163b151590565b608051614acd62000188600039600081816118740152818161190a01528181611b0801528181611b9e0152611c950152614acd6000f3fe6080604052600436106102d15760003560e01c8063762c039611610179578063a702730e116100d6578063ca7e6a081161008a578063e20981ca11610064578063e20981ca146108d3578063ec57002b146108f3578063fc30edf11461091357600080fd5b8063ca7e6a0814610872578063d547741f14610893578063dd62c944146108b357600080fd5b8063b66206d4116100bb578063b66206d414610812578063c4b07bcc14610832578063ca15c8731461085257600080fd5b8063a702730e146107ad578063afe3b8d9146107f157600080fd5b80639010d07c1161012d5780639a943e00116101125780639a943e00146107585780639ead722214610778578063a217fddf1461079857600080fd5b80639010d07c146106f257806391d148541461071257600080fd5b80637ce404151161015e5780637ce40415146106305780638135d34e146106b157806385107367146106d157600080fd5b8063762c0396146105af5780637b22790a146105f757600080fd5b806332be8d7f116102325780633659cfe6116101e657806352d1902d116101c057806352d1902d1461054c5780635507a884146105615780635d3e91d81461058157600080fd5b80633659cfe6146104f957806339bc83da146105195780634f1ef2861461053957600080fd5b8063349b15cb11610217578063349b15cb14610499578063360dfd22146104b957806336568abe146104d957600080fd5b806332be8d7f14610459578063346380311461047957600080fd5b80632bc51f6d1161028957806331b600861161026e57806331b60086146103eb578063321f0ecc14610419578063321f21f81461043957600080fd5b80632bc51f6d146103ab5780632f2ff15d146103cb57600080fd5b80631efd4106116102ba5780631efd41061461032d578063242ae3581461034d578063248a9ca31461036d57600080fd5b806301ffc9a7146102d657806312b1a7661461030b575b600080fd5b3480156102e257600080fd5b506102f66102f1366004613f94565b610941565b60405190151581526020015b60405180910390f35b34801561031757600080fd5b5061032b610326366004613ffb565b610952565b005b34801561033957600080fd5b5061032b610348366004614027565b610a7f565b34801561035957600080fd5b5061032b610368366004614151565b610b82565b34801561037957600080fd5b5061039d6103883660046141da565b60009081526065602052604090206001015490565b604051908152602001610302565b3480156103b757600080fd5b5061032b6103c6366004614027565b610c20565b3480156103d757600080fd5b5061032b6103e63660046141f3565b61105a565b3480156103f757600080fd5b5061039d6104063660046141da565b6103566020526000908152604090205481565b34801561042557600080fd5b5061032b610434366004614223565b61107f565b34801561044557600080fd5b5061032b610454366004614291565b6110a1565b34801561046557600080fd5b5061032b6104743660046141da565b611462565b34801561048557600080fd5b5061032b610494366004614027565b6115f2565b3480156104a557600080fd5b5061032b6104b4366004613ffb565b6116e9565b3480156104c557600080fd5b5061039d6104d43660046142dd565b6117a7565b3480156104e557600080fd5b5061032b6104f43660046141f3565b6117e2565b34801561050557600080fd5b5061032b610514366004614027565b61186a565b34801561052557600080fd5b5061032b610534366004614027565b611a07565b61032b61054736600461431e565b611afe565b34801561055857600080fd5b5061039d611c88565b34801561056d57600080fd5b5061032b61057c366004614404565b611d4d565b34801561058d57600080fd5b5061039d61059c3660046141da565b6103556020526000908152604090205481565b3480156105bb57600080fd5b5061039d6105ca366004613ffb565b6001600160a01b039190911660009081526103536020908152604080832093835260039093019052205490565b34801561060357600080fd5b5061035854610618906001600160a01b031681565b6040516001600160a01b039091168152602001610302565b34801561063c57600080fd5b5061068861064b3660046141da565b61035c602052600090815260409020546fffffffffffffffffffffffffffffffff8082169170010000000000000000000000000000000090041682565b604080516fffffffffffffffffffffffffffffffff938416815292909116602083015201610302565b3480156106bd57600080fd5b5061032b6106cc3660046144a2565b611d6c565b3480156106dd57600080fd5b5061035454610618906001600160a01b031681565b3480156106fe57600080fd5b5061061861070d366004614223565b612400565b34801561071e57600080fd5b506102f661072d3660046141f3565b60009182526065602090815260408084206001600160a01b0393909316845291905290205460ff1690565b34801561076457600080fd5b5061032b610773366004614151565b612418565b34801561078457600080fd5b5061039d6107933660046141da565b6124af565b3480156107a457600080fd5b5061039d600081565b3480156107b957600080fd5b5061039d6107c8366004613ffb565b6001600160a01b0391909116600090815261035360209081526040808320938352929052205490565b3480156107fd57600080fd5b5061035954610618906001600160a01b031681565b34801561081e57600080fd5b5061032b61082d3660046145dd565b6124d1565b34801561083e57600080fd5b5061032b61084d366004614027565b612520565b34801561085e57600080fd5b5061039d61086d3660046141da565b612617565b34801561087e57600080fd5b5061035a54610618906001600160a01b031681565b34801561089f57600080fd5b5061032b6108ae3660046141f3565b61262e565b3480156108bf57600080fd5b5061032b6108ce366004614223565b612653565b3480156108df57600080fd5b5061039d6108ee366004614619565b61278c565b3480156108ff57600080fd5b5061032b61090e366004614223565b612833565b34801561091f57600080fd5b5061039d61092e3660046141da565b61035b6020526000908152604090205481565b600061094c8261298a565b92915050565b610359546001600160a01b0316331461096a57600080fd5b610358546040517f45276131000000000000000000000000000000000000000000000000000000008152600481018390526000916001600160a01b0316906345276131906024016020604051808303816000875af11580156109d0573d6000803e3d6000fd5b505050506040513d601f19601f820116820180604052508101906109f49190614647565b90506001600160a01b03811615610a7a576040517f348d61e80000000000000000000000000000000000000000000000000000000081526001600160a01b03848116600483015282169063348d61e890602401600060405180830381600087803b158015610a6157600080fd5b505af1158015610a75573d6000803e3d6000fd5b505050505b505050565b610a8a60003361072d565b610a9357600080fd5b6001600160a01b038116610b145760405162461bcd60e51b815260206004820152602960248201527f52443a5543522d436c757374657220526567697374727920616464726573732060448201527f63616e742062652030000000000000000000000000000000000000000000000060648201526084015b60405180910390fd5b61035980547fffffffffffffffffffffffff0000000000000000000000000000000000000000166001600160a01b0383169081179091556040519081527f4351260b1696230c4813cbc69203806934609b506e3a438dd911d22e6965ed39906020015b60405180910390a150565b610354546001600160a01b0316336001600160a01b031614610c0b5760405162461bcd60e51b8152602060048201526024808201527f52443a4f532d6f6e6c79207374616b6520636f6e74726163742063616e20696e60448201527f766f6b65000000000000000000000000000000000000000000000000000000006064820152608401610b0b565b610c198484848460016129e0565b5050505050565b610358546040517fd279c1910000000000000000000000000000000000000000000000000000000081526001600160a01b038381166004830152600092169063d279c191906024016020604051808303816000875af1158015610c87573d6000803e3d6000fd5b505050506040513d601f19601f82011682018060405250810190610cab9190614664565b905080600003610cb9575050565b610359546040517f06032d740000000000000000000000000000000000000000000000000000000081526001600160a01b03848116600483015260009283929116906306032d749060240160408051808303816000875af1158015610d22573d6000803e3d6000fd5b505050506040513d601f19601f82011682018060405250810190610d46919061467d565b909250905060006064610d5984866146d1565b610d639190614717565b90506000610d718286614752565b90506000610357805480602002602001604051908101604052809291908181526020018280548015610dc257602002820191906000526020600020905b815481526020019060010190808311610dae575b505050505090506000815167ffffffffffffffff811115610de557610de5614044565b604051908082528060200260200182016040528015610e0e578160200160208202803683370190505b5090506000805b8351811015610ec4576001600160a01b038a166000908152610353602052604081208551909190869084908110610e4e57610e4e614765565b6020026020010151815260200190815260200160002054838281518110610e7757610e77614765565b602002602001018181525050828181518110610e9557610e95614765565b6020026020010151600014610eb25781610eae81614794565b9250505b80610ebc81614794565b915050610e15565b5060005b835181101561100257828181518110610ee357610ee3614765565b6020026020010151600014610ff057828181518110610f0457610f04614765565b602002602001015182866c0c9f2c9cd04674edea40000000610f2691906146d1565b610f309190614717565b610f3a9190614717565b61035360008c6001600160a01b03166001600160a01b031681526020019081526020016000206003016000868481518110610f7757610f77614765565b6020026020010151815260200190815260200160002054610f9891906147cc565b61035360008c6001600160a01b03166001600160a01b031681526020019081526020016000206003016000868481518110610fd557610fd5614765565b60200260200101518152602001908152602001600020819055505b80610ffa81614794565b915050610ec8565b508415611013576110138686612bfd565b6040516001600160a01b038a1681527f643d0f768d20758fe82686d7de201866faaee92f36542c9b1ea68fe26217dc909060200160405180910390a1505050505050505050565b60008281526065602052604090206001015461107581612c8e565b610a7a8383612c98565b61108a60003361072d565b61109357600080fd5b61109d8282612ca2565b5050565b6110ac60003361072d565b6110b557600080fd5b60008167ffffffffffffffff8111156110d0576110d0614044565b6040519080825280602002602001820160405280156110f9578160200160208202803683370190505b50905060008267ffffffffffffffff81111561111757611117614044565b604051908082528060200260200182016040528015611140578160200160208202803683370190505b50610358546040517f45276131000000000000000000000000000000000000000000000000000000008152600481018890529192506000916001600160a01b03909116906345276131906024016020604051808303816000875af11580156111ac573d6000803e3d6000fd5b505050506040513d601f19601f820116820180604052508101906111d09190614647565b90506000805b858110156113d95760008787838181106111f2576111f2614765565b90506020020160208101906112079190614027565b610359546040517ffe7b5fa70000000000000000000000000000000000000000000000000000000081526001600160a01b0380841660048301529293506000929091169063fe7b5fa7906024016020604051808303816000875af1158015611273573d6000803e3d6000fd5b505050506040513d601f19601f820116820180604052508101906112979190614664565b9050808a146112e85760405162461bcd60e51b815260206004820152601860248201527f52443a5243442d696e636f7272656374206e6574776f726b00000000000000006044820152606401610b0b565b60006112f4838c612ceb565b905080600003611306575050506113d1565b89898581811061131857611318614765565b905060200201602081019061132d9190614027565b88868151811061133f5761133f614765565b60200260200101906001600160a01b031690816001600160a01b03168152505061136881612e46565b87868151811061137a5761137a614765565b67ffffffffffffffff909216602092830291909101909101526040516001909501946001600160a01b038416907f58dbdd42f85341cb1a86ccf6fc7e83efd7312a189a1794f37f950d4d4fa791ba90600090a25050505b6001016111d6565b508084528083526040517f8ebe41700000000000000000000000000000000000000000000000000000000081526001600160a01b03831690638ebe41709061142790879087906004016147df565b600060405180830381600087803b15801561144157600080fd5b505af1158015611455573d6000803e3d6000fd5b5050505050505050505050565b61146d60003361072d565b61147657600080fd5b6000818152610355602052604081205490036114d45760405162461bcd60e51b815260206004820152601960248201527f52443a52522d52657761726420646f65736e74206578697374000000000000006044820152606401610b0b565b6103578054600091906114e990600190614752565b815481106114f9576114f9614765565b906000526020600020015490506000610356600084815260200190815260200160002054905081610357828154811061153457611534614765565b6000918252602080832090910192909255838152610356909152604090208190556103578054806115675761156761486d565b600082815260208082207fffffffffffffffffffffffffffffffffffffffffffffffffffffffffffffffff90840181018390559092019092558482526103558152604080832083905561035682528083209290925590518481527fc21f2202b563765aa875aa0a6a2fde3881f4c11badde30a726d5608eb1afa10991015b60405180910390a1505050565b6115fd60003361072d565b61160657600080fd5b6001600160a01b0381166116825760405162461bcd60e51b815260206004820152602b60248201527f52443a5550412d5570646174656420504f4e4420746f6b656e2061646472657360448201527f732063616e7420626520300000000000000000000000000000000000000000006064820152608401610b0b565b61035a80547fffffffffffffffffffffffff0000000000000000000000000000000000000000166001600160a01b0383169081179091556040519081527f7c5c83d102d6ea0acddb82e57f9c4b34d02eff8d010a0634dc65378f16eb032390602001610b77565b610359546001600160a01b0316331461170157600080fd5b610358546040517f45276131000000000000000000000000000000000000000000000000000000008152600481018390526000916001600160a01b0316906345276131906024016020604051808303816000875af1158015611767573d6000803e3d6000fd5b505050506040513d601f19601f8201168201806040525081019061178b9190614647565b90506001600160a01b03811615610a7a57610a7a828483612f2e565b6001600160a01b03808416600090815261035360209081526040808320938616835260019093018152828220848352905220545b9392505050565b6001600160a01b03811633146118605760405162461bcd60e51b815260206004820152602f60248201527f416363657373436f6e74726f6c3a2063616e206f6e6c792072656e6f756e636560448201527f20726f6c657320666f722073656c6600000000000000000000000000000000006064820152608401610b0b565b61109d8282613069565b6001600160a01b037f00000000000000000000000000000000000000000000000000000000000000001630036119085760405162461bcd60e51b815260206004820152602c60248201527f46756e6374696f6e206d7573742062652063616c6c6564207468726f7567682060448201527f64656c656761746563616c6c00000000000000000000000000000000000000006064820152608401610b0b565b7f00000000000000000000000000000000000000000000000000000000000000006001600160a01b03166119637f360894a13ba1a3210667c828492db98dca3e2076cc3735a920a3ca505d382bbc546001600160a01b031690565b6001600160a01b0316146119df5760405162461bcd60e51b815260206004820152602c60248201527f46756e6374696f6e206d7573742062652063616c6c6564207468726f7567682060448201527f6163746976652070726f787900000000000000000000000000000000000000006064820152608401610b0b565b6119e881613089565b60408051600080825260208201909252611a049183919061309d565b50565b611a1260003361072d565b611a1b57600080fd5b6001600160a01b038116611a975760405162461bcd60e51b815260206004820152602760248201527f52443a5543522d436c757374657252657761726473206164647265737320636160448201527f6e742062652030000000000000000000000000000000000000000000000000006064820152608401610b0b565b61035880547fffffffffffffffffffffffff0000000000000000000000000000000000000000166001600160a01b0383169081179091556040519081527fdc995512cdbd25ea12dfdeb157d3c8e916bab71a2237322efa834846db5262bf90602001610b77565b6001600160a01b037f0000000000000000000000000000000000000000000000000000000000000000163003611b9c5760405162461bcd60e51b815260206004820152602c60248201527f46756e6374696f6e206d7573742062652063616c6c6564207468726f7567682060448201527f64656c656761746563616c6c00000000000000000000000000000000000000006064820152608401610b0b565b7f00000000000000000000000000000000000000000000000000000000000000006001600160a01b0316611bf77f360894a13ba1a3210667c828492db98dca3e2076cc3735a920a3ca505d382bbc546001600160a01b031690565b6001600160a01b031614611c735760405162461bcd60e51b815260206004820152602c60248201527f46756e6374696f6e206d7573742062652063616c6c6564207468726f7567682060448201527f6163746976652070726f787900000000000000000000000000000000000000006064820152608401610b0b565b611c7c82613089565b61109d8282600161309d565b6000306001600160a01b037f00000000000000000000000000000000000000000000000000000000000000001614611d285760405162461bcd60e51b815260206004820152603860248201527f555550535570677261646561626c653a206d757374206e6f742062652063616c60448201527f6c6564207468726f7567682064656c656761746563616c6c00000000000000006064820152608401610b0b565b507f360894a13ba1a3210667c828492db98dca3e2076cc3735a920a3ca505d382bbc90565b611d5860003361072d565b611d6157600080fd5b610a7a83838361325b565b600054610100900460ff1615808015611d8c5750600054600160ff909116105b80611da65750303b158015611da6575060005460ff166001145b611e185760405162461bcd60e51b815260206004820152602e60248201527f496e697469616c697a61626c653a20636f6e747261637420697320616c72656160448201527f647920696e697469616c697a65640000000000000000000000000000000000006064820152608401610b0b565b600080547fffffffffffffffffffffffffffffffffffffffffffffffffffffffffffffff001660011790558015611e7657600080547fffffffffffffffffffffffffffffffffffffffffffffffffffffffffffff00ff166101001790555b8551875114611f135760405162461bcd60e51b815260206004820152604a60248201527f52443a492d4561636820546f6b656e49642073686f756c64206861766520612060448201527f636f72726573706f6e64696e672052657761726420466163746f7220616e642060648201527f7669636520766572736100000000000000000000000000000000000000000000608482015260a401610b0b565b8151835114611fb05760405162461bcd60e51b815260206004820152605660248201527f52443a492d45616368204e6574776f726b49642073686f756c6420686176652060448201527f6120636f72726573706f6e64696e67207468726573686f6c6420666f7220736560648201527f6c656374696f6e20616e64207669636520766572736100000000000000000000608482015260a401610b0b565b611fb86132ec565b611fc06132ec565b611fc86132ec565b611fd06132ec565b611fd86132ec565b611fe06132ec565b611feb60003361336b565b61035480547fffffffffffffffffffffffff0000000000000000000000000000000000000000166001600160a01b038d169081179091556040519081527faea47bea602f2b18a4721cdacf1aafd7e3962d8574680ee8e15714cc7739e4549060200160405180910390a161035980547fffffffffffffffffffffffff0000000000000000000000000000000000000000166001600160a01b038b169081179091556040519081527f4351260b1696230c4813cbc69203806934609b506e3a438dd911d22e6965ed399060200160405180910390a161035880547fffffffffffffffffffffffff0000000000000000000000000000000000000000166001600160a01b038c169081179091556040519081527fdc995512cdbd25ea12dfdeb157d3c8e916bab71a2237322efa834846db5262bf9060200160405180910390a161035a80547fffffffffffffffffffffffff0000000000000000000000000000000000000000166001600160a01b038a169081179091556040519081527f7c5c83d102d6ea0acddb82e57f9c4b34d02eff8d010a0634dc65378f16eb03239060200160405180910390a160005b8751811015612335578681815181106121b1576121b1614765565b602002602001015161035560008a84815181106121d0576121d0614765565b60200260200101518152602001908152602001600020819055506122408882815181106121ff576121ff614765565b602002602001015187838151811061221957612219614765565b602002602001015187848151811061223357612233614765565b602002602001015161325b565b6103578054905061035660008a848151811061225e5761225e614765565b602002602001015181526020019081526020016000208190555061035788828151811061228d5761228d614765565b6020908102919091018101518254600181018455600093845291909220015587517faf18f84b562d534f966cd12a369a21eb5e9264df24b55799ac5950deace3a7e3908990839081106122e2576122e2614765565b60200260200101518883815181106122fc576122fc614765565b602002602001015160405161231b929190918252602082015260400190565b60405180910390a18061232d81614794565b915050612196565b5060005b83518110156123905761237e84828151811061235757612357614765565b602002602001015184838151811061237157612371614765565b6020026020010151612ca2565b8061238881614794565b915050612339565b50801561145557600080547fffffffffffffffffffffffffffffffffffffffffffffffffffffffffffff00ff169055604051600181527f7f26b83ff96e1f2b6a682f133852f6798a09c465da95921460cefb38474024989060200160405180910390a15050505050505050505050565b60008281526097602052604081206117db9083613375565b610354546001600160a01b0316336001600160a01b0316146124a15760405162461bcd60e51b8152602060048201526024808201527f52443a4f532d6f6e6c79207374616b6520636f6e74726163742063616e20696e60448201527f766f6b65000000000000000000000000000000000000000000000000000000006064820152608401610b0b565b610c198484848460006129e0565b61035781815481106124c057600080fd5b600091825260209091200154905081565b60005b8181101561251a57612507848484848181106124f2576124f2614765565b90506020020160208101906108ee9190614027565b508061251281614794565b9150506124d4565b50505050565b61252b60003361072d565b61253457600080fd5b6001600160a01b0381166125b05760405162461bcd60e51b815260206004820152602760248201527f52443a5553412d5374616b6520636f6e7472616374206164647265737320636160448201527f6e742062652030000000000000000000000000000000000000000000000000006064820152608401610b0b565b61035480547fffffffffffffffffffffffff0000000000000000000000000000000000000000166001600160a01b0383169081179091556040519081527faea47bea602f2b18a4721cdacf1aafd7e3962d8574680ee8e15714cc7739e45490602001610b77565b600081815260976020526040812061094c90613381565b60008281526065602052604090206001015461264981612c8e565b610a7a8383613069565b61265e60003361072d565b61266757600080fd5b6000828152610355602052604081205490036126eb5760405162461bcd60e51b815260206004820152602a60248201527f52443a55522d43616e742075706461746520726577617264207468617420646f60448201527f65736e74206578697374000000000000000000000000000000000000000000006064820152608401610b0b565b8060000361273b5760405162461bcd60e51b815260206004820152601660248201527f52443a55522d5265776172642063616e742062652030000000000000000000006044820152606401610b0b565b6000828152610355602090815260409182902083905581518481529081018390527f724ced771231b28817afaf7ec57ee9b21a844ac261955fbca7ee727ce8826e6691015b60405180910390a15050565b60006117db83836103578054806020026020016040519081016040528092919081815260200182805480156127e057602002820191906000526020600020905b8154815260200190600101908083116127cc575b5050610357549250505067ffffffffffffffff81111561280257612802614044565b60405190808252806020026020018201604052801561282b578160200160208202803683370190505b5060016129e0565b61283e60003361072d565b61284757600080fd5b60008281526103556020526040902054156128a45760405162461bcd60e51b815260206004820152601b60248201527f52443a41522d52657761726420616c72656164792065786973747300000000006044820152606401610b0b565b806000036128f45760405162461bcd60e51b815260206004820152601660248201527f52443a41522d5265776172642063616e742062652030000000000000000000006044820152606401610b0b565b6000828152610355602090815260408083208490556103578054610356845282852081905560018101825593527f867007ff0c9c91c963bfa60bcb8e814dfc261843d6b3506fffede331f2d4717690920184905581518481529081018390527faf18f84b562d534f966cd12a369a21eb5e9264df24b55799ac5950deace3a7e39101612780565b6001600160a01b03163b151590565b60007fffffffff0000000000000000000000000000000000000000000000000000000082167f5a05180f00000000000000000000000000000000000000000000000000000000148061094c575061094c8261338b565b60006129eb85610c20565b60005b8451811015612a7c576000858281518110612a0b57612a0b614765565b602002602001015190506000858381518110612a2957612a29614765565b60200260200101519050600080612a438a8c86868b613422565b915091506000612a568b8d878686613576565b9050612a6281886147cc565b965050505050508080612a7490614794565b9150506129ee565b50610359546040517ffe7b5fa70000000000000000000000000000000000000000000000000000000081526001600160a01b038781166004830152600092169063fe7b5fa7906024016020604051808303816000875af1158015612ae4573d6000803e3d6000fd5b505050506040513d601f19601f82011682018060405250810190612b089190614664565b610358546040517f45276131000000000000000000000000000000000000000000000000000000008152600481018390529192506000916001600160a01b03909116906345276131906024016020604051808303816000875af1158015612b73573d6000803e3d6000fd5b505050506040513d601f19601f82011682018060405250810190612b979190614647565b9050612ba4828883612f2e565b8215612bf257612bb48884612bfd565b7f54e8f034636217314f27bfc2c4e0aec174ceab3a2b1196d2e00f8bae09ac52fd87898886604051612be9949392919061489c565b60405180910390a15b505095945050505050565b61035a546040517fa9059cbb0000000000000000000000000000000000000000000000000000000081526001600160a01b038481166004830152602482018490529091169063a9059cbb906044016020604051808303816000875af1158015612c6a573d6000803e3d6000fd5b505050506040513d601f19601f82011682018060405250810190610a7a9190614907565b611a048133613666565b61109d82826136f9565b600082815261035b602090815260409182902083905581518481529081018390527f4098c87dfda79640c91c6b602af94186368964b562cff5f83118f7f8790319c89101612780565b60008060005b61035754811015612e1d5760006103578281548110612d1257612d12614765565b600091825260208083209091015480835261035c825260408084208151808301835290546fffffffffffffffffffffffffffffffff80821683527001000000000000000000000000000000009091048116828601526001600160a01b038c16865261035385528286208487529094529320548351919450911615612dbc578151612daf9082906fffffffffffffffffffffffffffffffff166146d1565b612db990866147cc565b94505b60208201516fffffffffffffffffffffffffffffffff1615612e07578082602001516fffffffffffffffffffffffffffffffff16612dfa91906146d1565b612e0490876147cc565b95505b5050508080612e1590614794565b915050612cf1565b50600083815261035b6020526040902054811015612e3f57600091505061094c565b5092915050565b600081600003612e5857506000919050565b60006001612e658461371b565b901c6001901b90506001818481612e7e57612e7e6146e8565b048201901c90506001818481612e9657612e966146e8565b048201901c90506001818481612eae57612eae6146e8565b048201901c90506001818481612ec657612ec66146e8565b048201901c90506001818481612ede57612ede6146e8565b048201901c90506001818481612ef657612ef66146e8565b048201901c90506001818481612f0e57612f0e6146e8565b048201901c90506117db81828581612f2857612f286146e8565b046137af565b6000612f3a8385612ceb565b90506001600160a01b0382161561251a578015612fef57816001600160a01b03166367c5bab884612f6a84612e46565b6040517fffffffff0000000000000000000000000000000000000000000000000000000060e085901b1681526001600160a01b03909216600483015267ffffffffffffffff166024820152604401600060405180830381600087803b158015612fd257600080fd5b505af1158015612fe6573d6000803e3d6000fd5b5050505061251a565b6040517f348d61e80000000000000000000000000000000000000000000000000000000081526001600160a01b03848116600483015283169063348d61e890602401600060405180830381600087803b15801561304b57600080fd5b505af115801561305f573d6000803e3d6000fd5b5050505050505050565b61307382826137c5565b61307d6000612617565b60000361109d57600080fd5b61309460003361072d565b611a0457600080fd5b7f4910fdfa16fed3260ed0e7147f7cc6da11a60208b5b9406d12a635614ffd91435460ff16156130d057610a7a836137e7565b826001600160a01b03166352d1902d6040518163ffffffff1660e01b8152600401602060405180830381865afa925050508015613148575060408051601f3d9081017fffffffffffffffffffffffffffffffffffffffffffffffffffffffffffffffe016820190925261314591810190614664565b60015b6131ba5760405162461bcd60e51b815260206004820152602e60248201527f45524331393637557067726164653a206e657720696d706c656d656e7461746960448201527f6f6e206973206e6f7420555550530000000000000000000000000000000000006064820152608401610b0b565b7f360894a13ba1a3210667c828492db98dca3e2076cc3735a920a3ca505d382bbc811461324f5760405162461bcd60e51b815260206004820152602960248201527f45524331393637557067726164653a20756e737570706f727465642070726f7860448201527f6961626c655555494400000000000000000000000000000000000000000000006064820152608401610b0b565b50610a7a8383836138bd565b6040805180820182526fffffffffffffffffffffffffffffffff848116808352848216602080850182815260008a815261035c835287902095519051851670010000000000000000000000000000000002941693909317909355835187815291820152918201527f385bced31234e4d66b1bf7456ba0072dec3ff90571939d184e8c3149798e7cc6906060016115e5565b600054610100900460ff166133695760405162461bcd60e51b815260206004820152602b60248201527f496e697469616c697a61626c653a20636f6e7472616374206973206e6f74206960448201527f6e697469616c697a696e670000000000000000000000000000000000000000006064820152608401610b0b565b565b61109d8282612c98565b60006117db83836138e2565b600061094c825490565b60007fffffffff0000000000000000000000000000000000000000000000000000000082167f7965db0b00000000000000000000000000000000000000000000000000000000148061094c57507f01ffc9a7000000000000000000000000000000000000000000000000000000007fffffffff0000000000000000000000000000000000000000000000000000000083161461094c565b6001600160a01b038086166000908152610353602090815260408083209388168352600190930181528282208683529052908120549083810361346657508061356c565b82156134d35761347684836147cc565b6001600160a01b0388166000908152610353602090815260408083208984529091529020549091506134a99085906147cc565b6001600160a01b038816600090815261035360209081526040808320898452909152902055613536565b6134dd8483614752565b6001600160a01b038816600090815261035360209081526040808320898452909152902054909150613510908590614752565b6001600160a01b0388166000908152610353602090815260408083208984529091529020555b6001600160a01b03808816600090815261035360209081526040808320938a168352600190930181528282208883529052208190555b9550959350505050565b6001600160a01b038086166000908152610353602090815260408083208784526003810183528184205494891684526002018252808320878452909152812054909190826c0c9f2c9cd04674edea400000006135d287856146d1565b6135dc9190614717565b90506135e88282614752565b935084861480156135f7575083155b156136045750505061365d565b6c0c9f2c9cd04674edea4000000061361c86856146d1565b6136269190614717565b6001600160a01b03808b16600090815261035360209081526040808320938d168352600290930181528282208b8352905220555050505b95945050505050565b60008281526065602090815260408083206001600160a01b038516845290915290205460ff1661109d576136998161390c565b6136a483602061391e565b6040516020016136b592919061494d565b604080517fffffffffffffffffffffffffffffffffffffffffffffffffffffffffffffffe08184030181529082905262461bcd60e51b8252610b0b916004016149ce565b6137038282613b47565b6000828152609760205260409020610a7a9082613c07565b600080608083901c1561373057608092831c92015b604083901c1561374257604092831c92015b602083901c1561375457602092831c92015b601083901c1561376657601092831c92015b600883901c1561377857600892831c92015b600483901c1561378a57600492831c92015b600283901c1561379c57600292831c92015b600183901c1561094c5760010192915050565b60008183106137be57816117db565b5090919050565b6137cf8282613c1c565b6000828152609760205260409020610a7a9082613cbd565b6001600160a01b0381163b6138645760405162461bcd60e51b815260206004820152602d60248201527f455243313936373a206e657720696d706c656d656e746174696f6e206973206e60448201527f6f74206120636f6e7472616374000000000000000000000000000000000000006064820152608401610b0b565b7f360894a13ba1a3210667c828492db98dca3e2076cc3735a920a3ca505d382bbc80547fffffffffffffffffffffffff0000000000000000000000000000000000000000166001600160a01b0392909216919091179055565b6138c683613cd2565b6000825111806138d35750805b15610a7a5761251a8383613d12565b60008260000182815481106138f9576138f9614765565b9060005260206000200154905092915050565b606061094c6001600160a01b03831660145b6060600061392d8360026146d1565b6139389060026147cc565b67ffffffffffffffff81111561395057613950614044565b6040519080825280601f01601f19166020018201604052801561397a576020820181803683370190505b5090507f3000000000000000000000000000000000000000000000000000000000000000816000815181106139b1576139b1614765565b60200101907effffffffffffffffffffffffffffffffffffffffffffffffffffffffffffff1916908160001a9053507f780000000000000000000000000000000000000000000000000000000000000081600181518110613a1457613a14614765565b60200101907effffffffffffffffffffffffffffffffffffffffffffffffffffffffffffff1916908160001a9053506000613a508460026146d1565b613a5b9060016147cc565b90505b6001811115613af8577f303132333435363738396162636465660000000000000000000000000000000085600f1660108110613a9c57613a9c614765565b1a60f81b828281518110613ab257613ab2614765565b60200101907effffffffffffffffffffffffffffffffffffffffffffffffffffffffffffff1916908160001a90535060049490941c93613af181614a1f565b9050613a5e565b5083156117db5760405162461bcd60e51b815260206004820181905260248201527f537472696e67733a20686578206c656e67746820696e73756666696369656e746044820152606401610b0b565b60008281526065602090815260408083206001600160a01b038516845290915290205460ff1661109d5760008281526065602090815260408083206001600160a01b0385168452909152902080547fffffffffffffffffffffffffffffffffffffffffffffffffffffffffffffff00166001179055613bc33390565b6001600160a01b0316816001600160a01b0316837f2f8788117e7eff1d82e926ec794901d17c78024a50270940304540a733656f0d60405160405180910390a45050565b60006117db836001600160a01b038416613e14565b60008281526065602090815260408083206001600160a01b038516845290915290205460ff161561109d5760008281526065602090815260408083206001600160a01b038516808552925280832080547fffffffffffffffffffffffffffffffffffffffffffffffffffffffffffffff0016905551339285917ff6391f5c32d9c69d2a47ea670b442974b53935d1edc7fd64eb21e047a839171b9190a45050565b60006117db836001600160a01b038416613e63565b613cdb816137e7565b6040516001600160a01b038216907fbc7cd75a20ee27fd9adebab32041f755214dbc6bffa90cc0225b39da2e5c2d3b90600090a250565b60606001600160a01b0383163b613d915760405162461bcd60e51b815260206004820152602660248201527f416464726573733a2064656c65676174652063616c6c20746f206e6f6e2d636f60448201527f6e747261637400000000000000000000000000000000000000000000000000006064820152608401610b0b565b600080846001600160a01b031684604051613dac9190614a54565b600060405180830381855af49150503d8060008114613de7576040519150601f19603f3d011682016040523d82523d6000602084013e613dec565b606091505b509150915061365d8282604051806060016040528060278152602001614a7160279139613f56565b6000818152600183016020526040812054613e5b5750815460018181018455600084815260208082209093018490558454848252828601909352604090209190915561094c565b50600061094c565b60008181526001830160205260408120548015613f4c576000613e87600183614752565b8554909150600090613e9b90600190614752565b9050818114613f00576000866000018281548110613ebb57613ebb614765565b9060005260206000200154905080876000018481548110613ede57613ede614765565b6000918252602080832090910192909255918252600188019052604090208390555b8554869080613f1157613f1161486d565b60019003818190600052602060002001600090559055856001016000868152602001908152602001600020600090556001935050505061094c565b600091505061094c565b60608315613f655750816117db565b6117db8383815115613f7a5781518083602001fd5b8060405162461bcd60e51b8152600401610b0b91906149ce565b600060208284031215613fa657600080fd5b81357fffffffff00000000000000000000000000000000000000000000000000000000811681146117db57600080fd5b6001600160a01b0381168114611a0457600080fd5b8035613ff681613fd6565b919050565b6000806040838503121561400e57600080fd5b823561401981613fd6565b946020939093013593505050565b60006020828403121561403957600080fd5b81356117db81613fd6565b7f4e487b7100000000000000000000000000000000000000000000000000000000600052604160045260246000fd5b604051601f82017fffffffffffffffffffffffffffffffffffffffffffffffffffffffffffffffe016810167ffffffffffffffff811182821017156140ba576140ba614044565b604052919050565b600067ffffffffffffffff8211156140dc576140dc614044565b5060051b60200190565b600082601f8301126140f757600080fd5b8135602061410c614107836140c2565b614073565b82815260059290921b8401810191818101908684111561412b57600080fd5b8286015b84811015614146578035835291830191830161412f565b509695505050505050565b6000806000806080858703121561416757600080fd5b843561417281613fd6565b9350602085013561418281613fd6565b9250604085013567ffffffffffffffff8082111561419f57600080fd5b6141ab888389016140e6565b935060608701359150808211156141c157600080fd5b506141ce878288016140e6565b91505092959194509250565b6000602082840312156141ec57600080fd5b5035919050565b6000806040838503121561420657600080fd5b82359150602083013561421881613fd6565b809150509250929050565b6000806040838503121561423657600080fd5b50508035926020909101359150565b60008083601f84011261425757600080fd5b50813567ffffffffffffffff81111561426f57600080fd5b6020830191508360208260051b850101111561428a57600080fd5b9250929050565b6000806000604084860312156142a657600080fd5b83359250602084013567ffffffffffffffff8111156142c457600080fd5b6142d086828701614245565b9497909650939450505050565b6000806000606084860312156142f257600080fd5b83356142fd81613fd6565b9250602084013561430d81613fd6565b929592945050506040919091013590565b6000806040838503121561433157600080fd5b823561433c81613fd6565b915060208381013567ffffffffffffffff8082111561435a57600080fd5b818601915086601f83011261436e57600080fd5b81358181111561438057614380614044565b6143b0847fffffffffffffffffffffffffffffffffffffffffffffffffffffffffffffffe0601f84011601614073565b915080825287848285010111156143c657600080fd5b80848401858401376000848284010152508093505050509250929050565b80356fffffffffffffffffffffffffffffffff81168114613ff657600080fd5b60008060006060848603121561441957600080fd5b83359250614429602085016143e4565b9150614437604085016143e4565b90509250925092565b600082601f83011261445157600080fd5b81356020614461614107836140c2565b82815260059290921b8401810191818101908684111561448057600080fd5b8286015b8481101561414657614495816143e4565b8352918301918301614484565b6000806000806000806000806000806101408b8d0312156144c257600080fd5b6144cb8b613feb565b99506144d960208c01613feb565b98506144e760408c01613feb565b97506144f560608c01613feb565b965060808b013567ffffffffffffffff8082111561451257600080fd5b61451e8e838f016140e6565b975060a08d013591508082111561453457600080fd5b6145408e838f016140e6565b965060c08d013591508082111561455657600080fd5b6145628e838f01614440565b955060e08d013591508082111561457857600080fd5b6145848e838f01614440565b94506101008d013591508082111561459b57600080fd5b6145a78e838f016140e6565b93506101208d01359150808211156145be57600080fd5b506145cb8d828e016140e6565b9150509295989b9194979a5092959850565b6000806000604084860312156145f257600080fd5b83356145fd81613fd6565b9250602084013567ffffffffffffffff8111156142c457600080fd5b6000806040838503121561462c57600080fd5b823561463781613fd6565b9150602083013561421881613fd6565b60006020828403121561465957600080fd5b81516117db81613fd6565b60006020828403121561467657600080fd5b5051919050565b6000806040838503121561469057600080fd5b82519150602083015161421881613fd6565b7f4e487b7100000000000000000000000000000000000000000000000000000000600052601160045260246000fd5b808202811582820484141761094c5761094c6146a2565b7f4e487b7100000000000000000000000000000000000000000000000000000000600052601260045260246000fd5b60008261474d577f4e487b7100000000000000000000000000000000000000000000000000000000600052601260045260246000fd5b500490565b8181038181111561094c5761094c6146a2565b7f4e487b7100000000000000000000000000000000000000000000000000000000600052603260045260246000fd5b60007fffffffffffffffffffffffffffffffffffffffffffffffffffffffffffffffff82036147c5576147c56146a2565b5060010190565b8082018082111561094c5761094c6146a2565b604080825283519082018190526000906020906060840190828701845b828110156148215781516001600160a01b0316845292840192908401906001016147fc565b5050508381038285015284518082528583019183019060005b8181101561486057835167ffffffffffffffff168352928401929184019160010161483a565b5090979650505050505050565b7f4e487b7100000000000000000000000000000000000000000000000000000000600052603160045260246000fd5b6000608082016001600160a01b03808816845260208188168186015260806040860152829150865180845260a086019250818801935060005b818110156148f1578451845293820193928201926001016148d5565b5050506060939093019390935250949350505050565b60006020828403121561491957600080fd5b815180151581146117db57600080fd5b60005b8381101561494457818101518382015260200161492c565b50506000910152565b7f416363657373436f6e74726f6c3a206163636f756e7420000000000000000000815260008351614985816017850160208801614929565b7f206973206d697373696e6720726f6c652000000000000000000000000000000060179184019182015283516149c2816028840160208801614929565b01602801949350505050565b60208152600082518060208401526149ed816040850160208701614929565b601f017fffffffffffffffffffffffffffffffffffffffffffffffffffffffffffffffe0169190910160400192915050565b600081614a2e57614a2e6146a2565b507fffffffffffffffffffffffffffffffffffffffffffffffffffffffffffffffff0190565b60008251614a66818460208701614929565b919091019291505056fe416464726573733a206c6f772d6c6576656c2064656c65676174652063616c6c206661696c6564a26469706673582212203f32f2e0ac3609d24f66076a6430be30c658cd030ec7fa333e6c5e8e672026a464736f6c63430008110033",
  "linkReferences": {},
  "deployedLinkReferences": {}
}