{
  "_format": "hh-sol-artifact-1",
  "contractName": "StakeManager",
  "sourceName": "contracts/staking/StakeManager.sol",
  "abi": [
    {
      "inputs": [],
      "stateMutability": "nonpayable",
      "type": "constructor"
    },
    {
      "anonymous": false,
      "inputs": [
        {
          "indexed": false,
          "internalType": "address",
          "name": "previousAdmin",
          "type": "address"
        },
        {
          "indexed": false,
          "internalType": "address",
          "name": "newAdmin",
          "type": "address"
        }
      ],
      "name": "AdminChanged",
      "type": "event"
    },
    {
      "anonymous": false,
      "inputs": [
        {
          "indexed": true,
          "internalType": "address",
          "name": "beacon",
          "type": "address"
        }
      ],
      "name": "BeaconUpgraded",
      "type": "event"
    },
    {
      "anonymous": false,
      "inputs": [
        {
          "indexed": false,
          "internalType": "uint8",
          "name": "version",
          "type": "uint8"
        }
      ],
      "name": "Initialized",
      "type": "event"
    },
    {
      "anonymous": false,
      "inputs": [
        {
          "indexed": true,
          "internalType": "bytes32",
          "name": "selector",
          "type": "bytes32"
        },
        {
          "indexed": true,
          "internalType": "bytes32",
          "name": "key",
          "type": "bytes32"
        },
        {
          "indexed": false,
          "internalType": "uint256",
          "name": "iValue",
          "type": "uint256"
        },
        {
          "indexed": false,
          "internalType": "uint256",
          "name": "unlockTime",
          "type": "uint256"
        }
      ],
      "name": "LockCreated",
      "type": "event"
    },
    {
      "anonymous": false,
      "inputs": [
        {
          "indexed": true,
          "internalType": "bytes32",
          "name": "selector",
          "type": "bytes32"
        },
        {
          "indexed": true,
          "internalType": "bytes32",
          "name": "key",
          "type": "bytes32"
        },
        {
          "indexed": false,
          "internalType": "uint256",
          "name": "iValue",
          "type": "uint256"
        }
      ],
      "name": "LockDeleted",
      "type": "event"
    },
    {
      "anonymous": false,
      "inputs": [
        {
          "indexed": true,
          "internalType": "bytes32",
          "name": "selector",
          "type": "bytes32"
        },
        {
          "indexed": false,
          "internalType": "uint256",
          "name": "prevLockTime",
          "type": "uint256"
        },
        {
          "indexed": false,
          "internalType": "uint256",
          "name": "updatedLockTime",
          "type": "uint256"
        }
      ],
      "name": "LockWaitTimeUpdated",
      "type": "event"
    },
    {
      "anonymous": false,
      "inputs": [
        {
          "indexed": false,
          "internalType": "address",
          "name": "from",
          "type": "address"
        },
        {
          "indexed": false,
          "internalType": "address",
          "name": "to",
          "type": "address"
        }
      ],
      "name": "RewardDelegatorsUpdated",
      "type": "event"
    },
    {
      "anonymous": false,
      "inputs": [
        {
          "indexed": true,
          "internalType": "bytes32",
          "name": "role",
          "type": "bytes32"
        },
        {
          "indexed": true,
          "internalType": "bytes32",
          "name": "previousAdminRole",
          "type": "bytes32"
        },
        {
          "indexed": true,
          "internalType": "bytes32",
          "name": "newAdminRole",
          "type": "bytes32"
        }
      ],
      "name": "RoleAdminChanged",
      "type": "event"
    },
    {
      "anonymous": false,
      "inputs": [
        {
          "indexed": true,
          "internalType": "bytes32",
          "name": "role",
          "type": "bytes32"
        },
        {
          "indexed": true,
          "internalType": "address",
          "name": "account",
          "type": "address"
        },
        {
          "indexed": true,
          "internalType": "address",
          "name": "sender",
          "type": "address"
        }
      ],
      "name": "RoleGranted",
      "type": "event"
    },
    {
      "anonymous": false,
      "inputs": [
        {
          "indexed": true,
          "internalType": "bytes32",
          "name": "role",
          "type": "bytes32"
        },
        {
          "indexed": true,
          "internalType": "address",
          "name": "account",
          "type": "address"
        },
        {
          "indexed": true,
          "internalType": "address",
          "name": "sender",
          "type": "address"
        }
      ],
      "name": "RoleRevoked",
      "type": "event"
    },
    {
      "anonymous": false,
      "inputs": [
        {
          "indexed": true,
          "internalType": "bytes32",
          "name": "stashId",
          "type": "bytes32"
        },
        {
          "indexed": true,
          "internalType": "address",
          "name": "creator",
          "type": "address"
        }
      ],
      "name": "StashCreated",
      "type": "event"
    },
    {
      "anonymous": false,
      "inputs": [
        {
          "indexed": true,
          "internalType": "bytes32",
          "name": "stashId",
          "type": "bytes32"
        },
        {
          "indexed": true,
          "internalType": "address",
          "name": "delegatedCluster",
          "type": "address"
        }
      ],
      "name": "StashDelegated",
      "type": "event"
    },
    {
      "anonymous": false,
      "inputs": [
        {
          "indexed": true,
          "internalType": "bytes32",
          "name": "stashId",
          "type": "bytes32"
        },
        {
          "indexed": false,
          "internalType": "bytes32[]",
          "name": "tokenIds",
          "type": "bytes32[]"
        },
        {
          "indexed": false,
          "internalType": "uint256[]",
          "name": "amounts",
          "type": "uint256[]"
        }
      ],
      "name": "StashDeposit",
      "type": "event"
    },
    {
      "anonymous": false,
      "inputs": [
        {
          "indexed": true,
          "internalType": "bytes32",
          "name": "fromStashId",
          "type": "bytes32"
        },
        {
          "indexed": true,
          "internalType": "bytes32",
          "name": "toStashId",
          "type": "bytes32"
        },
        {
          "indexed": false,
          "internalType": "bytes32[]",
          "name": "tokenIds",
          "type": "bytes32[]"
        },
        {
          "indexed": false,
          "internalType": "uint256[]",
          "name": "amounts",
          "type": "uint256[]"
        }
      ],
      "name": "StashMove",
      "type": "event"
    },
    {
      "anonymous": false,
      "inputs": [
        {
          "indexed": true,
          "internalType": "bytes32",
          "name": "stashId",
          "type": "bytes32"
        },
        {
          "indexed": true,
          "internalType": "address",
          "name": "delegatedCluster",
          "type": "address"
        }
      ],
      "name": "StashUndelegated",
      "type": "event"
    },
    {
      "anonymous": false,
      "inputs": [
        {
          "indexed": true,
          "internalType": "bytes32",
          "name": "stashId",
          "type": "bytes32"
        },
        {
          "indexed": false,
          "internalType": "bytes32[]",
          "name": "tokenIds",
          "type": "bytes32[]"
        },
        {
          "indexed": false,
          "internalType": "uint256[]",
          "name": "amounts",
          "type": "uint256[]"
        }
      ],
      "name": "StashWithdraw",
      "type": "event"
    },
    {
      "anonymous": false,
      "inputs": [
        {
          "indexed": false,
          "internalType": "bytes32",
          "name": "tokenId",
          "type": "bytes32"
        },
        {
          "indexed": false,
          "internalType": "address",
          "name": "tokenAddress",
          "type": "address"
        }
      ],
      "name": "TokenAdded",
      "type": "event"
    },
    {
      "anonymous": false,
      "inputs": [
        {
          "indexed": false,
          "internalType": "bytes32",
          "name": "tokenId",
          "type": "bytes32"
        },
        {
          "indexed": false,
          "internalType": "address",
          "name": "oldTokenAddress",
          "type": "address"
        },
        {
          "indexed": false,
          "internalType": "address",
          "name": "newTokenAddress",
          "type": "address"
        }
      ],
      "name": "TokenUpdated",
      "type": "event"
    },
    {
      "anonymous": false,
      "inputs": [
        {
          "indexed": true,
          "internalType": "address",
          "name": "implementation",
          "type": "address"
        }
      ],
      "name": "Upgraded",
      "type": "event"
    },
    {
      "inputs": [],
      "name": "ACTIVE_TOKEN_ROLE",
      "outputs": [
        {
          "internalType": "bytes32",
          "name": "",
          "type": "bytes32"
        }
      ],
      "stateMutability": "view",
      "type": "function"
    },
    {
      "inputs": [],
      "name": "DEFAULT_ADMIN_ROLE",
      "outputs": [
        {
          "internalType": "bytes32",
          "name": "",
          "type": "bytes32"
        }
      ],
      "stateMutability": "view",
      "type": "function"
    },
    {
      "inputs": [],
      "name": "DELEGATABLE_TOKEN_ROLE",
      "outputs": [
        {
          "internalType": "bytes32",
          "name": "",
          "type": "bytes32"
        }
      ],
      "stateMutability": "view",
      "type": "function"
    },
    {
      "inputs": [],
      "name": "REDELEGATION_LOCK_SELECTOR",
      "outputs": [
        {
          "internalType": "bytes32",
          "name": "",
          "type": "bytes32"
        }
      ],
      "stateMutability": "view",
      "type": "function"
    },
    {
      "inputs": [],
      "name": "UNDELEGATION_LOCK_SELECTOR",
      "outputs": [
        {
          "internalType": "bytes32",
          "name": "",
          "type": "bytes32"
        }
      ],
      "stateMutability": "view",
      "type": "function"
    },
    {
      "inputs": [
        {
          "internalType": "bytes32",
          "name": "_stashId",
          "type": "bytes32"
        },
        {
          "internalType": "bytes32[]",
          "name": "_tokens",
          "type": "bytes32[]"
        },
        {
          "internalType": "uint256[]",
          "name": "_amounts",
          "type": "uint256[]"
        }
      ],
      "name": "addToStash",
      "outputs": [],
      "stateMutability": "nonpayable",
      "type": "function"
    },
    {
      "inputs": [
        {
          "internalType": "bytes32",
          "name": "_tokenId",
          "type": "bytes32"
        },
        {
          "internalType": "address",
          "name": "_address",
          "type": "address"
        }
      ],
      "name": "addToken",
      "outputs": [],
      "stateMutability": "nonpayable",
      "type": "function"
    },
    {
      "inputs": [
        {
          "internalType": "bytes32",
          "name": "_stashId",
          "type": "bytes32"
        }
      ],
      "name": "cancelRedelegation",
      "outputs": [],
      "stateMutability": "nonpayable",
      "type": "function"
    },
    {
      "inputs": [
        {
          "internalType": "bytes32",
          "name": "_stashId",
          "type": "bytes32"
        }
      ],
      "name": "cancelUndelegation",
      "outputs": [],
      "stateMutability": "nonpayable",
      "type": "function"
    },
    {
      "inputs": [
        {
          "internalType": "bytes32[]",
          "name": "_tokens",
          "type": "bytes32[]"
        },
        {
          "internalType": "uint256[]",
          "name": "_amounts",
          "type": "uint256[]"
        }
      ],
      "name": "createStash",
      "outputs": [
        {
          "internalType": "bytes32",
          "name": "",
          "type": "bytes32"
        }
      ],
      "stateMutability": "nonpayable",
      "type": "function"
    },
    {
      "inputs": [
        {
          "internalType": "bytes32[]",
          "name": "_tokens",
          "type": "bytes32[]"
        },
        {
          "internalType": "uint256[]",
          "name": "_amounts",
          "type": "uint256[]"
        },
        {
          "internalType": "address",
          "name": "_delegatedCluster",
          "type": "address"
        }
      ],
      "name": "createStashAndDelegate",
      "outputs": [],
      "stateMutability": "nonpayable",
      "type": "function"
    },
    {
      "inputs": [
        {
          "internalType": "bytes32",
          "name": "_stashId",
          "type": "bytes32"
        },
        {
          "internalType": "address",
          "name": "_delegatedCluster",
          "type": "address"
        }
      ],
      "name": "delegateStash",
      "outputs": [],
      "stateMutability": "nonpayable",
      "type": "function"
    },
    {
      "inputs": [
        {
          "internalType": "bytes32",
          "name": "_tokenId",
          "type": "bytes32"
        }
      ],
      "name": "disableToken",
      "outputs": [],
      "stateMutability": "nonpayable",
      "type": "function"
    },
    {
      "inputs": [
        {
          "internalType": "bytes32",
          "name": "_tokenId",
          "type": "bytes32"
        }
      ],
      "name": "enableToken",
      "outputs": [],
      "stateMutability": "nonpayable",
      "type": "function"
    },
    {
      "inputs": [
        {
          "internalType": "bytes32",
          "name": "role",
          "type": "bytes32"
        }
      ],
      "name": "getRoleAdmin",
      "outputs": [
        {
          "internalType": "bytes32",
          "name": "",
          "type": "bytes32"
        }
      ],
      "stateMutability": "view",
      "type": "function"
    },
    {
      "inputs": [
        {
          "internalType": "bytes32",
          "name": "role",
          "type": "bytes32"
        },
        {
          "internalType": "uint256",
          "name": "index",
          "type": "uint256"
        }
      ],
      "name": "getRoleMember",
      "outputs": [
        {
          "internalType": "address",
          "name": "",
          "type": "address"
        }
      ],
      "stateMutability": "view",
      "type": "function"
    },
    {
      "inputs": [
        {
          "internalType": "bytes32",
          "name": "role",
          "type": "bytes32"
        }
      ],
      "name": "getRoleMemberCount",
      "outputs": [
        {
          "internalType": "uint256",
          "name": "",
          "type": "uint256"
        }
      ],
      "stateMutability": "view",
      "type": "function"
    },
    {
      "inputs": [
        {
          "internalType": "bytes32",
          "name": "role",
          "type": "bytes32"
        },
        {
          "internalType": "address",
          "name": "account",
          "type": "address"
        }
      ],
      "name": "grantRole",
      "outputs": [],
      "stateMutability": "nonpayable",
      "type": "function"
    },
    {
      "inputs": [
        {
          "internalType": "bytes32",
          "name": "role",
          "type": "bytes32"
        },
        {
          "internalType": "address",
          "name": "account",
          "type": "address"
        }
      ],
      "name": "hasRole",
      "outputs": [
        {
          "internalType": "bool",
          "name": "",
          "type": "bool"
        }
      ],
      "stateMutability": "view",
      "type": "function"
    },
    {
      "inputs": [
        {
          "internalType": "bytes32[]",
          "name": "_tokenIds",
          "type": "bytes32[]"
        },
        {
          "internalType": "address[]",
          "name": "_tokenAddresses",
          "type": "address[]"
        },
        {
          "internalType": "bool[]",
          "name": "_delegatable",
          "type": "bool[]"
        },
        {
          "internalType": "address",
          "name": "_rewardDelegatorsAddress",
          "type": "address"
        },
        {
          "internalType": "uint256",
          "name": "_redelegationWaitTime",
          "type": "uint256"
        },
        {
          "internalType": "uint256",
          "name": "_undelegationWaitTime",
          "type": "uint256"
        }
      ],
      "name": "initialize",
      "outputs": [],
      "stateMutability": "nonpayable",
      "type": "function"
    },
    {
      "inputs": [
        {
          "internalType": "bytes32",
          "name": "",
          "type": "bytes32"
        }
      ],
      "name": "lockWaitTime",
      "outputs": [
        {
          "internalType": "uint256",
          "name": "",
          "type": "uint256"
        }
      ],
      "stateMutability": "view",
      "type": "function"
    },
    {
      "inputs": [
        {
          "internalType": "bytes32",
          "name": "",
          "type": "bytes32"
        }
      ],
      "name": "locks",
      "outputs": [
        {
          "internalType": "uint256",
          "name": "unlockTime",
          "type": "uint256"
        },
        {
          "internalType": "uint256",
          "name": "iValue",
          "type": "uint256"
        }
      ],
      "stateMutability": "view",
      "type": "function"
    },
    {
      "inputs": [
        {
          "internalType": "bytes32",
          "name": "_stashId1",
          "type": "bytes32"
        },
        {
          "internalType": "bytes32",
          "name": "_stashId2",
          "type": "bytes32"
        }
      ],
      "name": "mergeStash",
      "outputs": [],
      "stateMutability": "nonpayable",
      "type": "function"
    },
    {
      "inputs": [],
      "name": "proxiableUUID",
      "outputs": [
        {
          "internalType": "bytes32",
          "name": "",
          "type": "bytes32"
        }
      ],
      "stateMutability": "view",
      "type": "function"
    },
    {
      "inputs": [
        {
          "internalType": "bytes32",
          "name": "_stashId",
          "type": "bytes32"
        }
      ],
      "name": "redelegateStash",
      "outputs": [],
      "stateMutability": "nonpayable",
      "type": "function"
    },
    {
      "inputs": [
        {
          "internalType": "bytes32[]",
          "name": "_stashIds",
          "type": "bytes32[]"
        }
      ],
      "name": "redelegateStashes",
      "outputs": [],
      "stateMutability": "nonpayable",
      "type": "function"
    },
    {
      "inputs": [
        {
          "internalType": "bytes32",
          "name": "role",
          "type": "bytes32"
        },
        {
          "internalType": "address",
          "name": "account",
          "type": "address"
        }
      ],
      "name": "renounceRole",
      "outputs": [],
      "stateMutability": "nonpayable",
      "type": "function"
    },
    {
      "inputs": [
        {
          "internalType": "bytes32",
          "name": "_stashId",
          "type": "bytes32"
        },
        {
          "internalType": "address",
          "name": "_newCluster",
          "type": "address"
        }
      ],
      "name": "requestStashRedelegation",
      "outputs": [],
      "stateMutability": "nonpayable",
      "type": "function"
    },
    {
      "inputs": [
        {
          "internalType": "bytes32[]",
          "name": "_stashIds",
          "type": "bytes32[]"
        },
        {
          "internalType": "address[]",
          "name": "_newClusters",
          "type": "address[]"
        }
      ],
      "name": "requestStashRedelegations",
      "outputs": [],
      "stateMutability": "nonpayable",
      "type": "function"
    },
    {
      "inputs": [
        {
          "internalType": "bytes32",
          "name": "role",
          "type": "bytes32"
        },
        {
          "internalType": "address",
          "name": "account",
          "type": "address"
        }
      ],
      "name": "revokeRole",
      "outputs": [],
      "stateMutability": "nonpayable",
      "type": "function"
    },
    {
      "inputs": [],
      "name": "rewardDelegators",
      "outputs": [
        {
          "internalType": "contract IRewardDelegators",
          "name": "",
          "type": "address"
        }
      ],
      "stateMutability": "view",
      "type": "function"
    },
    {
      "inputs": [
        {
          "internalType": "bytes32",
          "name": "_stashId",
          "type": "bytes32"
        },
        {
          "internalType": "bytes32[]",
          "name": "_tokens",
          "type": "bytes32[]"
        },
        {
          "internalType": "uint256[]",
          "name": "_amounts",
          "type": "uint256[]"
        }
      ],
      "name": "splitStash",
      "outputs": [],
      "stateMutability": "nonpayable",
      "type": "function"
    },
    {
      "inputs": [],
      "name": "stashIndex",
      "outputs": [
        {
          "internalType": "uint256",
          "name": "",
          "type": "uint256"
        }
      ],
      "stateMutability": "view",
      "type": "function"
    },
    {
      "inputs": [
        {
          "internalType": "bytes32",
          "name": "",
          "type": "bytes32"
        }
      ],
      "name": "stashes",
      "outputs": [
        {
          "internalType": "address",
          "name": "staker",
          "type": "address"
        },
        {
          "internalType": "address",
          "name": "delegatedCluster",
          "type": "address"
        }
      ],
      "stateMutability": "view",
      "type": "function"
    },
    {
      "inputs": [
        {
          "internalType": "bytes32",
          "name": "_stashId",
          "type": "bytes32"
        },
        {
          "internalType": "bytes32",
          "name": "_tokenId",
          "type": "bytes32"
        }
      ],
      "name": "stashes__amounts",
      "outputs": [
        {
          "internalType": "uint256",
          "name": "",
          "type": "uint256"
        }
      ],
      "stateMutability": "view",
      "type": "function"
    },
    {
      "inputs": [
        {
          "internalType": "bytes4",
          "name": "interfaceId",
          "type": "bytes4"
        }
      ],
      "name": "supportsInterface",
      "outputs": [
        {
          "internalType": "bool",
          "name": "",
          "type": "bool"
        }
      ],
      "stateMutability": "view",
      "type": "function"
    },
    {
      "inputs": [
        {
          "internalType": "bytes32",
          "name": "",
          "type": "bytes32"
        }
      ],
      "name": "tokenIndex",
      "outputs": [
        {
          "internalType": "uint256",
          "name": "",
          "type": "uint256"
        }
      ],
      "stateMutability": "view",
      "type": "function"
    },
    {
      "inputs": [
        {
          "internalType": "uint256",
          "name": "",
          "type": "uint256"
        }
      ],
      "name": "tokenList",
      "outputs": [
        {
          "internalType": "bytes32",
          "name": "",
          "type": "bytes32"
        }
      ],
      "stateMutability": "view",
      "type": "function"
    },
    {
      "inputs": [
        {
          "internalType": "bytes32",
          "name": "",
          "type": "bytes32"
        }
      ],
      "name": "tokens",
      "outputs": [
        {
          "internalType": "address",
          "name": "",
          "type": "address"
        }
      ],
      "stateMutability": "view",
      "type": "function"
    },
    {
      "inputs": [
        {
          "internalType": "bytes32",
          "name": "_stashId",
          "type": "bytes32"
        }
      ],
      "name": "undelegateStash",
      "outputs": [],
      "stateMutability": "nonpayable",
      "type": "function"
    },
    {
      "inputs": [
        {
          "internalType": "bytes32[]",
          "name": "_stashIds",
          "type": "bytes32[]"
        }
      ],
      "name": "undelegateStashes",
      "outputs": [],
      "stateMutability": "nonpayable",
      "type": "function"
    },
    {
      "inputs": [
        {
          "internalType": "bytes32",
          "name": "_selector",
          "type": "bytes32"
        },
        {
          "internalType": "uint256",
          "name": "_updatedWaitTime",
          "type": "uint256"
        }
      ],
      "name": "updateLockWaitTime",
      "outputs": [],
      "stateMutability": "nonpayable",
      "type": "function"
    },
    {
      "inputs": [
        {
          "internalType": "address",
          "name": "_updatedRewardDelegator",
          "type": "address"
        }
      ],
      "name": "updateRewardDelegators",
      "outputs": [],
      "stateMutability": "nonpayable",
      "type": "function"
    },
    {
      "inputs": [
        {
          "internalType": "bytes32",
          "name": "_tokenId",
          "type": "bytes32"
        },
        {
          "internalType": "address",
          "name": "_address",
          "type": "address"
        }
      ],
      "name": "updateToken",
      "outputs": [],
      "stateMutability": "nonpayable",
      "type": "function"
    },
    {
      "inputs": [
        {
          "internalType": "address",
          "name": "newImplementation",
          "type": "address"
        }
      ],
      "name": "upgradeTo",
      "outputs": [],
      "stateMutability": "nonpayable",
      "type": "function"
    },
    {
      "inputs": [
        {
          "internalType": "address",
          "name": "newImplementation",
          "type": "address"
        },
        {
          "internalType": "bytes",
          "name": "data",
          "type": "bytes"
        }
      ],
      "name": "upgradeToAndCall",
      "outputs": [],
      "stateMutability": "payable",
      "type": "function"
    },
    {
      "inputs": [
        {
          "internalType": "bytes32",
          "name": "_stashId",
          "type": "bytes32"
        }
      ],
      "name": "withdrawStash",
      "outputs": [],
      "stateMutability": "nonpayable",
      "type": "function"
    },
    {
      "inputs": [
        {
          "internalType": "bytes32",
          "name": "_stashId",
          "type": "bytes32"
        },
        {
          "internalType": "bytes32[]",
          "name": "_tokens",
          "type": "bytes32[]"
        },
        {
          "internalType": "uint256[]",
          "name": "_amounts",
          "type": "uint256[]"
        }
      ],
      "name": "withdrawStash",
      "outputs": [],
      "stateMutability": "nonpayable",
      "type": "function"
    }
  ],
  "bytecode": "0x60a0604052306080523480156200001557600080fd5b50600054610100900460ff1615808015620000375750600054600160ff909116105b8062000067575062000054306200014160201b620023991760201c565b15801562000067575060005460ff166001145b620000cf5760405162461bcd60e51b815260206004820152602e60248201527f496e697469616c697a61626c653a20636f6e747261637420697320616c72656160448201526d191e481a5b9a5d1a585b1a5e995960921b606482015260840160405180910390fd5b6000805460ff191660011790558015620000f3576000805461ff0019166101001790555b80156200013a576000805461ff0019169055604051600181527f7f26b83ff96e1f2b6a682f133852f6798a09c465da95921460cefb38474024989060200160405180910390a15b5062000150565b6001600160a01b03163b151590565b608051614d7f6200018860003960008181610c8401528181610d1a0152818161121c015281816112b201526113a90152614d7f6000f3fe6080604052600436106103135760003560e01c80637ccf78561161019a578063b6ce4dd3116100e1578063d547741f1161008a578063f69173a811610064578063f69173a8146109e4578063ff921e0714610a18578063fff0d19014610a4c57600080fd5b8063d547741f1461095a578063e16528431461097a578063ed5e84371461099a57600080fd5b8063c0403fb1116100bb578063c0403fb1146108fa578063c5fe6a0a1461091a578063ca15c8731461093a57600080fd5b8063b6ce4dd31461089a578063bcda6408146108ba578063bf3e116b146108da57600080fd5b80639ead722211610143578063a8834f4e1161011d578063a8834f4e1461083a578063aa49f0911461085a578063b1f4d1cf1461087a57600080fd5b80639ead7222146107a3578063a217fddf146107c3578063a76f955f146107d857600080fd5b8063904194a311610174578063904194a31461070657806391d148541461073d5780639776aacf1461078357600080fd5b80637ccf7856146106925780638616e44d146106c65780639010d07c146106e657600080fd5b80633fa364cd1161025e57806352d1902d116102075780636dd3266d116101e15780636dd3266d1461061e57806373e1e1331461063e578063782a580d1461067257600080fd5b806352d1902d146105c957806353ee0ae1146105de5780635dc47b57146105fe57600080fd5b806348ad85721161023857806348ad8572146105685780634c8e7d81146105965780634f1ef286146105b657600080fd5b80633fa364cd146104ef578063452a62791461052857806347ae58b31461054857600080fd5b8063248a9ca3116102c057806336568abe1161029a57806336568abe1461048f5780633659cfe6146104af57806338e6cc38146104cf57600080fd5b8063248a9ca3146104115780632f2ff15d1461044157806331b600861461046157600080fd5b806315c5dfa5116102f157806315c5dfa5146103ba5780631a282d99146103d1578063244864d8146103f157600080fd5b806301ffc9a714610318578063044ff62b1461034d5780630b529cd21461036f575b600080fd5b34801561032457600080fd5b506103386103333660046143d8565b610a6c565b60405190151581526020015b60405180910390f35b34801561035957600080fd5b5061036d61036836600461441a565b610a7d565b005b34801561037b57600080fd5b506103ac61038a366004614433565b60009182526103b7602090815260408084209284526002909201905290205490565b604051908152602001610344565b3480156103c657600080fd5b506103ac6103b85481565b3480156103dd57600080fd5b5061036d6103ec36600461441a565b610ab9565b3480156103fd57600080fd5b5061036d61040c3660046145c2565b610b60565b34801561041d57600080fd5b506103ac61042c36600461441a565b60009081526065602052604090206001015490565b34801561044d57600080fd5b5061036d61045c366004614626565b610bc8565b34801561046d57600080fd5b506103ac61047c36600461441a565b6103876020526000908152604090205481565b34801561049b57600080fd5b5061036d6104aa366004614626565b610bed565b3480156104bb57600080fd5b5061036d6104ca366004614652565b610c7a565b3480156104db57600080fd5b5061036d6104ea366004614626565b610e17565b3480156104fb57600080fd5b506103b954610510906001600160a01b031681565b6040516001600160a01b039091168152602001610344565b34801561053457600080fd5b5061036d61054336600461441a565b611018565b34801561055457600080fd5b5061036d610563366004614652565b6111d8565b34801561057457600080fd5b506103ac61058336600461441a565b6103546020526000908152604090205481565b3480156105a257600080fd5b5061036d6105b136600461441a565b6111f5565b61036d6105c436600461466d565b611212565b3480156105d557600080fd5b506103ac61139c565b3480156105ea57600080fd5b5061036d6105f936600461441a565b611461565b34801561060a57600080fd5b5061036d61061936600461441a565b61147e565b34801561062a57600080fd5b5061036d610639366004614626565b611639565b34801561064a57600080fd5b506103ac7fbffa22f89de4bb607bc9ab156b846135f273823b0ae46fc6b16249b9f49e771481565b34801561067e57600080fd5b5061036d61068d366004614721565b6116cb565b34801561069e57600080fd5b506103ac7f4d3dbfb53869492168af5c59fe4a1cdef8a00fa98ee9b8ca87a581d1c078b83f81565b3480156106d257600080fd5b5061036d6106e1366004614877565b611996565b3480156106f257600080fd5b50610510610701366004614433565b611ac9565b34801561071257600080fd5b5061051061072136600461441a565b610385602052600090815260409020546001600160a01b031681565b34801561074957600080fd5b50610338610758366004614626565b60009182526065602090815260408084206001600160a01b0393909316845291905290205460ff1690565b34801561078f57600080fd5b5061036d61079e366004614626565b611ae8565b3480156107af57600080fd5b506103ac6107be36600461441a565b611b06565b3480156107cf57600080fd5b506103ac600081565b3480156107e457600080fd5b5061081a6107f336600461441a565b6103b760205260009081526040902080546001909101546001600160a01b03918216911682565b604080516001600160a01b03938416815292909116602083015201610344565b34801561084657600080fd5b5061036d610855366004614877565b611b28565b34801561086657600080fd5b5061036d610875366004614877565b611c35565b34801561088657600080fd5b5061036d6108953660046148f1565b611d71565b3480156108a657600080fd5b5061036d6108b53660046148f1565b611db1565b3480156108c657600080fd5b5061036d6108d5366004614433565b611df1565b3480156108e657600080fd5b5061036d6108f5366004614926565b61210e565b34801561090657600080fd5b506103ac61091536600461499a565b612126565b34801561092657600080fd5b5061036d610935366004614626565b61215c565b34801561094657600080fd5b506103ac61095536600461441a565b61217a565b34801561096657600080fd5b5061036d610975366004614626565b612191565b34801561098657600080fd5b5061036d61099536600461441a565b6121b6565b3480156109a657600080fd5b506109cf6109b536600461441a565b610353602052600090815260409020805460019091015482565b60408051928352602083019190915201610344565b3480156109f057600080fd5b506103ac7fc9fb5027edad04dc7cbd44766b39dcb7d42c498b3b47b80001805039c63cf1e081565b348015610a2457600080fd5b506103ac7f44c232fa4ba6384d555a9a432ba4f966f6bb365faedad299c1e9dcdfe2f2e40181565b348015610a5857600080fd5b5061036d610a67366004614433565b61237b565b6000610a77826123a8565b92915050565b60008181526103b7602052604090205481906001600160a01b03163314610aa357600080fd5b610aac826123fe565b610ab557600080fd5b5050565b60008181526103b7602052604090205481906001600160a01b03163314610adf57600080fd5b60008281526103b760205260409020600101546001600160a01b0316610b0457600080fd5b6000610b307fc9fb5027edad04dc7cbd44766b39dcb7d42c498b3b47b80001805039c63cf1e084612477565b60008481526103b76020526040902060010154909150610b5b9084906001600160a01b0316836124aa565b505050565b8051825114610b6e57600080fd5b60005b8251811015610b5b57610bb6838281518110610b8f57610b8f6149f4565b6020026020010151838381518110610ba957610ba96149f4565b6020026020010151611639565b80610bc081614a52565b915050610b71565b600082815260656020526040902060010154610be3816125dc565b610b5b83836125e6565b6001600160a01b0381163314610c705760405162461bcd60e51b815260206004820152602f60248201527f416363657373436f6e74726f6c3a2063616e206f6e6c792072656e6f756e636560448201527f20726f6c657320666f722073656c66000000000000000000000000000000000060648201526084015b60405180910390fd5b610ab582826125f0565b6001600160a01b037f0000000000000000000000000000000000000000000000000000000000000000163003610d185760405162461bcd60e51b815260206004820152602c60248201527f46756e6374696f6e206d7573742062652063616c6c6564207468726f7567682060448201527f64656c656761746563616c6c00000000000000000000000000000000000000006064820152608401610c67565b7f00000000000000000000000000000000000000000000000000000000000000006001600160a01b0316610d737f360894a13ba1a3210667c828492db98dca3e2076cc3735a920a3ca505d382bbc546001600160a01b031690565b6001600160a01b031614610def5760405162461bcd60e51b815260206004820152602c60248201527f46756e6374696f6e206d7573742062652063616c6c6564207468726f7567682060448201527f6163746976652070726f787900000000000000000000000000000000000000006064820152608401610c67565b610df881612610565b60408051600080825260208201909252610e1491839190612624565b50565b60008281526103b7602052604090205482906001600160a01b03163314610e3d57600080fd5b6001600160a01b038216610e5057600080fd5b60008381526103b760205260409020600101546001600160a01b031615610e7657600080fd5b6002610ea27fbffa22f89de4bb607bc9ab156b846135f273823b0ae46fc6b16249b9f49e7714856127c4565b6002811115610eb357610eb3614a8a565b03610ebd57600080fd5b610ee77fbffa22f89de4bb607bc9ab156b846135f273823b0ae46fc6b16249b9f49e77148461283d565b506000610386805480602002602001604051908101604052809291908181526020018280548015610f3757602002820191906000526020600020905b815481526020019060010190808311610f23575b505050505090506000815167ffffffffffffffff811115610f5a57610f5a614455565b604051908082528060200260200182016040528015610f83578160200160208202803683370190505b50905060005b8251811015611003576103b760008781526020019081526020016000206002016000848381518110610fbd57610fbd6149f4565b6020026020010151815260200190815260200160002054828281518110610fe657610fe66149f4565b602090810291909101015280610ffb81614a52565b915050610f89565b5061101133868484886128cd565b5050505050565b60008181526103b7602052604090205481906001600160a01b0316331461103e57600080fd5b60008281526103b760205260409020600101546001600160a01b03161561106457600080fd5b60026110907fbffa22f89de4bb607bc9ab156b846135f273823b0ae46fc6b16249b9f49e7714846127c4565b60028111156110a1576110a1614a8a565b036110ab57600080fd5b60006103868054806020026020016040519081016040528092919081815260200182805480156110fa57602002820191906000526020600020905b8154815260200190600101908083116110e6575b505050505090506000815167ffffffffffffffff81111561111d5761111d614455565b604051908082528060200260200182016040528015611146578160200160208202803683370190505b50905060005b82518110156111c6576103b760008681526020019081526020016000206002016000848381518110611180576111806149f4565b60200260200101518152602001908152602001600020548282815181106111a9576111a96149f4565b6020908102919091010152806111be81614a52565b91505061114c565b506111d28483836129dd565b50505050565b6111e3600033610758565b6111ec57600080fd5b610e1481612b0c565b611200600033610758565b61120957600080fd5b610e1481612b8f565b6001600160a01b037f00000000000000000000000000000000000000000000000000000000000000001630036112b05760405162461bcd60e51b815260206004820152602c60248201527f46756e6374696f6e206d7573742062652063616c6c6564207468726f7567682060448201527f64656c656761746563616c6c00000000000000000000000000000000000000006064820152608401610c67565b7f00000000000000000000000000000000000000000000000000000000000000006001600160a01b031661130b7f360894a13ba1a3210667c828492db98dca3e2076cc3735a920a3ca505d382bbc546001600160a01b031690565b6001600160a01b0316146113875760405162461bcd60e51b815260206004820152602c60248201527f46756e6374696f6e206d7573742062652063616c6c6564207468726f7567682060448201527f6163746976652070726f787900000000000000000000000000000000000000006064820152608401610c67565b61139082612610565b610ab582826001612624565b6000306001600160a01b037f0000000000000000000000000000000000000000000000000000000000000000161461143c5760405162461bcd60e51b815260206004820152603860248201527f555550535570677261646561626c653a206d757374206e6f742062652063616c60448201527f6c6564207468726f7567682064656c656761746563616c6c00000000000000006064820152608401610c67565b507f360894a13ba1a3210667c828492db98dca3e2076cc3735a920a3ca505d382bbc90565b61146c600033610758565b61147557600080fd5b610e1481612c29565b60008181526103b7602052604090205481906001600160a01b031633146114a457600080fd5b60008281526103b760205260409020600101546001600160a01b0316806114ca57600080fd5b600061038680548060200260200160405190810160405280929190818152602001828054801561151957602002820191906000526020600020905b815481526020019060010190808311611505575b505050505090506000815167ffffffffffffffff81111561153c5761153c614455565b604051908082528060200260200182016040528015611565578160200160208202803683370190505b50905060005b82518110156115e5576103b76000878152602001908152602001600020600201600084838151811061159f5761159f6149f4565b60200260200101518152602001908152602001600020548282815181106115c8576115c86149f4565b6020908102919091010152806115dd81614a52565b91505061156b565b506115f33386848487612cbf565b6116277fbffa22f89de4bb607bc9ab156b846135f273823b0ae46fc6b16249b9f49e771486856001600160a01b0316612dc6565b50611631856123fe565b505050505050565b60008281526103b7602052604090205482906001600160a01b0316331461165f57600080fd5b60008381526103b760205260409020600101546001600160a01b031661168457600080fd5b6001600160a01b03821661169757600080fd5b6111d27fc9fb5027edad04dc7cbd44766b39dcb7d42c498b3b47b80001805039c63cf1e084846001600160a01b0316612dc6565b600054610100900460ff16158080156116eb5750600054600160ff909116105b806117055750303b158015611705575060005460ff166001145b6117775760405162461bcd60e51b815260206004820152602e60248201527f496e697469616c697a61626c653a20636f6e747261637420697320616c72656160448201527f647920696e697469616c697a65640000000000000000000000000000000000006064820152608401610c67565b600080547fffffffffffffffffffffffffffffffffffffffffffffffffffffffffffffff0016600117905580156117d557600080547fffffffffffffffffffffffffffffffffffffffffffffffffffffffffffff00ff166101001790555b6117dd612e96565b6117e5612e96565b6117ed612e96565b6117f5612e96565b6117fd612e96565b611805612e96565b611810600033612f15565b60005b87518110156118cc57611858888281518110611831576118316149f4565b602002602001015188838151811061184b5761184b6149f4565b6020026020010151612f1f565b85818151811061186a5761186a6149f4565b6020026020010151156118ba576118ba7f4d3dbfb53869492168af5c59fe4a1cdef8a00fa98ee9b8ca87a581d1c078b83f8883815181106118ad576118ad6149f4565b6020026020010151612f15565b806118c481614a52565b915050611813565b506118d684612b0c565b6119007fc9fb5027edad04dc7cbd44766b39dcb7d42c498b3b47b80001805039c63cf1e08461301a565b61192a7fbffa22f89de4bb607bc9ab156b846135f273823b0ae46fc6b16249b9f49e77148361301a565b801561198d57600080547fffffffffffffffffffffffffffffffffffffffffffffffffffffffffffff00ff169055604051600181527f7f26b83ff96e1f2b6a682f133852f6798a09c465da95921460cefb38474024989060200160405180910390a15b50505050505050565b60008581526103b7602052604090205485906001600160a01b031633146119bc57600080fd5b8382146119c857600080fd5b611a368686868080602002602001604051908101604052809392919081815260200183836020028082843760009201919091525050604080516020808a0282810182019093528982529093508992508891829185019084908082843760009201919091525061307992505050565b60008681526103b760205260409020600101546001600160a01b0316801561198d5761198d338888888080602002602001604051908101604052809392919081815260200183836020028082843760009201919091525050604080516020808c0282810182019093528b82529093508b92508a9182918501908490808284376000920191909152508892506128cd915050565b6000828152609760205260408120611ae190836131f0565b9392505050565b611af3600033610758565b611afc57600080fd5b610ab58282612f1f565b6103868181548110611b1757600080fd5b600091825260209091200154905081565b60008581526103b7602052604090205485906001600160a01b03163314611b4e57600080fd5b60008681526103b760205260409020600101546001600160a01b031615611b7457600080fd5b6002611ba07fbffa22f89de4bb607bc9ab156b846135f273823b0ae46fc6b16249b9f49e7714886127c4565b6002811115611bb157611bb1614a8a565b03611bbb57600080fd5b838214611bc757600080fd5b6116318686868080602002602001604051908101604052809392919081815260200183836020028082843760009201919091525050604080516020808a028281018201909352898252909350899250889182918501908490808284376000920191909152506129dd92505050565b60008581526103b7602052604090205485906001600160a01b03163314611c5b57600080fd5b6000849003611c6957600080fd5b838214611c7557600080fd5b6000611c80336131fc565b9050611cf1878288888080602002602001604051908101604052809392919081815260200183836020028082843760009201919091525050604080516020808c0282810182019093528b82529093508b92508a91829185019084908082843760009201919091525061327c92505050565b60008781526103b760205260408082206001908101548484529190922090910180547fffffffffffffffffffffffff0000000000000000000000000000000000000000166001600160a01b0390921691909117905561198d7fbffa22f89de4bb607bc9ab156b846135f273823b0ae46fc6b16249b9f49e771488836133c5565b60005b8151811015610ab557611d9f828281518110611d9257611d926149f4565b6020026020010151610ab9565b80611da981614a52565b915050611d74565b60005b8151811015610ab557611ddf828281518110611dd257611dd26149f4565b602002602001015161147e565b80611de981614a52565b915050611db4565b60008281526103b7602052604090205482906001600160a01b03163314611e1757600080fd5b60008281526103b7602052604090205482906001600160a01b03163314611e3d57600080fd5b828403611e4957600080fd5b60008381526103b7602052604080822060019081015487845291909220909101546001600160a01b03908116911614611e8157600080fd5b6002611ead7fbffa22f89de4bb607bc9ab156b846135f273823b0ae46fc6b16249b9f49e7714866127c4565b6002811115611ebe57611ebe614a8a565b14158015611f0757506002611ef37fbffa22f89de4bb607bc9ab156b846135f273823b0ae46fc6b16249b9f49e7714856127c4565b6002811115611f0457611f04614a8a565b14155b8015611f4d57506000611f3a7fc9fb5027edad04dc7cbd44766b39dcb7d42c498b3b47b80001805039c63cf1e0866127c4565b6002811115611f4b57611f4b614a8a565b145b8015611f9357506000611f807fc9fb5027edad04dc7cbd44766b39dcb7d42c498b3b47b80001805039c63cf1e0856127c4565b6002811115611f9157611f91614a8a565b145b611f9c57600080fd5b6000610386805480602002602001604051908101604052809291908181526020018280548015611feb57602002820191906000526020600020905b815481526020019060010190808311611fd7575b505050505090506000815167ffffffffffffffff81111561200e5761200e614455565b604051908082528060200260200182016040528015612037578160200160208202803683370190505b50905060005b82518110156120b7576103b760008781526020019081526020016000206002016000848381518110612071576120716149f4565b602002602001015181526020019081526020016000205482828151811061209a5761209a6149f4565b6020908102919091010152806120af81614a52565b91505061203d565b506120c48587848461327c565b5050506000918252506103b76020526040902080547fffffffffffffffffffffffff0000000000000000000000000000000000000000908116825560019091018054909116905550565b600061211a8484612126565b90506111d28183610e17565b6000815183511461213657600080fd5b825160000361214457600080fd5b600061214f336131fc565b9050611ae1818585613079565b612167600033610758565b61217057600080fd5b610ab58282613483565b6000818152609760205260408120610a7790613546565b6000828152606560205260409020600101546121ac816125dc565b610b5b83836125f0565b60008181526103b7602052604090205481906001600160a01b031633146121dc57600080fd5b60026122087fbffa22f89de4bb607bc9ab156b846135f273823b0ae46fc6b16249b9f49e7714846127c4565b600281111561221957612219614a8a565b1461222357600080fd5b600061224f7fbffa22f89de4bb607bc9ab156b846135f273823b0ae46fc6b16249b9f49e77148461283d565b905060006103868054806020026020016040519081016040528092919081815260200182805480156122a057602002820191906000526020600020905b81548152602001906001019080831161228c575b505050505090506000815167ffffffffffffffff8111156122c3576122c3614455565b6040519080825280602002602001820160405280156122ec578160200160208202803683370190505b50905060005b825181101561236c576103b760008781526020019081526020016000206002016000848381518110612326576123266149f4565b602002602001015181526020019081526020016000205482828151811061234f5761234f6149f4565b60209081029190910101528061236481614a52565b9150506122f2565b50611011335b868484876128cd565b612386600033610758565b61238f57600080fd5b610ab5828261301a565b6001600160a01b03163b151590565b60007fffffffff0000000000000000000000000000000000000000000000000000000082167f5a05180f000000000000000000000000000000000000000000000000000000001480610a775750610a7782613550565b6000808061242c7fc9fb5027edad04dc7cbd44766b39dcb7d42c498b3b47b80001805039c63cf1e0856127c4565b600281111561243d5761243d614a8a565b1480159150610a77576124707fc9fb5027edad04dc7cbd44766b39dcb7d42c498b3b47b80001805039c63cf1e08461283d565b5092915050565b6000600161248584846127c4565b600281111561249657612496614a8a565b146124a057600080fd5b611ae1838361283d565b60006103868054806020026020016040519081016040528092919081815260200182805480156124f957602002820191906000526020600020905b8154815260200190600101908083116124e5575b505050505090506000815167ffffffffffffffff81111561251c5761251c614455565b604051908082528060200260200182016040528015612545578160200160208202803683370190505b50905060005b82518110156125c5576103b76000878152602001908152602001600020600201600084838151811061257f5761257f6149f4565b60200260200101518152602001908152602001600020548282815181106125a8576125a86149f4565b6020908102919091010152806125bd81614a52565b91505061254b565b506125d33386848488612cbf565b61101133612372565b610e1481336135e7565b610ab5828261365c565b6125fa828261367e565b612604600061217a565b600003610ab557600080fd5b61261b600033610758565b610e1457600080fd5b7f4910fdfa16fed3260ed0e7147f7cc6da11a60208b5b9406d12a635614ffd91435460ff161561265757610b5b836136a0565b826001600160a01b03166352d1902d6040518163ffffffff1660e01b8152600401602060405180830381865afa9250505080156126b1575060408051601f3d908101601f191682019092526126ae91810190614ab9565b60015b6127235760405162461bcd60e51b815260206004820152602e60248201527f45524331393637557067726164653a206e657720696d706c656d656e7461746960448201527f6f6e206973206e6f7420555550530000000000000000000000000000000000006064820152608401610c67565b7f360894a13ba1a3210667c828492db98dca3e2076cc3735a920a3ca505d382bbc81146127b85760405162461bcd60e51b815260206004820152602960248201527f45524331393637557067726164653a20756e737570706f727465642070726f7860448201527f6961626c655555494400000000000000000000000000000000000000000000006064820152608401610c67565b50610b5b838383613776565b60008083836040516020016127e3929190918252602082015260400190565b60408051601f1981840301815291815281516020928301206000818152610353909352908220549092509081900361282057600092505050610a77565b42811161283257600192505050610a77565b600292505050610a77565b600080838360405160200161285c929190918252602082015260400190565b60408051808303601f19018152828252805160209182012060008181526103538352928320600181018054918590559390935582845293509091859187917fdbe35a54268d79c0dfe35aa29c4972c87611267a6b4db6414ffa0c2ae78ac649910160405180910390a3949350505050565b60008481526103b760205260409081902060010180547fffffffffffffffffffffffff0000000000000000000000000000000000000000166001600160a01b03848116919091179091556103b95491517f242ae35800000000000000000000000000000000000000000000000000000000815291169063242ae3589061295d908890859088908890600401614b0d565b600060405180830381600087803b15801561297757600080fd5b505af115801561298b573d6000803e3d6000fd5b50505060008581526103b760205260408082206001015490516001600160a01b03909116925086917f1d7a1ceec042fe10baf115a3343fbc7647382acfb27b3bb9d63877a592627c8191a35050505050565b60005b8251811015612acc5760008382815181106129fd576129fd6149f4565b60200260200101519050828281518110612a1957612a196149f4565b6020026020010151600014612ab957828281518110612a3a57612a3a6149f4565b60209081029190910181015160008781526103b7835260408082208583526002019093529190912054612a6d9190614b4b565b60008681526103b7602090815260408083208584526002019091529020558251612ab9908290859085908110612aa557612aa56149f4565b6020026020010151612ab43390565b61379b565b5080612ac481614a52565b9150506129e0565b50827f0944dc3961d7f7271c509fe52b2e3e69873a675382fccfffe18beb9541b83ce48383604051612aff929190614b5e565b60405180910390a2505050565b6103b954604080516001600160a01b03928316815291831660208301527f2a8197e5c991d77af8f219ef84737d8b1fdeedacc5c472e8177b63c45bc0791b910160405180910390a16103b980547fffffffffffffffffffffffff0000000000000000000000000000000000000000166001600160a01b0392909216919091179055565b600081815261038560209081526040808320546001600160a01b031683527fc7cc228c7052ecd27b80b12bc0cd1ee35608d58f3a5df9a1dc00455ccb31d5ee90915290205460ff161515600114612be557600080fd5b60008181526103856020526040902054610e14907f44c232fa4ba6384d555a9a432ba4f966f6bb365faedad299c1e9dcdfe2f2e401906001600160a01b03166125f0565b600081815261038560209081526040808320546001600160a01b031683527fc7cc228c7052ecd27b80b12bc0cd1ee35608d58f3a5df9a1dc00455ccb31d5ee90915290205460ff1615612c7b57600080fd5b60008181526103856020526040902054610e14907f44c232fa4ba6384d555a9a432ba4f966f6bb365faedad299c1e9dcdfe2f2e401906001600160a01b03166125e6565b6103b9546040517f9a943e000000000000000000000000000000000000000000000000000000000081526001600160a01b0390911690639a943e0090612d0f908890859088908890600401614b0d565b600060405180830381600087803b158015612d2957600080fd5b505af1158015612d3d573d6000803e3d6000fd5b50505060008581526103b760205260408082206001015490516001600160a01b03909116925086917f339b49546d5c4afcfcb96f67709c5f0d005785b9a7d570eda5585375e00ff54991a350505060009081526103b76020526040902060010180547fffffffffffffffffffffffff000000000000000000000000000000000000000016905550565b600080612dd385856127c4565b6002811115612de457612de4614a8a565b14612dee57600080fd5b6000848152610354602090815260408083205481518084018990528083018890528251808203840181526060909101909252815191909201209091612e338342614b83565b600083815261035360209081526040918290208381556001018890558151888152908101839052919250879189917f0d858fafaaaabbcb3b2d1ecac6142eb509664ef8d0cae011942541e3273001d5910160405180910390a39695505050505050565b600054610100900460ff16612f135760405162461bcd60e51b815260206004820152602b60248201527f496e697469616c697a61626c653a20636f6e7472616374206973206e6f74206960448201527f6e697469616c697a696e670000000000000000000000000000000000000000006064820152608401610c67565b565b610ab582826125e6565b6001600160a01b038116612f3257600080fd5b600082815261038560205260409020546001600160a01b031615612f5557600080fd5b60008281526103856020908152604080832080547fffffffffffffffffffffffff0000000000000000000000000000000000000000166001600160a01b0386169081179091556103868054610387855283862081905560018101825594527f6164d7c124b610d6fb3cd19a4618d7c748bf6f6cd2bd3f0031971bdb96adfc9d9093018590558051858152918201929092527f662cc3305b9b4ea3a5fd06717cdaece79b6ac0a7734fd44eabe0f37951dc587c910160405180910390a1610ab582612c29565b6000828152610354602090815260409182902054825190815290810183905283917f21a54b9df4e6fa389ce6d626ac659fe37069cae439958c382c427376f9fe5e4c910160405180910390a26000918252610354602052604090912055565b60005b82518110156131bd576000838281518110613099576130996149f4565b602090810291909101810151600081815261038583526040808220546001600160a01b031682527fc7cc228c7052ecd27b80b12bc0cd1ee35608d58f3a5df9a1dc00455ccb31d5ee909352919091205490915060ff166130f857600080fd5b82828151811061310a5761310a6149f4565b60200260200101516000146131aa5782828151811061312b5761312b6149f4565b60209081029190910181015160008781526103b783526040808220858352600201909352919091205461315e9190614b83565b60008681526103b76020908152604080832085845260020190915290205582516131aa908290859085908110613196576131966149f4565b60200260200101516131a53390565b613887565b50806131b581614a52565b91505061307c565b50827fa88a72768c570c13d76f2c5985d29ccee5d9036bdca94b83afe8397a82ba1b748383604051612aff929190614b5e565b6000611ae1838361397a565b6000806132076139a4565b60008181526103b7602052604080822080547fffffffffffffffffffffffff0000000000000000000000000000000000000000166001600160a01b03881690811790915590519293509183917f64c45e0e55623f6f3c1cd68aaf98bfa6a4dcdb23012761faf00a8db81662482691a392915050565b60005b825181101561338357600083828151811061329c5761329c6149f4565b602002602001015190508282815181106132b8576132b86149f4565b60209081029190910181015160008881526103b78352604080822085835260020190935291909120546132eb9190614b4b565b60008781526103b760209081526040808320858452600201909152902055825183908390811061331d5761331d6149f4565b60209081029190910181015160008781526103b78352604080822085835260020190935291909120546133509190614b83565b60008681526103b7602090815260408083209483526002909401905291909120558061337b81614a52565b91505061327f565b5082847fbfb66e3f7ee67345cfaa88c2cd7bcc891a8fe4213f06dfd457aa75201a3169a784846040516133b7929190614b5e565b60405180910390a350505050565b6040805160208082018690528183018590528251808303840181526060830184528051908201206080830187905260a08084018690528451808503909101815260c084018086528151918401919091206000838152610353909452858420805460019182015483875297909520858155018690559085905260e0840183905290939092859088907f0d858fafaaaabbcb3b2d1ecac6142eb509664ef8d0cae011942541e3273001d5906101000160405180910390a350505050505050565b6001600160a01b03811661349657600080fd5b600082815261038560205260409020546001600160a01b0316806134b957600080fd5b6000838152610385602090815260409182902080547fffffffffffffffffffffffff0000000000000000000000000000000000000000166001600160a01b03868116918217909255835187815291851692820192909252918201527f0178cc6533afb1053a370099de33a8f4a6c10adf023eba537c33721e13dc12739060600160405180910390a1505050565b6000610a77825490565b60007fffffffff0000000000000000000000000000000000000000000000000000000082167f7965db0b000000000000000000000000000000000000000000000000000000001480610a7757507f01ffc9a7000000000000000000000000000000000000000000000000000000007fffffffff00000000000000000000000000000000000000000000000000000000831614610a77565b60008281526065602090815260408083206001600160a01b038516845290915290205460ff16610ab55761361a816139e1565b6136258360206139f3565b604051602001613636929190614bba565b60408051601f198184030181529082905262461bcd60e51b8252610c6791600401614c3b565b6136668282613c1c565b6000828152609760205260409020610b5b9082613cdc565b6136888282613cf1565b6000828152609760205260409020610b5b9082613d92565b6001600160a01b0381163b61371d5760405162461bcd60e51b815260206004820152602d60248201527f455243313936373a206e657720696d706c656d656e746174696f6e206973206e60448201527f6f74206120636f6e7472616374000000000000000000000000000000000000006064820152608401610c67565b7f360894a13ba1a3210667c828492db98dca3e2076cc3735a920a3ca505d382bbc80547fffffffffffffffffffffffff0000000000000000000000000000000000000000166001600160a01b0392909216919091179055565b61377f83613da7565b60008251118061378c5750805b15610b5b576111d28383613de7565b600083815261038560209081526040808320546001600160a01b03168084527f0a3eab8cd9f60c9e0367439990368446ad91b9bab2ebacf466f3667b478ee4149092529091205460ff1615613873576040517fe1032b830000000000000000000000000000000000000000000000000000000081526001600160a01b0383811660048301526bffffffffffffffffffffffff8516602483015282169063e1032b8390604401600060405180830381600087803b15801561385a57600080fd5b505af115801561386e573d6000803e3d6000fd5b505050505b6111d26001600160a01b0382168385613ef2565b600083815261038560205260409020546001600160a01b03166138ac81833086613f9b565b6001600160a01b03811660009081527f0a3eab8cd9f60c9e0367439990368446ad91b9bab2ebacf466f3667b478ee414602052604090205460ff16156111d2576040517f8b41166c0000000000000000000000000000000000000000000000000000000081526001600160a01b0383811660048301526bffffffffffffffffffffffff85166024830152821690638b41166c90604401600060405180830381600087803b15801561395c57600080fd5b505af1158015613970573d6000803e3d6000fd5b5050505050505050565b6000826000018281548110613991576139916149f4565b9060005260206000200154905092915050565b6103b8546040805160208082018490528251808303820181529183019092528051910120600091906139d7826001614b83565b6103b85592915050565b6060610a776001600160a01b03831660145b60606000613a02836002614c6e565b613a0d906002614b83565b67ffffffffffffffff811115613a2557613a25614455565b6040519080825280601f01601f191660200182016040528015613a4f576020820181803683370190505b5090507f300000000000000000000000000000000000000000000000000000000000000081600081518110613a8657613a866149f4565b60200101907effffffffffffffffffffffffffffffffffffffffffffffffffffffffffffff1916908160001a9053507f780000000000000000000000000000000000000000000000000000000000000081600181518110613ae957613ae96149f4565b60200101907effffffffffffffffffffffffffffffffffffffffffffffffffffffffffffff1916908160001a9053506000613b25846002614c6e565b613b30906001614b83565b90505b6001811115613bcd577f303132333435363738396162636465660000000000000000000000000000000085600f1660108110613b7157613b716149f4565b1a60f81b828281518110613b8757613b876149f4565b60200101907effffffffffffffffffffffffffffffffffffffffffffffffffffffffffffff1916908160001a90535060049490941c93613bc681614c85565b9050613b33565b508315611ae15760405162461bcd60e51b815260206004820181905260248201527f537472696e67733a20686578206c656e67746820696e73756666696369656e746044820152606401610c67565b60008281526065602090815260408083206001600160a01b038516845290915290205460ff16610ab55760008281526065602090815260408083206001600160a01b0385168452909152902080547fffffffffffffffffffffffffffffffffffffffffffffffffffffffffffffff00166001179055613c983390565b6001600160a01b0316816001600160a01b0316837f2f8788117e7eff1d82e926ec794901d17c78024a50270940304540a733656f0d60405160405180910390a45050565b6000611ae1836001600160a01b038416613fec565b60008281526065602090815260408083206001600160a01b038516845290915290205460ff1615610ab55760008281526065602090815260408083206001600160a01b038516808552925280832080547fffffffffffffffffffffffffffffffffffffffffffffffffffffffffffffff0016905551339285917ff6391f5c32d9c69d2a47ea670b442974b53935d1edc7fd64eb21e047a839171b9190a45050565b6000611ae1836001600160a01b03841661403b565b613db0816136a0565b6040516001600160a01b038216907fbc7cd75a20ee27fd9adebab32041f755214dbc6bffa90cc0225b39da2e5c2d3b90600090a250565b60606001600160a01b0383163b613e665760405162461bcd60e51b815260206004820152602660248201527f416464726573733a2064656c65676174652063616c6c20746f206e6f6e2d636f60448201527f6e747261637400000000000000000000000000000000000000000000000000006064820152608401610c67565b600080846001600160a01b031684604051613e819190614cba565b600060405180830381855af49150503d8060008114613ebc576040519150601f19603f3d011682016040523d82523d6000602084013e613ec1565b606091505b5091509150613ee98282604051806060016040528060278152602001614d236027913961412e565b95945050505050565b6040516001600160a01b038316602482015260448101829052610b5b9084907fa9059cbb00000000000000000000000000000000000000000000000000000000906064015b60408051601f198184030181529190526020810180517bffffffffffffffffffffffffffffffffffffffffffffffffffffffff167fffffffff0000000000000000000000000000000000000000000000000000000090931692909217909152614147565b6040516001600160a01b03808516602483015283166044820152606481018290526111d29085907f23b872dd0000000000000000000000000000000000000000000000000000000090608401613f37565b600081815260018301602052604081205461403357508154600181810184556000848152602080822090930184905584548482528286019093526040902091909155610a77565b506000610a77565b6000818152600183016020526040812054801561412457600061405f600183614b4b565b855490915060009061407390600190614b4b565b90508181146140d8576000866000018281548110614093576140936149f4565b90600052602060002001549050808760000184815481106140b6576140b66149f4565b6000918252602080832090910192909255918252600188019052604090208390555b85548690806140e9576140e9614cd6565b600190038181906000526020600020016000905590558560010160008681526020019081526020016000206000905560019350505050610a77565b6000915050610a77565b6060831561413d575081611ae1565b611ae1838361422c565b600061419c826040518060400160405280602081526020017f5361666545524332303a206c6f772d6c6576656c2063616c6c206661696c6564815250856001600160a01b03166142569092919063ffffffff16565b805190915015610b5b57808060200190518101906141ba9190614d05565b610b5b5760405162461bcd60e51b815260206004820152602a60248201527f5361666545524332303a204552433230206f7065726174696f6e20646964206e60448201527f6f742073756363656564000000000000000000000000000000000000000000006064820152608401610c67565b81511561423c5781518083602001fd5b8060405162461bcd60e51b8152600401610c679190614c3b565b6060614265848460008561426d565b949350505050565b6060824710156142e55760405162461bcd60e51b815260206004820152602660248201527f416464726573733a20696e73756666696369656e742062616c616e636520666f60448201527f722063616c6c00000000000000000000000000000000000000000000000000006064820152608401610c67565b600080866001600160a01b031685876040516143019190614cba565b60006040518083038185875af1925050503d806000811461433e576040519150601f19603f3d011682016040523d82523d6000602084013e614343565b606091505b50915091506143548783838761435f565b979650505050505050565b606083156143ce5782516000036143c7576001600160a01b0385163b6143c75760405162461bcd60e51b815260206004820152601d60248201527f416464726573733a2063616c6c20746f206e6f6e2d636f6e74726163740000006044820152606401610c67565b5081614265565b614265838361422c565b6000602082840312156143ea57600080fd5b81357fffffffff0000000000000000000000000000000000000000000000000000000081168114611ae157600080fd5b60006020828403121561442c57600080fd5b5035919050565b6000806040838503121561444657600080fd5b50508035926020909101359150565b7f4e487b7100000000000000000000000000000000000000000000000000000000600052604160045260246000fd5b604051601f8201601f1916810167ffffffffffffffff811182821017156144ad576144ad614455565b604052919050565b600067ffffffffffffffff8211156144cf576144cf614455565b5060051b60200190565b600082601f8301126144ea57600080fd5b813560206144ff6144fa836144b5565b614484565b82815260059290921b8401810191818101908684111561451e57600080fd5b8286015b848110156145395780358352918301918301614522565b509695505050505050565b80356001600160a01b038116811461455b57600080fd5b919050565b600082601f83011261457157600080fd5b813560206145816144fa836144b5565b82815260059290921b840181019181810190868411156145a057600080fd5b8286015b84811015614539576145b581614544565b83529183019183016145a4565b600080604083850312156145d557600080fd5b823567ffffffffffffffff808211156145ed57600080fd5b6145f9868387016144d9565b9350602085013591508082111561460f57600080fd5b5061461c85828601614560565b9150509250929050565b6000806040838503121561463957600080fd5b8235915061464960208401614544565b90509250929050565b60006020828403121561466457600080fd5b611ae182614544565b6000806040838503121561468057600080fd5b61468983614544565b915060208084013567ffffffffffffffff808211156146a757600080fd5b818601915086601f8301126146bb57600080fd5b8135818111156146cd576146cd614455565b6146df84601f19601f84011601614484565b915080825287848285010111156146f557600080fd5b80848401858401376000848284010152508093505050509250929050565b8015158114610e1457600080fd5b60008060008060008060c0878903121561473a57600080fd5b863567ffffffffffffffff8082111561475257600080fd5b61475e8a838b016144d9565b975060209150818901358181111561477557600080fd5b6147818b828c01614560565b97505060408901358181111561479657600080fd5b89019050601f81018a136147a957600080fd5b80356147b76144fa826144b5565b81815260059190911b8201830190838101908c8311156147d657600080fd5b928401925b828410156147fd5783356147ee81614713565b825292840192908401906147db565b809850505050505061481160608801614544565b92506080870135915060a087013590509295509295509295565b60008083601f84011261483d57600080fd5b50813567ffffffffffffffff81111561485557600080fd5b6020830191508360208260051b850101111561487057600080fd5b9250929050565b60008060008060006060868803121561488f57600080fd5b85359450602086013567ffffffffffffffff808211156148ae57600080fd5b6148ba89838a0161482b565b909650945060408801359150808211156148d357600080fd5b506148e08882890161482b565b969995985093965092949392505050565b60006020828403121561490357600080fd5b813567ffffffffffffffff81111561491a57600080fd5b614265848285016144d9565b60008060006060848603121561493b57600080fd5b833567ffffffffffffffff8082111561495357600080fd5b61495f878388016144d9565b9450602086013591508082111561497557600080fd5b50614982868287016144d9565b92505061499160408501614544565b90509250925092565b600080604083850312156149ad57600080fd5b823567ffffffffffffffff808211156149c557600080fd5b6149d1868387016144d9565b935060208501359150808211156149e757600080fd5b5061461c858286016144d9565b7f4e487b7100000000000000000000000000000000000000000000000000000000600052603260045260246000fd5b7f4e487b7100000000000000000000000000000000000000000000000000000000600052601160045260246000fd5b60007fffffffffffffffffffffffffffffffffffffffffffffffffffffffffffffffff8203614a8357614a83614a23565b5060010190565b7f4e487b7100000000000000000000000000000000000000000000000000000000600052602160045260246000fd5b600060208284031215614acb57600080fd5b5051919050565b600081518084526020808501945080840160005b83811015614b0257815187529582019590820190600101614ae6565b509495945050505050565b60006001600160a01b03808716835280861660208401525060806040830152614b396080830185614ad2565b82810360608401526143548185614ad2565b81810381811115610a7757610a77614a23565b604081526000614b716040830185614ad2565b8281036020840152613ee98185614ad2565b80820180821115610a7757610a77614a23565b60005b83811015614bb1578181015183820152602001614b99565b50506000910152565b7f416363657373436f6e74726f6c3a206163636f756e7420000000000000000000815260008351614bf2816017850160208801614b96565b7f206973206d697373696e6720726f6c65200000000000000000000000000000006017918401918201528351614c2f816028840160208801614b96565b01602801949350505050565b6020815260008251806020840152614c5a816040850160208701614b96565b601f01601f19169190910160400192915050565b8082028115828204841417610a7757610a77614a23565b600081614c9457614c94614a23565b507fffffffffffffffffffffffffffffffffffffffffffffffffffffffffffffffff0190565b60008251614ccc818460208701614b96565b9190910192915050565b7f4e487b7100000000000000000000000000000000000000000000000000000000600052603160045260246000fd5b600060208284031215614d1757600080fd5b8151611ae18161471356fe416464726573733a206c6f772d6c6576656c2064656c65676174652063616c6c206661696c6564a264697066735822122007f99f748cf711f81631005ad20e08cb6459f3d5ebde6fb628da8ba5d366a9b364736f6c63430008110033",
  "linkReferences": {},
  "deployedLinkReferences": {}
}